:100000000C9415030C944C0D0C943D030C943D037F
:100010000C943D030C943D030C943D030C943D0360
:100020000C943D030C943D030C943D030C94E40D9F
:100030000C943D030C943D030C946E0C0C943D0306
:100040000C944C1E0C943D030C943C0C0C94160C1C
:100050000C943D030C943D030C943D030C943D0320
:100060000C94AB1C0C943D03EF03038002CF030000
:10007000C130ED0464031281E803850078CB0539B3
:100080002C003402F70120EA020000C00123C10164
:1000900010C5023E28C701863601483701003A01E3
:1000A00055B1020018B603088227F20100260101AB
:1000B000E00F0F312B0C0E084EF1370710030E091D
:1000C00000E10F000E1403110731C148080F0C3175
:1000D000360F1180298000010204081020408001A1
:1000E000020408102001020408102000000000256E
:1000F0000028002B00040404040404040402020287
:10010000020202030303030303000000002400278C
:10011000002A00000000080002010000030407009C
:100120000000000000000000000000003E5B4F5B8C
:100130003E3E6B4F6B3E1C3E7C3E1C183C7E3C188A
:100140001C577D571C1C5E7F5E1C00183C1800FF6E
:10015000E7C3E7FF0018241800FFE7DBE7FF30489C
:100160003A060E2629792926407F050507407F0596
:10017000253F5A3CE73C5A7F3E1C1C08081C1C3E8D
:100180007F14227F22145F5F005F5F06097F017F7B
:10019000006689956A606060606094A2FFA294081E
:1001A000047E040810207E201008082A1C08081C61
:1001B0002A08081E101010100C1E0C1E0C30383EA1
:1001C0003830060E3E0E06000000000000005F0002
:1001D000000007000700147F147F14242A7F2A12CE
:1001E00023130864623649562050000807030000B4
:1001F0001C2241000041221C002A1C7F1C2A0808E6
:100200003E080800807030000808080808000060F8
:10021000600020100804023E5149453E00427F40E4
:100220000072494949462141494D331814127F1043
:1002300027454545393C4A4949314121110907368D
:1002400049494936464949291E000014000000402A
:100250003400000008142241141414141400412224
:10026000140802015909063E415D594E7C121112D3
:100270007C7F494949363E414141227F4141413ECF
:100280007F494949417F090909013E414151737F35
:100290000808087F00417F41002040413F017F085E
:1002A0001422417F404040407F021C027F7F0408AF
:1002B000107F3E4141413E7F090909063E415121DF
:1002C0005E7F09192946264949493203017F010306
:1002D0003F4040403F1F2040201F3F4038403F6389
:1002E0001408146303047804036159494D43007FE3
:1002F0004141410204081020004141417F040201B4
:100300000204404040404000030708002054547855
:10031000407F284444383844444428384444287FA3
:10032000385454541800087E090218A4A49C787FFD
:100330000804047800447D40002040403D007F10C8
:1003400028440000417F40007C047804787C080445
:1003500004783844444438FC1824241818242418F9
:10036000FC7C08040408485454542404043F4424E6
:100370003C4040207C1C2040201C3C4030403C4401
:10038000281028444C9090907C4464544C440008BD
:1003900036410000007700000041360800020102EB
:1003A00004023C2623263C1EA1A161123A404020B3
:1003B0007A3854545559215555794122545478422C
:1003C000215554784020545579400C1E52721239F0
:1003D00055555559395454545939555454580000A9
:1003E000457C410002457D420001457C407D121163
:1003F000127DF0282528F07C545545002054547C6B
:10040000547C0A097F4932494949323A4444443AC2
:10041000324A4848303A4141217A3A4240207800F5
:100420009DA0A07D3D4242423D3D4040403D3C2498
:10043000FF2424487E4943662B2FFC2F2BFF0929DC
:10044000F620C0887E090320545479410000447D81
:10045000413048484A32384040227A007A0A0A72CB
:100460007D0D19317D2629292F2826292929263075
:10047000484D4020380808080808080808382F1098
:10048000C8ACBA2F102834FA00007B000008142AE8
:10049000142222142A14085500550055AA55AA55AD
:1004A000AAFF55FF55FF000000FF00101010FF00CD
:1004B000141414FF001010FF00FF1010F010F014BF
:1004C0001414FC001414F700FF0000FF00FF1414C4
:1004D000F404FC141417101F10101F101F14141410
:1004E0001F00101010F0000000001F101010101F4F
:1004F00010101010F010000000FF1010101010105D
:10050000101010FF10000000FF140000FF00FF009B
:10051000001F10170000FC04F41414171017141413
:10052000F404F40000FF00F714141414141414F766
:1005300000F7141414171410101F101F141414F4BF
:10054000141010F010F000001F101F0000001F1406
:10055000000000FC140000F010F01010FF10FF1459
:100560001414FF141010101F00000000F010FFFF03
:10057000FFFFFFF0F0F0F0F0FFFFFF0000000000D1
:10058000FFFF0F0F0F0F0F3844443844FC4A4A4A0C
:10059000347E02020606027E027E026355494163F2
:1005A0003844443C04407E201E2006027E0202990C
:1005B000A5E7A5991C2A492A1C4C7201724C304AA5
:1005C0004D4D303048784830BC625A463D3E49492E
:1005D00049007E0101017E2A2A2A2A2A44445F44D6
:1005E0004440514A444040444A51400000FF010306
:1005F000E080FF000008086B6B08361236243606D0
:100600000F090F06000018180000001010003040FD
:10061000FF0101001F01011E00191D1712003C3CC3
:100620003C3C0000000000005D2411241FBECFEF01
:10063000D8E0DEBFCDBF11E0A0E0B1E0E4E1F4E539
:1006400002C005900D92AC3FB107D9F725E0ACEFA1
:10065000B1E001C01D92AE3CB207E1F713E0C5E185
:10066000D3E004C02197FE010E94F126C431D107D6
:10067000C9F70E942C230C94082A0C940000DC017A
:10068000ED91FC91A081B1818D919C911197861B78
:10069000970B8D939C93A281B3818D919C9111971F
:1006A000861B970B8D939C93A481B5818D919C9112
:1006B0001197861B970B8D939C930680F781E02DF5
:1006C00080819181861B970B918380830895EF929F
:1006D000FF921F93CF93DF93FC01A081B1819D0115
:1006E000285F3F4FED0140E050E01AE08991999179
:1006F000FC0162817381169F7001179FF00C112419
:1007000080819181F701E80FF91FEE0FFF1FE45F71
:10071000FC4F80819181480F591FC217D30731F7D1
:10072000452BD1F46AE041E050E0CD91DD918A8122
:100730009B81689FF001699FF00D11248881998148
:10074000E80FF91FEE0FFF1FE45FFC4F518340835A
:100750002A173B0751F703C081E08093EA03DF913A
:10076000CF911F91FF90EF9008952CE033E080E04F
:1007700090E040E050E0F901E40FF51F60817181E5
:100780006130710509F401964E5F5F4F44315105A8
:1007900091F72C5E3F4F43E0283E340751F7089510
:1007A000089580E090E008954F925F926F927F925B
:1007B0008F929F92AF92BF92CF92DF92EF92FF9271
:1007C0000F931F93CF93DF93CDB7DEB7CC5DD109E5
:1007D0000FB6F894DEBF0FBECDBF5C016B018E017A
:1007E0000F5F1F4F8CEDD8011D928A95E9F780911C
:1007F000010190E00E94AE14BCE0EB2EB3E0FB2EB2
:10080000A801970180E090E0FA01E80FF91FD901F3
:10081000A80FB91F6D917C9171836083029684311A
:10082000910591F72C5E3F4F4C5E5F4FB3E0283E41
:100830003B0741F70E94B5034C01D501ED91FC91B6
:100840009F01AF01485F5F4FCF01AAE05A2EDC0144
:100850006D907D90CD01D30112966D917C9113978F
:100860006D907C90569ED001579EB00D1124A60D20
:10087000B71DAA0FBB1FA45FBC4F1D921C92481747
:10088000590729F7A081B1818D919C9111978C0D09
:100890009D1D8D939C93A281B3818D919C91119705
:1008A0008C0D9D1D8D939C93A481B5818D919C9100
:1008B00011978C0D9D1D8D939C930680F781E02DE3
:1008C000808191818C0D9D1D918380839AE0792E8A
:1008D00044244394512CD901ED91FD919D018081D7
:1008E00091818A309105A8F40280F381E02D7E9EEB
:1008F000B0017F9E700D1124FB01E80FF91FEE0F70
:10090000FF1FE45FFC4F518240824A175B0719F7D3
:1009100036C09E0123523F4F80E090E0F701E80F80
:10092000F91FD801A80FB91F4D915C9151834083E5
:1009300002968431910591F70C5E1F4FB4E1EB0EE6
:10094000F11C0217130741F7B601C501C452DF4F6E
:100950000FB6F894DEBF0FBECDBFDF91CF911F91D0
:100960000F91FF90EF90DF90CF90BF90AF909F904E
:100970008F907F906F905F904F900C943F030E94F8
:10098000B50388169906E1F09E0123523F4F80E09F
:1009900090E0F701E80FF91FD801A80FB91F4D919A
:1009A0005C915183408302968431910591F70C5EEE
:1009B0001F4FE4E1EE0EF11C2017310741F7C4CFC1
:1009C000C452DF4F0FB6F894DEBF0FBECDBFDF912C
:1009D000CF911F910F91FF90EF90DF90CF90BF903C
:1009E000AF909F908F907F906F905F904F90089501
:1009F00086E090E00E940C28DC01EEEFF1E020811F
:100A00002D93119222E0E430F207C9F708950F9375
:100A10001F93CF93DF93EC01009791F588E090E06E
:100A20000E940C28EC010E94E414E881F981A08165
:100A3000B18184E090E011969C938E9313961C9262
:100A40001E921297A281B38125E030E011963C936B
:100A50002E9313961C921E921297A481B581119623
:100A60009C938E9381E090E013969C938E931297C3
:100A70000680F781E02D31832083938382834DC1EB
:100A800081309105A9F588E090E00E940C288C0146
:100A90000E94E414D801ED91FC91A081B18184E021
:100AA00090E011969C938E9313961C921E9212972F
:100AB000A281B38125E030E011963C932E931396EA
:100AC0001C921E921297A481B58111969C938E93CD
:100AD0001396DC93CE9312970680F781E02D83E086
:100AE00090E091838083D383C28382E090E06CC0E6
:100AF00082309105A1F588E090E00E940C28EC017D
:100B00000E94E414E881F981A081B18184E090E041
:100B100011969C938E9313961C921E921297A2810B
:100B2000B38183E090E011969C938E9313961C9270
:100B30001E921297A481B58125E030E011963C9376
:100B40002E9313961C921E9212970680F781E02D29
:100B500026E030E03183208313821282DEC08330AE
:100B60009105B1F588E090E00E940C288C010E946C
:100B7000E414D801ED91FC91A081B18184E090E072
:100B800011969C938E9313961C921E921297A2819B
:100B9000B3811196DC93CE9313961C921E921297FA
:100BA000A481B58111969C938E9321E030E0139639
:100BB0003C932E9312970680F781E02D45E050E09C
:100BC0005183408333832283F801938382836CC0F3
:100BD0008430910589F588E090E00E940C288C0112
:100BE0000E94E414D801ED91FC91A081B18111968D
:100BF000DC93CE9313961C921E921297A281B3811E
:100C00001196DC93CE9381E090E013969C938E93A3
:100C10001297A481B58125E030E011963C932E9384
:100C200013969C938E9312970680F781E02D43E0F4
:100C300050E05183408333C085309105B9F588E099
:100C400090E00E940C288C010E94E414D801ED91E0
:100C5000FC91A081B18184E090E011969C938E93E9
:100C600013961C921E921297A281B38111969C93A7
:100C70008E9381E090E013969C938E931297A481BB
:100C8000B5811196DC93CE9313969C938E93129715
:100C90000680F781E02D26E030E0318320839383C6
:100CA0008283F80133832283C8013BC00697C9F5CC
:100CB00088E090E00E940C28EC010E94E414E88196
:100CC000F981A081B18184E090E011969C938E938C
:100CD00013961C921E921297A281B38111969C9337
:100CE0008E9381E090E013969C938E931297A4814B
:100CF000B58123E030E011963C932E9313969C939C
:100D00008E9312970680F781E02D22E030E0318348
:100D100020839383828387E090E09B838A83CE0144
:100D200000C0DF91CF911F910F910895EF92FF9234
:100D30000F931F93780189019A01AB01BC0185E3F0
:100D400095E00E9419121F910F91FF90EF90089566
:100D50008F929F92AF92BF92CF92DF92EF92FF92CB
:100D60000F931F93CF93DF937C01EB0126E0249F29
:100D7000C001259F900D11249C01245F3E4F690105
:100D8000F9010081118124E130E044E150E0C70124
:100D90000E94960605E619E223E030E044E150E0C7
:100DA000BE01C7010E94960624E130E043E050E016
:100DB000BE01C7010E949606BE016F5E7F4F23E011
:100DC00030E044E150E0C7010E94960624E130E0A3
:100DD00043E050E0BE01C70141960E949606F6012D
:100DE000828093805701F3E0AF0EB11CBE01615FBA
:100DF0007F4F840122E030E04EE050E0C5010E94C8
:100E0000960623962EE030E042E050E0BE01C70196
:100E10000F960E949606F601E480F580870122E095
:100E200030E04EE050E0BE01C5010E9496062EE083
:100E300030E042E050E0BE01C5010E949606DF911D
:100E4000CF911F910F91FF90EF90DF90CF90BF90C7
:100E5000AF909F908F9008956F927F928F929F9204
:100E6000AF92BF92CF92DF92EF92FF920F931F93B8
:100E7000CF93DF939CE0A92E93E0B92E4501C4E601
:100E8000D0E0C12CD12C84E1E82EF12C3E0184E687
:100E9000681A7108F601E60DF71DEA5FFD4F8081C3
:100EA00091818130910591F4F401EC0DFD1D80815B
:100EB0009181892BF1F400E010E024E130E044E17D
:100EC00050E0BE01C7010E94960613C0892B89F429
:100ED000F401EC0DFD1D80819181019751F4E091A9
:100EE0000504F091060442815381BE01C7010E94AE
:100EF000A80684E1E80EF11C82E0C80ED11C8CED3E
:100F0000E816F10439F6649684E1880E911CC03429
:100F100081E0D80709F0B5CF26E032E048EE53E093
:100F200080E090E0F901E80FF91FD501A80FB91F83
:100F30006D917C917183608302968431910591F764
:100F400084E1A80EB11C2C5E3F4F4A155B0541F7AA
:100F5000DF91CF911F910F91FF90EF90DF90CF9095
:100F6000BF90AF909F908F907F906F900895EF9279
:100F7000FF920F931F93CF93DF9300D000D000D048
:100F8000CDB7DEB77C0100E010E020E431E040EFB7
:100F900050E060E070E080E090E00E949606D701AB
:100FA0008D919C9190930804809307048130910562
:100FB00009F44FC0D8F0039709F0C5C16DEE71E098
:100FC000CE0101960E94D91D00E018EF9E012F5F0F
:100FD0003F4F42E050E062E370E08CE390E00E941B
:100FE0005A16CE0101960E945216ADC160EC71E016
:100FF000CE0101960E94D91D00EE1FEF9E012F5FCA
:101000003F4F42E050E062E370E08CE390E00E94EA
:101010005A16CE0101960E9452166BEC71E0CE0179
:1010200001960E94D91D9E012F5F3F4F42E050E084
:1010300060E570E08CE390E00E945A16CE010196C4
:101040000E94521660EE7FEF87E390E00E94D81670
:101050007AC10CE211E040E050E0B80180E090E09D
:101060000E94A80640E050E0B8018CED90E00E949C
:10107000A806045111090C33110569F704E110E0C9
:1010800040E050E060E570E0C8010E94A8060C5EF8
:101090001F4F0C3D1105A1F763E270E08EE190E077
:1010A0000E94871663E270E088E290E00E94871653
:1010B0006DE270E08EE190E00E94871685E6E82EF2
:1010C00089E2F82E0EE310E02EE330E049E050E034
:1010D00069E070E085E395E00E94210E0CE310E0EA
:1010E0002CE330E04AE050E06AE070E085E395E010
:1010F0000E94210E05E619E22CE030E04CE350E0BE
:101100006AE070E08AE090E00E94960668ED71E087
:10111000CE0101960E94D91D0FEF1FEF9E012F5F98
:101120003F4F41E050E06DE070E08DE190E00E94C3
:101130005A16CE0101960E94521663E270E08EEBC1
:1011400090E00E94871663E270E088EC90E00E94D5
:1011500087166DE270E08EEB90E00E9487166DE2DC
:1011600070E088EC90E00E9487160EE310E02EE31A
:1011700030E049E050E069EA70E085E395E00E94E4
:10118000210E0CE310E02CE330E04AE050E06AEA84
:1011900070E085E395E00E94210E05E619E22CE05F
:1011A00030E04CE350E06AE070E08AEA90E00E94B0
:1011B00096066DED71E0CE0101960E94D91D0FEFEC
:1011C0001FEF9E012F5F3F4F41E050E06DE070E068
:1011D0008CEB90E00E945A16CE0101960E945216A6
:1011E00062EE71E0CE0101960E94D91D9E012F5F33
:1011F0003F4F41E050E069E170E089E690E00E94F5
:101200005A16CE0101960E94521669EE71E0CE0187
:1012100001960E94D91D9E012F5F3F4F42E050E092
:1012200063E270E089E690E00E945A16CE010196D2
:101230000E94521610928000809181008D608093F0
:1012400081001092820084E693E09093890080935D
:101250008800109285001092840080916F00826057
:1012600080936F000E94822567E070E00E94BA269A
:101270000E94070590930604809305040E9467036B
:101280000E942C070E94271ECB010E948725809177
:10129000030490910404892B09F04FC00E94822519
:1012A0006FE370E00E94BA268C019093040480934F
:1012B000030483E090E00E940C28FC01108201836B
:1012C00081E0828380E090E0A801552761E070E032
:1012D0009A01082E02C0359527950A94E2F720FF5F
:1012E0000DC09C012E5F3F4FDB0102C0AA0FBB1F48
:1012F0002A95E2F79D013081232B208301968630C9
:10130000910531F78091010490910204DC01A35111
:10131000BC4F208121602C9301969093020480930E
:1013200001048091EB039091EC0301969093EC0300
:101330008093EB03C8010E9487258091030490915C
:1013400004040E94AE1426960FB6F894DEBF0FBEBA
:10135000CDBFDF91CF911F910F91FF90EF90089536
:101360004F925F927F928F929F92AF92BF92CF9255
:10137000DF92EF92FF920F931F93CF93DF93CDB73E
:10138000DEB7CC5DD1090FB6F894DEBF0FBECDBF7E
:101390008091070490910804009721F0019709F0CB
:1013A0002EC2CBC0E090F402F090F502E114F104FB
:1013B00091F40E94F8048C01DC0114968C9188232E
:1013C00009F470C081E090E09A838983CE01019690
:1013D0000E94B70767C084E190E00E940C288C014E
:1013E0005C01DC01E6EFF2E081918D9383E0EA306D
:1013F000F807D1F7E6EFF2E0CF01865F92408E1555
:101400009F0514F41192F8CF1092F5021092F40295
:101410006801A4E1CA0ED11C912CEE24E394F12CB6
:10142000F50181915F01882389F1482F50E0982FC1
:10143000917081FD926080E020E030E0B9016E5F44
:101440007F4FDA0102C0B595A7956A95E2F7A0FF34
:1014500007C0B701022E01C0660F0A94EAF7862B77
:101460002F5F3F4F2630310549F7913079F490E0F6
:1014700090930404809303040E948725FA82E982F2
:10148000CE0101960E94B70799249394CA14DB04F5
:1014900039F60115110519F0C8010E94A428911010
:1014A000AEC187CFF801F280F11004C083818111B1
:1014B00008C03DC080910A0390910B03892B39F439
:1014C00036C080910A0390910B03019781F120911E
:1014D0000A0330910B034EE1429FC001439F900DE0
:1014E000112460E070E0C7960E94D81680910A032C
:1014F00090910B03FF2021F0009711F0019704C099
:101500008130910529F0019690930B0380930A0393
:1015100020910A0330910B034EE1429FC001439F8B
:10152000900D112460EE7FEFC7960E94D81601152A
:10153000110509F464C1C80160C18091EA038823E0
:1015400059F083E090E09A838983CE0101960E944E
:10155000B7070E94B00953C18091E903882309F4B9
:101560004EC10E94F8046C0180910101882309F4A6
:1015700004C1D6018C91882319F061E070E006C0A7
:10158000F6018181882341F06FEF7FEF80910504A0
:10159000909106040E94D4038091E803882309F403
:1015A000E8C08090050490900604FE0131968CED11
:1015B000DF011D928A95E9F7ACE0EA2EA3E0FA2E4E
:1015C0008F01AF01970180E090E0FA01E80FF91F69
:1015D000D901A80FB91F6D917C9171836083029628
:1015E0008431910591F72C5E3F4F4C5E5F4FB3E025
:1015F000283E3B0741F70E94B5035C01D401ED9101
:10160000FC912F019F01285F3F4FCF017AE0772E99
:10161000DC014D915D91CD01DA0112966D917C91C5
:1016200013978D909C90769EA001779E500D11246B
:10163000480D591D440F551F445F5C4FDA011D9240
:101640001C922817390721F740815181DA0112963F
:101650008D919C911397019613969C938E9312975C
:1016600042815381DA0112968D919C9113970196D4
:1016700013969C938E93129744815581DA011296AA
:101680008D919C911397019613969C938E9312972C
:101690000680F781E02D8281938101969383828376
:1016A0005AE0952EE1E0F0E0D2018D919D912D015F
:1016B000DC0112964D915C9113974B305105A4F4C7
:1016C0008D919C91949EB001959E700D1124860F72
:1016D000971F880F991F845F9C4FDC01ED93FC934B
:1016E0002415350509F71EC09E0123523F4F80E0A7
:1016F00090E0F701E80FF91FD801A80FB91F4D912D
:101700005C915183408302968431910591F70C5E80
:101710001F4FB4E1EB0EF11C2017310741F7109277
:10172000010125C080910101882309F10E94B503C0
:10173000A816B906E1F09E0123523F4F80E090E0E9
:10174000F701E80FF91FD801A80FB91F4D915C915F
:101750005183408302968431910591F70C5E1F4FAF
:10176000E4E1EE0EF11C0217130741F7D8CF1092F7
:10177000E80380910101811138C0009105041091A6
:10178000060401151105F1F0E12CF12CD801ED91C1
:10179000FC91EE0DFF1D80819181009711F00E9458
:1017A000A428B2E0EB0EF11CE8E0EE16F10471F7AC
:1017B000D8018D919C91009711F00E94A428C80136
:1017C0000E94A4280E94822567E070E00E94BA2649
:1017D0000E94070590930604809305040E94670306
:1017E00081E0809301011092E8031092E9030E94C6
:1017F0002C07C114D10419F0C6010E94A428C452B8
:10180000DF4F0FB6F894DEBF0FBECDBFDF91CF9193
:101810001F910F91FF90EF90DF90CF90BF90AF900E
:101820009F908F907F905F904F9008951F920F929E
:101830000FB60F9211242F933F934F935F936F93A3
:101840007F938F939F93AF93BF93EF93FF9388E919
:1018500094E00E94961EFF91EF91BF91AF919F91EE
:101860008F917F916F915F914F913F912F910F9049
:101870000FBE0F901F9018951F920F920FB60F92E8
:1018800011242F938F939F93EF93FF93E091A804DC
:10189000F091A9048081E091AE04F091AF0482FD43
:1018A00012C090818091B1048F5F8F732091B20438
:1018B000821751F0E091B104F0E0E856FB4F958FAC
:1018C0008093B10401C08081FF91EF919F918F912E
:1018D0002F910F900FBE0F901F9018951F920F928F
:1018E0000FB60F9211242F933F934F935F938F93D3
:1018F0009F93EF93FF938091F302882381F180916E
:10190000F20281112CC08091F0029091F1020196B7
:101910009093F1028093F002843A964009F0AFC0B0
:101920001092E8021092E7021092F30281E0809395
:1019300000011092F1021092F0028091F402909155
:10194000F502FC01EA50FD4F2091E602208301964A
:101950009093F5028093F4021092E60290C0809179
:10196000EB039091EC03892B09F489C08091F2027A
:10197000811120C081E08093F2022091ED032223A7
:10198000B9F0EDEEF3E041E054E08181811102C055
:10199000108201C0808331964E175F07B1F78091A6
:1019A0000104909102040197909302048093010432
:1019B0002093EF022091ED023091EE028091EB0234
:1019C0009091EC022817390709F050C08091E90284
:1019D0009091EA02009731F484B5806484BD81E07F
:1019E00090E03CC08930910571F1E4F084B58F7BC3
:1019F00084BD8091E9029091EA0201968A339105B3
:101A000069F51092EA021092E9025A9A8091EB036A
:101A10009091EC0301979093EC038093EB03109269
:101A2000F20220C0019721E030E0A90102C0440F7A
:101A3000551F8A95E2F7CA012091EF0230E0822318
:101A40009323892B19F084B5806402C084B58F7B01
:101A500084BD8091E9029091EA0201969093EA0296
:101A60008093E9021092EE021092ED028091ED0255
:101A70009091EE0201969093EE028093ED02FF9119
:101A8000EF919F918F915F914F913F912F910F9087
:101A90000FBE0F901F9018951F920F920FB60F92C6
:101AA0001124FF920F931F932F933F934F935F93B4
:101AB0006F937F938F939F93AF93BF93CF93DF9356
:101AC000EF93FF938091F202811168C08091F3023D
:101AD000811104C081E08093F30260C06091F00244
:101AE0007091F102072E000C880B990B0E9494252F
:101AF0002091E2023091E3024091E4025091E5022C
:101B00000E94642720E030E040E05FE30E94F82676
:101B10000E94D6278B012091E7023091E802232B07
:101B200041F40150110921E030E03093E8022093A4
:101B3000E702709100012091E7023091E802609184
:101B4000E60240E050E0F9013197A1E0B0E0401733
:101B500051077CF4772351F0EF01C40FD51FCD015D
:101B600002C0880F991FCA95E2F7682B4F5F5F4F3D
:101B7000EECFC80117FF02C080E090E0820F931FF4
:101B80009093E8028093E7026093E6021092F102DC
:101B90001092F00281E0872780930001FF91EF917E
:101BA000DF91CF91BF91AF919F918F917F916F9175
:101BB0005F914F913F912F911F910F91FF900F9047
:101BC0000FBE0F901F9018951F920F920FB60F9295
:101BD00011248F939F9380910402909105020697A0
:101BE00039F481E08093E803109205021092040218
:101BF00081E08093E90380910402909105020196AF
:101C000090930502809304029F918F910F900FBED5
:101C10000F901F9018950895FC016370668B848166
:101C2000958126813781613039F0633029F09187C1
:101C3000808733872287089531872087938782871B
:101C400008956F927F928F929F92AF92BF92CF92A0
:101C5000DF92EF92FF920F931F93CF93DF93EC01EC
:101C60004B015A0169013801E881F9810284F38549
:101C7000E02D0995E881F9810288F389E02D87013B
:101C80009601A501B401CE010995A501460D571D88
:101C900041505109E881F9810288F389E02D9601CC
:101CA000B401CE010995E881F9810088F189E02D20
:101CB0009301A501B401CE010995C80CD91CB60148
:101CC00061507109E881F9810088F189E02D930163
:101CD000A501CE010995E881F9810688F789E02DF3
:101CE000CE01DF91CF911F910F91FF90EF90DF9088
:101CF000CF90BF90AF909F908F907F906F900994FE
:101D00008F929F92AF92BF92CF92DF92EF92FF920B
:101D10000F931F93CF93DF934C016B015A01E9019D
:101D2000DC01ED91FC916217730781F4041715072C
:101D300024F48B2D5801042F182F0A191B09980120
:101D40002F5F3F4F048CF58DE02D12C040175107D7
:101D500009F52617370724F48D2D6901C62FD82FD2
:101D60009E012C193D092F5F3F4F068CF78DE02D0A
:101D70008701A501B601C4010995DF91CF911F919B
:101D80000F91FF90EF90DF90CF90BF90AF909F901A
:101D90008F9008950284F385E02D0995D401ED918B
:101DA000FC910488F589E02D9E01A501B601C401CE
:101DB0000995D401ED91FC910688F789E02DC401C5
:101DC000DF91CF911F910F91FF90EF90DF90CF9017
:101DD000BF90AF909F908F900994EF92FF920F93D6
:101DE0001F93DC011A960D911C911B9718962D914B
:101DF0003C911997ED91FC9100A0F1A1E02D7B01A0
:101E000040E050E060E070E009951F910F91FF9075
:101E1000EF900895CF92DF92EF92FF920F931F936E
:101E2000CF93DF93EC016A017B01452B462B472BB7
:101E300031F4C12C42E1D42E4AE7E42EF12C8FA9D3
:101E400087FD07C061E00E94F02261E08FA90E9437
:101E5000A32261E088AD0E94F02261E088AD0E947B
:101E6000A3228DA9811152C040E052E16AE770E0DF
:101E700090E0C416D506E606F70640F47695679519
:101E8000579547959F5F9630A1F797E081E08927A6
:101E9000982F906A969599A381708AA31BA21CA281
:101EA0001DA21EA21FB7F89480910904811127C0BA
:101EB000EFEFF0E08491E1EEF0E09491E82FF0E0B4
:101EC000EE0FFF1FE75FFE4FA591B491EC91E92360
:101ED00021F461E08AE00E94A32261E08AE00E948E
:101EE000F0228CB580618CBD8CB580648CBD61E0C6
:101EF0008DE00E94F02261E08BE00E94F022809150
:101F000009048F5F809309041FBF4BC08130B9F46F
:101F100061E08AA50E94F02260E08AA50E94A322C7
:101F200061E08CA50E94F02260E08CA50E94A322B3
:101F30008BA587FD36C060E00E94F02232C005EF1D
:101F400010E0F12CF8018491E82FF0E0EE0FFF1F74
:101F5000E551FF4F859194912F8D38A128173907AE
:101F600041F461E08F2D0E94F02260E08F2D0E94ED
:101F7000A322F3940F5F1F4FF4E1FF12E3CF61E060
:101F80008EA50E94F02261E08EA50E94A3228FA55B
:101F900087FD07C061E00E94F02261E08FA50E94EA
:101FA000A3228EA987FD2AC061E00E94F02261E091
:101FB0008EA90E94A3222FEF81EE94E02150804051
:101FC0009040E1F700C0000060E08EA90E94A322CB
:101FD000EFEFF1EE24E0E150F0402040E1F700C0E7
:101FE000000061E08EA90E94A3228FEF93ECE9E04C
:101FF00081509040E040E1F700C000008EA987FFCB
:1020000010C020E040E050E061E0CE010E94F11FEE
:10201000FFEF22E587E0F15020408040E1F700C06B
:102020000000E8E6F0E0CF01019664916623E1F05C
:102030008F010E5F1F4FFC01F490FF2DFF77EF2EF5
:102040002F2FA801CE010E94F11FF801EE0DF11D06
:10205000F7FEE9CF2FEF82E597E0215080409040D6
:10206000E1F700C00000DFCF80EF90E0998788871C
:1020700080E491E09B878A87DF91CF911F910F9138
:10208000FF90EF90DF90CF9008958F929F92AF9244
:10209000BF92CF92DF92EF92FF920F931F93CF9355
:1020A000DF935C014B016A01E90177FD53C0DC015C
:1020B00018968D919C911997681779070CF04AC072
:1020C000209709F447C037FF07C0C9010196C80E21
:1020D000D91ED195C195D109F50182859385C81680
:1020E000D906C4F5A6014C0F5D1F9A012150310994
:1020F00037FD30C0D7FE03C0EA01C12CD12C281710
:1021000039071CF0EC01CC19DD09D501ED91FC91EA
:102110000284F385E02DC501099578018E0121E047
:1021200030E0A601B401C5010E941F15D501ED9153
:10213000FC910688F789E02DC501DF91CF911F91B1
:102140000F91FF90EF90DF90CF90BF90AF909F9056
:102150008F900994DF91CF911F910F91FF90EF9095
:10216000DF90CF90BF90AF909F908F9008958F9207
:102170009F92AF92BF92CF92DF92EF92FF920F9316
:102180001F93CF93DF935C016B014A01E90157FD77
:1021900053C0DC011A968D919C911B9748175907E3
:1021A0000CF04AC0209709F447C037FF07C0C901A7
:1021B0000196C80ED91ED195C195D109F50180852A
:1021C0009185C816D906C4F5A6014C0F5D1F9A016A
:1021D0002150310937FD30C0D7FE03C0EA01C12CC0
:1021E000D12C281739071CF0EC01CC19DD09D501D9
:1021F000ED91FC910284F385E02DC50109957801EC
:1022000001E010E09E01A401B601C5010E941F1566
:10221000D501ED91FC910688F789E02DC501DF918C
:10222000CF911F910F91FF90EF90DF90CF90BF90D3
:10223000AF909F908F900994DF91CF911F910F9154
:10224000FF90EF90DF90CF90BF90AF909F908F90D6
:102250000895EF92FF920F931F93CF93DF9377FD33
:1022600034C0DC011896ED91FC9119976E177F0729
:1022700064F52115310549F137FF07C0F9013196A1
:102280004E0F5F1F319521953109DC011A96ED91B2
:10229000FC911B974E175F07C4F4EA01C20FD31FCE
:1022A000DE011197B7FD11C057FF03C09E0140E04A
:1022B00050E0AE17BF071CF09F01241B350B7801BF
:1022C000890121E030E00E941F15DF91CF911F911D
:1022D0000F91FF90EF900895EF92FF920F931F934D
:1022E000CF93DF9357FD33C0DC011A96ED91FC913B
:1022F0001B974E175F075CF52115310541F137FF3C
:1023000007C0F90131966E0F7F1F31952195310974
:10231000DC011896ED91FC9119976E177F07BCF4BC
:10232000EB01C20FD31FDE011197B7FD10C077FF7D
:1023300003C09E0160E070E0AE17BF071CF09F0174
:10234000261B370B780101E010E00E941F15DF917A
:10235000CF911F910F91FF90EF9008958F929F92D0
:10236000AF92BF92CF92DF92EF92FF920F931F93A3
:10237000CF93DF9347012115310509F44DC00115B5
:10238000110509F449C037FF07C0F90131966E0FF6
:102390007F1F319521953109DC011896AD90BC90D5
:1023A00019976A157B05C4F517FF07C0F801319628
:1023B0004E0F5F1F119501951109DC011A96ED91E1
:1023C000FC911B974E175F073CF56B01C20ED31EA5
:1023D000E6012197D7FD20C07A01E00EF11ED7015A
:1023E0001197B7FD19C077FF03C0960160E070E058
:1023F00057FF03C0870140E050E0CA15DB051CF021
:102400009501261B370BAE17BF071CF08F01041B6D
:10241000150B74010E941F15DF91CF911F910F9131
:10242000FF90EF90DF90CF90BF90AF909F908F90F4
:102430000895EF92FF920F931F932115310529F014
:102440000115110511F00E94CD151F910F91FF90FC
:10245000EF9008958F929F92AF92CF92EF92FF925A
:102460000F931F93CF93DF93EC01262F898D9A8DC5
:10247000009709F042C06A3059F41D861C862D89E8
:102480008E859F8538E0239F800D911D112443C0C8
:102490006D3009F4AAC08F898823C9F03C898C85E6
:1024A0009D8546E0349F800D911D112448855985F6
:1024B0004817590764F41D861C863D898E859F85C3
:1024C00048E0349F800D911D11249F878E87EA88F4
:1024D000FB88088919894E855F856C857D85AD8867
:1024E000CC88CE010E946F202C898C859D8536E09A
:1024F000239F800D911D11243EC06A3079F41D8602
:102500001C862D89FC013896E4918E859F852E9F2F
:10251000800D911D11249F878E8767C06D3009F44F
:1025200064C0FC0134963491631708F45EC032969F
:10253000E491E61708F459C0462F431B342FFC01E1
:1025400032968590949047E0349F800C911C112422
:10255000F401329634913196E491332311F0E11174
:102560000DC0F4013496E4912C898C859D85E29F01
:10257000800D911D11249D878C8737C0F4013596FD
:1025800044915F89552319F15C89E32FF0E0E40F52
:10259000F11D47FDFA955E9FB0015F9F700D1124FC
:1025A0004C855D85460F571F6885798564177507CB
:1025B00074F41D861C863D89FC013896E4918E8555
:1025C0009F853E9F800D911D11249F878E87EA88ED
:1025D000FB88088919894E855F856C857D85AD8866
:1025E000CC88CE010E946F20BCCF81E090E0DF91CB
:1025F000CF911F910F91FF90EF90CF90AF909F9050
:102600008F900895FC01A5A1B6A19C9182A5892374
:102610008C93A5A1B6A19C9181A5892B8C9308953B
:102620000F931F93CF93DF93EC018B018DA9811141
:1026300009C01EBD0DB407FEFDCF0EBD0DB407FED3
:10264000FDCF2FC08130E9F480E1E9A1FAA120811A
:1026500017FF03C09DA1922B02C09EA192239083DD
:10266000EBA1FCA120819FA1922B9083EBA1FCA167
:10267000208198A592239083000F111F815029F784
:1026800010C0EF8DF8A11083CE010E940213EF8DD0
:10269000F8A10083CE01DF91CF911F910F910C948F
:1026A0000213DF91CF911F910F910895AF92BF92C6
:1026B000CF92DF92EF92FF920F931F93CF93DF930E
:1026C000EC0177FD38C088859985681779079CF5F6
:1026D00057FD31C08A859B854817590764F5690104
:1026E0007A015B01E881F9810284F385E02DCE0156
:1026F0000995E881F98102A4F3A5E02D01E010E03D
:1027000021E030E0A701B501CE010995B601CE0167
:102710000E941013E881F9810688F789E02DCE0127
:10272000DF91CF911F910F91FF90EF90DF90CF90AD
:10273000BF90AF900994DF91CF911F910F91FF90BF
:10274000EF90DF90CF90BF90AF900895EF92FF92FF
:102750000F931F93CF93DF93EC0177FD22C0888501
:10276000998568177907ECF457FD1BC08A859B850E
:1027700048175907B4F47901E881F98102A4F3A557
:10278000E02D01E010E021E030E0CE010995B70135
:10279000CE01DF91CF911F910F91FF90EF900C949C
:1027A0001013DF91CF911F910F91FF90EF9008953B
:1027B000FC0185A9811105C06EBD0DB407FEFDCFDA
:1027C00008958130E1F488E0A1A1B2A12C9167FFC6
:1027D00003C095A1922B02C096A192239C93A3A122
:1027E000B4A12C9197A1922B9C93660FA3A1B4A1A5
:1027F0002C9190A592239C93815031F70895A78D39
:10280000B0A16C93CF010C940213CF93DF93EC0132
:10281000ED8DFE8D90818CA989238083CE010E944D
:10282000D813ED8DFE8D90818BA9892B8083DF914C
:10283000CF9108951F93CF93DF93EC01162FE8817A
:10284000F9810284F385E02D0995112311F06DAD16
:1028500001C06EADCE010E940514E881F9810688A1
:10286000F789E02DCE01DF91CF911F910994FC01F2
:1028700085A9811104C091A182A19CBD8DBD08953F
:10288000CF93DF93EC010E9437148FA987FD06C018
:10289000EB8DFC8D90818AA989238083DF91CF9174
:1028A00008950895FC0187A987FD06C0A38DB48D06
:1028B0009C9181A9892B8C9308958F929F92AF92BE
:1028C000BF920F931F93CF93DF93CDB7DEB7A1973E
:1028D0000FB6F894DEBF0FBECDBF19A2423008F488
:1028E0004AE08E010F5D1F4F842E912CA12CB12C3C
:1028F000A50194010E948926E62FB901CA01015061
:102900001109EA3014F4E05D01C0E95CD801EC93F0
:10291000232B242B252B61F70115110571F0F801EC
:1029200001900020E9F73197AF01401B510BB8012E
:1029300088E994E00E94CD1B02C080E090E0A1965F
:102940000FB6F894DEBF0FBECDBFDF91CF911F91C0
:102950000F91BF90AF909F908F900895CF92DF928C
:10296000EF92FF92CF93DF936C01990FEE08FF086F
:10297000F7FE13C06DE288E994E00E94B81EEC01F6
:1029800066277727CB016C197D098E099F094AE0DC
:102990000E945D14C80FD91F06C04AE0C701B601E6
:1029A0000E945D14EC0142E050E068EF71E088E9BC
:1029B00094E00E94CD1B8C0F9D1FDF91CF91FF9063
:1029C000EF90DF90CF900895EF92FF920F931F93B7
:1029D000CF93DF93EC0184E090E09D838C831F8292
:1029E0001E8288E090E00E940C289983888300E092
:1029F00010E0E880F980E00EF11E84E090E00E9493
:102A00000C28F70191838083E881F981E00FF11FA1
:102A10000190F081E02D11821082138212820E5FEC
:102A20001F4F0830110529F781E090E09B838A83CE
:102A3000DF91CF911F910F91FF90EF9008958F92AA
:102A40009F92AF92BF92CF92DF92EF92FF920F933D
:102A50001F93CF93DF93EC014901BE2CAF2CE8818B
:102A6000F98102A4F3A5E02D09959401D8010E94F3
:102A7000CE26611571058105910509F481C02DA946
:102A800021110FC0615071098109910908F478C0C2
:102A9000AEBC0DB407FEFDCFBEBC0DB407FEFDCF2E
:102AA000F1CF213009F03FC06150710981099109CE
:102AB00008F466C03A2D28E0E9A1FAA1508137FF59
:102AC00003C04DA1452B02C04EA145234083EBA17D
:102AD000FCA150814FA1452B4083EBA1FCA150816B
:102AE00048A545234083330F215031F73B2D28E083
:102AF000E9A1FAA1508137FF03C04DA1452B02C0C7
:102B00004EA145234083EBA1FCA150814FA1452B51
:102B10004083EBA1FCA1508148A545234083330F9E
:102B2000215031F7C1CFFE1017C0EF8DF8A1F08210
:102B30006B017C01CC0CDD1CEE1CFF1CC114D1040C
:102B4000E104F104E9F0CE010E94021381E0C81A09
:102B5000D108E108F108F2CF6B017C01EF8DF8A1FB
:102B6000A082CE010E940213EF8DF8A1B082CE01A7
:102B70000E94021321E0C21AD108E108F10871F79E
:102B8000DF91CF911F910F91FF90EF90DF90CF9049
:102B9000BF90AF909F908F9008958F929F92AF9229
:102BA000BF92CF92DF92EF92FF920F931F93CF933A
:102BB000DF934C01EB016A01590137FF07C0C901DE
:102BC0000196C80FD91FB194A194B108F401A08552
:102BD000B185CA17DB070CF058C017FF07C0C80142
:102BE0000196C80ED91E119501951109F40182852F
:102BF0009385C816D9060CF048C0FE01EA0DFB1DEE
:102C0000AF014150510957FD40C0B601600F711F1F
:102C10009B012150310937FD38C0D7FF03C05F0148
:102C2000C0E0D0E0D7FE03C08B01C12CD12C4A17E5
:102C30005B071CF05D01AC1ABD0A281739071CF0B0
:102C40008C010C191D09D401ED91FC910284F385CE
:102C5000E02DC40109959501A601BE01C4010E94A1
:102C60001F15D401ED91FC910688F789E02DC40170
:102C7000DF91CF911F910F91FF90EF90DF90CF9058
:102C8000BF90AF909F908F900994DF91CF911F914B
:102C90000F91FF90EF90DF90CF90BF90AF909F90FB
:102CA0008F900895FC0180819181009711F00C9420
:102CB000A42808950F931F93909342058093410594
:102CC00070934405609343051093480500934705AE
:102CD0001093460500934505842F442311F0942F4B
:102CE00001C091E090934905411101C081E08093BA
:102CF0004A0581E080934C05F9014481558160814A
:102D0000718185E395E01F910F910C94CD1BCF92BB
:102D1000DF92EF92FF920F931F93CF93DF93EC011B
:102D20006B0180EEE82EFF24FA940AE010E02AE01E
:102D300030E0AB01BE0185E395E00E94CD1595E63C
:102D4000E92E99E2F92E01E010E02AE030E0A60138
:102D5000BE0185E395E00E94CD150AE010E021E078
:102D600030E0A601BE0185E395E00E94CD15A601E5
:102D7000475F5F4F01E010E02AE030E0BE0185E3ED
:102D800095E00E94CD15BE01675F7F4F0AE010E01D
:102D900021E030E0A60185E395E00E94CD15DF91AA
:102DA000CF911F910F91FF90EF90DF90CF900895FA
:102DB0002F923F924F925F926F927F928F929F924B
:102DC000AF92BF92CF92DF92EF92FF920F931F9339
:102DD000CF93DF93CDB7DEB728970FB6F894DEBF59
:102DE0000FBECDBF9E838D835B0185E395E00E947E
:102DF00040144D815E814550510985012BE030E042
:102E000068E270E085E395E00E9429112D803E8004
:102E100044244394512CE12CF12C25E0622E712C9A
:102E200045E050E058874F8386EF9FEF9C838B836C
:102E30003CEFC32EDD24DA944FEFE41AF40A52E09B
:102E4000450E511CC40CD51C8F8198858E159F058D
:102E5000ECF14C01880C991C9FEF891A990A8501A5
:102E600094014D815E818F819885481B590B5A834F
:102E70004983B701685D7F4F85E395E00E94291182
:102E8000940149815A8168E270E06E197F0985E3F7
:102E900095E00E9429114F81588546155705D9F4B0
:102EA0004F815885E416F5068CF5D7FC0BC04150D0
:102EB000510958874F838B819C8102969C838B8319
:102EC000C80ED91E91E0291A3108B6CF8F81988596
:102ED00086159705D9F0B301685D7F4F85014201E2
:102EE00052E0851A91089401A10185E395E00E94C2
:102EF000291168E270E0661977099401A10185E360
:102F000095E00E9429116F807884CACF85E395E00F
:102F100028960FB6F894DEBF0FBECDBFDF91CF91DC
:102F20001F910F91FF90EF90DF90CF90BF90AF90E7
:102F30009F908F907F906F905F904F903F902F90D9
:102F40000C9452148F929F92AF92BF92CF92DF92C5
:102F5000EF92FF920F931F93CF93DF9310918B0407
:102F6000113208F0C2C0D0918A040E94271E6B0162
:102F70007C01C0916204CC2311F180916404909192
:102F80006504A0916604B0916704892B8A2B8B2B72
:102F900081F30E94271E8090640490906504A090A5
:102FA0006604B0906704DC01CB018C199D09AE0961
:102FB000BF0988169906AA06BB06D8F682C082E029
:102FC0008093620481E0809361048FEF80936004BA
:102FD00010925F0410935E04AAE6B4E0EEE3F4E01E
:102FE00080E0181721F09D9191938F5FFACF109296
:102FF0003D0490913D048D2F880F892B80933D04D3
:1030000080913C04813089F510923C040E94271E77
:103010006B017C0180913D048093BB00809164042E
:1030200090916504A0916604B0916704892B8A2B66
:103030008B2BA9F00E94271E009164041091650457
:103040002091660430916704DC01CB018C199D0945
:10305000AE09BF09081719072A073B0790F18091AD
:10306000BC0083FDD7CF85EC01C085EE8093BC000A
:103070000E94271E6B017C0180916204823039F529
:103080008091640490916504A0916604B0916704F6
:10309000892B8A2B8B2B81F30E94271E00916404BD
:1030A000109165042091660430916704DC01CB0126
:1030B0008C199D09AE09BF09081719072A073B0794
:1030C000D8F6809163040E94521CC5E013C0809121
:1030D00060048F3F79F080916004803241F08091EC
:1030E0006004803331F0C4E005C0C1E003C0C2E039
:1030F00001C0C3E01092690410928B04109268041E
:103100008C2FDF91CF911F910F91FF90EF90DF9067
:10311000CF90BF90AF909F908F900895CF92DF9205
:10312000EF92FF920F931F93CF93DF9391E09093D1
:10313000680492E590938A041092690410928B04BB
:10314000682F8CE894E00E949E1B0E94A2170E94A8
:10315000271E6B017C01C0916204CC2339F1809160
:10316000640490916504A0916604B0916704892B72
:103170008A2B8B2B81F30E94271E009164041091EF
:1031800065042091660430916704DC01CB018C1941
:103190009D09AE09BF09081719072A073B07D8F68A
:1031A000809163040E94521CC0E08DC081E0809336
:1031B0006204809361049FEF9093600410925F0417
:1031C00095E090935E0480933D0480913D04846A71
:1031D00080933D0480913C04813089F510923C0439
:1031E0000E94271E6B017C0180913D048093BB00EF
:1031F0008091640490916504A0916604B091670485
:10320000892B8A2B8B2BA9F00E94271E0091640426
:10321000109165042091660430916704DC01CB01B4
:103220008C199D09AE09BF09081719072A073B0722
:1032300090F18091BC0083FDD7CF85EC01C085EE75
:103240008093BC000E94271E6B017C018091620468
:10325000813031F58091640490916504A0916604F9
:10326000B0916704892B8A2B8B2B81F30E94271E38
:103270000091640410916504209166043091670404
:10328000DC01CB018C199D09AE09BF09081719078C
:103290002A073B07D8F6809163040E94521C13C092
:1032A00080915F04863018F480915F0401C086E04D
:1032B000EEE3F4E0ACE0B4E0C0E0C81721F0919197
:1032C0009D93CF5FFACF10920B04C0930A0406E3DC
:1032D00014E0D0E080910B04C81759F0D63049F0C3
:1032E000DF5F8CE894E00E94551BF80181938F0109
:1032F000F1CF8D2FDF91CF911F910F91FF90EF9024
:10330000DF90CF9008954F925F926F927F928F924D
:103310009F92AF92BF92CF92DF92EF92FF920F9364
:103320001F93CF93DF936C012B015A0139014801A0
:10333000DC01ED91FC910284F385E02D0995E20119
:10334000640C751CD601ED91FC91C615D7055CF493
:103350000088F189E02D87019401A501BE01C60115
:1033600009952196EFCF0688F789E02DC601DF91F8
:10337000CF911F910F91FF90EF90DF90CF90BF9072
:10338000AF909F908F907F906F905F904F90099437
:103390008F929F92AF92BF92CF92DF92EF92FF9265
:1033A0000F931F93CF93DF93EC015B014A016901F7
:1033B000E881F9810284F385E02D099595012C0DB2
:1033C0003D1D21503109E881F9810488F589E02DFE
:1033D00078018401A401B501CE010995E881F98144
:1033E0000688F789E02DCE01DF91CF911F910F91D3
:1033F000FF90EF90DF90CF90BF90AF909F908F9015
:1034000009948F929F92AF92BF92CF92DF92EF92E8
:10341000FF920F931F93CF93DF93EC015B014A015F
:1034200069017801E881F9810284F385E02D09952D
:10343000C80CD91C860101501109E881F981048862
:10344000F589E02D9501A401B501CE010995E8812A
:10345000F9810688F789E02DCE01DF91CF911F9188
:103460000F91FF90EF90DF90CF90BF90AF909F9023
:103470008F9009940895EF92FF920F931F93DC01B0
:10348000ED91FC9100A0F1A1E02D09951F910F9104
:10349000FF90EF9008950F931F93DC01ED91FC9145
:1034A000068CF78DE02D09951F910F9108950F93CC
:1034B0001F93DC01ED91FC91048CF58DE02D0995B5
:1034C0001F910F910895DC01ED91FC910084F1852D
:1034D000E02D09942F923F924F925F926F927F92CC
:1034E0008F929F92AF92BF92CF92DF92EF92FF9214
:1034F0000F931F93CF93DF9300D000D000D0CDB7B0
:10350000DEB72C017E836D836A015901C801FC82FC
:10351000EB824801841A950A97FE03C09194819426
:10352000910835012D813E81621A730A77FE03C02E
:10353000719461947108681479045CF43A2D2B2D10
:103540005C01832F922F3D812E81DE82CD82C32E9E
:10355000D22EAD81BE81AA16BB065CF43C2D2D2D6A
:103560006C01832F922F3D812E81BE82AD82A32ECE
:10357000B22E85012D813E81021B130B1C012C18DC
:103580003D0837FE03C0319421943108780117FFBC
:1035900003C03FEFE31AF30AF594E794C816D9067F
:1035A0002CF08FEF9FEF9A83898304C0A1E0B0E0F5
:1035B000BA83A9832D813E81A216B30624F1D201DC
:1035C000ED91FC910484F585E02D2B813C816814FC
:1035D000790424F44D815E81B60103C0A6016D819A
:1035E0007E81C2010995E218F308F7FE06C0298121
:1035F0003A81C20ED31EE00EF11E8D819E8101968E
:103600009E838D83D7CF26960FB6F894DEBF0FBE6C
:10361000CDBFDF91CF911F910F91FF90EF90DF9081
:10362000CF90BF90AF909F908F907F906F905F9062
:103630004F903F902F9008954091A705262F30E09E
:10364000240F311D21323105DCF420916204243035
:10365000C9F4FC0180E090E0861758F43091A7058A
:103660002191DC01A957BA4FA30FB11D2C930196EC
:10367000F3CF8091A705680F6093A70580E00895B8
:1036800081E0089582E0089508950895E0910B0483
:1036900080910A04E81730F4F0E0E45FFB4F80818A
:1036A00090E008958FEF9FEF089590910B04809123
:1036B0000A04981750F4E92FF0E0E45FFB4F2081F3
:1036C00030E09F5F90930B0402C02FEF3FEFC901E2
:1036D000089580910A0490E020910B04821B9109C7
:1036E0000895CF92DF92EF92FF920F931F93CF93A3
:1036F000DF937C01CB018A0120916804222389F0A9
:10370000EB016B01C40ED51ECC15DD0569F0699186
:10371000D701ED91FC910190F081E02DC701099551
:10372000F3CF642F0E941C1BC801DF91CF911F9122
:103730000F91FF90EF90DF90CF900895CF93DF939C
:103740001F92CDB7DEB76983209168042223D1F0A0
:1037500020918B04203240F021E030E0FC013383E3
:10376000228380E090E015C080916904E82FF0E0AA
:10377000E659FB4F998190838F5F80936904809312
:103780008B0405C061E0CE0101960E941C1B81E004
:1037900090E00F90DF91CF910895CF92DF92EF925A
:1037A000FF920F931F93CF93DF936C017A018B01EC
:1037B000C0E0D0E0CE15DF0581F0D8016D918D011C
:1037C000D601ED91FC910190F081E02DC6010995A3
:1037D000892B11F02196EECF7E01C701DF91CF91A9
:1037E0001F910F91FF90EF90DF90CF900895FC0113
:1037F000538D448D252F30E0842F90E0821B930B56
:10380000541710F0CF96089501970895FC01918DFB
:10381000828D981761F0828DDF01A80FB11D5D9632
:103820008C91928D9F5F9F73928F90E008958FEFA0
:103830009FEF0895FC01918D828D981731F0828D54
:10384000E80FF11D858D90E008958FEF9FEF0895AB
:10385000FC01918D228D892F90E0805C9F4F821B0F
:1038600091098F73992708951092620481E08093E3
:10387000610410923C0461E082E10E94A32261E0B5
:1038800083E10E94A322E9EBF0E080818E7F8083B8
:1038900080818D7F808388E48093B80085E4809365
:1038A000BC000895CF93DF9391E090938605882321
:1038B000B9F0C091B800D091BA008091BC008A7B69
:1038C0008093BC0060E082E10E94A32260E083E17B
:1038D0000E94A3220E94341CD093BA00C093B80067
:1038E000DF91CF91089585ED8093BC0080916404B1
:1038F00090916504A0916604B09167040796A11D9C
:10390000B11D23E0B695A795979587952A95D1F790
:103910002091BC0024FF1CC04091640450916504B8
:103920006091660470916704452B462B472B81F309
:103930000097A105B10541F02AE22A95F1F700C0F0
:103940000197A109B109E4CF809163040C94521C42
:103950001092620408951F920F920FB60F921124D5
:103960002F933F934F935F936F937F938F939F9387
:10397000AF93BF93EF93FF938091B900887F803618
:1039800009F49CC068F5883209F45BC090F480317A
:1039900009F454C038F4882309F4F6C0883009F4D7
:1039A0004DC0F6C0883109F44CC0803209F45DC0C6
:1039B000EFC0803409F468C048F4803309F455C07E
:1039C000883309F0E5C080936004D8C0803509F4DD
:1039D0004FC0883509F45DC0883409F0D9C0D6C01D
:1039E000883909F4C7C0A8F4883709F467C038F4E7
:1039F000883609F463C0803709F460C0C9C08838CC
:103A000009F4B8C0803909F45FC0803809F0C0C03B
:103A10005BC0803B09F486C038F4803A09F466C084
:103A2000883A09F47FC0B4C0803C09F4A7C0883C40
:103A300009F4A4C0883B09F48AC0AAC080913D045F
:103A400010C090915F0480915E04981770F5E0912A
:103A50005F0481E08E0F80935F04F0E0E25CFB4F37
:103A600080818093BB0085EC86C0809360048EC00B
:103A7000E0915F0481E08E0F80935F048091BB0032
:103A8000F0E0E25CFB4F808390915F0480915E04E4
:103A90006EC0E0915F0481E08E0F80935F0480919F
:103AA000BB00F0E0E25CFB4F8083809161048111F8
:103AB0006DC081E080933C0484EA61C083E0809320
:103AC00062041092C905CFCF8091C905803208F0F9
:103AD00051C0E091C90581E08E0F8093C9058091A6
:103AE000BB00F0E0E755FA4F8083BDCF85EC8093B3
:103AF000BC00109262048091C905803230F4E091DC
:103B0000C905F0E0E755FA4F10826091C90570E0F1
:103B1000E0917B05F0917C0589EA95E0099510928A
:103B2000C90536C084E0809362041092A805109203
:103B3000A705E0917905F0917A0509958091A7058F
:103B4000811105C081E08093A70510928705E0915F
:103B5000A80581E08E0F8093A805F0E0E957FA4FA1
:103B600080818093BB009091A8058091A70598174C
:103B700008F479CF85E88093BC000AC085EC809377
:103B8000BC001092620404C0109260040E94731C76
:103B9000FF91EF91BF91AF919F918F917F916F9125
:103BA0005F914F913F912F910F900FBE0F901F90FB
:103BB0001895EF92FF920F931F93CF93DF93EC0131
:103BC000198218821B821A821D821C82611571055E
:103BD000B9F17B01FB0101900020E9F731978F01DA
:103BE000061B170BB8016F5F7F4F80E090E00E94CB
:103BF0002D29009759F0998388831B830A832C8190
:103C00003D81232B81F4FC0110820DC088819981B4
:103C1000009711F00E94A428198218821D821C822C
:103C20001B821A820DC01D830C83B7018881998184
:103C3000DF91CF911F910F91FF90EF900C94012A8B
:103C4000DF91CF911F910F91FF90EF9008953FB7B3
:103C5000F8948091820590918305A0918405B0919C
:103C6000850526B5A89B05C02F3F19F00196A11D1B
:103C7000B11D3FBFBA2FA92F982F8827820F911D02
:103C8000A11DB11DBC01CD0142E0660F771F881F49
:103C9000991F4A95D1F708951F920F920FB60F9270
:103CA00011242F933F938F939F93AF93BF93809152
:103CB0007E0590917F05A0918005B091810530919E
:103CC0007D0523E0230F2D3720F40196A11DB11DA2
:103CD00005C026E8230F0296A11DB11D20937D0586
:103CE00080937E0590937F05A0938005B093810516
:103CF0008091820590918305A0918405B0918505FE
:103D00000196A11DB11D8093820590938305A09318
:103D10008405B0938505BF91AF919F918F913F919D
:103D20002F910F900FBE0F901F901895FC01848D5E
:103D3000DF01A80FB11DA35ABF4F2C91848D90E0D5
:103D400001968F739927848FA689B7892C93A089B0
:103D5000B1898C91837080648C93938D848D98133A
:103D600006C00288F389E02D80818F7D80830895CD
:103D7000EF92FF920F931F93CF93DF93EC0181E0BB
:103D8000888F9B8D8C8D981305C0E889F989808177
:103D900085FD26C0F62E0B8D10E00F5F1F4F0F73B1
:103DA0001127E02E8C8DE8120CC00FB607FCFACF5D
:103DB000E889F989808185FFF5CFCE010E94961EA2
:103DC000F1CF8B8DFE01E80FF11DE35AFF4FF0821A
:103DD0009FB7F8940B8FEA89FB89808180620AC0C3
:103DE0009FB7F894EE89FF896083E889F98980811B
:103DF0008370806480839FBF81E090E0DF91CF91EA
:103E00001F910F91FF90EF900895CF93DF93EC01F6
:103E1000888D8823C9F0EA89FB89808185FD05C0EA
:103E2000A889B9898C9186FD0FC00FB607FCF5CF24
:103E3000808185FFF2CFA889B9898C9185FFEDCF6C
:103E4000CE010E94961EE7CFDF91CF9108950F9388
:103E50001F93CF93DF931F92CDB7DEB78C016370B2
:103E6000DC0156966C935697623059F06330C9F076
:103E7000613029F088E4898380EF90E007C088E210
:103E800011C088E8898380EF90E0D80119969C934F
:103E90008E93189780E491E01B969C938E931A97CB
:103EA0000BC088EE898380E491E0F80191878087D8
:103EB00080EF90E093878287C8010E943714D80171
:103EC000D7968C91D79787FD09C05B96ED91FC91B1
:103ED0005C979081D2968C9189238083D8015D96DE
:103EE000ED91FC915E979081D4968C91892380838B
:103EF00066E3C8010E94D813D8015D96ED91FC914C
:103F00005E979081D3968C91D397892B8083D59699
:103F10008C91823029F06981C8010E94D81309C0B0
:103F2000F80180A98823B9F369817A81C8010E94C8
:103F30001013D801D7968C91D79787FD09C05B964F
:103F4000ED91FC915C979081D1968C91892B808327
:103F5000F80185A9811102C00E9451140F90DF91D0
:103F6000CF911F910F9108950E94F329AF92BF92B4
:103F7000CF92DF92EF92FF920F931F93CF93DF9335
:103F8000EC015B016A01215031097901E60EF71E4F
:103F900001501109040F151F6AE20E940514B501B2
:103FA000CE010E941013B701CE010E9410136BE2E4
:103FB000CE010E940514B601CE010E941013B80173
:103FC000CE010E9410136CE2CE01DF91CF911F91C0
:103FD0000F91FF90EF90DF90CF90BF90AF900C9437
:103FE0000514AF92BF92CF92DF92EF92FF920F93A0
:103FF0001F93CF93DF93EC01E62E8A01F22E0E94ED
:1040000037148FA987FD06C0EB8DFC8D90818AA99E
:1040100089238083ED8DFE8D90818CA989238083F7
:104020006E2DCE010E94D813ED8DFE8D90818BA94F
:10403000892B8083C12CD12CAF2CB12CCA14DB046A
:10404000E4F48DA97801823059F488A9882341F0DD
:10405000F801619171917F01CE010E94101308C097
:10406000FFEFEF1AFF0AF8016491CE010E94D81306
:10407000FFEFCF1ADF0A8701E1CF8FA987FD06C0C6
:10408000EB8DFC8D908189A9892B80838DA981116D
:104090000CC0DF91CF911F910F91FF90EF90DF90B7
:1040A000CF90BF90AF900C945114DF91CF911F919E
:1040B0000F91FF90EF90DF90CF90BF90AF90089559
:1040C000611102C060E201C061E220E040E050E026
:1040D0000C94F11F682F8CE894E00C949E1B2F9297
:1040E0003F924F925F926F927F928F929F92AF9288
:1040F000BF92CF92DF92EF92FF920F931F93CF93D5
:10410000DF93CDB7DEB76B970FB6F894DEBF0FBE67
:10411000CDBF9B8F8A8F1B014A01D22E198708873A
:104120003701A982DC0159962D913C915A972115AE
:10413000310509F0FFC018968D919C911997681769
:1041400079070CF0E7C11A968D919C911B9748173F
:1041500059070CF0DFC1EC2DF0E0FB83EA839B01F3
:1041600046E0C49E200D311D11243D872C87121678
:1041700013060CF0CFC16A2D70E07B876A8783E05D
:10418000660F771F8A95E1F77F876E87CB01880DD1
:10419000991D181619060CF0BDC158968C91811105
:1041A00004C08FEA8D1508F4D394AA8DBB8DED91D0
:1041B000FC9111970284F385E02DCD010995B5E0BE
:1041C000DB9EC0011124EC2DF0E0F98BE88B91010E
:1041D0002B5F3F4F3B8B2A8B3D822C822101AC0110
:1041E000421953095D8B4C8B7981672F70E07F8B6F
:1041F0006E8BC4010896998F888FEC89FD89E40D38
:10420000F51DE95DFE4FD49054019F828E82D0FE51
:1042100016C0AA8DBB8DED91FC91B1E0CB1209C007
:104220002981213031F40484F585E02D28853985F4
:1042300019C00684F785E02DE884F9841DC04885FF
:1042400059854615570519F1AA8DBB8DED91FC9145
:10425000B1E0CB120DC02981213051F40484F585E1
:10426000E02D9301A501B2018A8D9B8D09950FC0A8
:104270000684F785E02D73010A851B852A813B8121
:104280004E815F816C817D818A8D9B8D0995D6944D
:104290003FEFA31AB30A4E815F816E897F89460F73
:1042A000571F5F834E83888D998DA816B90609F034
:1042B000AECF9FEF491A590AAC81BD81E889F989CF
:1042C000AE0FBF1FBD83AC832A893B8942165306BC
:1042D00009F093CF488559854615570509F4F8C06C
:1042E000AA8DBB8DED91FC91B1E0CB1211C029815B
:1042F000213071F4B1016B5F7F4F0088F189E02DAF
:10430000830128E030E0A4018A8D9B8D0995E0C0EF
:104310006C857D854A815B81641B750B0684F785FE
:10432000E02D73010E851F859A01A4018A8D9B8D56
:104330000995CEC0F9013496E491DE1AF90132965E
:1043400085919491B7E0DB9E800D911D1124F901B8
:10435000259134913B8B2A8BFC0125913491590195
:10436000FC0132965490319634913C873296749089
:104370003196149141E04C1518F05981523068F093
:10438000672D072C000C770B7D836C83812F012E0A
:10439000000C990B9B838A8304C01B821A821D82A6
:1043A0001C82AA8DBB8DED91FC9111970284F3853F
:1043B000E02DCD010995412CD12C612CF981EF2FF5
:1043C000F0E0FF83EE832C2D30E03B872A87A401A9
:1043D000410F511D17FD5A955F8B4E8BB101670D33
:1043E000711D77FC7A95798F688F7C85671608F048
:1043F0006FC0262D30E04A815B81420F531FAE8192
:10440000BF81A49FC001A59F900DB49F900D112462
:10441000F401E80FF91FF98BE88B842D712C4E897C
:104420005F89420F531F5D8B4C8B751408F04DC094
:1044300051E0580F5E87877041F4C5010196EA8903
:10444000FB89EA0DFB1DD4905C01D7FE3AC061E008
:10445000C61216C07981713099F4AA8DBB8DED9189
:10446000FC9111970484F585E02D288539854C89C8
:104470005D89688D798D670D711DCD01099521C00C
:104480008C819D81870D911DEA85FB858E9FB001F2
:104490008F9F700D9E9F700D1124620D731DAA8D4C
:1044A000BB8DED91FC9111970684F785E02DE88492
:1044B000F9840E811F812A853B8548895989CD0160
:1044C0000995DD0C73948E85B0CF450C63948DCF28
:1044D000AA8DBB8DED91FC9111970688F789E02D8F
:1044E000CD016B960FB6F894DEBF0FBECDBFDF9146
:1044F000CF911F910F91FF90EF90DF90CF90BF90E1
:10450000AF909F908F907F906F905F904F903F9073
:104510002F9009946B960FB6F894DEBF0FBECDBFF7
:10452000DF91CF911F910F91FF90EF90DF90CF908F
:10453000BF90AF909F908F907F906F905F904F90C3
:104540003F902F90089590E0FC01ED5EFE4F249186
:10455000FC01E952FF4F3491FC01EB50FF4FE49115
:10456000EE2309F43CC0222339F1233091F038F4D2
:104570002130A9F0223001F584B58F7D12C027309B
:1045800091F02830A1F02430B9F4809180008F7D23
:1045900003C0809180008F77809380000DC084B528
:1045A0008F7784BD09C08091B0008F7703C0809160
:1045B000B0008F7D8093B000F0E0EE0FFF1FE5515B
:1045C000FF4FA591B4919FB7F894611104C08C91ED
:1045D0003095382302C0EC913E2B3C939FBF089549
:1045E000CF93DF9390E0FC01E952FF4F2491FC014F
:1045F000EB50FF4F8491882361F190E0880F991F61
:10460000FC01E75FFE4FC591D491FC01E551FF4FDE
:10461000A591B491611109C09FB7F8948881209544
:1046200082238883EC912E230BC0623061F49FB704
:10463000F8948881322F309583238883EC912E2B38
:104640002C939FBF06C08FB7F894E8812E2B288348
:104650008FBFDF91CF910895CF93DF9300D0CDB777
:10466000DEB77894E091A804F091A90482E08083F9
:10467000E091A404F091A5041082E091A604F091C9
:10468000A7048FEC80831092B004E091AC04F09109
:10469000AD0486E08083E091AA04F091AB048081B0
:1046A00080618083E091AA04F091AB0480818860EE
:1046B0008083E091AA04F091AB04808180688083BC
:1046C000E091AA04F091AB0480818F7D80831092E9
:1046D0000B0410920A041092690410928B040E9439
:1046E000341C84E49BE190937A058093790585E4FA
:1046F0009BE190937C0580937B0501E00093680427
:1047000012E510938A041092690410928B0480EFD2
:1047100090E00E946A2085E590E00E946A200E9455
:10472000A2170093680410938A04109269041092EF
:104730008B048BEF90E00E946A2080E090E00E9462
:104740006A200E94A2178AEF0E948E1840E050E073
:10475000BA0185E395E00E940A0F60E070E085E30E
:1047600095E00E94ED0E1A821982CE0101960E94F8
:10477000B7078EEC90E09093FD018093FC0182E8F6
:1047800090E09093EC028093EB0280E090E0A7E051
:10479000B3E48093E2029093E302A093E402B09327
:1047A000E502569A5A9A84B5836084BD85B58860BF
:1047B00085BD85B5816085BD8091FC0187BD8091F7
:1047C0006E00826080936E0016BCE89A809169004A
:1047D00081608093690011E080E00E948E18409112
:1047E000360440932C043091370430932D042091EB
:1047F0003B048091380454E0859FB0011124922F2E
:104800009C70892F90E09595879595958795862B37
:10481000972B90932F0480932E048091390494E079
:10482000899FB0011124922F9073892F90E0E4E0CA
:1048300095958795EA95E1F7862B972B9093310410
:104840008093300480913A0454E0859FC001112484
:10485000522F5295569556955370852B909333044D
:1048600080933204822F817081278093340421FB4E
:10487000EE24E0F8F12CB70191E06927962F9170B2
:1048800060933504453E18F01093FE0104C04C318E
:1048900010F41093FF01353E18F01093000204C08D
:1048A0003C3110F410930102811110930202911116
:1048B000109303020E94B0098FCFECE8F4E013825A
:1048C000128288EE93E0A0E0B0E084839583A68313
:1048D000B78320E431E031832083E8E9F4E01382F8
:1048E000128284839583A683B78382E591E09183C6
:1048F000808385EC90E09587848784EC90E09787AF
:10490000868780EC90E0918B808B81EC90E0938B9C
:10491000828B82EC90E0958B848B86EC90E0978B79
:10492000868B118E128E138E148EA5E3B5E013962E
:104930001C921E92129720EF30E015963C932E9316
:10494000149780E491E017969C938E93169719968E
:104950003C932E9318971B969C938E931A9756967A
:104960001C9256971D961C921E921C971F961C9285
:104970001E921E9781E055968C93559754968C9372
:1049800054972FEF3FEF53963C932E9352975196A7
:104990003C932E93509757968C93579758961C920A
:1049A00058975A961C921E925997D5961C92D59755
:1049B0008FEFD6968C93D6978AE0D7968C93D7971D
:1049C00089E0D8968C93D897DA961C921E92D99744
:1049D000DC961C921E92DB97DD961C92DD97DE968C
:1049E0001C92DE9710927405109275051092760550
:1049F0001092770588E795E090969C938E935F9749
:104A0000EEEFF0E0E491F0E0EE0FFF1FE551FF4F15
:104A1000859194915E969C938E935D97E0EEF0E085
:104A20008491D3968C93D397EFEFF0E0E491F0E08C
:104A3000EE0FFF1FE551FF4F259134915C963C939B
:104A40002E935B97E1EEF0E0E491D196EC93D19751
:104A5000E095D296EC93D297E82FE095D496EC931C
:104A6000D49784E991E08D939C9308958F929F92BF
:104A7000AF92BF92CF92DF92EF92FF92CF93DF93EC
:104A8000EC01688179818A819B81611571058105BD
:104A9000910521F464E279ED8BE597E02DE133EFA8
:104AA00041E050E00E94202649015A019B01AC01DF
:104AB000A7EAB1E40E943F266B017C01ACEEB4EFA3
:104AC000A50194010E944D26DC01CB018C0D9D1D9A
:104AD000AE1DBF1DB7FF03C00197A109B048888371
:104AE0009983AA83BB839F77DF91CF91FF90EF904B
:104AF000DF90CF90BF90AF909F908F9008950E94CD
:104B00003625089582E091E00E9436250895A0E0C0
:104B1000B0E08093020190930301A0930401B0934D
:104B200005010895E89409C097FB3EF4909580959F
:104B3000709561957F4F8F4F9F4F9923A9F0F92F63
:104B400096E9BB279395F695879577956795B795E1
:104B5000F111F8CFFAF4BB0F11F460FF1BC06F5FC7
:104B60007F4F8F4F9F4F16C0882311F096E911C0D9
:104B7000772321F09EE8872F762F05C0662371F0FA
:104B800096E8862F70E060E02AF09A95660F771F0E
:104B9000881FDAF7880F9695879597F9089597F902
:104BA0009F6780E870E060E008959FEF80EC0895D3
:104BB00000240A94161617061806090608950024FC
:104BC0000A9412161306140605060895092E039476
:104BD000000C11F4882352F0BB0F40F4BF2B11F4EA
:104BE00060FF04C06F5F7F4F8F4F9F4F089557FD49
:104BF0009058440F551F59F05F3F71F04795880F4B
:104C000097FB991F61F09F3F79F0879508951216E1
:104C100013061406551FF2CF4695F1DF08C016168D
:104C200017061806991FF1CF86957105610508943E
:104C30000895E894BB2766277727CB0197F9089555
:104C4000052E97FB1EF400940E94372657FD07D0CF
:104C50000E94892607FC03D04EF40C943726509509
:104C60004095309521953F4F4F4F5F4F0895909558
:104C70008095709561957F4F8F4F9F4F08950E944B
:104C8000AB26A59F900DB49F900DA49F800D911D04
:104C900011240895B7FF0C943F260E943F26821BE3
:104CA000930B08952F923F924F925F926F927F9253
:104CB0008F929F92AF92BF92CF92DF92EF92FF922C
:104CC0000F931F93CF93DF93CDB7DEB7CA1BDB0BD8
:104CD0000FB6F894DEBF0FBECDBF09942A8839887D
:104CE00048885F846E847D848C849B84AA84B98484
:104CF000C884DF80EE80FD800C811B81AA81B98190
:104D0000CE0FD11D0FB6F894DEBF0FBECDBFED01A3
:104D10000895A1E21A2EAA1BBB1BFD010DC0AA1FFC
:104D2000BB1FEE1FFF1FA217B307E407F50720F014
:104D3000A21BB30BE40BF50B661F771F881F991F8F
:104D40001A9469F760957095809590959B01AC01D8
:104D5000BD01CF010895A29FB001B39FC001A39FE1
:104D6000700D811D1124911DB29F700D811D1124A4
:104D7000911D089597FB072E16F4009407D077FD38
:104D800009D00E94DD2607FC05D03EF49095819560
:104D90009F4F0895709561957F4F08950E94AB26AF
:104DA000332312F48A1B9B0B0C94D8260E94AB264B
:104DB000B7FF0895821B930B0895AA1BBB1B51E1FB
:104DC00007C0AA1FBB1FA617B70710F0A61BB70B7B
:104DD000881F991F5A95A9F780959095BC01CD0120
:104DE0000895EE0FFF1F0590F491E02D099450589F
:104DF000BB27AA270E940F270C94E6250E94D825DE
:104E000038F00E94DF2520F039F49F3F19F426F492
:104E10000C94D5250EF4E095E7FB0C94CF25E92FF3
:104E20000E94F72558F3BA1762077307840795079E
:104E300020F079F4A6F50C9419260EF4E0950B2ECB
:104E4000BA2FA02D0B01B90190010C01CA01A001DC
:104E50001124FF27591B99F0593F50F4503E68F137
:104E60001A16F040A22F232F342F4427585FF3CF78
:104E7000469537952795A795F0405395C9F77EF449
:104E80001F16BA0B620B730B840BBAF09150A1F092
:104E9000FF0FBB1F661F771F881FC2F70EC0BA0F18
:104EA000621F731F841F48F4879577956795B795A0
:104EB000F7959E3F08F0B0CF9395880F08F099279B
:104EC000EE0F9795879508950E9478270C94E62514
:104ED0000E94DF2558F00E94D82540F029F45F3F5A
:104EE00029F00C94CF2551110C941A260C94D52539
:104EF0000E94F72568F39923B1F3552391F3951B8D
:104F0000550BBB27AA2762177307840738F09F5FEA
:104F10005F4F220F331F441FAA1FA9F335D00E2E57
:104F20003AF0E0E832D091505040E695001CCAF7C4
:104F30002BD0FE2F29D0660F771F881FBB1F261787
:104F400037074807AB07B0E809F0BB0B802DBF015E
:104F5000FF2793585F4F3AF09E3F510578F00C942D
:104F6000CF250C941A265F3FE4F3983ED4F3869540
:104F700077956795B795F7959F5FC9F7880F911D4E
:104F80009695879597F90895E1E0660F771F881F3A
:104F9000BB1F621773078407BA0720F0621B730BED
:104FA000840BBA0BEE1F88F7E09508950E94DD2769
:104FB0006894B1110C941A2608950E94FF2588F078
:104FC0009F5798F0B92F9927B751B0F0E1F0660FCD
:104FD000771F881F991F1AF0BA95C9F714C0B1300E
:104FE00091F00E941926B1E008950C941926672FBC
:104FF000782F8827B85F39F0B93FCCF3869577953D
:105000006795B395D9F73EF4909580957095619525
:105010007F4F8F4F9F4F08950F931F93CF93DF9331
:105020008230910510F482E090E0E091CC05F0919F
:10503000CD0520E030E0A0E0B0E0309719F14081EC
:1050400051810281138148175907C8F084179507C9
:1050500069F4109731F012960C93129713961C93E3
:1050600027C00093CC051093CD0522C02115310532
:1050700019F04217530718F49A01BD01EF01DF013F
:10508000F801DBCF21153105F9F0281B390B24304D
:10509000310580F48A819B816115710521F0FB0146
:1050A0009383828304C09093CD058093CC05FE0149
:1050B000329644C0FE01E20FF31F81939193225078
:1050C0003109398328833AC02091CA053091CB0534
:1050D000232B41F420910801309109013093CB0535
:1050E0002093CA0520910601309107012115310551
:1050F00041F42DB73EB740910A0150910B01241B9A
:10510000350BE091CA05F091CB05E217F307A0F447
:105110002E1B3F0B2817390778F0AC014E5F5F4F0D
:105120002417350748F04E0F5F1F5093CB0540936F
:10513000CA058193919302C0E0E0F0E0CF01DF91D6
:10514000CF911F910F910895CF93DF93009709F4AA
:1051500081C0FC01329713821282A091CC05B091DC
:10516000CD05109781F420813181820F931F20910A
:10517000CA053091CB052817390751F5F093CB05B7
:10518000E093CA0567C0ED0120E030E0CE17DF07ED
:1051900040F44A815B819E0141155105F1F0EA011D
:1051A000F5CFD383C28340815181840F951FC817E7
:1051B000D90759F488819981840F951F02969183AC
:1051C00080838A819B81938382832115310529F411
:1051D000F093CD05E093CC053DC0E901FB83EA8364
:1051E00049915991C40FD51FEC17FD0761F48081D7
:1051F0009181840F951F0296E901998388838281AA
:1052000093819B838A83E0E0F0E012968D919C91DC
:105210001397009719F0FD01DC01F7CF8D919C9158
:1052200011979D012E5F3F4F820F931F2091CA055A
:105230003091CB052817390769F4309729F410927B
:10524000CD051092CC0502C013821282B093CB051B
:10525000A093CA05DF91CF910895A0E0B0E0E3E309
:10526000F9E20C945626EC01009721F4CB010E9440
:105270000C28B4C0FC01E60FF71F9C012250310935
:10528000E217F30708F4A8C0D9010D911C911197FA
:1052900006171707B0F00530110508F49BC0C801C8
:1052A00004978617970708F495C002501109061B4A
:1052B000170B019311936D937C93CF010E94A42847
:1052C00089C05B01A01AB10A4C01800E911EA09109
:1052D000CC05B091CD05612C712CE12CF12C1097EF
:1052E00009F446C08D919C911197A815B905B1F5A7
:1052F0006C0142E0C40ED11CCA14DB0478F14C01ED
:105300008A189B08640142E0C40ED11C1296BC901E
:1053100012971396AC91B5E0CB16D10440F0B2824F
:10532000A38391828082D9016D937C9309C00E5F23
:105330001F4F800F911FF90191838083EB2DFA2F6E
:10534000E114F10431F0D7011396FC93EE93129718
:1053500041C0F093CD05E093CC053CC068167906BA
:1053600008F43C017D0112960D90BC91A02DB7CFA1
:105370008091CA059091CB0588169906E1F46616CE
:105380007706C8F48091060190910701009741F4D7
:105390008DB79EB740910A0150910B01841B950B6C
:1053A000E817F907C8F4F093CB05E093CA05F901B3
:1053B000718360830FC0CB010E940C287C01009791
:1053C00059F0A801BE010E94F829CE010E94A4282C
:1053D000C70104C0CE0102C080E090E0CDB7DEB7C7
:1053E000EEE00C94722681E090E0F8940C94082A88
:1053F000FB01DC0102C001900D9241505040D8F7F2
:105400000895FB01DC0101900D920020E1F7089561
:04541000F894FFCF3E
:105414000101010000000000CE052000EF7B34A54F
:10542400694A80FFD0FFE0EE23B76DCF02967E3F3E
:10543400DF8F522C07EAAEF3E378DEA31FE4947205
:1054440007EDAEFEA37A9E2B9F949202000000000B
:105454009E1B711BD1033A1A691B551B461B000086
:105464000000B81ECD1BF71B051F281C061C1A1CA8
:10547400000000002A12CD1BD103D00356134014A0
:10548400A613AE1129116C116A1A52140C0E1A14B7
:105494004510B7101912ED0E800E210EB41FB41F63
:1054A400000000002A12CD1BD103D0035613401470
:1054B400A613AE1129116C116A1A5214271F602009
:1054C4004510B7101912ED0E800E210E0A0FB61FEB
:1054D40053746172742067616D65004F74686572FE
:1054E40020627574746F6E00484F4C44004E4558EA
:1054F400540053636F72653A003536300068616852
:0C55040061206C6F736572000D0A0000DE
:00000001FF
