:100000000C9415030C94AD090C943D030C943D0322
:100010000C943D030C943D030C943D030C943D0360
:100020000C943D030C943D030C943D030C943D0350
:100030000C943D030C943D030C9466090C943D0311
:100040000C9409150C943D030C9434090C940E097E
:100050000C943D030C943D030C943D030C943D0320
:100060000C94E0070C943D03EF03038002CF0300E0
:10007000C130ED0464031281E803850078CB0539B3
:100080002C003402F70120EA020000C00123C10164
:1000900010C5023E28C701863601483701003A01E3
:1000A00055B1020018B603088227F20100260101AB
:1000B000E00F0F312B0C0E084EF1370710030E091D
:1000C00000E10F000E1403110731C148080F0C3175
:1000D000360F118029800000000000240027002A2C
:1000E00000000000080002010000030407000000F7
:1000F000000000000000000000003E5B4F5B3E3E41
:100100006B4F6B3E1C3E7C3E1C183C7E3C181C57C3
:100110007D571C1C5E7F5E1C00183C1800FFE7C367
:10012000E7FF0018241800FFE7DBE7FF30483A0636
:100130000E2629792926407F050507407F05253FA2
:100140005A3CE73C5A7F3E1C1C08081C1C3E7F148E
:10015000227F22145F5F005F5F06097F017F0066D8
:1001600089956A606060606094A2FFA29408047E32
:10017000040810207E201008082A1C08081C2A08E1
:10018000081E101010100C1E0C1E0C30383E38309B
:10019000060E3E0E06000000000000005F0000009A
:1001A00007000700147F147F14242A7F2A122313C8
:1001B00008646236495620500008070300001C22DC
:1001C00041000041221C002A1C7F1C2A08083E080E
:1001D000080080703000080808080800006060000F
:1001E00020100804023E5149453E00427F40007203
:1001F000494949462141494D331814127F1027457A
:100200004545393C4A494931412111090736494997
:100210004936464949291E000014000000403400B8
:10022000000008142241141414141400412214086C
:1002300002015909063E415D594E7C1211127C7F24
:10024000494949363E414141227F4141413E7F4932
:100250004949417F090909013E414151737F08081D
:10026000087F00417F41002040413F017F08142268
:10027000417F404040407F021C027F7F0408107F86
:100280003E4141413E7F090909063E4151215E7FC1
:1002900009192946264949493203017F01033F4094
:1002A00040403F1F2040201F3F4038403F6314081C
:1002B000146303047804036159494D43007F4141AD
:1002C000410204081020004141417F040201020460
:1002D0004040404040000307080020545478407FCD
:1002E000284444383844444428384444287F385407
:1002F00054541800087E090218A4A49C787F0804AE
:10030000047800447D40002040403D007F10284498
:100310000000417F40007C047804787C0804047865
:100320003844444438FC1824241818242418FC7C2D
:1003300008040408485454542404043F44243C4012
:1003400040207C1C2040201C3C4030403C44281075
:1003500028444C9090907C4464544C4400083641AE
:10036000000000770000004136080002010204028C
:100370003C2623263C1EA1A161123A4040207A3837
:100380005454555921555579412254547842215598
:1003900054784020545579400C1E527212395555EC
:1003A0005559395454545939555454580000457CC2
:1003B000410002457D420001457C407D1211127DC5
:1003C000F0282528F07C545545002054547C547C5A
:1003D0000A097F4932494949323A4444443A324A47
:1003E0004848303A4141217A3A42402078009DA065
:1003F000A07D3D4242423D3D4040403D3C24FF24E3
:1004000024487E4943662B2FFC2F2BFF0929F62019
:10041000C0887E090320545479410000447D413056
:1004200048484A32384040227A007A0A0A727D0DE2
:1004300019317D2629292F28262929292630484D9A
:100440004020380808080808080808382F10C8ACE9
:10045000BA2F102834FA00007B000008142A142256
:1004600022142A14085500550055AA55AA55AAFF6A
:1004700055FF55FF000000FF00101010FF0014147E
:1004800014FF001010FF00FF1010F010F0141414EF
:10049000FC001414F700FF0000FF00FF1414F40424
:1004A000FC141417101F10101F101F1414141F0019
:1004B000101010F0000000001F101010101F10107E
:1004C0001010F010000000FF10101010101010108D
:1004D00010FF10000000FF140000FF00FF00001FCD
:1004E00010170000FC04F414141710171414F4046B
:1004F000F40000FF00F714141414141414F700F798
:10050000141414171410101F101F141414F41410C2
:1005100010F010F000001F101F0000001F1400005A
:1005200000FC140000F010F01010FF10FF14141461
:10053000FF141010101F00000000F010FFFFFFFF5D
:10054000FFF0F0F0F0F0FFFFFF0000000000FFFF01
:100550000F0F0F0F0F3844443844FC4A4A4A347E88
:1005600002020606027E027E026355494163384458
:10057000443C04407E201E2006027E020299A5E72C
:10058000A5991C2A492A1C4C7201724C304A4D4DC7
:10059000303048784830BC625A463D3E49494900AF
:1005A0007E0101017E2A2A2A2A2A44445F444440CB
:1005B000514A444040444A51400000FF0103E0805A
:1005C000FF000008086B6B083612362436060F0948
:1005D0000F06000018180000001010003040FF0146
:1005E00001001F01011E00191D1712003C3C3C3C7C
:1005F00000000000000102040810204080010204F5
:100600000810200102040810200000000025002826
:10061000002B000404040404040404020202020285
:100620000203030303030300481A11241FBECFEF84
:10063000D8E0DEBFCDBF23E0A6EBB1E001C01D9244
:10064000AD37B207E1F711E0A0E0B1E0E4EFFAE383
:1006500002C005900D92A63BB107D9F713E0C5E1A2
:10066000D3E004C02197FE010E94761BC431D1075C
:10067000C9F70E9415180C94781D0C9400004F9235
:100680005F926F927F928F929F92AF92BF92CF9222
:10069000DF92EF92FF920F931F93CF93DF936C0142
:1006A0002B015A0139014801DC01ED91FC910284D2
:1006B000F385E02D0995E201640C751CD601ED91DE
:1006C000FC91C615D7055CF40088F189E02D8701FF
:1006D0009401A501BE01C60109952196EFCF0688B8
:1006E000F789E02DC601DF91CF911F910F91FF9007
:1006F000EF90DF90CF90BF90AF909F908F907F90C2
:100700006F905F904F9009948F929F92AF92BF929B
:10071000CF92DF92EF92FF920F931F93CF93DF93CD
:10072000EC015B014A016901E881F9810284F385EA
:10073000E02D099595012C0D3D1D21503109E881D1
:10074000F9810488F589E02D78018401A401B501BF
:10075000CE010995E881F9810688F789E02DCE015F
:10076000DF91CF911F910F91FF90EF90DF90CF908D
:10077000BF90AF909F908F9009948F929F92AF926D
:10078000BF92CF92DF92EF92FF920F931F93CF937E
:10079000DF93EC015B014A0169017801E881F9818D
:1007A0000284F385E02D0995C80CD91C86010150FF
:1007B0001109E881F9810488F589E02D9501A401EA
:1007C000B501CE010995E881F9810688F789E02D08
:1007D000CE01DF91CF911F910F91FF90EF90DF90AD
:1007E000CF90BF90AF909F908F9009940895EF9213
:1007F000FF920F931F93DC01ED91FC9100A0F1A1FA
:10080000E02D09951F910F91FF90EF9008950F93A0
:100810001F93DC01ED91FC91068CF78DE02D09957D
:100820001F910F9108950F931F93DC01ED91FC919F
:10083000048CF58DE02D09951F910F910895DC0131
:10084000ED91FC910084F185E02D09942F923F9267
:100850004F925F926F927F928F929F92AF92BF92D0
:10086000CF92DF92EF92FF920F931F93CF93DF937C
:1008700000D000D000D0CDB7DEB72C017E836D83D1
:100880006A015901C801FC82EB824801841A950A69
:1008900097FE03C091948194910835012D813E818A
:1008A000621A730A77FE03C0719461947108681428
:1008B00079045CF43A2D2B2D5C01832F922F3D811E
:1008C0002E81DE82CD82C32ED22EAD81BE81AA16AC
:1008D000BB065CF43C2D2D2D6C01832F922F3D81A6
:1008E0002E81BE82AD82A32EB22E85012D813E8146
:1008F000021B130B1C012C183D0837FE03C031945A
:1009000021943108780117FF03C03FEFE31AF30A7F
:10091000F594E794C816D9062CF08FEF9FEF9A83D1
:10092000898304C0A1E0B0E0BA83A9832D813E8110
:10093000A216B30624F1D201ED91FC910484F58551
:10094000E02D2B813C816814790424F44D815E8173
:10095000B60103C0A6016D817E81C2010995E2182E
:10096000F308F7FE06C029813A81C20ED31EE00EBD
:10097000F11E8D819E8101969E838D83D7CF269611
:100980000FB6F894DEBF0FBECDBFDF91CF911F91A0
:100990000F91FF90EF90DF90CF90BF90AF909F901E
:1009A0008F907F906F905F904F903F902F90089521
:1009B0004091DB01262F30E0240F311D213231051B
:1009C000DCF4209162022430C9F4FC0180E090E064
:1009D000861758F43091DB012191DC01A754BE4FFA
:1009E000A30FB11D2C930196F3CF8091DB01680F0B
:1009F0006093DB0180E0089581E0089582E008952E
:100A000008950895E0910B0280910A02E81730F4EE
:100A1000F0E0E45FFD4F808190E008958FEF9FEF5D
:100A2000089590910B0280910A02981750F4E92FD3
:100A3000F0E0E45FFD4F208130E09F5F90930B0278
:100A400002C02FEF3FEFC901089580910A0290E0A4
:100A500020910B02821B91090895CF92DF92EF92B1
:100A6000FF920F931F93CF93DF937C01CB018A01F9
:100A700020916802222389F0EB016B01C40ED51E80
:100A8000CC15DD0569F06991D701ED91FC910190DC
:100A9000F081E02DC7010995F3CF642F0E94D8049F
:100AA000C801DF91CF911F910F91FF90EF90DF90E0
:100AB000CF900895CF93DF931F92CDB7DEB76983B0
:100AC000209168022223D1F020918B02203240F045
:100AD00021E030E0FC013383228380E090E015C008
:100AE00080916902E82FF0E0E659FD4F99819083EB
:100AF0008F5F8093690280938B0205C061E0CE0115
:100B000001960E94D80481E090E00F90DF91CF9190
:100B10000895CF92DF92EF92FF920F931F93CF939E
:100B2000DF936C017A018B01C0E0D0E0CE15DF05C8
:100B300081F0D8016D918D01D601ED91FC9101906C
:100B4000F081E02DC6010995892B11F02196EECF99
:100B50007E01C701DF91CF911F910F91FF90EF9020
:100B6000DF90CF900895FC01538D448D252F30E008
:100B7000842F90E0821B930B541710F0CF960895AA
:100B800001970895FC01918D828D981761F0828DF7
:100B9000DF01A80FB11D5D968C91928D9F5F9F73B1
:100BA000928F90E008958FEF9FEF0895FC01918D53
:100BB000828D981731F0828DE80FF11D858D90E0C0
:100BC00008958FEF9FEF0895FC01918D228D892F5D
:100BD00090E0805C9F4F821B91098F739927089545
:100BE000FC01848DDF01A80FB11DA35ABF4F2C91CA
:100BF000848D90E001968F739927848FA689B78999
:100C00002C93A089B1898C91837080648C93938D8F
:100C1000848D981306C00288F389E02D80818F7D32
:100C200080830895EF92FF920F931F93CF93DF93EA
:100C3000EC0181E0888F9B8D8C8D981305C0E8892D
:100C4000F989808185FD26C0F62E0B8D10E00F5F9F
:100C50001F4F0F731127E02E8C8DE8120CC00FB6BA
:100C600007FCFACFE889F989808185FFF5CFCE01AD
:100C70000E94F005F1CF8B8DFE01E80FF11DE35AC4
:100C8000FF4FF0829FB7F8940B8FEA89FB89808130
:100C900080620AC09FB7F894EE89FF896083E88973
:100CA000F98980818370806480839FBF81E090E0B8
:100CB000DF91CF911F910F91FF90EF900895CF9307
:100CC000DF93EC01888D8823C9F0EA89FB89808154
:100CD00085FD05C0A889B9898C9186FD0FC00FB626
:100CE00007FCF5CF808185FFF2CFA889B9898C9167
:100CF00085FFEDCFCE010E94F005E7CFDF91CF91C8
:100D00000895089580E090E008951092620281E0D5
:100D10008093610210923C0261E082E10E945B14C8
:100D200061E083E10E945B14E9EBF0E080818E7F5B
:100D3000808380818D7F808388E48093B80085E400
:100D40008093BC000895EF92FF920F931F93CF936F
:100D5000DF93EC01198218821B821A821D821C8289
:100D600061157105B9F17B01FB0101900020E9F7E4
:100D700031978F01061B170BB8016F5F7F4F80E023
:100D800090E00E949D1C009759F0998388831B83F3
:100D90000A832C813D81232B81F4FC0110820DC03C
:100DA00088819981009711F00E94141C1982188281
:100DB0001D821C821B821A820DC01D830C83B70109
:100DC00088819981DF91CF911F910F91FF90EF90D2
:100DD0000C94711DDF91CF911F910F91FF90EF90B7
:100DE0000895EF92FF920F931F93780189019A0162
:100DF000AB01BC0185E393E00E94C50D1F910F91EB
:100E0000FF90EF9008958F929F92AF92BF92CF92F2
:100E1000DF92EF92FF920F931F93CF93DF937C01AA
:100E2000EB0126E0249FC001259F900D11249C0119
:100E3000265F3E4F6901F9010081118124E130E014
:100E400044E150E0C7010E94F10605E619E223E003
:100E500030E044E150E0BE01C7010E94F10624E108
:100E600030E043E050E0BE01C7010E94F106BE0140
:100E70006F5E7F4F23E030E044E150E0C7010E9405
:100E8000F10624E130E043E050E0BE01C7014196A5
:100E90000E94F106F601828093805701F3E0AF0EC5
:100EA000B11CBE01615F7F4F840122E030E04EE063
:100EB00050E0C5010E94F10623962EE030E042E0AA
:100EC00050E0BE01C7010F960E94F106F601E480D2
:100ED000F580870122E030E04EE050E0BE01C50120
:100EE0000E94F1062EE030E042E050E0BE01C50174
:100EF0000E94F106DF91CF911F910F91FF90EF902B
:100F0000DF90CF90BF90AF909F908F900895CF9338
:100F1000DF9391E09093B8018823B9F0C091B800B5
:100F2000D091BA008091BC008A7B8093BC0060E0C5
:100F300082E10E945B1460E083E10E945B140E94E6
:100F40008506D093BA00C093B800DF91CF91089581
:100F500085ED8093BC008091640290916502A09120
:100F60006602B09167020796A11DB11D23E0B695F8
:100F7000A795979587952A95D1F72091BC0024FFD6
:100F80001CC04091640250916502609166027091AC
:100F90006702452B462B472B81F30097A105B1052E
:100FA00041F02AE22A95F1F700C00197A109B109A1
:100FB000E4CF809163020C94870710926202089537
:100FC0001F920F920FB60F9211242F933F934F93BE
:100FD0005F936F937F938F939F93AF93BF93EF93A1
:100FE000FF938091B900887F803609F49CC068F532
:100FF000883209F45BC090F4803109F454C038F4AD
:10100000882309F4F6C0883009F44DC0F6C0883151
:1010100009F44CC0803209F45DC0EFC0803409F49B
:1010200068C048F4803309F455C0883309F0E5C03E
:1010300080936002D8C0803509F44FC0883509F428
:101040005DC0883409F0D9C0D6C0883909F4C7C05A
:10105000A8F4883709F467C038F4883609F463C007
:10106000803709F460C0C9C0883809F4B8C0803935
:1010700009F45FC0803809F0C0C05BC0803B09F450
:1010800086C038F4803A09F466C0883A09F47FC013
:10109000B4C0803C09F4A7C0883C09F4A4C0883BD4
:1010A00009F48AC0AAC080913D0210C090915F02ED
:1010B00080915E02981770F5E0915F0281E08E0FDB
:1010C00080935F02F0E0E25CFD4F80818093BB0083
:1010D00085EC86C0809360028EC0E0915F0281E063
:1010E0008E0F80935F028091BB00F0E0E25CFD4FC9
:1010F000808390915F0280915E026EC0E0915F02FA
:1011000081E08E0F80935F028091BB00F0E0E25C93
:10111000FD4F80838091610281116DC081E08093D9
:101120003C0284EA61C083E0809362021092FF0176
:10113000CFCF8091FF01803208F051C0E091FF01D4
:1011400081E08E0F8093FF018091BB00F0E0E152BF
:10115000FE4F8083BDCF85EC8093BC00109262026D
:101160008091FF01803230F4E091FF01F0E0E15224
:10117000FE4F10826091FF0170E0E091DD01F0917F
:10118000DE018FED91E009951092FF0136C084E0F9
:10119000809362021092DC011092DB01E091D90190
:1011A000F091DA0109958091DB01811105C081E0A0
:1011B0008093DB011092B901E091DC0181E08E0F98
:1011C0008093DC01F0E0E754FE4F80818093BB0008
:1011D0009091DC018091DB01981708F479CF85E8C4
:1011E0008093BC000AC085EC8093BC001092620220
:1011F00004C0109260020E94A807FF91EF91BF9176
:10120000AF919F918F917F916F915F914F913F919E
:101210002F910F900FBE0F901F9018951F920F9255
:101220000FB60F9211242F933F934F935F936F93B9
:101230007F938F939F93AF93BF93EF93FF9388E92F
:1012400092E00E94F005FF91EF91BF91AF919F91C5
:101250008F917F916F915F914F913F912F910F905F
:101260000FBE0F901F9018951F920F920FB60F92FE
:1012700011242F938F939F93EF93FF93E091A802F4
:10128000F091A9028081E091AE02F091AF0282FD5F
:1012900012C090818091B1028F5F8F732091B20252
:1012A000821751F0E091B102F0E0E856FD4F958FC2
:1012B0008093B10201C08081FF91EF919F918F9146
:1012C0002F910F900FBE0F901F9018951F920F92A5
:1012D0000FB60F9211242F933F934F935F938F93E9
:1012E0009F938091B701811128C08091B60181112F
:1012F00005C084B5806484BD81E01BC090E08D3062
:1013000091058CF4019721E030E0A90102C0440F5F
:10131000551F8A95E2F7CA018B779927892B19F017
:1013200084B5806402C084B58F7B84BD8091B60192
:101330008F5F8093B6011092B7018091B7018F5FE4
:101340008093B7019F918F915F914F913F912F9122
:101350000F900FBE0F901F9018951F920F920FB60F
:101360000F9211240F900FBE0F901F9018950895A3
:10137000FC016370668B84819581268137816130A1
:1013800039F0633029F09187808733872287089569
:10139000318720879387828708956F927F928F92FB
:1013A0009F92AF92BF92CF92DF92EF92FF920F93F4
:1013B0001F93CF93DF93EC014B015A016901380170
:1013C000E881F9810284F385E02D0995E881F981AE
:1013D0000288F389E02D87019601A501B401CE01B1
:1013E0000995A501460D571D41505109E881F98124
:1013F0000288F389E02D9601B401CE010995E881B8
:10140000F9810088F189E02D9301A501B401CE0195
:101410000995C80CD91CB60161507109E881F981A0
:101420000088F189E02D9301A501CE010995E8819D
:10143000F9810688F789E02DCE01DF91CF911F91C8
:101440000F91FF90EF90DF90CF90BF90AF909F9063
:101450008F907F906F9009948F929F92AF92BF92DE
:10146000CF92DF92EF92FF920F931F93CF93DF9370
:101470004C016B015A01E901DC01ED91FC9162170D
:10148000730781F40417150724F48B2D5801042FDA
:10149000182F0A191B0998012F5F3F4F048CF58DF7
:1014A000E02D12C04017510709F52617370724F41D
:1014B0008D2D6901C62FD82F9E012C193D092F5F54
:1014C0003F4F068CF78DE02D8701A501B601C401C1
:1014D0000995DF91CF911F910F91FF90EF90DF90D1
:1014E000CF90BF90AF909F908F9008950284F38526
:1014F000E02D0995D401ED91FC910488F589E02D4A
:101500009E01A501B601C4010995D401ED91FC919C
:101510000688F789E02DC401DF91CF911F910F91CB
:10152000FF90EF90DF90CF90BF90AF909F908F9003
:101530000994EF92FF920F931F93DC011A960D917D
:101540001C911B9718962D913C911997ED91FC9148
:1015500000A0F1A1E02D7B0140E050E060E070E0F0
:1015600009951F910F91FF90EF900895CF92DF9210
:10157000EF92FF920F931F93CF93DF93EC016A01D9
:101580007B01452B462B472B31F4C12C42E1D42E55
:101590004AE7E42EF12C8FA987FD07C061E00E9485
:1015A000A81461E08FA90E945B1461E088AD0E94DD
:1015B000A81461E088AD0E945B148DA9811152C00E
:1015C00040E052E16AE770E090E0C416D506E60616
:1015D000F70640F476956795579547959F5F963047
:1015E000A1F797E081E08927982F906A969599A3B3
:1015F00081708AA31BA21CA21DA21EA21FB7F89471
:1016000080910002811127C0EDE1F6E08491EFEFB7
:10161000F5E09491E82FF0E0EE0FFF1FE952FF4F45
:10162000A591B491EC91E92321F461E08AE00E9454
:101630005B1461E08AE00E94A8148CB580618CBDC7
:101640008CB580648CBD61E08DE00E94A81461E0DF
:101650008BE00E94A814809100028F5F80930002AB
:101660001FBF4BC08130B9F461E08AA50E94A81465
:1016700060E08AA50E945B1461E08CA50E94A8141A
:1016800060E08CA50E945B148BA587FD36C060E0EE
:101690000E94A81432C003E116E0F12CF8018491F5
:1016A000E82FF0E0EE0FFF1FE75FF94F859194916F
:1016B0002F8D38A12817390741F461E08F2D0E9442
:1016C000A81460E08F2D0E945B14F3940F5F1F4FEE
:1016D000F4E1FF12E3CF61E08EA50E94A81461E05F
:1016E0008EA50E945B148FA587FD07C061E00E9454
:1016F000A81461E08FA50E945B148EA987FD2AC003
:1017000061E00E94A81461E08EA90E945B142FEF93
:1017100081EE94E0215080409040E1F700C000004D
:1017200060E08EA90E945B14EFEFF1EE24E0E1503F
:10173000F0402040E1F700C0000061E08EA90E9467
:101740005B148FEF93ECE9E081509040E040E1F7CB
:1017500000C000008EA987FF10C020E040E050E0EC
:1017600061E0CE010E94A911FFEF22E587E0F15070
:1017700020408040E1F700C00000E8E6F0E0CF0143
:10178000019664916623E1F08F010E5F1F4FFC010B
:10179000F490FF2DFF77EF2E2F2FA801CE010E948E
:1017A000A911F801EE0DF11DF7FEE9CF2FEF82E54B
:1017B00097E0215080409040E1F700C00000DFCF6B
:1017C00080EF90E09987888780E491E09B878A8703
:1017D000DF91CF911F910F91FF90EF90DF90CF900D
:1017E00008958F929F92AF92BF92CF92DF92EF9225
:1017F000FF920F931F93CF93DF935C014B016A011C
:10180000E90177FD53C0DC0118968D919C911997E1
:10181000681779070CF04AC0209709F447C037FFD2
:1018200007C0C9010196C80ED91ED195C195D1092D
:10183000F50182859385C816D906C4F5A6014C0F1B
:101840005D1F9A012150310937FD30C0D7FE03C01A
:10185000EA01C12CD12C281739071CF0EC01CC1956
:10186000DD09D501ED91FC910284F385E02DC501E0
:10187000099578018E0121E030E0A601B401C5018F
:101880000E946717D501ED91FC910688F789E02D3C
:10189000C501DF91CF911F910F91FF90EF90DF90E5
:1018A000CF90BF90AF909F908F900994DF91CF9190
:1018B0001F910F91FF90EF90DF90CF90BF90AF906E
:1018C0009F908F9008958F929F92AF92BF92CF92E8
:1018D000DF92EF92FF920F931F93CF93DF935C0100
:1018E0006B014A01E90157FD53C0DC011A968D9145
:1018F0009C911B97481759070CF04AC0209709F490
:1019000047C037FF07C0C9010196C80ED91ED1953F
:10191000C195D109F50180859185C816D906C4F510
:10192000A6014C0F5D1F9A012150310937FD30C0CF
:10193000D7FE03C0EA01C12CD12C281739071CF0AF
:10194000EC01CC19DD09D501ED91FC910284F38500
:10195000E02DC5010995780101E010E09E01A40188
:10196000B601C5010E946717D501ED91FC9106886B
:10197000F789E02DC501DF91CF911F910F91FF9065
:10198000EF90DF90CF90BF90AF909F908F90099491
:10199000DF91CF911F910F91FF90EF90DF90CF904B
:1019A000BF90AF909F908F900895EF92FF920F930A
:1019B0001F93CF93DF9377FD34C0DC011896ED9130
:1019C000FC9119976E177F0764F52115310549F1D0
:1019D00037FF07C0F90131964E0F5F1F31952195F2
:1019E0003109DC011A96ED91FC911B974E175F07A8
:1019F000C4F4EA01C20FD31FDE011197B7FD11C075
:101A000057FF03C09E0140E050E0AE17BF071CF037
:101A10009F01241B350B7801890121E030E00E94F1
:101A20006717DF91CF911F910F91FF90EF9008956D
:101A3000EF92FF920F931F93CF93DF9357FD33C025
:101A4000DC011A96ED91FC911B974E175F075CF530
:101A50002115310541F137FF07C0F90131966E0FAD
:101A60007F1F319521953109DC011896ED91FC918C
:101A700019976E177F07BCF4EB01C20FD31FDE016D
:101A80001197B7FD10C077FF03C09E0160E070E0C2
:101A9000AE17BF071CF09F01261B370B780101E032
:101AA00010E00E946717DF91CF911F910F91FF9077
:101AB000EF9008958F929F92AF92BF92CF92DF9254
:101AC000EF92FF920F931F93CF93DF93470121155E
:101AD000310509F44DC00115110509F449C037FF5E
:101AE00007C0F90131966E0F7F1F3195219531099D
:101AF000DC011896AD90BC9019976A157B05C4F56A
:101B000017FF07C0F80131964E0F5F1F1195019521
:101B10001109DC011A96ED91FC911B974E175F0796
:101B20003CF56B01C20ED31EE6012197D7FD20C004
:101B30007A01E00EF11ED7011197B7FD19C077FFAA
:101B400003C0960160E070E057FF03C0870140E0EA
:101B500050E0CA15DB051CF09501261B370BAE17AC
:101B6000BF071CF08F01041B150B74010E9467173F
:101B7000DF91CF911F910F91FF90EF90DF90CF9069
:101B8000BF90AF909F908F900895EF92FF920F9328
:101B90001F932115310529F00115110511F00E943F
:101BA000D3101F910F91FF90EF9008958F929F9205
:101BB000AF92CF92EF92FF920F931F93CF93DF9349
:101BC000EC01262F898D9A8D009709F042C06A306A
:101BD00059F41D861C862D898E859F8538E0239FAC
:101BE000800D911D112443C06D3009F4AAC08F8966
:101BF0008823C9F03C898C859D8546E0349F800D03
:101C0000911D1124488559854817590764F41D868C
:101C10001C863D898E859F8548E0349F800D911DEF
:101C200011249F878E87EA88FB88088919894E8549
:101C30005F856C857D85AD88CC88CE010E9427129A
:101C40002C898C859D8536E0239F800D911D112464
:101C50003EC06A3079F41D861C862D89FC013896B9
:101C6000E4918E859F852E9F800D911D11249F8765
:101C70008E8767C06D3009F464C0FC0134963491DE
:101C8000631708F45EC03296E491E61708F459C071
:101C9000462F431B342FFC0132968590949047E0E9
:101CA000349F800C911C1124F401329634913196AA
:101CB000E491332311F0E1110DC0F4013496E49165
:101CC0002C898C859D85E29F800D911D11249D8717
:101CD0008C8737C0F401359644915F89552319F1FB
:101CE0005C89E32FF0E0E40FF11D47FDFA955E9F5C
:101CF000B0015F9F700D11244C855D85460F571F05
:101D0000688579856417750774F41D861C863D897E
:101D1000FC013896E4918E859F853E9F800D911D34
:101D200011249F878E87EA88FB88088919894E8548
:101D30005F856C857D85AD88CC88CE010E94271299
:101D4000BCCF81E090E0DF91CF911F910F91FF9088
:101D5000EF90CF90AF909F908F900895FC01A5A138
:101D6000B6A19C9182A589238C93A5A1B6A19C9133
:101D700081A5892B8C9308950F931F93CF93DF93A5
:101D8000EC018B018DA9811109C01EBD0DB407FEA8
:101D9000FDCF0EBD0DB407FEFDCF2FC08130E9F49D
:101DA00080E1E9A1FAA1208117FF03C09DA1922B38
:101DB00002C09EA192239083EBA1FCA120819FA150
:101DC000922B9083EBA1FCA1208198A59223908374
:101DD000000F111F815029F710C0EF8DF8A110835B
:101DE000CE010E94AE0EEF8DF8A10083CE01DF91EF
:101DF000CF911F910F910C94AE0EDF91CF911F9157
:101E00000F910895AF92BF92CF92DF92EF92FF921F
:101E10000F931F93CF93DF93EC0177FD38C0888534
:101E20009985681779079CF557FD31C08A859B8590
:101E30004817590764F569017A015B01E881F98166
:101E40000284F385E02DCE010995E881F98102A491
:101E5000F3A5E02D01E010E021E030E0A701B5019D
:101E6000CE010995B601CE010E94BC0EE881F98130
:101E70000688F789E02DCE01DF91CF911F910F9158
:101E8000FF90EF90DF90CF90BF90AF900994DF91DB
:101E9000CF911F910F91FF90EF90DF90CF90BF9067
:101EA000AF900895EF92FF920F931F93CF93DF931C
:101EB000EC0177FD22C08885998568177907ECF4D5
:101EC00057FD1BC08A859B8548175907B4F47901D3
:101ED000E881F98102A4F3A5E02D01E010E021E002
:101EE00030E0CE010995B701CE01DF91CF911F916E
:101EF0000F91FF90EF900C94BC0EDF91CF911F914A
:101F00000F91FF90EF900895FC0185A9811105C004
:101F10006EBD0DB407FEFDCF08958130E1F488E079
:101F2000A1A1B2A12C9167FF03C095A1922B02C081
:101F300096A192239C93A3A1B4A12C9197A1922B3B
:101F40009C93660FA3A1B4A12C9190A592239C937E
:101F5000815031F70895A78DB0A16C93CF010C94F7
:101F6000AE0ECF93DF93EC01ED8DFE8D90818CA9A9
:101F700089238083CE010E94840FED8DFE8D908198
:101F80008BA9892B8083DF91CF9108951F93CF93E5
:101F9000DF93EC01162FE881F9810284F385E02DAF
:101FA0000995112311F06DAD01C06EADCE010E94F7
:101FB000B10FE881F9810688F789E02DCE01DF9124
:101FC000CF911F910994FC0185A9811104C091A1B1
:101FD00082A19CBD8DBD0895CF93DF93EC010E943B
:101FE000E30F8FA987FD06C0EB8DFC8D90818AA938
:101FF00089238083DF91CF9108950895FC0187A9FB
:1020000087FD06C0A38DB48D9C9181A9892B8C93EB
:1020100008950F931F93CF93DF931F92CDB7DEB731
:102020008C016370DC0156966C935697623059F0C0
:102030006330C9F0613029F088E4898380EF90E053
:1020400007C088E211C088E8898380EF90E0D8015A
:1020500019969C938E93189780E491E01B969C931D
:102060008E931A970BC088EE898380E491E0F80183
:102070009187808780EF90E093878287C8010E94D4
:10208000E30FD801D7968C91D79787FD09C05B964F
:10209000ED91FC915C979081D2968C9189238083FD
:1020A000D8015D96ED91FC915E979081D4968C91CC
:1020B0008923808366E3C8010E94840FD8015D965E
:1020C000ED91FC915E979081D3968C91D397892B5B
:1020D0008083D5968C91823029F06981C8010E9455
:1020E000840F09C0F80180A98823B9F369817A8136
:1020F000C8010E94BC0ED801D7968C91D79787FD56
:1021000009C05B96ED91FC915C979081D1968C9182
:10211000892B8083F80185A9811102C00E94FD0FDF
:102120000F90DF91CF911F910F9108950E94631D31
:10213000AF92BF92CF92DF92EF92FF920F931F93D5
:10214000CF93DF93EC015B016A01215031097901E2
:10215000E60EF71E01501109040F151F6AE20E94D6
:10216000B10FB501CE010E94BC0EB701CE010E9495
:10217000BC0E6BE2CE010E94B10FB601CE010E94EF
:10218000BC0EB801CE010E94BC0E6CE2CE01DF9104
:10219000CF911F910F91FF90EF90DF90CF90BF9064
:1021A000AF900C94B10F8F929F92AF92BF92CF924B
:1021B000DF92EF92FF920F931F93CF93DF934C0127
:1021C000EB016A01590137FF07C0C9010196C80F29
:1021D000D91FB194A194B108F401A085B185CA17A3
:1021E000DB070CF058C017FF07C0C8010196C80EE6
:1021F000D91E119501951109F40182859385C816A0
:10220000D9060CF048C0FE01EA0DFB1DAF0141509C
:10221000510957FD40C0B601600F711F9B0121504D
:10222000310937FD38C0D7FF03C05F01C0E0D0E0FF
:10223000D7FE03C08B01C12CD12C4A175B071CF0C1
:102240005D01AC1ABD0A281739071CF08C010C1966
:102250001D09D401ED91FC910284F385E02DC401A8
:1022600009959501A601BE01C4010E946717D4011A
:10227000ED91FC910688F789E02DC401DF91CF91A3
:102280001F910F91FF90EF90DF90CF90BF90AF9094
:102290009F908F900994DF91CF911F910F91FF90A4
:1022A000EF90DF90CF90BF90AF909F908F90089568
:1022B000CF92DF92EF92FF920F931F93CF93DF9312
:1022C000EC016B0180EEE82EFF24FA940AE010E0A6
:1022D0002AE030E0AB01BE0185E393E00E94D31019
:1022E00095E6E92E99E2F92E01E010E02AE030E0CF
:1022F000A601BE0185E393E00E94D3100AE010E03E
:1023000021E030E0A601BE0185E393E00E94D310F6
:10231000A601475F5F4F01E010E02AE030E0BE0118
:1023200085E393E00E94D310BE01675F7F4F0AE010
:1023300010E021E030E0A60185E393E00E94D31095
:10234000DF91CF911F910F91FF90EF90DF90CF9091
:102350000895AF92BF92CF92DF92EF92FF920F93C8
:102360001F93CF93DF93EC01E62E8A01F22E0E9499
:10237000E30F8FA987FD06C0EB8DFC8D90818AA9A4
:1023800089238083ED8DFE8D90818CA989238083A4
:102390006E2DCE010E94840FED8DFE8D90818BA954
:1023A000892B8083C12CD12CAF2CB12CCA14DB0417
:1023B000E4F48DA97801823059F488A9882341F08A
:1023C000F801619171917F01CE010E94BC0E08C09D
:1023D000FFEFEF1AFF0AF8016491CE010E94840F0B
:1023E000FFEFCF1ADF0A8701E1CF8FA987FD06C073
:1023F000EB8DFC8D908189A9892B80838DA981111A
:102400000CC0DF91CF911F910F91FF90EF90DF9063
:10241000CF90BF90AF900C94FD0FDF91CF911F91A3
:102420000F91FF90EF90DF90CF90BF90AF90089505
:10243000611102C060E201C061E220E040E050E0D2
:102440000C94A911682F8CE892E00C945A052F92F5
:102450003F924F925F926F927F928F929F92AF9234
:10246000BF92CF92DF92EF92FF920F931F93CF9381
:10247000DF93CDB7DEB76B970FB6F894DEBF0FBE14
:10248000CDBF9B8F8A8F1B014A01D22E19870887E7
:102490003701A982DC0159962D913C915A9721155B
:1024A000310509F0FFC018968D919C911997681716
:1024B00079070CF0E7C11A968D919C911B974817EC
:1024C00059070CF0DFC1EC2DF0E0FB83EA839B01A0
:1024D00046E0C49E200D311D11243D872C87121625
:1024E00013060CF0CFC16A2D70E07B876A8783E00A
:1024F000660F771F8A95E1F77F876E87CB01880D7E
:10250000991D181619060CF0BDC158968C918111B1
:1025100004C08FEA8D1508F4D394AA8DBB8DED917C
:10252000FC9111970284F385E02DCD010995B5E06A
:10253000DB9EC0011124EC2DF0E0F98BE88B9101BA
:102540002B5F3F4F3B8B2A8B3D822C822101AC01BC
:10255000421953095D8B4C8B7981672F70E07F8B1B
:102560006E8BC4010896998F888FEC89FD89E40DE4
:10257000F51DEB50FF4FD49054019F828E82D0FE08
:1025800016C0AA8DBB8DED91FC91B1E0CB1209C0B4
:102590002981213031F40484F585E02D28853985A1
:1025A00019C00684F785E02DE884F9841DC04885AC
:1025B00059854615570519F1AA8DBB8DED91FC91F2
:1025C000B1E0CB120DC02981213051F40484F5858E
:1025D000E02D9301A501B2018A8D9B8D09950FC055
:1025E0000684F785E02D73010A851B852A813B81CE
:1025F0004E815F816C817D818A8D9B8D0995D694FA
:102600003FEFA31AB30A4E815F816E897F89460F1F
:10261000571F5F834E83888D998DA816B90609F0E0
:10262000AECF9FEF491A590AAC81BD81E889F9897B
:10263000AE0FBF1FBD83AC832A893B894216530668
:1026400009F093CF488559854615570509F4F8C018
:10265000AA8DBB8DED91FC91B1E0CB1211C0298107
:10266000213071F4B1016B5F7F4F0088F189E02D5B
:10267000830128E030E0A4018A8D9B8D0995E0C09C
:102680006C857D854A815B81641B750B0684F785AB
:10269000E02D73010E851F859A01A4018A8D9B8D03
:1026A0000995CEC0F9013496E491DE1AF90132960B
:1026B00085919491B7E0DB9E800D911D1124F90165
:1026C000259134913B8B2A8BFC0125913491590142
:1026D000FC0132965490319634913C873296749036
:1026E0003196149141E04C1518F05981523068F040
:1026F000672D072C000C770B7D836C83812F012EB7
:10270000000C990B9B838A8304C01B821A821D8252
:102710001C82AA8DBB8DED91FC9111970284F385EB
:10272000E02DCD010995412CD12C612CF981EF2FA1
:10273000F0E0FF83EE832C2D30E03B872A87A40155
:10274000410F511D17FD5A955F8B4E8BB101670DDF
:10275000711D77FC7A95798F688F7C85671608F0F4
:102760006FC0262D30E04A815B81420F531FAE813E
:10277000BF81A49FC001A59F900DB49F900D11240F
:10278000F401E80FF91FF98BE88B842D712C4E8929
:102790005F89420F531F5D8B4C8B751408F04DC041
:1027A00051E0580F5E87877041F4C5010196EA89B0
:1027B000FB89EA0DFB1DD4905C01D7FE3AC061E0B5
:1027C000C61216C07981713099F4AA8DBB8DED9136
:1027D000FC9111970484F585E02D288539854C8975
:1027E0005D89688D798D670D711DCD01099521C0B9
:1027F0008C819D81870D911DEA85FB858E9FB0019F
:102800008F9F700D9E9F700D1124620D731DAA8DF8
:10281000BB8DED91FC9111970684F785E02DE8843E
:10282000F9840E811F812A853B8548895989CD010C
:102830000995DD0C73948E85B0CF450C63948DCFD4
:10284000AA8DBB8DED91FC9111970688F789E02D3B
:10285000CD016B960FB6F894DEBF0FBECDBFDF91F2
:10286000CF911F910F91FF90EF90DF90CF90BF908D
:10287000AF909F908F907F906F905F904F903F9020
:102880002F9009946B960FB6F894DEBF0FBECDBFA4
:10289000DF91CF911F910F91FF90EF90DF90CF903C
:1028A000BF90AF909F908F907F906F905F904F9070
:1028B0003F902F90089590E0FC01EF51FF4F24913D
:1028C000FC01EB50FA4F3491FC01ED5EF94FE491BD
:1028D000EE2309F43CC0222339F1233091F038F47F
:1028E0002130A9F0223001F584B58F7D12C0273048
:1028F00091F02830A1F02430B9F4809180008F7DD0
:1029000003C0809180008F77809380000DC084B5D4
:102910008F7784BD09C08091B0008F7703C080910C
:10292000B0008F7D8093B000F0E0EE0FFF1FE75FF7
:10293000F94FA591B4919FB7F894611104C08C919F
:102940003095382302C0EC913E2B3C939FBF0895F5
:10295000CF93DF9390E0FC01EB50FA4F2491FC0100
:10296000ED5EF94F8491882361F190E0880F991F03
:10297000FC01E952FF4FC591D491FC01E75FF94F8B
:10298000A591B491611109C09FB7F89488812095F1
:1029900082238883EC912E230BC0623061F49FB7B1
:1029A000F8948881322F309583238883EC912E2BE5
:1029B0002C939FBF06C08FB7F894E8812E2B2883F5
:1029C0008FBFDF91CF9108953FB7F89480910602B1
:1029D00090910702A0910802B091090226B5A89B28
:1029E00005C02F3F19F00196A11DB11D3FBFBA2FA1
:1029F000A92F982F8827820F911DA11DB11DBC0101
:102A0000CD0142E0660F771F881F991F4A95D1F7C5
:102A100008951F920F920FB60F9211242F933F9398
:102A20008F939F93AF93BF93809102029091030283
:102A3000A0910402B09105023091010223E0230F1E
:102A40002D3720F40196A11DB11D05C026E8230FE6
:102A50000296A11DB11D2093010280930202909362
:102A60000302A0930402B0930502809106029091A4
:102A70000702A0910802B09109020196A11DB11DA3
:102A80008093060290930702A0930802B093090274
:102A9000BF91AF919F918F913F912F910F900FBE5A
:102AA0000F901F9018958F929F92AF92BF92CF92E6
:102AB000DF92EF92FF920F931F93CF93DF931091CA
:102AC0008B02113208F0C2C0D0918A020E94E41435
:102AD0006B017C01C0916202CC2311F180916402F0
:102AE00090916502A0916602B0916702892B8A2BB2
:102AF0008B2B81F30E94E414809064029090650215
:102B0000A0906602B0906702DC01CB018C199D0990
:102B1000AE09BF0988169906AA06BB06D8F682C078
:102B200082E08093620281E0809361028FEF809364
:102B3000600210925F0210935E02AAE6B2E0EEE33A
:102B4000F2E080E0181721F09D9191938F5FFACF0A
:102B500010923D0290913D028D2F880F892B80931A
:102B60003D0280913C02813089F510923C020E9426
:102B7000E4146B017C0180913D028093BB00809145
:102B8000640290916502A0916602B0916702892B60
:102B90008A2B8B2BA9F00E94E414009164021091FF
:102BA00065022091660230916702DC01CB018C192D
:102BB0009D09AE09BF09081719072A073B0790F1BD
:102BC0008091BC0083FDD7CF85EC01C085EE80935A
:102BD000BC000E94E4146B017C018091620282308F
:102BE00039F58091640290916502A0916602B091DE
:102BF0006702892B8A2B8B2B81F30E94E4140091AE
:102C00006402109165022091660230916702DC0136
:102C1000CB018C199D09AE09BF09081719072A07AE
:102C20003B07D8F6809163020E948707C5E013C076
:102C3000809160028F3F79F080916002803241F094
:102C400080916002803331F0C4E005C0C1E003C070
:102C5000C2E001C0C3E01092690210928B02109290
:102C600068028C2FDF91CF911F910F91FF90EF9011
:102C7000DF90CF90BF90AF909F908F900895CF92AC
:102C8000DF92EF92FF920F931F93CF93DF9391E028
:102C90009093680292E590938A02109269021092D2
:102CA0008B02682F8CE892E00E945A050E9453150F
:102CB0000E94E4146B017C01C0916202CC2339F1C3
:102CC0008091640290916502A0916602B0916702C2
:102CD000892B8A2B8B2B81F30E94E41400916402D0
:102CE000109165022091660230916702DC01CB01F0
:102CF0008C199D09AE09BF09081719072A073B0758
:102D0000D8F6809163020E948707C0E08DC081E001
:102D100080936202809361029FEF90936002109211
:102D20005F0295E090935E0280933D0280913D02A8
:102D3000846A80933D0280913C02813089F5109233
:102D40003C020E94E4146B017C0180913D0280935F
:102D5000BB008091640290916502A0916602B091DF
:102D60006702892B8A2B8B2BA9F00E94E414009117
:102D70006402109165022091660230916702DC01C5
:102D8000CB018C199D09AE09BF09081719072A073D
:102D90003B0790F18091BC0083FDD7CF85EC01C04B
:102DA00085EE8093BC000E94E4146B017C0180914D
:102DB0006202813031F58091640290916502A091A8
:102DC0006602B0916702892B8A2B8B2B81F30E94BC
:102DD000E414009164021091650220916602309122
:102DE0006702DC01CB018C199D09AE09BF090817E8
:102DF00019072A073B07D8F6809163020E948707CC
:102E000013C080915F02863018F480915F0201C088
:102E100086E0EEE3F2E0ACE0B2E0C0E0C81721F0FB
:102E200091919D93CF5FFACF10920B02C0930A024B
:102E300006E312E0D0E080910B02C81759F0D630BB
:102E400049F0DF5F8CE892E00E941105F801819360
:102E50008F01F1CF8D2FDF91CF911F910F91FF90B7
:102E6000EF90DF90CF900895FC01808191810097D1
:102E700011F00C94141C0895909342038093410325
:102E800070934403609343038FEF9FEF9093480345
:102E9000809347039093460380934503842F4423F4
:102EA00011F0942F01C091E090934903411101C0AA
:102EB00081E080934A0381E080934C03F9014481CF
:102EC00055816081718185E393E00C9489058F922F
:102ED0009F92AF92BF92CF92DF92EF92FF920F93A9
:102EE0001F93CF93DF93EC014901BE2CAF2CE881F7
:102EF000F98102A4F3A5E02D09959401D8010E945F
:102F0000671B611571058105910509F481C02DA923
:102F100021110FC0615071098109910908F478C02D
:102F2000AEBC0DB407FEFDCFBEBC0DB407FEFDCF99
:102F3000F1CF213009F03FC0615071098109910939
:102F400008F466C03A2D28E0E9A1FAA1508137FFC4
:102F500003C04DA1452B02C04EA145234083EBA1E8
:102F6000FCA150814FA1452B4083EBA1FCA15081D6
:102F700048A545234083330F215031F73B2D28E0EE
:102F8000E9A1FAA1508137FF03C04DA1452B02C032
:102F90004EA145234083EBA1FCA150814FA1452BBD
:102FA0004083EBA1FCA1508148A545234083330F0A
:102FB000215031F7C1CFFE1017C0EF8DF8A1F0827C
:102FC0006B017C01CC0CDD1CEE1CFF1CC114D10478
:102FD000E104F104E9F0CE010E94AE0E81E0C81ACE
:102FE000D108E108F108F2CF6B017C01EF8DF8A167
:102FF000A082CE010E94AE0EEF8DF8A1B082CE016C
:103000000E94AE0E21E0C21AD108E108F10871F762
:10301000DF91CF911F910F91FF90EF90DF90CF90B4
:10302000BF90AF909F908F900895CF93DF9300D083
:1030300000D000D0CDB7DEB7E091A802F091A90290
:1030400082E08083E091A402F091A5021082E091D9
:10305000A602F091A7028FEC80831092B002E0915B
:10306000AC02F091AD0286E08083E091AA02F0917B
:10307000AB02808180618083E091AA02F091AB0273
:10308000808188608083E091AA02F091AB02808108
:1030900080688083E091AA02F091AB0280818F7DED
:1030A0008083789410920B0210920A0210926902A7
:1030B00010928B020E94850680E095E09093DA01E1
:1030C0008093D90181E095E09093DE018093DD014A
:1030D00001E00093680212E510938A0210926902DF
:1030E00010928B0280EF90E00E94221285E590E022
:1030F0000E9422120E9453150093680210938A02C4
:103100001092690210928B028BEF90E00E942212C3
:1031100080E090E00E9422120E9453158AEF0E94E4
:103120003F1640E050E0BA0185E393E00E94B60A02
:1031300060E070E085E393E00E94990A0CE211E000
:1031400040E050E0B80180E090E00E94030740E0DA
:1031500050E0B8018CED90E00E9403070451110982
:103160000C33110569F704E110E040E050E060E540
:1031700070E0C8010E9403070C5E1F4F0C3D110553
:10318000A1F763E270E08EE190E00E94581163E2E3
:1031900070E088E290E00E9458116DE270E08EE1EC
:1031A00090E00E94581163E270E08EEB90E00E9484
:1031B000581163E270E088EC90E00E9458116DE2D3
:1031C00070E08EEB90E00E9458116DE270E088ECA8
:1031D00090E00E94581141E050E060EF70E084E11F
:1031E00090E00E94030741E050E064E071E084E178
:1031F00090E00E94030741E050E068E171E084E163
:1032000090E00E94030741E050E06CE271E084E14D
:1032100090E00E94030742E050E06CE870E084E632
:1032200090E00E94030742E050E06CE870E088E71D
:1032300090E00E94030742E050E060EA70E084E61C
:1032400090E00E94030742E050E060EA70E088E707
:1032500090E00E940307F5E6EF2EF9E2FF2E0EE361
:1032600010E02EE330E049E050E069E070E085E3F3
:1032700093E00E94CD090CE310E02CE330E04AE03B
:1032800050E06AE070E085E393E00E94CD0905E636
:1032900019E22CE030E04CE350E06AE070E08AE0B4
:1032A00090E00E94F10660EA71E0CE0101960E9472
:1032B000A3069E012F5F3F4F41E050E06DE070E0BC
:1032C0008DE190E00E943C17CE0101960E943417D8
:1032D0000EE310E02EE330E049E050E069EA70E0F0
:1032E00085E393E00E94CD090CE310E02CE330E08D
:1032F0004AE050E06AEA70E085E393E00E94CD097D
:1033000005E619E22CE030E04CE350E06AE070E0C2
:103310008AEA90E00E94F10665EA71E0CE0101962A
:103320000E94A3069E012F5F3F4F41E050E06DE0F9
:1033300070E08CEB90E00E943C17CE0101960E9459
:1033400034176AEA71E0CE0101960E94A3069E013D
:103350002F5F3F4F41E050E069E170E089E690E087
:103360000E943C17CE0101960E94341761EB71E078
:10337000CE0101960E94A3069E012F5F3F4F42E0BF
:1033800050E063E270E089E690E00E943C17CE01D5
:1033900001960E94341711E080E00E943F16409190
:1033A000360240932C023091370230932D02209147
:1033B0003B028091380254E0859FB0011124922F86
:1033C0009C70892F90E09595879595958795862B8C
:1033D000972B90932F0280932E028091390294E0D4
:1033E000899FB0011124922F9073892F90E0E4E01F
:1033F00095958795EA95E1F7862B972B9093310267
:103400008093300280913A0254E0859FC0011124DC
:10341000522F5295569556955370852B90933302A3
:1034200080933202822F817081278093340221FBA6
:10343000CC24C0F8D12CC60121E08227809335022C
:10344000453E30F08091020190910301019607C042
:103450004C3148F4809102019091030101979093BF
:10346000030180930201353E30F08091000190917C
:103470000101019608C03C3108F08ECF8091000117
:10348000909101010197909301018093000184CFF5
:10349000ECE8F2E01382128288EE93E0A0E0B0E064
:1034A00084839583A683B78320E231E03183208330
:1034B000E8E9F2E01382128284839583A683B783BE
:1034C00082E391E09183808385EC90E09587848707
:1034D00084EC90E09787868780EC90E0918B808BDE
:1034E00081EC90E0938B828B82EC90E0958B848BC7
:1034F00086EC90E0978B868B118E128E138E148E35
:10350000A5E3B3E013961C921E92129720EF30E0D1
:1035100015963C932E93149780E491E017969C9314
:103520008E93169719963C932E9318971B969C93FF
:103530008E931A9756961C9256971D961C921E9221
:103540001C971F961C921E921E9781E055968C9395
:10355000559754968C9354972FEF3FEF53963C9387
:103560002E93529751963C932E93509757968C9347
:10357000579758961C9258975A961C921E92599794
:10358000D5961C92D5978FEFD6968C93D6978AE0D6
:10359000D7968C93D79789E0D8968C93D897DA965C
:1035A0001C921E92D997DC961C921E92DB97DD9698
:1035B0001C92DD97DE961C92DE9710927403109297
:1035C0007503109276031092770388E793E0909644
:1035D0009C938E935F97ECE1F6E0E491F0E0EE0FC0
:1035E000FF1FE75FF94F859194915E969C938E93B0
:1035F0005D97EEEFF5E08491D3968C93D397EDE150
:10360000F6E0E491F0E0EE0FFF1FE75FF94F259140
:1036100034915C963C932E935B97EFEFF5E0E49149
:10362000D196EC93D197E095D296EC93D297E82F70
:10363000E095D496EC93D49784E791E08D939C9396
:1036400008952F923F924F925F926F927F928F9246
:103650009F92AF92BF92CF92DF92EF92FF920F9321
:103660001F93CF93DF93CDB7DEB7CA1BDB0B0FB62B
:10367000F894DEBF0FBECDBF09942A8839884888E8
:103680005F846E847D848C849B84AA84B984C8847E
:10369000DF80EE80FD800C811B81AA81B981CE0F75
:1036A000D11D0FB6F894DEBF0FBECDBFED0108955A
:1036B000A29FB001B39FC001A39F700D811D112473
:1036C000911DB29F700D811D1124911D08950E94BE
:1036D000581B332312F48A1B9B0B0C94711B0E9402
:1036E000581BB7FF0895821B930B0895EE0FFF1F21
:1036F0000590F491E02D09940F931F93CF93DF93DE
:103700008230910510F482E090E0E0917B03F0912B
:103710007C0320E030E0A0E0B0E0309719F1408178
:1037200051810281138148175907C8F08417950702
:1037300069F4109731F012960C93129713961C931C
:1037400027C000937B0310937C0322C02115310511
:1037500019F04217530718F49A01BD01EF01DF0178
:10376000F801DBCF21153105F9F0281B390B243086
:10377000310580F48A819B816115710521F0FB017F
:103780009383828304C090937C0380937B03FE0128
:10379000329644C0FE01E20FF31F819391932250B1
:1037A0003109398328833AC02091790330917A0313
:1037B000232B41F4209106013091070130937A03C5
:1037C00020937903209104013091050121153105E1
:1037D00041F42DB73EB74091080150910901241BD7
:1037E000350BE0917903F0917A03E217F307A0F427
:1037F0002E1B3F0B2817390778F0AC014E5F5F4F47
:103800002417350748F04E0F5F1F50937A034093FB
:1038100079038193919302C0E0E0F0E0CF01DF9162
:10382000CF911F910F910895CF93DF93009709F4E3
:1038300081C0FC01329713821282A0917B03B09168
:103840007C03109781F420813181820F931F209196
:10385000790330917A032817390751F5F0937A03E9
:10386000E093790367C0ED0120E030E0CE17DF0779
:1038700040F44A815B819E0141155105F1F0EA0156
:10388000F5CFD383C28340815181840F951FC81720
:10389000D90759F488819981840F951F02969183E5
:1038A00080838A819B81938382832115310529F44A
:1038B000F0937C03E0937B033DC0E901FB83EA8343
:1038C00049915991C40FD51FEC17FD0761F4808110
:1038D0009181840F951F0296E901998388838281E3
:1038E00093819B838A83E0E0F0E012968D919C9116
:1038F0001397009719F0FD01DC01F7CF8D919C9192
:1039000011979D012E5F3F4F820F931F20917903E6
:1039100030917A032817390769F4309729F4109207
:103920007C0310927B0302C013821282B0937A034D
:10393000A0937903DF91CF910895A0E0B0E0E3EA8E
:10394000FCE10C94251BEC01009721F4CB010E94B3
:103950007C1BB4C0FC01E60FF71F9C01225031090B
:10396000E217F30708F4A8C0D9010D911C91119733
:1039700006171707B0F00530110508F49BC0C80101
:1039800004978617970708F495C002501109061B83
:10399000170B019311936D937C93CF010E94141C1C
:1039A00089C05B01A01AB10A4C01800E911EA09142
:1039B0007B03B0917C03612C712CE12CF12C1097CE
:1039C00009F446C08D919C911197A815B905B1F5E0
:1039D0006C0142E0C40ED11CCA14DB0478F14C0126
:1039E0008A189B08640142E0C40ED11C1296BC9058
:1039F00012971396AC91B5E0CB16D10440F0B28289
:103A0000A38391828082D9016D937C9309C00E5F5C
:103A10001F4F800F911FF90191838083EB2DFA2FA7
:103A2000E114F10431F0D7011396FC93EE93129751
:103A300041C0F0937C03E0937B033CC06816790699
:103A400008F43C017D0112960D90BC91A02DB7CFDA
:103A50008091790390917A0388169906E1F46616AD
:103A60007706C8F48091040190910501009741F414
:103A70008DB79EB74091080150910901841B950BA9
:103A8000E817F907C8F4F0937A03E0937903F90192
:103A9000718360830FC0CB010E947C1B7C01009767
:103AA00059F0A801BE010E94681DCE010E94141C9D
:103AB000C70104C0CE0102C080E090E0CDB7DEB700
:103AC000EEE00C94411B81E090E0F8940C94781D9A
:103AD000FB01DC0102C001900D9241505040D8F72B
:103AE0000895FB01DC0101900D920020E1F708959B
:043AF000F894FFCF78
:103AF4007800A00000007D032000EF7B34A5694A14
:103B040080FFD0FFE0EE23B76DCF029600000000E7
:103B14005A052D058206F603250511050205000048
:103B2400000012068905B3055F06E405C205D60543
:103B340000000000D60D890582068106020FEC0FF5
:103B4400520F5A0DD50C180D2604FE0FB809C60FD6
:103B5400F10B630CC50D990A2C0ACD099610961029
:103B640000000000D60D890582068106020FEC0FC5
:103B7400520F5A0DD50C180D2604FE0F09101812F9
:103B8400F10B630CC50D990A2C0ACD09B60A9810DD
:103B9400484F4C44004E4558540053636F72653A85
:063BA40000353630000080
:00000001FF
