:100000000C9415030C94AF1C0C943D030C943D030D
:100010000C943D030C943D030C943D030C94340864
:100020000C943D030C943D030C943D030C943D0350
:100030000C943D030C943D030C94D11B0C943D0394
:100040000C949E1A0C943D030C949F1B0C94791BEA
:100050000C943D030C943D030C943D030C943D0320
:100060000C94FD180C943D03EF03038002CF0300B2
:10007000C130ED0464031281E803850078CB0539B3
:100080002C003402F70120EA020000C00123C10164
:1000900010C5023E28C701863601483701003A01E3
:1000A00055B1020018B603088227F20100260101AB
:1000B000E00F0F312B0C0E084EF1370710030E091D
:1000C00000E10F000E1403110731C148080F0C3175
:1000D000360F1180298000010204081020408001A1
:1000E000020408102001020408102000000000256E
:1000F0000028002B00040404040404040402020287
:10010000020202030303030303000000002400278C
:10011000002A00000000080002010000030407009C
:100120000000000000000000000000003E5B4F5B8C
:100130003E3E6B4F6B3E1C3E7C3E1C183C7E3C188A
:100140001C577D571C1C5E7F5E1C00183C1800FF6E
:10015000E7C3E7FF0018241800FFE7DBE7FF30489C
:100160003A060E2629792926407F050507407F0596
:10017000253F5A3CE73C5A7F3E1C1C08081C1C3E8D
:100180007F14227F22145F5F005F5F06097F017F7B
:10019000006689956A606060606094A2FFA294081E
:1001A000047E040810207E201008082A1C08081C61
:1001B0002A08081E101010100C1E0C1E0C30383EA1
:1001C0003830060E3E0E06000000000000005F0002
:1001D000000007000700147F147F14242A7F2A12CE
:1001E00023130864623649562050000807030000B4
:1001F0001C2241000041221C002A1C7F1C2A0808E6
:100200003E080800807030000808080808000060F8
:10021000600020100804023E5149453E00427F40E4
:100220000072494949462141494D331814127F1043
:1002300027454545393C4A4949314121110907368D
:1002400049494936464949291E000014000000402A
:100250003400000008142241141414141400412224
:10026000140802015909063E415D594E7C121112D3
:100270007C7F494949363E414141227F4141413ECF
:100280007F494949417F090909013E414151737F35
:100290000808087F00417F41002040413F017F085E
:1002A0001422417F404040407F021C027F7F0408AF
:1002B000107F3E4141413E7F090909063E415121DF
:1002C0005E7F09192946264949493203017F010306
:1002D0003F4040403F1F2040201F3F4038403F6389
:1002E0001408146303047804036159494D43007FE3
:1002F0004141410204081020004141417F040201B4
:100300000204404040404000030708002054547855
:10031000407F284444383844444428384444287FA3
:10032000385454541800087E090218A4A49C787FFD
:100330000804047800447D40002040403D007F10C8
:1003400028440000417F40007C047804787C080445
:1003500004783844444438FC1824241818242418F9
:10036000FC7C08040408485454542404043F4424E6
:100370003C4040207C1C2040201C3C4030403C4401
:10038000281028444C9090907C4464544C440008BD
:1003900036410000007700000041360800020102EB
:1003A00004023C2623263C1EA1A161123A404020B3
:1003B0007A3854545559215555794122545478422C
:1003C000215554784020545579400C1E52721239F0
:1003D00055555559395454545939555454580000A9
:1003E000457C410002457D420001457C407D121163
:1003F000127DF0282528F07C545545002054547C6B
:10040000547C0A097F4932494949323A4444443AC2
:10041000324A4848303A4141217A3A4240207800F5
:100420009DA0A07D3D4242423D3D4040403D3C2498
:10043000FF2424487E4943662B2FFC2F2BFF0929DC
:10044000F620C0887E090320545479410000447D81
:10045000413048484A32384040227A007A0A0A72CB
:100460007D0D19317D2629292F2826292929263075
:10047000484D4020380808080808080808382F1098
:10048000C8ACBA2F102834FA00007B000008142AE8
:10049000142222142A14085500550055AA55AA55AD
:1004A000AAFF55FF55FF000000FF00101010FF00CD
:1004B000141414FF001010FF00FF1010F010F014BF
:1004C0001414FC001414F700FF0000FF00FF1414C4
:1004D000F404FC141417101F10101F101F14141410
:1004E0001F00101010F0000000001F101010101F4F
:1004F00010101010F010000000FF1010101010105D
:10050000101010FF10000000FF140000FF00FF009B
:10051000001F10170000FC04F41414171017141413
:10052000F404F40000FF00F714141414141414F766
:1005300000F7141414171410101F101F141414F4BF
:10054000141010F010F000001F101F0000001F1406
:10055000000000FC140000F010F01010FF10FF1459
:100560001414FF141010101F00000000F010FFFF03
:10057000FFFFFFF0F0F0F0F0FFFFFF0000000000D1
:10058000FFFF0F0F0F0F0F3844443844FC4A4A4A0C
:10059000347E02020606027E027E026355494163F2
:1005A0003844443C04407E201E2006027E0202990C
:1005B000A5E7A5991C2A492A1C4C7201724C304AA5
:1005C0004D4D303048784830BC625A463D3E49492E
:1005D00049007E0101017E2A2A2A2A2A44445F44D6
:1005E0004440514A444040444A51400000FF010306
:1005F000E080FF000008086B6B08361236243606D0
:100600000F090F06000018180000001010003040FD
:10061000FF0101001F01011E00191D1712003C3CC3
:100620003C3C000000000000782911241FBECFEFE1
:10063000D8E0DEBFCDBF12E0A0E0B1E0EAE4FEE525
:1006400002C005900D92AA31B107D9F725E0AAE1C1
:10065000B2E001C01D92A63FB207E1F713E0C5E189
:10066000D3E004C02197FE010E940C2CC431D107B5
:10067000C9F70E94C5240C94232F0C940000FC01A0
:10068000808591858130910561F024F4892B09F4EE
:100690007EC008958230910581F1039709F452C01C
:1006A00008950280F381E02DA081B1818D919C910C
:1006B000119702968D939C93A281B38112968D918E
:1006C0009C911397019613969C938E931297A481F5
:1006D000B5818D919C91119701968D939C93068085
:1006E000F781E02D808191810197918380838281C0
:1006F00093810196938382830895A281B381ED91C2
:10070000FC911197808191810297918380838281EE
:1007100093810196938382831496ED91FC911597B2
:100720008081918101979183808382819381019659
:10073000938382831696ED91FC9117978081918126
:10074000019649C0A281B381ED91FC9111978081FE
:100750009181019691838083828193810197938314
:1007600082831496ED91FC91159780819181019778
:1007700091838083828193810197938382831696EC
:10078000ED91FC91179780819181029724C0A281FD
:10079000B381ED91FC9111978081918101979183B3
:1007A0008083828193810196938382831496ED9155
:1007B000FC9115978081918101969183808382813C
:1007C00093810196938382831696ED91FC911797FE
:1007D000808191810296918380830895FC018085B8
:1007E00091858130910561F024F4892B09F47FC053
:1007F00008958230910529F1039709F453C00895B3
:10080000A281B3811296ED91FC9113978081918121
:100810000197918380838281938101969383828360
:100820001496ED91FC9115978081918102969183A8
:1008300080831696ED91FC911797808191810196A6
:1008400075C00280F381E02DA081B18112968D9157
:100850009C911397019613969C938E931297A28165
:10086000B3818D919C91119701968D939C93A48156
:10087000B5818D919C911197029711969C938E93BF
:1008800012968D919C911397019613969C938E933B
:1008900012970680F781E02D8081918101979183E5
:1008A00080830895A281B381ED91FC91119780819D
:1008B00091810197918380838281938101979383B2
:1008C00082831296ED91FC9113978081918102971A
:1008D000918380831496ED91FC911597808191818D
:1008E00001969183808382819381019724C0A281A4
:1008F000B381ED91FC911197808191810196918353
:100900008083828193810196938382831296ED91F5
:10091000FC91139780819181029691838083149634
:10092000ED91FC911597808191810197918380834E
:10093000828193810196938382830895FC0180854F
:1009400091858130910561F024F4892B09F47CC0F4
:1009500008958230910509F1039709F457C008956D
:10096000A281B3811496ED91FC91159780819181BC
:1009700001979183808382819381019693838283FF
:100980001696ED91FC911797808191810196918344
:10099000808382819381019654C00280F381E02D8F
:1009A000A081B1818D919C911197029611969C9393
:1009B0008E9312968D919C911397019613969C930A
:1009C0008E931297A281B3818D919C91119701977B
:1009D00011969C938E9312968D919C9113970296EB
:1009E00013969C938E931297A481B58112968D9144
:1009F0009C911397019613969C938E931297068061
:100A0000F781E02D80819181019642C0A281B3815E
:100A1000ED91FC9111978081918101979183808361
:100A2000828193810197938382831296ED91FC9149
:100A30001397808191810196918380838281938134
:100A40000197938382830895A281B381ED91FC91F4
:100A50001197808191810197918380838281938115
:100A60000196938382831496ED91FC911597808172
:100A700091810196918380838281938101979383F1
:100A800082831696ED91FC91179780819181029750
:100A9000918380830895FC01808591858130910543
:100AA00061F024F4892B09F49CC0089582309105EB
:100AB000D1F1039709F45CC008950280F381E02D21
:100AC000A081B1818D919C91119701968D939C93FA
:100AD000A281B38112968D919C91139701961396E2
:100AE0009C938E931297A481B5818D919C911197BF
:100AF000019711969C938E9312968D919C911397CA
:100B0000029613969C938E9312970680F781E02DA0
:100B10008081918102979183808382819381019664
:100B2000938382830895A281B381ED91FC91119703
:100B30008081918101979183808382819381019645
:100B4000938382831296ED91FC911397808191811A
:100B5000019791838083828193810196938382831D
:100B60001696ED91FC9117978081918102966EC047
:100B70000280F381E02DA081B1818D919C9111972C
:100B8000019611969C938E9312968D919C9113973A
:100B9000019713969C938E931297A281B3818D91A6
:100BA0009C911197029611969C938E9312968D911B
:100BB0009C911397029713969C938E931297A481FE
:100BC000B58112968D919C911397019713969C93E2
:100BD0008E9312970680F781E02D80819181019795
:100BE00035C00280F381E02DA081B1818D919C916F
:100BF0001197019711969C938E9312968D919C91CB
:100C00001397019613969C938E931297A281B381AA
:100C10008D919C911197019711969C938E931296AA
:100C20008D919C911397019613969C938E93129796
:100C3000A481B5818D919C91119701968D939C9380
:100C40000680F781E02D80819181019691838083D8
:100C50000895FC01808591858130910561F024F42F
:100C6000892B09F495C0089582309105C1F103974D
:100C700009F45AC008950280F381E02DA081B1816A
:100C80008D919C91119702968D939C93A281B38133
:100C90008D919C911197019611969C938E9312962B
:100CA0008D919C911397019613969C938E93129716
:100CB000A481B58112968D919C91139702961396FB
:100CC0009C938E9312970680F781E02D808191810D
:100CD0000197918380838281938103968CC0A28146
:100CE000B381ED91FC91119780819181029791835D
:100CF0008083828193810296938382831296ED9101
:100D0000FC911397808191810197918380838281E7
:100D100093810196938382831696ED91FC911797A8
:100D200080819181019662C00280F381E02DA081D3
:100D3000B1818D919C911197019611969C938E9300
:100D400012968D919C911397029713969C938E9374
:100D50001297A281B38112968D919C91139701975E
:100D600013969C938E931297A481B5818D919C913B
:100D7000119701978D939C930680F781E02D8081D8
:100D8000918102979183808382819381019633C000
:100D90000280F381E02DA081B1818D919C9111970A
:100DA000019711969C938E9312968D919C91139717
:100DB000029613969C938E931297A281B3811296FA
:100DC0008D919C911397019613969C938E931297F5
:100DD000A481B5818D919C91119701968D939C93DF
:100DE0000680F781E02D8081918102969183808336
:100DF000828193810197938382830895FC0180858A
:100E000091858130910561F024F4892B09F4A1C00A
:100E1000089582309105B9F1039709F45FC00895F0
:100E20000280F381E02DA081B1818D919C91119779
:100E300001968D939C93A281B3818D919C91119782
:100E4000019711969C938E9312968D919C91139776
:100E5000019613969C938E931297A481B5818D91E0
:100E60009C911197019711969C938E9312968D9158
:100E70009C911397019613969C938E9312970680DC
:100E8000F781E02D71C00280F381E02DA081B18156
:100E900012968D919C911397019613969C938E9325
:100EA0001297A281B38112968D919C91139701960E
:100EB00013969C938E931297A481B58112968D916F
:100EC0009C911397019613969C938E93129706808C
:100ED000F781E02D80819181019638C00280F381F5
:100EE000E02DA081B18112968D919C91139701976D
:100EF00013969C938E931297A281B3818D919C91AE
:100F00001197019611969C938E9312968D919C91B8
:100F10001397019713969C938E931297A481B58192
:100F20008D919C911197019611969C938E93129698
:100F30008D919C911397019713969C938E93129782
:100F40000680F781E02D80819181019791838083D4
:100F500008950280F381E02D0190F081E02D8081E1
:100F600091810197918380838281938101969383FC
:100F700082830895EF92FF920F931F93CF93DF9395
:100F800080E993E020E030E044EAE42E43E0F42EF0
:100F900040E050E0FC01E40FF51F60817181672B98
:100FA00069F42F5F3F4F44962B30310589F7DF916D
:100FB000CF911F910F91FF90EF9008954E5F5F4F7B
:100FC0004431510539F7BC0160597340A901E0E98A
:100FD000F3E04115510519F4118210820BC0DF01B5
:100FE000A60FB71F8D0104511109E801088119816D
:100FF0000D931C933296EE16FF0659F74150510996
:10100000645171094F3FDFEF5D0709F7CACF0895BB
:1010100080E090E0089586E090E00E94272DDC01BA
:10102000E4E2F2E020812D93119222E0EA32F2070D
:10103000C9F7089520E933E080E090E040E050E017
:10104000F901E40FF51F60817181672B09F00196AA
:101050004E5F5F4F4431510599F72C5E3F4F44E09E
:101060002C36340759F708951F920F920FB60F923E
:1010700011242F933F938F939F9320912E023091B1
:101080002F028091010190910201281739073CF04D
:1010900081E080932D0210922F0210922E028091F7
:1010A0002B0290912C02049739F481E080932A025C
:1010B00010922C0210922B0280912B0290912C0204
:1010C000019690932C0280932B0280912E02909196
:1010D0002F02019690932F0280932E029F918F9161
:1010E0003F912F910F900FBE0F901F901895EF9288
:1010F000FF920F931F93780189019A01AB01BC0104
:1011000085E195E00E94A00D1F910F91FF90EF9057
:1011100008958F929F92AF92BF92CF92DF92EF92FB
:10112000FF920F931F93CF93DF937C01EB0126E097
:10113000249FC001259F900D11249C01225F3E4FEA
:101140006901F9010081118124E130E044E150E0BE
:10115000C7010E94770805E619E223E030E044E188
:1011600050E0BE01C7010E94770824E130E043E06F
:1011700050E0BE01C7010E947708BE016F5E7F4F3D
:1011800023E030E044E150E0C7010E94770824E109
:1011900030E043E050E0BE01C70141960E9477086D
:1011A000F601828093805701F3E0AF0EB11CBE01BF
:1011B000615F7F4F840122E030E04EE050E0C501E6
:1011C0000E94770823962EE030E042E050E0BE0116
:1011D000C7010F960E947708F601E480F580870129
:1011E00022E030E04EE050E0BE01C5010E947708E9
:1011F0002EE030E042E050E0BE01C5010E947708D9
:10120000DF91CF911F910F91FF90EF90DF90CF90E2
:10121000BF90AF909F908F9008956F927F928F9222
:101220009F92AF92BF92CF92DF92EF92FF920F9375
:101230001F93CF93DF9390E9C92E93E0D92E4601F7
:10124000C4E6D0E0A12CB12C84E1E82EF12C3E01C3
:1012500084E6681A7108F501E60DF71DE05DFD4FA3
:1012600080819181F401EA0DFB1D892B79F0808149
:101270009181892BC9F400E010E024E130E044E1E1
:1012800050E0BE01C7010E9477080EC080819181A5
:10129000892B51F0E091C605F091C7054481558135
:1012A000BE01C7010E94890884E1E80EF11C82E0BA
:1012B000A80EB11C8CEDE816F10469F6649684E181
:1012C000880E911CC03481E0D80709F0BBCF20E321
:1012D00032E04CE654E080E090E0F901E80FF91FBD
:1012E000D601A80FB91F6D917C917183608302961E
:1012F0008431910591F784E1C80ED11C2C5E3F4FDB
:101300004C155D0541F7DF91CF911F910F91FF9033
:10131000EF90DF90CF90BF90AF909F908F907F9095
:101320006F9008950895FC016370668B84819581A8
:1013300026813781613039F0633029F091878087C9
:10134000338722870895318720879387828708957E
:101350006F927F928F929F92AF92BF92CF92DF92C5
:10136000EF92FF920F931F93CF93DF93EC014B010A
:101370005A0169013801E881F9810284F385E02D81
:101380000995E881F9810288F389E02D87019601AA
:10139000A501B401CE010995A501460D571D415087
:1013A0005109E881F9810288F389E02D9601B401A1
:1013B000CE010995E881F9810088F189E02D93013A
:1013C000A501B401CE010995C80CD91CB601615024
:1013D0007109E881F9810088F189E02D9301A50167
:1013E000CE010995E881F9810688F789E02DCE01C3
:1013F000DF91CF911F910F91FF90EF90DF90CF90F1
:10140000BF90AF909F908F907F906F9009948F9234
:101410009F92AF92BF92CF92DF92EF92FF920F9383
:101420001F93CF93DF934C016B015A01E901DC015B
:10143000ED91FC916217730781F40417150724F4EA
:101440008B2D5801042F182F0A191B0998012F5FA3
:101450003F4F048CF58DE02D12C04017510709F560
:101460002617370724F48D2D6901C62FD82F9E012A
:101470002C193D092F5F3F4F068CF78DE02D87011A
:10148000A501B601C4010995DF91CF911F910F917C
:10149000FF90EF90DF90CF90BF90AF909F908F9094
:1014A00008950284F385E02D0995D401ED91FC9116
:1014B0000488F589E02D9E01A501B601C4010995B6
:1014C000D401ED91FC910688F789E02DC401DF91EC
:1014D000CF911F910F91FF90EF90DF90CF90BF9031
:1014E000AF909F908F900994EF92FF920F931F936C
:1014F000DC011A960D911C911B9718962D913C9129
:101500001997ED91FC9100A0F1A1E02D7B0140E045
:1015100050E060E070E009951F910F91FF90EF900F
:101520000895CF92DF92EF92FF920F931F93CF9384
:10153000DF93EC016A017B01452B462B472B31F4ED
:10154000C12C42E1D42E4AE7E42EF12C8FA987FD6D
:1015500007C061E00E94892461E08FA90E943C24B9
:1015600061E088AD0E94892461E088AD0E943C243E
:101570008DA9811152C040E052E16AE770E090E02D
:10158000C416D506E606F70640F476956795579596
:1015900047959F5F9630A1F797E081E08927982FC4
:1015A000906A969599A381708AA31BA21CA21DA282
:1015B0001EA21FB7F89480910C03811127C0EFEF92
:1015C000F0E08491E1EEF0E09491E82FF0E0EE0F8E
:1015D000FF1FE75FFE4FA591B491EC91E92321F441
:1015E00061E08AE00E943C2461E08AE00E94892454
:1015F0008CB580618CBD8CB580648CBD61E08DE064
:101600000E94892461E08BE00E94892480910C0370
:101610008F5F80930C031FBF4BC08130B9F461E032
:101620008AA50E94892460E08AA50E943C2461E08A
:101630008CA50E94892460E08CA50E943C248BA587
:1016400087FD36C060E00E94892432C005EF10E0BB
:10165000F12CF8018491E82FF0E0EE0FFF1FE55127
:10166000FF4F859194912F8D38A12817390741F4A8
:1016700061E08F2D0E94892460E08F2D0E943C2420
:10168000F3940F5F1F4FF4E1FF12E3CF61E08EA5EB
:101690000E94892461E08EA50E943C248FA587FDCD
:1016A00007C061E00E94892461E08FA50E943C246C
:1016B0008EA987FD2AC061E00E94892461E08EA97D
:1016C0000E943C242FEF81EE94E021508040904016
:1016D000E1F700C0000060E08EA90E943C24EFEF1B
:1016E000F1EE24E0E150F0402040E1F700C00000BE
:1016F00061E08EA90E943C248FEF93ECE9E08150D9
:101700009040E040E1F700C000008EA987FF10C0C4
:1017100020E040E050E061E0CE010E948A21FFEF2E
:1017200022E587E0F15020408040E1F700C0000052
:10173000E8E6F0E0CF01019664916623E1F08F01C5
:101740000E5F1F4FFC01F490FF2DFF77EF2E2F2F20
:10175000A801CE010E948A21F801EE0DF11DF7FECD
:10176000E9CF2FEF82E597E0215080409040E1F7EC
:1017700000C00000DFCF80EF90E09987888780E489
:1017800091E09B878A87DF91CF911F910F91FF9006
:10179000EF90DF90CF9008958F929F92AF92BF927B
:1017A000CF92DF92EF92FF920F931F93CF93DF932D
:1017B0005C014B016A01E90177FD53C0DC01189619
:1017C0008D919C911997681779070CF04AC0209762
:1017D00009F447C037FF07C0C9010196C80ED91EDA
:1017E000D195C195D109F50182859385C816D90691
:1017F000C4F5A6014C0F5D1F9A012150310937FD38
:1018000030C0D7FE03C0EA01C12CD12C28173907FC
:101810001CF0EC01CC19DD09D501ED91FC9102849D
:10182000F385E02DC501099578018E0121E030E0B6
:10183000A601B401C5010E947111D501ED91FC9181
:101840000688F789E02DC501DF91CF911F910F9197
:10185000FF90EF90DF90CF90BF90AF909F908F90D0
:101860000994DF91CF911F910F91FF90EF90DF903E
:10187000CF90BF90AF909F908F9008958F929F923E
:10188000AF92BF92CF92DF92EF92FF920F931F938E
:10189000CF93DF935C016B014A01E90157FD53C00F
:1018A000DC011A968D919C911B97481759070CF0F3
:1018B0004AC0209709F447C037FF07C0C901019605
:1018C000C80ED91ED195C195D109F50180859185A4
:1018D000C816D906C4F5A6014C0F5D1F9A01215008
:1018E000310937FD30C0D7FE03C0EA01C12CD12C2D
:1018F000281739071CF0EC01CC19DD09D501ED9151
:10190000FC910284F385E02DC5010995780101E081
:1019100010E09E01A401B601C5010E947111D5011C
:10192000ED91FC910688F789E02DC501DF91CF91FB
:101930001F910F91FF90EF90DF90CF90BF90AF90ED
:101940009F908F900994DF91CF911F910F91FF90FD
:10195000EF90DF90CF90BF90AF909F908F900895C1
:10196000EF92FF920F931F93CF93DF9377FD34C0D5
:10197000DC011896ED91FC9119976E177F0764F5BD
:101980002115310549F137FF07C0F90131964E0F96
:101990005F1F319521953109DC011A96ED91FC917B
:1019A0001B974E175F07C4F4EA01C20FD31FDE0175
:1019B0001197B7FD11C057FF03C09E0140E050E0F2
:1019C000AE17BF071CF09F01241B350B780189015E
:1019D00021E030E00E947111DF91CF911F910F91B2
:1019E000FF90EF900895EF92FF920F931F93CF9384
:1019F000DF9357FD33C0DC011A96ED91FC911B97E4
:101A00004E175F075CF52115310541F137FF07C01F
:101A1000F90131966E0F7F1F319521953109DC0157
:101A20001896ED91FC9119976E177F07BCF4EB01A6
:101A3000C20FD31FDE011197B7FD10C077FF03C09F
:101A40009E0160E070E0AE17BF071CF09F01261BEF
:101A5000370B780101E010E00E947111DF91CF9106
:101A60001F910F91FF90EF9008958F929F92AF92E8
:101A7000BF92CF92DF92EF92FF920F931F93CF937B
:101A8000DF9347012115310509F44DC001151105FA
:101A900009F449C037FF07C0F90131966E0F7F1F67
:101AA000319521953109DC011896AD90BC901997BC
:101AB0006A157B05C4F517FF07C0F80131964E0F74
:101AC0005F1F119501951109DC011A96ED91FC91AA
:101AD0001B974E175F073CF56B01C20ED31EE60144
:101AE0002197D7FD20C07A01E00EF11ED701119792
:101AF000B7FD19C077FF03C0960160E070E057FFA3
:101B000003C0870140E050E0CA15DB051CF09501D9
:101B1000261B370BAE17BF071CF08F01041B150BDC
:101B200074010E947111DF91CF911F910F91FF906D
:101B3000EF90DF90CF90BF90AF909F908F900895DF
:101B4000EF92FF920F931F932115310529F0011594
:101B5000110511F00E941F121F910F91FF90EF903D
:101B600008958F929F92AF92CF92EF92FF920F9330
:101B70001F93CF93DF93EC01262F898D9A8D0097C9
:101B800009F042C06A3059F41D861C862D898E8565
:101B90009F8538E0239F800D911D112443C06D3037
:101BA00009F4AAC08F898823C9F03C898C859D855A
:101BB00046E0349F800D911D1124488559854817B2
:101BC000590764F41D861C863D898E859F8548E0F3
:101BD000349F800D911D11249F878E87EA88FB8892
:101BE000088919894E855F856C857D85AD88CC888F
:101BF000CE010E9408222C898C859D8536E0239F8A
:101C0000800D911D11243EC06A3079F41D861C861A
:101C10002D89FC013896E4918E859F852E9F800D3D
:101C2000911D11249F878E8767C06D3009F464C0B1
:101C3000FC0134963491631708F45EC03296E49147
:101C4000E61708F459C0462F431B342FFC01329687
:101C50008590949047E0349F800C911C1124F401EE
:101C6000329634913196E491332311F0E1110DC095
:101C7000F4013496E4912C898C859D85E29F800D3A
:101C8000911D11249D878C8737C0F40135964491AE
:101C90005F89552319F15C89E32FF0E0E40FF11D12
:101CA00047FDFA955E9FB0015F9F700D11244C8532
:101CB0005D85460F571F688579856417750774F42D
:101CC0001D861C863D89FC013896E4918E859F8592
:101CD0003E9F800D911D11249F878E87EA88FB8887
:101CE000088919894E855F856C857D85AD88CC888E
:101CF000CE010E940822BCCF81E090E0DF91CF911D
:101D00001F910F91FF90EF90CF90AF909F908F9089
:101D10000895FC01A5A1B6A19C9182A589238C936D
:101D2000A5A1B6A19C9181A5892B8C9308950F93B1
:101D30001F93CF93DF93EC018B018DA9811109C013
:101D40001EBD0DB407FEFDCF0EBD0DB407FEFDCFC9
:101D50002FC08130E9F480E1E9A1FAA1208117FFC9
:101D600003C09DA1922B02C09EA192239083EBA160
:101D7000FCA120819FA1922B9083EBA1FCA120814B
:101D800098A592239083000F111F815029F710C04E
:101D9000EF8DF8A11083CE010E94890EEF8DF8A17E
:101DA0000083CE01DF91CF911F910F910C94890E8A
:101DB000DF91CF911F910F910895AF92BF92CF9273
:101DC000DF92EF92FF920F931F93CF93DF93EC017B
:101DD00077FD38C088859985681779079CF557FD88
:101DE00031C08A859B854817590764F569017A01D6
:101DF0005B01E881F9810284F385E02DCE0109952C
:101E0000E881F98102A4F3A5E02D01E010E021E0D2
:101E100030E0A701B501CE010995B601CE010E94BF
:101E2000970EE881F9810688F789E02DCE01DF91D0
:101E3000CF911F910F91FF90EF90DF90CF90BF90C7
:101E4000AF900994DF91CF911F910F91FF90EF9088
:101E5000DF90CF90BF90AF900895EF92FF920F93D5
:101E60001F93CF93DF93EC0177FD22C0888599857E
:101E700068177907ECF457FD1BC08A859B854817C6
:101E80005907B4F47901E881F98102A4F3A5E02DA2
:101E900001E010E021E030E0CE010995B701CE016C
:101EA000DF91CF911F910F91FF90EF900C94970EBF
:101EB000DF91CF911F910F91FF90EF900895FC015A
:101EC00085A9811105C06EBD0DB407FEFDCF089533
:101ED0008130E1F488E0A1A1B2A12C9167FF03C099
:101EE00095A1922B02C096A192239C93A3A1B4A189
:101EF0002C9197A1922B9C93660FA3A1B4A12C9136
:101F000090A592239C93815031F70895A78DB0A19D
:101F10006C93CF010C94890ECF93DF93EC01ED8D80
:101F2000FE8D90818CA989238083CE010E945F0F52
:101F3000ED8DFE8D90818BA9892B8083DF91CF91D0
:101F400008951F93CF93DF93EC01162FE881F98159
:101F50000284F385E02D0995112311F06DAD01C0C8
:101F60006EADCE010E948C0FE881F9810688F78959
:101F7000E02DCE01DF91CF911F910994FC0185A93D
:101F8000811104C091A182A19CBD8DBD0895CF9304
:101F9000DF93EC010E94BE0F8FA987FD06C0EB8D79
:101FA000FC8D90818AA989238083DF91CF91089548
:101FB0000895FC0187A987FD06C0A38DB48D9C916F
:101FC00081A9892B8C930895DC011296ED91FC91E7
:101FD0001397A081B1818D919C911197861B970BCE
:101FE0008D939C93A281B3818D919C911197861BB7
:101FF000970B8D939C93A481B5818D919C911197A2
:10200000861B970B8D939C930680F781E02D808132
:102010009181861B970B91838083089520E030E0A7
:10202000DC01A20FB31F40E050E06D917D91FA01F9
:10203000E20FF31FE057FC4F718360834E5F5F4FE9
:102040004431510591F72C5E3F4F2C3D310541F74E
:102050000895CF93FC01A281B3819D01285F3F4F7A
:10206000CAE0ED91FD914281538180819181C49FAD
:10207000F001C59FF00D1124E80FF91FEE0FFF1FAF
:10208000E057FC4F71836083A217B30751F7CF91DC
:1020900008956F927F929F92AF92BF92CF92DF92FC
:1020A000EF92FF920F931F93CF93DF93CDB7DEB7DD
:1020B000CC5DD1090FB6F894DEBF0FBECDBF7C0159
:1020C0008B01CE0101966C018CEDD6011D928A9593
:1020D000E9F720E933E0A60180E090E0FA01E80F9B
:1020E000F91FD901A80FB91F6D917C91718360838D
:1020F00002968431910591F72C5E3F4F4C5E5F4F05
:10210000B4E02C363B0741F70E941A085C0160E0FE
:1021100070E0C7010E942910D7011296ED91FC9141
:102120001397A081B1818D919C911197800F911F80
:102130008D939C93A281B3818D919C911197800F77
:10214000911F8D939C93A481B5818D919C91119742
:10215000800F911F8D939C93A681B7818D919C9147
:102160001197800F911F8D939C933F01B8E06B0EE8
:10217000711C5AE0952E21913191D9018D919C913C
:1021800011978A309105F8F412966D917C9113970E
:10219000D70114962D913C911597969EA001979E7C
:1021A000500D1124840F951F880F991F80579C4F45
:1021B000DC012D933C93E615F705E9F60E941A0819
:1021C000A816B90639F0C6010E940E10B801C70161
:1021D0000E94E40FC452DF4F0FB6F894DEBF0FBE6B
:1021E000CDBFDF91CF911F910F91FF90EF90DF90C6
:1021F000CF90BF90AF909F907F906F9008951F9366
:10220000CF93DF93FC01A281B381BD01685F7F4F53
:1022100040E050E01AE0CD91DD912A813B81129F90
:10222000F001139FF00D112428813981E20FF31F73
:10223000EE0FFF1FE057FC4F20813181420F531FEB
:102240006A177B0741F7452B39F081E080938F03B4
:10225000DF91CF911F910895FC0164817581DF9119
:10226000CF911F910C942910EF92FF920F931F931F
:10227000CF93DF93EC0182E491E09983888384E03B
:1022800090E09F838E831B861A861986188688E0C5
:1022900090E00E94272D9B838A8300E010E0EA8073
:1022A000FB80E00EF11E84E090E00E94272DF701F4
:1022B00091838083EA81FB81E00FF11F0190F0811F
:1022C000E02D11821082138212820E5F1F4F0830A0
:1022D000110529F7DF91CF911F910F91FF90EF909A
:1022E00008958F929F92AF92BF92CF92DF92EF921A
:1022F000FF920F931F93CF93DF93EC014901BE2C04
:10230000AF2CE881F98102A4F3A5E02D0995940191
:10231000D8010E94E92B611571058105910509F429
:1023200081C02DA921110FC0615071098109910946
:1023300008F478C0AEBC0DB407FEFDCFBEBC0DB432
:1023400007FEFDCFF1CF213009F03FC06150710988
:102350008109910908F466C03A2D28E0E9A1FAA1A3
:10236000508137FF03C04DA1452B02C04EA145232C
:102370004083EBA1FCA150814FA1452B4083EBA1F1
:10238000FCA1508148A545234083330F215031F7EC
:102390003B2D28E0E9A1FAA1508137FF03C04DA1F0
:1023A000452B02C04EA145234083EBA1FCA15081E7
:1023B0004FA1452B4083EBA1FCA1508148A54523AB
:1023C0004083330F215031F7C1CFFE1017C0EF8D7E
:1023D000F8A1F0826B017C01CC0CDD1CEE1CFF1C13
:1023E000C114D104E104F104E9F0CE010E94890E88
:1023F00081E0C81AD108E108F108F2CF6B017C0135
:10240000EF8DF8A1A082CE010E94890EEF8DF8A178
:10241000B082CE010E94890E21E0C21AD108E108E3
:10242000F10871F7DF91CF911F910F91FF90EF901D
:10243000DF90CF90BF90AF909F908F9008958F9234
:102440009F92AF92BF92CF92DF92EF92FF920F9343
:102450001F93CF93DF934C01EB016A01590137FFC2
:1024600007C0C9010196C80FD91FB194A194B10842
:10247000F401A085B185CA17DB070CF058C017FF1F
:1024800007C0C8010196C80ED91E11950195110902
:10249000F40182859385C816D9060CF048C0FE0168
:1024A000EA0DFB1DAF014150510957FD40C0B60177
:1024B000600F711F9B012150310937FD38C0D7FFD4
:1024C00003C05F01C0E0D0E0D7FE03C08B01C12C88
:1024D000D12C4A175B071CF05D01AC1ABD0A281706
:1024E00039071CF08C010C191D09D401ED91FC91E8
:1024F0000284F385E02DC40109959501A601BE0172
:10250000C4010E947111D401ED91FC910688F789F4
:10251000E02DC401DF91CF911F910F91FF90EF90BB
:10252000DF90CF90BF90AF909F908F900994DF91F4
:10253000CF911F910F91FF90EF90DF90CF90BF90C0
:10254000AF909F908F900895FC01808191810097BA
:1025500011F00C94BF2D08950F931F9390932205B3
:10256000809321057093240560932305109328051B
:10257000009327051093260500932505842F4423F7
:1025800011F0942F01C091E090932905411101C0F1
:1025900081E080932A0581E080932C05F901448134
:1025A00055816081718185E195E01F910F910C94B7
:1025B0001F18CF92DF92EF92FF920F931F93CF934A
:1025C000DF93EC016B018FEEE82E8BE7F82E0AE02B
:1025D00010E02AE030E0AB01BE0185E195E00E9409
:1025E0001F1295E6E92E99E2F92E01E010E02AE0AB
:1025F00030E0A601BE0185E195E00E941F120AE0CD
:1026000010E021E030E0A601BE0185E195E00E94E6
:102610001F12A601475F5F4F01E010E02AE030E0A3
:10262000BE0185E195E00E941F12BE01675F7F4FEA
:102630000AE010E021E030E0A60185E195E00E948B
:102640001F12DF91CF911F910F91FF90EF90DF90BC
:10265000CF9008952F923F924F925F926F927F9208
:102660008F929F92AF92BF92CF92DF92EF92FF92A2
:102670000F931F93CF93DF93CDB7DEB728970FB695
:10268000F894DEBF0FBECDBF9E838D835B0185E1D5
:1026900095E00E94C70F4D815E814550510985012B
:1026A0002BE030E068E270E085E195E00E94B00C3C
:1026B0002D803E8044244394512CE12CF12C25E0C4
:1026C000622E712C45E050E058874F8386EF9FEFD4
:1026D0009C838B833CEFC32EDD24DA944FEFE41A06
:1026E000F40A52E0450E511CC40CD51C8F8198850C
:1026F0008E159F05ECF14C01880C991C9FEF891AEF
:10270000990A850194014D815E818F819885481BCE
:10271000590B5A834983B701685D7F4F85E195E086
:102720000E94B00C940149815A8168E270E06E19F0
:102730007F0985E195E00E94B00C4F8158854615D0
:102740005705D9F44F815885E416F5068CF5D7FC6A
:102750000BC04150510958874F838B819C81029651
:102760009C838B83C80ED91E91E0291A3108B6CFFD
:102770008F81988586159705D9F0B301685D7F4FE5
:102780008501420152E0851A91089401A10185E179
:1027900095E00E94B00C68E270E066197709940138
:1027A000A10185E195E00E94B00C6F807884CACFCA
:1027B00085E195E028960FB6F894DEBF0FBECDBF39
:1027C000DF91CF911F910F91FF90EF90DF90CF900D
:1027D000BF90AF909F908F907F906F905F904F9041
:1027E0003F902F900C94D90F8F929F92AF92BF92EF
:1027F000CF92DF92EF92FF920F931F93CF93DF93CD
:1028000010918E03113208F0C2C0D0918D030E9446
:10281000791A6B017C01C0916503CC2311F1809181
:10282000670390916803A0916903B0916A03892BB3
:102830008A2B8B2B81F30E94791A809067039090EA
:102840006803A0906903B0906A03DC01CB018C1986
:102850009D09AE09BF0988169906AA06BB06D8F6D7
:1028600082C082E08093650381E0809364038FEFF0
:10287000809363031092620310936103ADE6B3E0AB
:10288000E1E4F3E080E0181721F09D9191938F5FD0
:10289000FACF10924003909140038D2F880F892B1F
:1028A0008093400380913F03813089F510923F036C
:1028B0000E94791A6B017C01809140038093BB00D8
:1028C0008091670390916803A0916903B0916A03B6
:1028D000892B8A2B8B2BA9F00E94791A0091670310
:1028E000109168032091690330916A03DC01CB01E8
:1028F0008C199D09AE09BF09081719072A073B075C
:1029000090F18091BC0083FDD7CF85EC01C085EEAE
:102910008093BC000E94791A6B017C018091650351
:10292000823039F58091670390916803A091690323
:10293000B0916A03892B8A2B8B2B81F30E94791A21
:1029400000916703109168032091690330916A0335
:10295000DC01CB018C199D09AE09BF0908171907C5
:102960002A073B07D8F6809166030E94A418C5E0A9
:1029700013C0809163038F3F79F0809163038032AD
:1029800041F080916303803331F0C4E005C0C1E0C1
:1029900003C0C2E001C0C3E010926C0310928E032A
:1029A00010926B038C2FDF91CF911F910F91FF90AD
:1029B000EF90DF90CF90BF90AF909F908F90089551
:1029C000CF92DF92EF92FF920F931F93CF93DF93FB
:1029D00091E090936B0392E590938D0310926C03BA
:1029E00010928E03682F8CE694E00E94F0170E94EC
:1029F000F4130E94791A6B017C01C0916503CC230A
:102A000039F18091670390916803A0916903B091B7
:102A10006A03892B8A2B8B2B81F30E94791A0091F0
:102A20006703109168032091690330916A03DC0108
:102A3000CB018C199D09AE09BF09081719072A0790
:102A40003B07D8F6809166030E94A418C0E08DC0B1
:102A500081E080936503809364039FEF9093630309
:102A60001092620395E090936103809340038091FC
:102A70004003846A8093400380913F03813089F54D
:102A800010923F030E94791A6B017C0180914003F0
:102A90008093BB008091670390916803A0916903C4
:102AA000B0916A03892B8A2B8B2BA9F00E94791A8B
:102AB00000916703109168032091690330916A03C4
:102AC000DC01CB018C199D09AE09BF090817190754
:102AD0002A073B0790F18091BC0083FDD7CF85EC9E
:102AE00001C085EE8093BC000E94791A6B017C01C5
:102AF00080916503813031F580916703909168037F
:102B0000A0916903B0916A03892B8A2B8B2B81F3E7
:102B10000E94791A0091670310916803209169035C
:102B200030916A03DC01CB018C199D09AE09BF0904
:102B3000081719072A073B07D8F6809166030E94F9
:102B4000A41813C080916203863018F48091620348
:102B500001C086E0E1E4F3E0AFE0B3E0C0E0C81715
:102B600021F091919D93CF5FFACF10920E03C09305
:102B70000D0309E313E0D0E080910E03C81759F06C
:102B8000D63049F0DF5F8CE694E00E94A717F80189
:102B900081938F01F1CF8D2FDF91CF911F910F91F5
:102BA000FF90EF90DF90CF9008954F925F926F92D9
:102BB0007F928F929F92AF92BF92CF92DF92EF92CD
:102BC000FF920F931F93CF93DF936C012B015A0158
:102BD00039014801DC01ED91FC910284F385E02D7F
:102BE0000995E201640C751CD601ED91FC91C615A6
:102BF000D7055CF40088F189E02D87019401A501D7
:102C0000BE01C60109952196EFCF0688F789E02D10
:102C1000C601DF91CF911F910F91FF90EF90DF9050
:102C2000CF90BF90AF909F908F907F906F905F906C
:102C30004F9009948F929F92AF92BF92CF92DF9262
:102C4000EF92FF920F931F93CF93DF93EC015B0101
:102C50004A016901E881F9810284F385E02D099533
:102C600095012C0D3D1D21503109E881F981048821
:102C7000F589E02D78018401A401B501CE01099503
:102C8000E881F9810688F789E02DCE01DF91CF91A7
:102C90001F910F91FF90EF90DF90CF90BF90AF907A
:102CA0009F908F9009948F929F92AF92BF92CF92F4
:102CB000DF92EF92FF920F931F93CF93DF93EC017C
:102CC0005B014A0169017801E881F9810284F38599
:102CD000E02D0995C80CD91C860101501109E88125
:102CE000F9810488F589E02D9501A401B501CE0193
:102CF0000995E881F9810688F789E02DCE01DF91F9
:102D0000CF911F910F91FF90EF90DF90CF90BF90E8
:102D1000AF909F908F9009940895EF92FF920F9338
:102D20001F93DC01ED91FC9100A0F1A1E02D09952C
:102D30001F910F91FF90EF9008950F931F93DC0167
:102D4000ED91FC91068CF78DE02D09951F910F9167
:102D500008950F931F93DC01ED91FC91048CF58D88
:102D6000E02D09951F910F910895DC01ED91FC91E3
:102D70000084F185E02D09942F923F924F925F924B
:102D80006F927F928F929F92AF92BF92CF92DF927B
:102D9000EF92FF920F931F93CF93DF9300D000D059
:102DA00000D0CDB7DEB72C017E836D836A01590157
:102DB000C801FC82EB824801841A950A97FE03C081
:102DC00091948194910835012D813E81621A730A94
:102DD00077FE03C0719461947108681479045CF4FF
:102DE0003A2D2B2D5C01832F922F3D812E81DE8287
:102DF000CD82C32ED22EAD81BE81AA16BB065CF455
:102E00003C2D2D2D6C01832F922F3D812E81BE8272
:102E1000AD82A32EB22E85012D813E81021B130BA4
:102E20001C012C183D0837FE03C031942194310851
:102E3000780117FF03C03FEFE31AF30AF594E79414
:102E4000C816D9062CF08FEF9FEF9A83898304C0B0
:102E5000A1E0B0E0BA83A9832D813E81A216B3061A
:102E600024F1D201ED91FC910484F585E02D2B81B4
:102E70003C816814790424F44D815E81B60103C05D
:102E8000A6016D817E81C2010995E218F308F7FE63
:102E900006C029813A81C20ED31EE00EF11E8D813B
:102EA0009E8101969E838D83D7CF26960FB6F89488
:102EB000DEBF0FBECDBFDF91CF911F910F91FF906D
:102EC000EF90DF90CF90BF90AF909F908F907F90CA
:102ED0006F905F904F903F902F900895409187059D
:102EE000262F30E0240F311D21323105DCF42091F2
:102EF00065032430C9F4FC0180E090E0861758F4A3
:102F0000309187052191DC01A959BA4FA30FB11D5A
:102F10002C930196F3CF80918705680F6093870506
:102F200080E0089581E0089582E00895089508956D
:102F3000E0910E0380910D03E81730F4F0E0E15FBB
:102F4000FC4F808190E008958FEF9FEF089590915E
:102F50000E0380910D03981750F4E92FF0E0E15F24
:102F6000FC4F208130E09F5F90930E0302C02FEF53
:102F70003FEFC901089580910D0390E020910E0369
:102F8000821B91090895CF92DF92EF92FF920F93E7
:102F90001F93CF93DF937C01CB018A0120916B03B8
:102FA000222389F0EB016B01C40ED51ECC15DD0583
:102FB00069F06991D701ED91FC910190F081E02DCC
:102FC000C7010995F3CF642F0E946E17C801DF91E6
:102FD000CF911F910F91FF90EF90DF90CF900895C8
:102FE000CF93DF931F92CDB7DEB7698320916B0338
:102FF0002223D1F020918E03203240F021E030E0F6
:10300000FC013383228380E090E015C080916C0343
:10301000E82FF0E0E359FC4F998190838F5F809314
:103020006C0380938E0305C061E0CE0101960E947F
:103030006E1781E090E00F90DF91CF910895CF92CD
:10304000DF92EF92FF920F931F93CF93DF936C0168
:103050007A018B01C0E0D0E0CE15DF0581F0D80108
:103060006D918D01D601ED91FC910190F081E02DE3
:10307000C6010995892B11F02196EECF7E01C7017B
:10308000DF91CF911F910F91FF90EF90DF90CF9044
:103090000895FC01538D448D252F30E0842F90E05E
:1030A000821B930B541710F0CF9608950197089543
:1030B000FC01918D828D981761F0828DDF01A80F40
:1030C000B11D5D968C91928D9F5F9F73928F90E062
:1030D00008958FEF9FEF0895FC01918D828D9817D1
:1030E00031F0828DE80FF11D858D90E008958FEF0E
:1030F0009FEF0895FC01918D228D892F90E0805CD7
:103100009F4F821B91098F73992708951092650331
:1031100081E08093640310923F0361E082E10E94AA
:103120003C2461E083E10E943C24E9EBF0E08081F3
:103130008E7F808380818D7F808388E48093B80038
:1031400085E48093BC000895CF93DF9391E0909342
:1031500066058823B9F0C091B800D091BA0080917B
:10316000BC008A7B8093BC0060E082E10E943C242A
:1031700060E083E10E943C240E948618D093BA004C
:10318000C093B800DF91CF91089585ED8093BC0086
:103190008091670390916803A0916903B0916A03DD
:1031A0000796A11DB11D23E0B695A7959795879524
:1031B0002A95D1F72091BC0024FF1CC040916703E1
:1031C000509168036091690370916A03452B462B07
:1031D000472B81F30097A105B10541F02AE22A951A
:1031E000F1F700C00197A109B109E4CF809166030E
:1031F0000C94A4181092650308951F920F920FB6B5
:103200000F9211242F933F934F935F936F937F936C
:103210008F939F93AF93BF93EF93FF938091B900E8
:10322000887F803609F49CC068F5883209F45BC059
:1032300090F4803109F454C038F4882309F4F6C0BE
:10324000883009F44DC0F6C0883109F44CC0803292
:1032500009F45DC0EFC0803409F468C048F48033DD
:1032600009F455C0883309F0E5C080936303D8C0E2
:10327000803509F44FC0883509F45DC0883409F001
:10328000D9C0D6C0883909F4C7C0A8F4883709F472
:1032900067C038F4883609F463C0803709F460C029
:1032A000C9C0883809F4B8C0803909F45FC08038D3
:1032B00009F0C0C05BC0803B09F486C038F4803A96
:1032C00009F466C0883A09F47FC0B4C0803C09F4B0
:1032D000A7C0883C09F4A4C0883B09F48AC0AAC0EE
:1032E0008091400310C09091620380916103981710
:1032F00070F5E091620381E08E0F80936203F0E04D
:10330000EF5BFC4F80818093BB0085EC86C080938F
:1033100063038EC0E091620381E08E0F80936203AD
:103320008091BB00F0E0EF5BFC4F808390916203E3
:10333000809161036EC0E091620381E08E0F809303
:1033400062038091BB00F0E0EF5BFC4F80838091D3
:10335000640381116DC081E080933F0384EA61C002
:1033600083E0809365031092A905CFCF8091A905D2
:10337000803208F051C0E091A90581E08E0F809362
:10338000A9058091BB00F0E0E757FA4F8083BDCFDD
:1033900085EC8093BC00109265038091A905803272
:1033A00030F4E091A905F0E0E757FA4F1082609100
:1033B000A90570E0E0915B05F0915C0589E895E076
:1033C00009951092A90536C084E080936503109298
:1033D000880510928705E0915905F0915A050995E5
:1033E00080918705811105C081E080938705109247
:1033F0006705E091880581E08E0F80938805F0E0F5
:10340000E959FA4F80818093BB00909188058091A3
:103410008705981708F479CF85E88093BC000AC027
:1034200085EC8093BC001092650304C01092630386
:103430000E94C518FF91EF91BF91AF919F918F911D
:103440007F916F915F914F913F912F910F900FBEA0
:103450000F901F901895EF92FF920F931F93CF93A9
:10346000DF93EC01198218821B821A821D821C8252
:1034700061157105B9F17B01FB0101900020E9F7AD
:1034800031978F01061B170BB8016F5F7F4F80E0EC
:1034900090E00E94482E009759F0998388831B83FF
:1034A0000A832C813D81232B81F4FC0110820DC005
:1034B00088819981009711F00E94BF2D198218828E
:1034C0001D821C821B821A820DC01D830C83B701D2
:1034D00088819981DF91CF911F910F91FF90EF909B
:1034E0000C941C2FDF91CF911F910F91FF90EF90C3
:1034F00008953FB7F8948091620590916305A0917B
:103500006405B091650526B5A89B05C02F3F19F04D
:103510000196A11DB11D3FBFBA2FA92F982F882753
:10352000820F911DA11DB11DBC01CD0142E0660FAE
:10353000771F881F991F4A95D1F708951F920F9200
:103540000FB60F9211242F933F938F939F93AF93B6
:10355000BF9380915E0590915F05A0916005B09149
:10356000610530915D0523E0230F2D3720F401968E
:10357000A11DB11D05C026E8230F0296A11DB11D96
:1035800020935D0580935E0590935F05A093600591
:10359000B09361058091620590916305A0916405E7
:1035A000B09165050196A11DB11D809362059093B0
:1035B0006305A0936405B0936505BF91AF919F919A
:1035C0008F913F912F910F900FBE0F901F901895E4
:1035D000FC01848DDF01A80FB11DA35ABF4F2C91B0
:1035E000848D90E001968F739927848FA689B7897F
:1035F0002C93A089B1898C91837080648C93938D76
:10360000848D981306C00288F389E02D80818F7D18
:1036100080830895EF92FF920F931F93CF93DF93D0
:10362000EC0181E0888F9B8D8C8D981305C0E88913
:10363000F989808185FD26C0F62E0B8D10E00F5F85
:103640001F4F0F731127E02E8C8DE8120CC00FB6A0
:1036500007FCFACFE889F989808185FFF5CFCE0193
:103660000E94E81AF1CF8B8DFE01E80FF11DE35A9D
:10367000FF4FF0829FB7F8940B8FEA89FB89808116
:1036800080620AC09FB7F894EE89FF896083E88959
:10369000F98980818370806480839FBF81E090E09E
:1036A000DF91CF911F910F91FF90EF900895CF93ED
:1036B000DF93EC01888D8823C9F0EA89FB8980813A
:1036C00085FD05C0A889B9898C9186FD0FC00FB60C
:1036D00007FCF5CF808185FFF2CFA889B9898C914D
:1036E00085FFEDCFCE010E94E81AE7CFDF91CF91A1
:1036F00008951F920F920FB60F9211242F933F93AC
:103700004F935F936F937F938F939F93AF93BF93E9
:10371000EF93FF9388E794E00E94E81AFF91EF91FE
:10372000BF91AF919F918F917F916F915F914F91D9
:103730003F912F910F900FBE0F901F9018951F92E1
:103740000F920FB60F9211242F938F939F93EF93A5
:10375000FF93E0918804F09189048081E0918E04C8
:10376000F0918F0482FD12C09081809191048F5F4F
:103770008F7320919204821751F0E0919104F0E050
:10378000E858FB4F958F8093910401C08081FF9191
:10379000EF919F918F912F910F900FBE0F901F90DF
:1037A00018951F920F920FB60F9211242F933F93EB
:1037B0004F935F938F939F93EF93FF938091D905DE
:1037C000882381F18091D80581112CC08091D60584
:1037D0009091D70501969093D7058093D605843AAA
:1037E000964009F0AFC01092D0051092CF0510920C
:1037F000D90581E0809303011092D7051092D60578
:103800008091C2059091C305FC01E255FA4F2091C9
:10381000CE05208301969093C3058093C205109234
:10382000CE0590C08091DA059091DB05892B09F4D3
:1038300089C08091D805811120C081E08093D8058E
:103840002091DC052223B9F0ECEDF5E040EF55E0E6
:103850008181811102C0108201C0808331964E1790
:103860005F07B1F78091F0059091F1050197909372
:10387000F1058093F0052093D5052091D305309173
:10388000D4058091C4059091C5052817390709F022
:1038900050C08091D1059091D205009731F484B544
:1038A000806484BD81E090E03CC08930910571F175
:1038B000E4F084B58F7B84BD8091D1059091D205D1
:1038C00001968A33910569F51092D2051092D105BF
:1038D0005A9A8091DA059091DB0501979093DB0568
:1038E0008093DA051092D80520C0019721E030E0DE
:1038F000A90102C0440F551F8A95E2F7CA01209121
:10390000D50530E082239323892B19F084B5806498
:1039100002C084B58F7B84BD8091D1059091D20582
:1039200001969093D2058093D1051092D405109200
:10393000D3058091D3059091D40501969093D40539
:103940008093D305FF91EF919F918F915F914F915C
:103950003F912F910F900FBE0F901F9018951F92BF
:103960000F920FB60F921124FF920F931F932F9374
:103970003F934F935F936F937F938F939F93AF93F7
:10398000BF93CF93DF93EF93FF938091D80581117D
:1039900068C08091D905811104C081E08093D90568
:1039A00060C06091D6057091D705072E000C880B7A
:1039B000990B0E94AF2A2091AA053091AB05409146
:1039C000AC055091AD050E947F2C20E030E040E036
:1039D0005FE30E94132C0E94F12C8B012091CF05F4
:1039E0003091D005232B41F40150110921E030E042
:1039F0003093D0052093CF05709103012091CF051E
:103A00003091D0056091CE0540E050E0F90131974A
:103A1000A1E0B0E0401751077CF4772351F0EF01AB
:103A2000C40FD51FCD0102C0880F991FCA95E2F7B8
:103A3000682B4F5F5F4FEECFC80117FF02C080E0D9
:103A400090E0820F931F9093D0058093CF056093F1
:103A5000CE051092D7051092D60581E08727809376
:103A60000301FF91EF91DF91CF91BF91AF919F91B2
:103A70008F917F916F915F914F913F912F911F9106
:103A80000F91FF900F900FBE0F901F9018950F93FE
:103A90001F93CF93DF93EC010097B1F58CE090E09A
:103AA0000E94272DEC010E94341182E491E0998359
:103AB0008883EA81FB81A081B18184E090E0119646
:103AC0009C938E9313961C921E921297A281B3819F
:103AD00025E030E011963C932E9313961C921E9293
:103AE0001297A481B58111969C938E9381E090E00A
:103AF00013969C938E9312970680F781E02D318365
:103B000020839383828371C181309105E1F58CE03C
:103B100090E00E94272D8C010E9434118CEC91E0E2
:103B2000D80111969C938E931296ED91FC91139768
:103B3000A081B18184E090E011969C938E931396BE
:103B40001C921E921297A281B38125E030E011965B
:103B50003C932E9313961C921E921297A481B581CA
:103B600023E030E011963C932E931396DC93CE9392
:103B700012970680F781E02D91838083D383C283DF
:103B800082E090E0F2C082309105C1F58CE090E0D7
:103B90000E94272DEC010E94341182ED91E099835F
:103BA0008883EA81FB81A081B18183E090E0119656
:103BB0009C938E9313961C921E921297A281B381AE
:103BC00024E030E011963C932E9313961C921E92A3
:103BD0001297A481B58125E030E011963C932E9395
:103BE00013961C921E9212970680F781E02D26E014
:103BF00030E03183208313821282F7C08330910535
:103C0000C1F58CE090E00E94272D8C010E943411B8
:103C100088ED91E0D80111969C938E931296ED91C8
:103C2000FC911397A081B1811196DC93CE931396EA
:103C30001C921E921297A281B38184E090E01196AB
:103C40009C938E9313961C921E921297A481B58119
:103C500011969C938E9321E030E013963C932E9323
:103C600012970680F781E02D45E050E051834083B4
:103C70003AC084309105D1F58CE090E00E94272D68
:103C80008C010E9434118EED91E0D80111969C9325
:103C90008E931296ED91FC911397A081B18183E0F0
:103CA00090E011969C938E9313961C921E921297FD
:103CB000A281B3811196DC93CE9313961C921E922F
:103CC0001297A481B58185E090E011969C938E9324
:103CD00013961C921E9212970680F781E02DD183D5
:103CE000C08321E030E0338322833FC085309105DB
:103CF00009F040C08CE090E00E94272D8C010E94CA
:103D0000341184EE91E0D80111969C938E93129613
:103D1000ED91FC911397A081B18183E090E0119621
:103D20009C938E9313961C921E921297A281B3813C
:103D300024E030E011963C932E9313961C921E9231
:103D40001297A481B5811196DC93CE9313961C92A1
:103D50001E9212970680F781E02D9183808381E087
:103D600090E09383828386E090E0F80195838483DA
:103D7000C8013FC00697E9F58CE090E00E94272D2E
:103D8000EC010E9434118AEE91E099838883EA81E4
:103D9000FB81A081B18183E090E011969C938E938A
:103DA00013961C921E921297A281B38184E090E038
:103DB00011969C938E9313961C921E921297A48137
:103DC000B58185E090E011969C938E9313961C929A
:103DD0001E9212970680F781E02D9183808381E007
:103DE00090E09383828387E090E09D838C83CE0173
:103DF00000C0DF91CF911F910F910895EF92FF9234
:103E00000F931F93CF93DF9300D000D000D0CDB796
:103E1000DEB77C0100E010E020E431E040EF50E04C
:103E200060E070E080E090E00E947708F701808118
:103E300091819093CD058093CC05009721F0019757
:103E400009F091C133C06DEE71E0CE0101960E9480
:103E50002B1A00EE1FEF9E012F5F3F4F42E050E014
:103E600062E370E08CE390E00E94AC12CE01019618
:103E70000E94A41268EF71E0CE0101960E942B1AF5
:103E80009E012F5F3F4F42E050E060E570E08CE321
:103E900090E00E94AC12CE0101960E94A41260EE46
:103EA0007FEF87E390E00E942A135DC18091CA05ED
:103EB0009091CB05892B09F049C00E94791ACB015A
:103EC0000E94A22A0E949D2A6FE370E00E94D52BD7
:103ED000AC019093CB058093CA0590E020E030E0E0
:103EE000BA017727E1E0F0E0DB01022E02C0B595D0
:103EF000A7950A94E2F7A0FF09C0D90112968F0195
:103F000002C0000F111FAA95E2F7902B2F5F3F4FC1
:103F10002630310549F791602091F0053091F10587
:103F2000F901E452FA4F90832F5F3F4F3093F10530
:103F30002093F0058091DA059091DB05019690932E
:103F4000DB058093DA05CA010E94A22A0CE211E087
:103F500040E050E0B80180E090E00E94890840E035
:103F600050E0B8018CED90E00E94890804511109DD
:103F70000C33110569F704E110E040E050E060E522
:103F800070E0C8010E9489080C5E1F4F0C3D1105AE
:103F9000A1F763E270E08EE190E00E94D91263E243
:103FA00070E088E290E00E94D9126DE270E08EE14C
:103FB00090E00E94D91285E6E82E89E2F82E0EE301
:103FC00010E02EE330E049E050E069E070E085E188
:103FD00095E00E94A8090CE310E02CE330E04AE0F1
:103FE00050E06AE070E085E195E00E94A80905E6EE
:103FF00019E22CE030E04CE350E06AE070E08AE047
:1040000090E00E94770865E072E0CE0101960E9480
:104010002B1A0FEF1FEF9E012F5F3F4F41E050E043
:104020006DE070E08DE190E00E94AC12CE0101964F
:104030000E94A41263E270E08EEB90E00E94D9121D
:104040000EE310E02EE330E049E050E069EA70E072
:1040500085E195E00E94A8090CE310E02CE330E034
:104060004AE050E06AEA70E085E195E00E94A80924
:1040700005E619E22CE030E04CE350E06AE070E045
:104080008AEA90E00E9477086AE072E0CE01019629
:104090000E942B1A0FEF1FEF9E012F5F3F4F41E051
:1040A00050E06DE070E08CEB90E00E94AC12CE012D
:1040B00001960E94A4126FE072E0CE0101960E9468
:1040C0002B1A9E012F5F3F4F41E050E069E170E005
:1040D00089E690E00E94AC12CE0101960E94A412E3
:1040E00066E172E0CE0101960E942B1A9E012F5FBD
:1040F0003F4F42E050E063E270E089E690E00E94CA
:10410000AC12CE0101960E94A4128091B000826090
:104110008093B0008091B10087608093B1008FEFF1
:104120008093B300809170008260809370000E9441
:104130009D2A07E010E0B8010E94D52B0E94471D80
:104140009093C9058093C8050E949D2AB8010E94DA
:10415000D52B0E94471D9093C7058093C6050E94EA
:10416000FF100E940D0926960FB6F894DEBF0FBE11
:10417000CDBFDF91CF911F910F91FF90EF900895E8
:104180000F931F93CF93DF931F92CDB7DEB78C01B0
:104190006370DC0156966C935697623059F0633029
:1041A000C9F0613029F088E4898380EF90E007C08E
:1041B00088E211C088E8898380EF90E0D8011996E1
:1041C0009C938E93189780E491E01B969C938E931A
:1041D0001A970BC088EE898380E491E0F8019187FB
:1041E000808780EF90E093878287C8010E94BE0F8E
:1041F000D801D7968C91D79787FD09C05B96ED9132
:10420000FC915C979081D2968C9189238083D80110
:104210005D96ED91FC915E979081D4968C91892367
:10422000808366E3C8010E945F0FD8015D96ED911F
:10423000FC915E979081D3968C91D397892B808344
:10424000D5968C91823029F06981C8010E945F0F58
:1042500009C0F80180A98823B9F369817A81C8016E
:104260000E94970ED801D7968C91D79787FD09C0E9
:104270005B96ED91FC915C979081D1968C91892B06
:104280008083F80185A9811102C00E94D80F0F9088
:10429000DF91CF911F910F9108950E940E2FAF9241
:1042A000BF92CF92DF92EF92FF920F931F93CF9323
:1042B000DF93EC015B016A01215031097901E60EBF
:1042C000F71E01501109040F151F6AE20E948C0F9E
:1042D000B501CE010E94970EB701CE010E94970E44
:1042E0006BE2CE010E948C0FB601CE010E94970EA8
:1042F000B801CE010E94970E6CE2CE01DF91CF9102
:104300001F910F91FF90EF90DF90CF90BF90AF90F3
:104310000C948C0FAF92BF92CF92DF92EF92FF92EC
:104320000F931F93CF93DF93EC01E62E8A01F22EB9
:104330000E94BE0F8FA987FD06C0EB8DFC8D90817A
:104340008AA989238083ED8DFE8D90818CA9892394
:1043500080836E2DCE010E945F0FED8DFE8D9081CA
:104360008BA9892B8083C12CD12CAF2CB12CCA14E2
:10437000DB04E4F48DA97801823059F488A98823FC
:1043800041F0F801619171917F01CE010E94970E79
:1043900008C0FFEFEF1AFF0AF8016491CE010E94F6
:1043A0005F0FFFEFCF1ADF0A8701E1CF8FA987FDEB
:1043B00006C0EB8DFC8D908189A9892B80838DA906
:1043C00081110CC0DF91CF911F910F91FF90EF9061
:1043D000DF90CF90BF90AF900C94D80FDF91CF912A
:1043E0001F910F91FF90EF90DF90CF90BF90AF9013
:1043F0000895611102C060E201C061E220E040E086
:1044000050E00C948A21682F8CE694E00C94F0170D
:104410002F923F924F925F926F927F928F929F92D4
:10442000AF92BF92CF92DF92EF92FF920F931F93C2
:10443000CF93DF93CDB7DEB76B970FB6F894DEBF9F
:104440000FBECDBF9B8F8A8F1B014A01D22E1987C9
:1044500008873701A982DC0159962D913C915A9722
:104460002115310509F0FFC018968D919C9119977F
:10447000681779070CF0E7C11A968D919C911B97EC
:10448000481759070CF0DFC1EC2DF0E0FB83EA83FD
:104490009B0146E0C49E200D311D11243D872C87D1
:1044A000121613060CF0CFC16A2D70E07B876A8765
:1044B00083E0660F771F8A95E1F77F876E87CB01D0
:1044C000880D991D181619060CF0BDC158968C91CF
:1044D000811104C08FEA8D1508F4D394AA8DBB8D89
:1044E000ED91FC9111970284F385E02DCD010995A2
:1044F000B5E0DB9EC0011124EC2DF0E0F98BE88BD8
:1045000091012B5F3F4F3B8B2A8B3D822C822101F7
:10451000AC01421953095D8B4C8B7981672F70E098
:104520007F8B6E8BC4010896998F888FEC89FD89EB
:10453000E40DF51DE95DFE4FD49054019F828E82FB
:10454000D0FE16C0AA8DBB8DED91FC91B1E0CB12CF
:1045500009C02981213031F40484F585E02D2885B6
:10456000398519C00684F785E02DE884F9841DC0DB
:10457000488559854615570519F1AA8DBB8DED91D2
:10458000FC91B1E0CB120DC02981213051F404849B
:10459000F585E02D9301A501B2018A8D9B8D0995CA
:1045A0000FC00684F785E02D73010A851B852A81DB
:1045B0003B814E815F816C817D818A8D9B8D0995C8
:1045C000D6943FEFA31AB30A4E815F816E897F892B
:1045D000460F571F5F834E83888D998DA816B906A5
:1045E00009F0AECF9FEF491A590AAC81BD81E88925
:1045F000F989AE0FBF1FBD83AC832A893B89421660
:10460000530609F093CF488559854615570509F497
:10461000F8C0AA8DBB8DED91FC91B1E0CB1211C019
:104620002981213071F4B1016B5F7F4F0088F189DE
:10463000E02D830128E030E0A4018A8D9B8D09954F
:10464000E0C06C857D854A815B81641B750B0684A7
:10465000F785E02D73010E851F859A01A4018A8DCF
:104660009B8D0995CEC0F9013496E491DE1AF901CB
:10467000329685919491B7E0DB9E800D911D1124B7
:10468000F901259134913B8B2A8BFC0125913491C2
:104690005901FC0132965490319634913C87329600
:1046A00074903196149141E04C1518F059815230B4
:1046B00068F0672D072C000C770B7D836C83812FAE
:1046C000012E000C990B9B838A8304C01B821A82E3
:1046D0001D821C82AA8DBB8DED91FC9111970284E5
:1046E000F385E02DCD010995412CD12C612CF98168
:1046F000EF2FF0E0FF83EE832C2D30E03B872A87FD
:10470000A401410F511D17FD5A955F8B4E8BB101CE
:10471000670D711D77FC7A95798F688F7C85671698
:1047200008F06FC0262D30E04A815B81420F531F95
:10473000AE81BF81A49FC001A59F900DB49F900D35
:104740001124F401E80FF91FF98BE88B842D712CEB
:104750004E895F89420F531F5D8B4C8B751408F097
:104760004DC051E0580F5E87877041F4C501019636
:10477000EA89FB89EA0DFB1DD4905C01D7FE3AC0A3
:1047800061E0C61216C07981713099F4AA8DBB8D93
:10479000ED91FC9111970484F585E02D28853985EC
:1047A0004C895D89688D798D670D711DCD010995E5
:1047B00021C08C819D81870D911DEA85FB858E9F8F
:1047C000B0018F9F700D9E9F700D1124620D731D9F
:1047D000AA8DBB8DED91FC9111970684F785E02D94
:1047E000E884F9840E811F812A853B85488959898F
:1047F000CD010995DD0C73948E85B0CF450C639483
:104800008DCFAA8DBB8DED91FC9111970688F7890C
:10481000E02DCD016B960FB6F894DEBF0FBECDBF75
:10482000DF91CF911F910F91FF90EF90DF90CF908C
:10483000BF90AF909F908F907F906F905F904F90C0
:104840003F902F9009946B960FB6F894DEBF0FBE81
:10485000CDBFDF91CF911F910F91FF90EF90DF902F
:10486000CF90BF90AF909F908F907F906F905F9010
:104870004F903F902F90089590E0FC01ED5EFE4F29
:104880002491FC01E952FF4F3491FC01EB50FF4FA2
:10489000E491EE2309F43CC0222339F1233091F056
:1048A00038F42130A9F0223001F584B58F7D12C093
:1048B000273091F02830A1F02430B9F480918000A5
:1048C0008F7D03C0809180008F77809380000DC022
:1048D00084B58F7784BD09C08091B0008F7703C005
:1048E0008091B0008F7D8093B000F0E0EE0FFF1F4D
:1048F000E551FF4FA591B4919FB7F894611104C0A1
:104900008C913095382302C0EC913E2B3C939FBF95
:104910000895CF93DF9390E0FC01E952FF4F24917B
:10492000FC01EB50FF4F8491882361F190E0880FE8
:10493000991FFC01E75FFE4FC591D491FC01E55141
:10494000FF4FA591B491611109C09FB7F894888178
:10495000209582238883EC912E230BC0623061F472
:104960009FB7F8948881322F309583238883EC9108
:104970002E2B2C939FBF06C08FB7F894E8812E2B67
:1049800028838FBFDF91CF910895CF93DF93CDB769
:10499000DEB7C25ED1090FB6F894DEBF0FBECDBF41
:1049A0007894E0918804F091890482E08083E0911A
:1049B0008404F09185041082E0918604F0918704CC
:1049C0008FEC808310929004E0918C04F0918D0420
:1049D00086E08083E0918A04F0918B04808180617D
:1049E0008083E0918A04F0918B04808188608083C9
:1049F000E0918A04F0918B04808180688083E0914B
:104A00008A04F0918B0480818F7D808310920E0345
:104A100010920D0310926C0310928E030E94861860
:104A200086E997E190935A058093590587E997E1C4
:104A300090935C0580935B0501E000936B0312E5A6
:104A400010938D0310926C0310928E0380EF90E010
:104A50000E94032285E590E00E9403220E94F41345
:104A600000936B0310938D0310926C0310928E03CE
:104A70008BEF90E00E94032280E090E00E940322EE
:104A80000E94F4138AEF0E94E01440E050E0BA0163
:104A900085E195E00E94910A60E070E085E195E093
:104AA0000E94740A1A821982CE0101962C010E947A
:104AB000FE1E8EEC90E090931B0280931A0282E817
:104AC00090E09093C5058093C40580E090E0A7E056
:104AD000B3E48093AA059093AB05A093AC05B09383
:104AE000AD05569A5A9A84B5836084BD85B58860B1
:104AF00085BD85B5816085BD80911A0287BD809195
:104B00006E00826080936E0016BCE89A8091690006
:104B100081608093690011E00CED80E00E94E01458
:104B20003091390330932F0360913A03609330033F
:104B300020913E0380913B0394E0899FA0011124C2
:104B4000822F8C7090E09595879595958795842B0D
:104B5000952B909332038093310380913C03A4E022
:104B60008A9FA0011124922F9073892F90E0E4E096
:104B700095958795EA95E1F7842B952B90933403CF
:104B80008093330380913D03B4E08B9FC0011124D7
:104B9000422F4295469546954370842B9093360359
:104BA00080933503822F8170812780933703269568
:104BB0002170CF51DF4F2883C15ED040CE51DF4FEF
:104BC0001882C25ED040CF51DF4F48815981C15E0B
:104BD000D040E1E04E27942F917040933803653E1A
:104BE00018F0109324020AC020912402211110937E
:104BF0001E026C3118F41093250205C02091250285
:104C0000211110931F023C3118F4109326020AC0A0
:104C100020912602211110932002353E18F01093A6
:104C2000270205C020912702211110932102882319
:104C300019F01093280205C0809128028111109369
:104C40002202992319F01093290205C080912902AC
:104C50008111109323028091CC059091CD0500978E
:104C600021F0019709F059CFCCC08091C2059091F5
:104C7000C305892B89F40E940B087C01DC01149682
:104C80008C91882309F472C0A1E0B0E0BA83A983B3
:104C9000C2010E94FE1E6AC084E190E00E94272D9E
:104CA0007C016C01DC01EEEAF5E081918D9345E039
:104CB000E23CF407D1F78091C2059091C305EEEA7A
:104CC000F5E09F012E5A35402817390714F4119248
:104CD000F8CF1092C3051092C205570184E1A80EC7
:104CE000B11C912CD6018D916D01882399F1482F2B
:104CF00050E0982F917081FD926080E020E030E0DC
:104D0000B9016E5F7F4FFA0102C0F595E7956A958C
:104D1000E2F7E0FF08C061E070E0022E01C0660F1C
:104D20000A94EAF7862B2F5F3F4F2630310541F773
:104D3000913081F490E09093CB058093CA050E9456
:104D4000A22A81E090E09A838983C2010E94FE1E1C
:104D500099249394AC14BD0429F6E114F10419F0DC
:104D6000C7010E94BF2D9110D8CE85CFF701D0800A
:104D7000D11004C08181811108C03DC080911C0206
:104D800090911D02892B39F436C080911C029091BC
:104D90001D02019781F120911C0230911D02FEE15C
:104DA000F29FC001F39F900D112460E070E0C79660
:104DB0000E942A1380911C0290911D02DD2021F097
:104DC000009711F0019704C08130910529F00196F8
:104DD00090931D0280931C0220911C0230911D02B1
:104DE0004EE1429FC001439F900D112460EE7FEF82
:104DF000C7960E942A13E114F10409F48ECEC7016C
:104E000074C280918F03882341F083E090E09A83FD
:104E10008983C2010E94FE1E80CE80912A028823CF
:104E200009F47BCE0E940B08C352DF4F998388831D
:104E3000CD5DD04086E090E00E94272D4C01DC0142
:104E4000EEE1F2E080818D93119292E0E432F90775
:104E5000C9F780910001882309F4EBC1C352DF4FE9
:104E6000A881B981CD5DD04011968C91882339F00D
:104E7000E2E0F0E0F0930201E093010106C084E477
:104E800090E09093020180930101D40114968C91DB
:104E9000882309F419C1E090C605F090C705F70111
:104EA000808591858330910519F41186108603C0A1
:104EB000019691878087F201402F11924A95E9F778
:104EC00020E933E0A20180E090E0FA01E80FF91F49
:104ED000D901A80FB91F6D917C91718360830296EF
:104EE0008431910591F72C5E3F4F4C5E5F4F84E01B
:104EF0002C36380741F70E941A085C0160E070E028
:104F0000C7010E94291088E090E00E94272D6C01C3
:104F10001C01C152DF4F99838883CF5DD040612C43
:104F2000712C84E090E00E94272DC152DF4FA881B0
:104F3000B981CF5DD0408D939D93C152DF4FB9832E
:104F4000A883CF5DD040D7011296ED91FC911397C5
:104F5000E60DF71D0190F081E02D20813181DC010B
:104F600011963C932E932281338113963C932E937A
:104F70001297B2E06B0E711CE8E06E16710489F6B0
:104F8000D701ED91FC910190F081E02DC7010995C9
:104F9000D7011296ED91FC9113979F01285F3F4F27
:104FA000A191B1918D919C9111978A309105E0F476
:104FB00012966D907C901397D70114964D915C9149
:104FC0001597BAE0B69DB001B79D700D1124DB01B5
:104FD000A80FB91FAA0FBB1FA057BC4F4D935C93DE
:104FE0002E173F07E9F62BC0C2010E940E10A12C1C
:104FF000B12CD7011296ED91FC911397EA0DFB1D90
:105000000190F081E02DD1018D919D911D01DC0178
:105010002D913C9111973183208312962D913C91D3
:10502000139733832283009711F00E94BF2DB2E0C3
:10503000AB0EB11CE8E0AE16B104D9F63FC00E9439
:105040001A08A816B90659F1C2010E940E10A12C27
:10505000B12CD7011296ED91FC911397EA0DFB1D2F
:105060000190F081E02DD1018D919D911D01DC0118
:105070002D913C9111973183208312962D913C9173
:10508000139733832283009711F00E94BF2DB2E063
:10509000AB0EB11CE8E0AE16B104D9F60FC0760134
:1050A000F8E0EF0EF11CD1018D919D911D0100974B
:1050B00011F00E94BF2DE214F304A9F7C114D1042A
:1050C00019F0C6010E94BF2DC352DF4FE881F9815C
:1050D000CD5DD0408381882319F061E070E00CC081
:1050E000C352DF4FA881B981CD5DD04012968C911B
:1050F000882341F06FEF7FEF8091C6059091C7053F
:105100000E94491080912D02882309F4DAC0E090B2
:10511000C605F090C705F201402F11924A95E9F7B4
:1051200020E933E0A20180E090E0FA01E80FF91FE6
:10513000D901A80FB91F6D917C917183608302968C
:105140008431910591F72C5E3F4F4C5E5F4F84E0B8
:105150002C36380741F70E941A086C0160E070E0B5
:10516000C7010E942910D7011296ED91FC91139767
:10517000A081B18112968D919C91139701961396FF
:105180009C938E931297A281B38112968D919C91DC
:105190001397019613969C938E931297A481B581D1
:1051A00012968D919C911397019613969C938E93D2
:1051B0001297A681B78112968D919C9113970196B3
:1051C00013969C938E931297AF01485F5F4FA19106
:1051D000B19112962D913C9113972B3031050CF51E
:1051E0008D919C91BAE0B29FB001B39F700D1124D4
:1051F000DB01A80FB91FAA0FBB1FA057BC4F81E04E
:1052000090E08D939C934E175F0709F78091000102
:10521000882309F454C00E941A08C816D90609F454
:105220004EC0C2010E940E10109200010E94BA07E7
:1052300046C0E090C605F090C705E114F10439F1CD
:10524000E2E4F1E0D701ED93FC93C12CD12CD7011E
:105250001296ED91FC911397EC0DFD1D80819181CB
:10526000009711F00E94BF2DB2E0CB0ED11CE8E0F8
:10527000CE16D10461F7D70112968D919C911397A8
:10528000009711F00E94BF2DC7010E94BF2D809191
:10529000C8059091C9059093C7058093C6050E94E3
:1052A000FF100E949D2A67E070E00E94D52B0E94AB
:1052B000471D9093C9058093C80510930001109273
:1052C0002D0210922A020E940D09C352DF4FE8817D
:1052D000F981CD5DD040309719F0CF010E94BF2DEC
:1052E0008114910409F419CCC4010E94BF2D15CC7E
:1052F000ECE6F4E01382128288EE93E0A0E0B0E0E6
:1053000084839583A683B78328E431E031832083A7
:10531000E8E7F4E01382128284839583A683B7833F
:105320008AE591E09183808385EC90E0958784877E
:1053300084EC90E09787868780EC90E0918B808B5F
:1053400081EC90E0938B828B82EC90E0958B848B48
:1053500086EC90E0978B868B118E128E138E148EB6
:10536000A5E1B5E013961C921E92129720EF30E053
:1053700015963C932E93149780E491E017969C9396
:105380008E93169719963C932E9318971B969C9381
:105390008E931A9756961C9256971D961C921E92A3
:1053A0001C971F961C921E921E9781E055968C9317
:1053B000559754968C9354972FEF3FEF53963C9309
:1053C0002E93529751963C932E93509757968C93C9
:1053D000579758961C9258975A961C921E92599716
:1053E000D5961C92D5978FEFD6968C93D6978AE058
:1053F000D7968C93D79789E0D8968C93D897DA96DE
:105400001C921E92D997DC961C921E92DB97DD9619
:105410001C92DD97DE961C92DE9710925405109236
:105420005505109256051092570588E595E090961F
:105430009C938E935F97EEEFF0E0E491F0E0EE0F37
:10544000FF1FE551FF4F859194915E969C938E933B
:105450005D97E0EEF0E08491D3968C93D397EFEFD5
:10546000F0E0E491F0E0EE0FFF1FE551FF4F2591D2
:1054700034915C963C932E935B97E1EEF0E0E491DF
:10548000D196EC93D197E095D296EC93D297E82FF2
:10549000E095D496EC93D4978CE991E08D939C930E
:1054A00008958F929F92AF92BF92CF92DF92EF9228
:1054B000FF92CF93DF93EC01688179818A819B8190
:1054C000611571058105910521F464E279ED8BE5A3
:1054D00097E02DE133EF41E050E00E943B2B490182
:1054E0005A019B01AC01A7EAB1E40E945A2B6B015F
:1054F0007C01ACEEB4EFA50194010E94682BDC01A5
:10550000CB018C0D9D1DAE1DBF1DB7FF03C00197C4
:10551000A109B04888839983AA83BB839F77DF91D1
:10552000CF91FF90EF90DF90CF90BF90AF909F9082
:105530008F9008950E94512A089584E091E00E947E
:10554000512A0895A0E0B0E08093040190930501F2
:10555000A0930601B09307010895E89409C097FB52
:105560003EF490958095709561957F4F8F4F9F4F3A
:105570009923A9F0F92F96E9BB279395F69587957E
:1055800077956795B795F111F8CFFAF4BB0F11F441
:1055900060FF1BC06F5F7F4F8F4F9F4F16C08823E8
:1055A00011F096E911C0772321F09EE8872F762F1E
:1055B00005C0662371F096E8862F70E060E02AF05F
:1055C0009A95660F771F881FDAF7880F969587954B
:1055D00097F9089597F99F6780E870E060E0089573
:1055E0009FEF80EC089500240A94161617061806FB
:1055F0000906089500240A941216130614060506D7
:105600000895092E0394000C11F4882352F0BB0F67
:1056100040F4BF2B11F460FF04C06F5F7F4F8F4FCA
:105620009F4F089557FD9058440F551F59F05F3F05
:1056300071F04795880F97FB991F61F09F3F79F0B4
:1056400087950895121613061406551FF2CF469536
:10565000F1DF08C0161617061806991FF1CF8695B8
:105660007105610508940895E894BB27662777279C
:10567000CB0197F90895052E97FB1EF400940E9424
:10568000522B57FD07D00E94A42B07FC03D04EF4E9
:105690000C94522B50954095309521953F4F4F4F8C
:1056A0005F4F089590958095709561957F4F8F4FCE
:1056B0009F4F08950E94C62BA59F900DB49F900DFB
:1056C000A49F800D911D11240895B7FF0C945A2BAF
:1056D0000E945A2B821B930B08952F923F924F9258
:1056E0005F926F927F928F929F92AF92BF92CF9272
:1056F000DF92EF92FF920F931F93CF93DF93CDB77B
:10570000DEB7CA1BDB0B0FB6F894DEBF0FBECDBFF2
:1057100009942A88398848885F846E847D848C84C3
:105720009B84AA84B984C884DF80EE80FD800C81CC
:105730001B81AA81B981CE0FD11D0FB6F894DEBFAF
:105740000FBECDBFED010895A1E21A2EAA1BBB1B0F
:10575000FD010DC0AA1FBB1FEE1FFF1FA217B3073D
:10576000E407F50720F0A21BB30BE40BF50B661F53
:10577000771F881F991F1A9469F760957095809517
:1057800090959B01AC01BD01CF010895A29FB0018E
:10579000B39FC001A39F700D811D1124911DB29F65
:1057A000700D811D1124911D089597FB072E16F48D
:1057B000009407D077FD09D00E94F82B07FC05D094
:1057C0003EF4909581959F4F0895709561957F4F18
:1057D00008950E94C62B332312F48A1B9B0B0C9452
:1057E000F32B0E94C62BB7FF0895821B930B0895DD
:1057F000AA1BBB1B51E107C0AA1FBB1FA617B707F7
:1058000010F0A61BB70B881F991F5A95A9F7809512
:105810009095BC01CD010895EE0FFF1F0590F49106
:10582000E02D09945058BB27AA270E942A2C0C94DB
:10583000012B0E94F32A38F00E94FA2A20F039F452
:105840009F3F19F426F40C94F02A0EF4E095E7FB40
:105850000C94EA2AE92F0E94122B58F3BA17620718
:1058600073078407950720F079F4A6F50C94342B80
:105870000EF4E0950B2EBA2FA02D0B01B90190016B
:105880000C01CA01A0011124FF27591B99F0593FAF
:1058900050F4503E68F11A16F040A22F232F342FF7
:1058A0004427585FF3CF469537952795A795F04045
:1058B0005395C9F77EF41F16BA0B620B730B840B5A
:1058C000BAF09150A1F0FF0FBB1F661F771F881F12
:1058D000C2F70EC0BA0F621F731F841F48F487956A
:1058E00077956795B795F7959E3F08F0B0CF93955C
:1058F000880F08F09927EE0F9795879508950E94D5
:10590000932C0C94012B0E94FA2A58F00E94F32A3F
:1059100040F029F45F3F29F00C94EA2A51110C94CD
:10592000352B0C94F02A0E94122B68F39923B1F3C3
:10593000552391F3951B550BBB27AA2762177307B5
:10594000840738F09F5F5F4F220F331F441FAA1F49
:10595000A9F335D00E2E3AF0E0E832D09150504005
:10596000E695001CCAF72BD0FE2F29D0660F771FB3
:10597000881FBB1F261737074807AB07B0E809F099
:10598000BB0B802DBF01FF2793585F4F3AF09E3F1E
:10599000510578F00C94EA2A0C94352B5F3FE4F320
:1059A000983ED4F3869577956795B795F7959F5F61
:1059B000C9F7880F911D9695879597F90895E1E0AD
:1059C000660F771F881FBB1F621773078407BA070C
:1059D00020F0621B730B840BBA0BEE1F88F7E09567
:1059E00008950E94F82C6894B1110C94352B0895F9
:1059F0000E941A2B88F09F5798F0B92F9927B7511A
:105A0000B0F0E1F0660F771F881F991F1AF0BA9562
:105A1000C9F714C0B13091F00E94342BB1E0089561
:105A20000C94342B672F782F8827B85F39F0B93F53
:105A3000CCF3869577956795B395D9F73EF4909515
:105A40008095709561957F4F8F4F9F4F08950F936D
:105A50001F93CF93DF938230910510F482E090E0A2
:105A6000E091F405F091F50520E030E0A0E0B0E031
:105A7000309719F1408151810281138148175907EC
:105A8000C8F08417950769F4109731F012960C93BB
:105A9000129713961C9327C00093F4051093F505F5
:105AA00022C02115310519F04217530718F49A0145
:105AB000BD01EF01DF01F801DBCF21153105F9F060
:105AC000281B390B2430310580F48A819B816115B4
:105AD000710521F0FB019383828304C09093F50547
