:100000000C9417030C9494070C943F030C943F0337
:100010000C943F030C943F030C943F030C943F0358
:100020000C943F030C9482080C943F030C942C080E
:100030000C943F030C943F030C94B6060C943F03BE
:100040000C94D40C0C943F030C94DE0A0C94100B0B
:100050000C943F030C943F030C943F030C943F0318
:100060000C945E120C943F03000000080002010093
:100070000003040700000000000000000102040863
:100080001020408001020408102001020408102002
:10009000040404040404040402020202020203032E
:1000A0000303030300000000250028002B000000CC
:1000B0000000240027002A0000000000003E5B4FE3
:1000C0005B3E3E6B4F6B3E1C3E7C3E1C183C7E3CB8
:1000D000181C577D571C1C5E7F5E1C00183C1800C6
:1000E000FFE7C3E7FF0018241800FFE7DBE7FF3056
:1000F000483A060E2629792926407F050507407FC4
:1001000005253F5A3CE73C5A7F3E1C1C08081C1C36
:100110003E7F14227F22145F5F005F5F06097F012C
:100120007F006689956A606060606094A2FFA29417
:1001300008047E040810207E201008082A1C0808E5
:100140001C2A08081E101010100C1E0C1E0C303833
:100150003E3830060E3E0E06000000000000005F34
:1001600000000007000700147F147F14242A7F2A50
:100170001223130864623649562050000807030012
:10018000001C2241000041221C002A1C7F1C2A085E
:10019000083E0808008070300008080808080000C1
:1001A00060600020100804023E5149453E00427F35
:1001B000400072494949462141494D331814127F84
:1001C0001027454545393C4A494931412111090724
:1001D0003649494936464949291E000014000000A5
:1001E0004034000000081422411414141414004177
:1001F00022140802015909063E415D594E7C121134
:10020000127C7F494949363E414141227F4141416B
:100210003E7F494949417F090909013E41415173E6
:100220007F0808087F00417F41002040413F017F57
:10023000081422417F404040407F021C027F7F041F
:1002400008107F3E4141413E7F090909063E415168
:10025000215E7F09192946264949493203017F0158
:10026000033F4040403F1F2040201F3F4038403F59
:10027000631408146303047804036159494D43006F
:100280007F4141410204081020004141417F0402A6
:10029000010204404040404000030708002054543D
:1002A00078407F284444383844444428384444281B
:1002B0007F385454541800087E090218A4A49C786E
:1002C0007F0804047800447D40002040403D007FCA
:1002D0001028440000417F40007C047804787C08AA
:1002E0000404783844444438FC182424181824247E
:1002F00018FC7C08040408485454542404043F4463
:10030000243C4040207C1C2040201C3C4030403C91
:1003100044281028444C9090907C4464544C4400F1
:100320000836410000007700000041360800020155
:100330000204023C2623263C1EA1A161123A404041
:10034000207A3854545559215555794122545478BE
:1003500042215554784020545579400C1E52721257
:1003600039555555593954545459395554545800E0
:1003700000457C410002457D420001457C407D12E4
:1003800011127DF0282528F07C5455450020545446
:100390007C547C0A097F4932494949323A444444F1
:1003A0003A324A4848303A4141217A3A424020782C
:1003B000009DA0A07D3D4242423D3D4040403D3C2D
:1003C00024FF2424487E4943662B2FFC2F2BFF0952
:1003D00029F620C0887E0903205454794100004446
:1003E0007D413048484A32384040227A007A0A0A31
:1003F000727D0D19317D2629292F282629292926A4
:1004000030484D4020380808080808080808382FE8
:1004100010C8ACBA2F102834FA00007B0000081472
:100420002A142222142A14085500550055AA55AA48
:1004300055AAFF55FF55FF000000FF00101010FFE8
:1004400000141414FF001010FF00FF1010F010F043
:10045000141414FC001414F700FF0000FF00FF1434
:1004600014F404FC141417101F10101F101F141480
:10047000141F00101010F0000000001F10101010CA
:100480001F10101010F010000000FF1010101010BE
:1004900010101010FF10000000FF140000FF00FFFC
:1004A00000001F10170000FC04F414141710171498
:1004B00014F404F40000FF00F714141414141414BA
:1004C000F700F7141414171410101F101F1414142D
:1004D000F4141010F010F000001F101F0000001F97
:1004E00014000000FC140000F010F01010FF10FFCA
:1004F000141414FF141010101F00000000F010FF5F
:10050000FFFFFFFFF0F0F0F0F0FFFFFF0000000042
:1005100000FFFF0F0F0F0F0F3844443844FC4A4AC6
:100520004A347E02020606027E027E02635549417B
:10053000633844443C04407E201E2006027E0202B2
:1005400099A5E7A5991C2A492A1C4C7201724C30C6
:100550004A4D4D303048784830BC625A463D3E499D
:100560004949007E0101017E2A2A2A2A2A44445F41
:10057000444440514A444040444A51400000FF0135
:1005800003E080FF000008086B6B08361236243643
:10059000060F090F060000181800000010100030A8
:1005A00040FF0101001F01011E00191D1712003C30
:1005B0003C3C3C0000000000EF03038002CF03003E
:1005C000C130ED0464031281E803850078CB05395E
:1005D0002C003402F70120EA020000C00123C1010F
:1005E00010C5023E28C701863601483701003A018E
:1005F00055B1020018B603088227F2010026010156
:10060000E00F0F312B0C0E084EF1370710030E09C7
:1006100000E10F000E1403110731C148080F0C311F
:10062000360F1180298000001F09360BD00F1124CE
:100630001FBECFEFD8E0DEBFCDBF13E0A0E0B1E03A
:10064000E2ECF1E502C005900D92A03CB107D9F7AC
:1006500025E0A0ECB3E001C01D92AC3EB207E1F78B
:1006600013E0C7E1D3E004C02197FE010E94FF23FD
:10067000C431D107C9F70E9436090C94DF280C94C5
:100680000000089580E090E00895EF92FF920F93AC
:100690001F93CF93DF937901CAE1D4E09D878C87C4
:1006A0007F876E871B8B0A8B198B088B642FCE017B
:1006B0000E94911A81E08F8BB701CE01DF91CF911B
:1006C0001F910F91FF90EF900C94C60CCF92DF9288
:1006D000EF92FF920F931F93CF93DF93EC016B0187
:1006E00080EEE82EFF24FA940AE010E02AE030E0E1
:1006F000AB01BE018AE194E00E94C02095E6E92E9C
:1007000099E2F92E01E010E02AE030E0A601BE01F6
:100710008AE194E00E94C0200AE010E021E030E08D
:10072000A601BE018AE194E00E94C020A601475FB5
:100730005F4F01E010E02AE030E0BE018AE194E082
:100740000E94C020BE01675F7F4F0AE010E021E0F9
:1007500030E0A6018AE194E00E94C020DF91CF91B1
:100760001F910F91FF90EF90DF90CF900895EF923F
:10077000FF920F931F93780189019A01AB01BC018D
:100780008AE194E00E94C0201F910F91FF90EF90AA
:1007900008958F929F92AF92BF92CF92DF92EF9285
:1007A000FF920F931F93CF93DF937C01EB0126E021
:1007B000249FC001259F900D11249C0120533D4F83
:1007C0006901F9010081118124E130E044E150E048
:1007D000C7010E94B70305E619E223E030E044E1D7
:1007E00050E0BE01C7010E94B70324E130E043E0BE
:1007F00050E0BE01C7010E94B703BE016F5E7F4F8C
:1008000023E030E044E150E0C7010E94B70324E157
:1008100030E043E050E0BE01C70141960E94B703BB
:10082000F601828093805701F3E0AF0EB11CBE0148
:10083000615F7F4F840122E030E04EE050E0C5016F
:100840000E94B70323962EE030E042E050E0BE0164
:10085000C7010F960E94B703F601E480F580870177
:1008600022E030E04EE050E0BE01C5010E94B70337
:100870002EE030E042E050E0BE01C5010E94B70327
:10088000DF91CF911F910F91FF90EF90DF90CF906C
:10089000BF90AF909F908F900895EF92FF920F932B
:1008A0001F93CF93DF9300D000D000D0CDB7DEB739
:1008B0007C0100E010E020E431E040EF50E060E037
:1008C00070E080E090E00E94B703F70180819181A1
:1008D0009093150480931404009731F0019709F068
:1008E000C9C10CE211E037C062EE72E0CE010196A0
:1008F0000E94540E00EE1FEF9E012F5F3F4F42E01B
:1009000050E062E370E08CE390E00E944503CE018A
:1009100001960E94E30D6DEE72E0CE0101960E94F9
:10092000540E9E012F5F3F4F42E050E060E570E0C3
:100930008CE390E00E944503CE0101960E94E30DF6
:1009400025E030E047E350E068E270E08AE194E0BF
:100950000E9432178FC140E050E0B80180E090E083
:100960000E94C90340E050E0B8018CED90E00E9485
:10097000C903045111090C33110569F704E110E0B2
:1009800040E050E060E570E0C8010E94C9030C5EE1
:100990001F4F0C3D1105A1F763E270E08EE190E07E
:1009A0000E94660363E270E088E290E00E946603C2
:1009B0006DE270E08EE190E00E94660385E6E82E2D
:1009C00089E2F82E0EE310E02EE330E049E050E03B
:1009D00069E070E08AE194E00E94AE150CE310E05B
:1009E0002CE330E04AE050E06AE070E08AE194E015
:1009F0000E94AE1505E619E22CE030E04CE350E031
:100A00006AE070E08AE090E00E94B7036AEF72E06B
:100A1000CE0101960E94540E0FEF1FEF9E012F5F33
:100A20003F4F41E050E06DE070E08DE190E00E94CA
:100A30004503CE0101960E94E30D63E270E08EEB68
:100A400090E00E94660363E270E088EC90E00E9410
:100A500066036DE270E08EEB90E00E9466036DE24B
:100A600070E088EC90E00E9466030EE310E02EE355
:100A700030E049E050E069EA70E08AE194E00E94E9
:100A8000AE150CE310E02CE330E04AE050E06AEAF7
:100A900070E08AE194E00E94AE1505E619E22CE0D0
:100AA00030E04CE350E06AE070E08AEA90E00E94B7
:100AB000B7036FEF72E0CE0101960E94540E0FEF64
:100AC0001FEF9E012F5F3F4F41E050E06DE070E06F
:100AD0008CEB90E00E944503CE0101960E94E30D4D
:100AE00064E073E0CE0101960E94540E9E012F5FD8
:100AF0003F4F41E050E069E170E089E690E00E94FC
:100B00004503CE0101960E94E30D6BE073E0CE0138
:100B100001960E94540E9E012F5F3F4F42E050E02D
:100B200063E270E089E690E00E944503CE01019601
:100B30000E94E30D41E050E060EF70E084E190E05E
:100B40000E94C90341E050E064E071E084E190E07C
:100B50000E94C90341E050E068E171E084E190E067
:100B60000E94C90341E050E06CE271E084E190E052
:100B70000E94C90342E050E06CE870E084E690E037
:100B80000E94C90342E050E06CE870E088E790E022
:100B90000E94C90342E050E060EA70E084E690E021
:100BA0000E94C90342E050E060EA70E088E790E00C
:100BB0000E94C9030E942A0DCB010E9480278091C8
:100BC000120490911304892B09F054C00E947B27D2
:100BD0006FE370E00E94B028909313048093120496
:100BE00083E090E00E94960CFC01809112049091A9
:100BF00013041082818321E0228320E030E0BC01D5
:100C00007727A1E0B0E0AB01022E02C055954795D1
:100C10000A94E2F740FF0DC0A9014E5F5F4F8D01BE
:100C200002C0000F111F4A95E2F7A8015081452B21
:100C300040832F5F3F4F2630310529F72091100464
:100C400030911104D901A450BC4F408141604C93B4
:100C50002F5F3F4F30931104209310042091FA032B
:100C60003091FB032F5F3F4F3093FB032093FA0338
:100C70000E94802726960FB6F894DEBF0FBECDBF28
:100C8000DF91CF911F910F91FF90EF900895EF9218
:100C9000FF921F93CF93DF93182F7A0110920001D8
:100CA0009B0140E050E060E079E08DE390E00E943D
:100CB000A023E9012197E114F10449F00E941E0DDF
:100CC0006E0D7F1D7093D1036093D00306C08FEF2C
:100CD0009FEF9093D1038093D0038091CF03811134
:100CE00025C0812F90E0FC01E458FF4F2491209310
:100CF000CF0380579F4FFC013491E32FF0E0EE0FBC
:100D0000FF1FEC55FF4F45915491509319044093A8
:100D10001804FC018491E82FF0E0EE0FFF1FE2556C
:100D2000FF4FA591B491EC912E2B2C93D09387007B
:100D3000C09386008091840090918500C817D907E0
:100D400020F4D0938500C093840081E180938100DA
:100D500080E18093800080916F00826080936F00BB
:100D6000DF91CF911F91FF90EF9008951F920F9206
:100D70000FB60F9211242F933F934F935F938F934E
:100D80009F93EF93FF938091F903882381F18091E2
:100D9000F80381112CC08091F6039091F70301961E
:100DA0009093F7038093F603843A964009F0AFC01E
:100DB0001092EE031092ED031092F90381E08093FC
:100DC00001011092F7031092F6038091EA039091CB
:100DD000EB03FC01EA52FC4F2091EC0320830196C7
:100DE0009093EB038093EA031092EC0390C0809100
:100DF000FA039091FB03892B09F489C08091F803D1
:100E0000811120C081E08093F8032091FC0322230C
:100E1000B9F0ECEFF3E040E154E08181811102C0D0
:100E2000108201C0808331964E175F07B1F7809121
:100E30001004909111040197909311048093100471
:100E40002093F5032091F3033091F4038091F10393
:100E50009091F2032817390709F050C08091EF03F1
:100E60009091F003009731F484B5806484BD81E0F3
:100E700090E03CC08930910571F1E4F084B58F7B3E
:100E800084BD8091EF039091F00301968A33910520
:100E900069F51092F0031092EF035A9A8091FA03C9
:100EA0009091FB0301979093FB038093FA031092B8
:100EB000F80320C0019721E030E0A90102C0440FEF
:100EC000551F8A95E2F7CA012091F50330E082238D
:100ED0009323892B19F084B5806402C084B58F7B7D
:100EE00084BD8091EF039091F00301969093F003FD
:100EF0008093EF031092F4031092F3038091F303B5
:100F00009091F40301969093F4038093F303FF917F
:100F1000EF919F918F915F914F913F912F910F9002
:100F20000FBE0F901F9018951F920F920FB60F9241
:100F30001124FF920F931F932F933F934F935F932F
:100F40006F937F938F939F93AF93BF93CF93DF93D1
:100F5000EF93FF938091F803811168C08091F903AA
:100F6000811104C081E08093F90360C06091F603B1
:100F70007091F703072E000C880B990B0E94152522
:100F80002091D2033091D3034091D4035091D503E3
:100F90000E94722420E030E040E05FE30E940624DB
:100FA0000E94D8288B012091ED033091EE03232B72
:100FB00041F40150110921E030E03093EE03209319
:100FC000ED03709101012091ED033091EE036091EA
:100FD000EC0340E050E0F9013197A1E0B0E04017A8
:100FE00051077CF4772351F0EF01C40FD51FCD01D9
:100FF00002C0880F991FCA95E2F7682B4F5F5F4FB9
:10100000EECFC80117FF02C080E090E0820F931F6F
:101010009093EE038093ED036093EC031092F7033B
:101020001092F60381E0872780930101FF91EF91F1
:10103000DF91CF91BF91AF919F918F917F916F91F0
:101040005F914F913F912F911F910F91FF900F90C2
:101050000FBE0F901F9018951F920F920FB60F9210
:1010600011240F931F932F933F934F935F936F938D
:101070007F938F939F93AF93BF93EF93FF930E94C0
:101080001E0D2091D0033091D103890120E030E082
:101090006017710782079307C8F080916F008D7FFA
:1010A00080936F0082E08093810021E02093800094
:1010B000E0911804F091190490818091CF038095FC
:1010C000892380831092CF0320930001E0911804BC
:1010D000F091190490818091CF0389278083FF913B
:1010E000EF91BF91AF919F918F917F916F915F91A0
:1010F0004F913F912F911F910F910F900FBE0F9025
:101100001F9018951F920F920FB60F9211242F93D4
:101110003F934F935F936F937F938F939F93AF937F
:10112000BF93CF93DF93EF93FF938091C0038F5FC3
:101130008093C0038091000181116EC08091C00333
:101140008D3708F469C01092C0038091CB03909151
:10115000CC03823E910524F01092CC031092CB0375
:10116000E091CB03F091CC03EE0FFF1FE25FFE4F47
:1011700060817181161617063CF4809116049091D7
:1011800017040E94B0281AC061157105D9F0719535
:101190006195710980911604909117040E94B028FE
:1011A000072E000C880B990B0E94152520E030E0DB
:1011B00040EC5FE30E94A1250E94D8287093CE03E3
:1011C0006093CD03C091CB03D091CC036091CD034C
:1011D0007091CE03072E000C880B990B0E941525E9
:1011E00026E636E646E65FE30E94A1250E94E42457
:1011F000CC0FDD1FC45FDE4F28813981AB01B901FF
:1012000085E00E9447068091CB039091CC03029623
:101210009093CC038093CB03FF91EF91DF91CF911B
:10122000BF91AF919F918F917F916F915F914F91FE
:101230003F912F910F900FBE0F901F90189581E056
:1012400090E00E94960CFC01108290931904809308
:1012500018048EEA98E090931704809316042FEFF9
:1012600049E06AE08AE194E00C948722CF93DF930F
:1012700000D0CDB7DEB7209A8091B1008560809311
:10128000B100809170008160809370001092B20074
:10129000789426E040E855E260E070E08DE594E067
:1012A0000E94310C83E095E00E94370F62E582EDE9
:1012B00095E00E946B2340E050E0BA018AE194E09F
:1012C0000E94C12160E070E08AE194E00E94241550
:1012D0001A821982CE0101960E944D048DE890E099
:1012E0009093C2038093C1038EEB90E09093F2033E
:1012F0008093F10380E090E0A6E3B3E48093D2030F
:101300009093D303A093D403B093D503569A5A9ADB
:1013100084B5836084BD85B5886085BD85B58160F1
:1013200085BD8091C10387BD80916E0082608093EE
:101330006E0016BCE89A8091690081608093690014
:101340000091CB031091CC036091CD037091CE033B
:10135000072E000C880B990B0E94152526E636E611
:1013600046E65FE30E94A1250E94E424000F111FBE
:10137000F801E45FFE4F20813181AB01B90185E0C6
:101380000E94470622242394312C66246394712CF6
:101390003BECC32E33E0D32E55245394AA24A394BC
:1013A000B12C62E582ED95E00E940E238091D2057A
:1013B000853E18F05092C50304C08C3110F4509251
:1013C000C6038091D305853E18F05092C70304C030
:1013D0008C3110F45092C8038091DA05811150923B
:1013E000C9038091DB0581115092CA0380911404D6
:1013F00090911504892BA9F68091EA039091EB0353
:10140000892B49F486E090E00E94980C7C01DC0175
:10141000E5ECF3E068C084E190E00E94980C8C0158
:101420007C01DC01E6EDF3E081918D9323E0EA3E5F
:10143000F207D1F78091EA039091EB03E6EDF3E038
:101440009F01265D33402817390714F41192F8CF15
:101450001092EB031092EA03480184E1880E911C7C
:10146000412CF70181917F01882389F1482F50E0B9
:10147000982F917081FD926080E020E030E0B9010A
:101480006E5F7F4FFA0102C0F595E7956A95E2F726
:10149000E0FF07C0B101022E01C0660F0A94EAF70F
:1014A000862B2F5F3F4F2630310549F7913079F475
:1014B00090E090931304809312040E948027BA82D4
:1014C000A982CE0101960E944D0444244394E8145D
:1014D000F90439F60115110519F0C8010E949A0C9A
:1014E00041105FCF8FCF80818D931192CE16DF0692
:1014F000D1F7F7018481882331F07A826982CE01A5
:1015000001960E944D04F7019280911004C08381DE
:10151000811108C04BC08091C3039091C403892BF3
:1015200039F444C08091C3039091C4030197F1F151
:101530008091C3039091C403FEE1F89FA001F99F3D
:10154000500D1124495C5F4F00E010E025E030E0D1
:1015500068E270E08AE194E00E9432178091C30350
:101560009091C403992021F0009711F0019704C0D5
:101570008130910529F001969093C4038093C303B1
:101580008091C3039091C4032EE1289FA001299F5D
:10159000500D1124495C5F4F00EE1FEF25E030E055
:1015A00068E270E08AE194E00E943217E114F104ED
:1015B00009F4F7CEC7010E949A0CF3CE1F920F9246
:1015C0000FB60F9211242F938F939F93EF93FF9356
:1015D000E0916D04F0916E048081E0917304F091CC
:1015E000740482FD12C09081809176048F5F8F73A6
:1015F00020917704821751F0E0917604F0E0E35AED
:10160000FB4F958F8093760401C08081FF91EF910D
:101610009F918F912F910F900FBE0F901F90189553
:101620001F920F920FB60F9211242F933F934F9357
:101630005F936F937F938F939F93AF93BF93EF933A
:10164000FF938DE594E00E94A00BFF91EF91BF9175
:10165000AF919F918F917F916F915F914F913F914A
:101660002F910F900FBE0F901F901895EDE5F4E0AD
:101670001382128288EE93E0A0E0B0E08483958329
:10168000A683B78383E193E09183808385EC90E028
:101690009587848784EC90E09787868780EC90E03C
:1016A000918B808B81EC90E0938B828B82EC90E02D
:1016B000958B848B86EC90E0978B868B118E128EA7
:1016C000138E148E0895FC01918D228D892F90E048
:1016D000805C9F4F821B91098F7399270895FC01AD
:1016E000918D828D981731F0828DE80FF11D858DD7
:1016F00090E008958FEF9FEF0895FC01918D828D0A
:10170000981761F0828DDF01A80FB11D5D968C9155
:10171000928D9F5F9F73928F90E008958FEF9FEF60
:101720000895FC01538D448D252F30E0842F90E0E7
:10173000821B930B541710F0CF96089501970895CC
:10174000FC01848DDF01A80FB11DA35ABF4F2C915E
:10175000848D90E001968F739927848FA689B7892D
:101760002C93A089B1898C91837080648C93938D24
:10177000848D981306C00288F389E02D80818F7DC7
:1017800080830895EF92FF920F931F93CF93DF937F
:10179000EC0181E0888F9B8D8C8D981305C0E889C2
:1017A000F989808185FD26C0F62E0B8D10E00F5F34
:1017B0001F4F0F731127E02E8C8DE8120CC00FB64F
:1017C00007FCFACFE889F989808185FFF5CFCE0142
:1017D0000E94A00BF1CF8B8DFE01E80FF11DE35AA3
:1017E000FF4FF0829FB7F8940B8FEA89FB898081C5
:1017F00080620AC09FB7F894EE89FF896083E88908
:10180000F98980818370806480839FBF81E090E04C
:10181000DF91CF911F910F91FF90EF900895CF939B
:10182000DF93EC01888D8823C9F0EA89FB898081E8
:1018300085FD05C0A889B9898C9186FD0FC00FB6BA
:1018400007FCF5CF808185FFF2CFA889B9898C91FB
:1018500085FFEDCFCE010E94A00BE7CFDF91CF91A6
:101860000895CF92DF92EF92FF921F93CF93DF9371
:10187000EC016A017B01122FE889F98982E08083FB
:101880004115514E61057105B1F060E079E08DE3DD
:1018900090E0A70196010E94A023DA01C9010197F7
:1018A000A109B109B695A795979587959C01211532
:1018B00080E13807A8F0E889F989108260E874E8C7
:1018C0008EE190E0A70196010E94A023DA01C901F0
:1018D0000197A109B109B695A795979587959C01A0
:1018E000EC85FD853083EE85FF852083188EEC899D
:1018F000FD891083EA89FB89808180618083EA8980
:10190000FB89808188608083EA89FB898081806887
:101910008083EA89FB8980818F7D8083DF91CF91ED
:101920001F91FF90EF90DF90CF9008950C940E26BA
:101930000C940E260C94A626CF92DF92EF92FF9283
:101940000F931F93CF93DF936C017A018B01C0E05B
:10195000D0E0CE15DF0581F0D8016D918D01D60163
:10196000ED91FC910190F081E02DC6010995892B44
:1019700011F02196EECF7E01C701DF91CF911F912B
:101980000F91FF90EF90DF90CF900895DB011496B8
:101990004D915C9115976D917C91DC01ED91FC91DD
:1019A0000280F381E02D09941F920F920FB60F92DF
:1019B00011242F933F938F939F93AF93BF93809165
:1019C000FB049091FC04A091FD04B091FE043091C1
:1019D000FA0423E0230F2D3720F40196A11DB11D39
:1019E00005C026E8230F0296A11DB11D2093FA041D
:1019F0008093FB049093FC04A093FD04B093FE0439
:101A00008091FF0490910005A0910105B09102051D
:101A10000196A11DB11D8093FF0490930005A09332
:101A20000105B0930205BF91AF919F918F913F91B6
:101A30002F910F900FBE0F901F9018952FB7F8940D
:101A40006091FB047091FC048091FD049091FE0470
:101A50002FBF08953FB7F8948091FF04909100053F
:101A6000A0910105B091020526B5A89B05C02F3FA6
:101A700019F00196A11DB11D3FBFBA2FA92F982FB4
:101A80008827820F911DA11DB11DBC01CD0142E02F
:101A9000660F771F881F991F4A95D1F708958330E5
:101AA00081F028F4813099F08230A1F008958730D8
:101AB000A9F08830B9F08430D1F4809180008F7D16
:101AC00003C0809180008F7780938000089584B553
:101AD0008F7702C084B58F7D84BD08958091B0005A
:101AE0008F7703C08091B0008F7D8093B000089500
:101AF000CF93DF9390E0FC01E458FF4F2491FC0169
:101B0000E057FF4F8491882361F190E0880F991F7F
:101B1000FC01E255FF4FC591D491FC01EC55FF4FFC
:101B2000A591B491611109C09FB7F894888120955F
:101B300082238883EC912E230BC0623061F49FB71F
:101B4000F8948881322F309583238883EC912E2B53
:101B50002C939FBF06C08FB7F894E8812E2B288363
:101B60008FBFDF91CF9108951F93CF93DF93282FDD
:101B700030E0F901E859FF4F8491F901E458FF4F33
:101B8000D491F901E057FF4FC491CC23C1F0162F37
:101B900081110E944F0DEC2FF0E0EE0FFF1FEC556E
:101BA000FF4FA591B4919FB7F894111104C08C9187
:101BB000D095D82302C0EC91DE2BDC939FBFDF9140
:101BC000CF911F910895FC0180819181009711F0C0
:101BD0000C94A6260895CF93DF93EC018881998118
:101BE000009711F00E94A626198218821D821C827D
:101BF0001B821A82DF91CF9108950F931F93CF9389
:101C0000DF93EC018B016F5F7F4F888199810E9488
:101C10008B27009731F0998388831B830A8381E0A7
:101C200001C080E0DF91CF911F910F910895CF9374
:101C3000DF93EC0188819981892B29F08A819B812E
:101C40008617970760F4CE010E94FD0D882341F0AE
:101C50008C819D81892B19F4E881F981108281E0C2
:101C6000DF91CF910895EF92FF920F931F93CF933F
:101C7000DF93EC017B018A01BA010E94170E8111EA
:101C800004C0CE010E94EB0D07C01D830C83B70179
:101C9000888199810E945F28CE01DF91CF911F91A9
:101CA0000F91FF90EF900895FC0111821082138232
:101CB0001282158214826115710551F0FB010190A9
:101CC0000020E9F73197AF01461B570B0C94330EF8
:101CD00008958091370590E020913805821B910985
:101CE00008959091380580913705981750F4E92FA1
:101CF000F0E0E75CFA4F208130E09F5F9093380579
:101D000002C02FEF3FEFC9010895E091380580919F
:101D10003705E81730F4F0E0E75CFA4F808190E097
:101D200008958FEF9FEF08950895CF93DF93EC010F
:101D3000E0910F05F09110053097F1F09091380582
:101D4000809137059817C0F090E0292F30E02617D2
:101D5000370754F4DE01A20FB31F4C91D901A75CE1
:101D6000BA4F4C939F5FF1CF1092380560933705BF
:101D7000CB01DF91CF910994DF91CF910895E0914C
:101D80001105F0911205309729F010921505109267
:101D9000140509940895CF92DF92EF92FF920F936A
:101DA0001F93CF93DF937C01CB018A012091130510
:101DB000222389F0EB016B01C40ED51ECC15DD0585
:101DC00069F06991D701ED91FC910190F081E02DCE
:101DD000C7010995F3CF642F0E94FF0FC801DF915F
:101DE000CF911F910F91FF90EF90DF90CF900895CA
:101DF000CF93DF931F92CDB7DEB769832091130590
:101E00002223D1F020911405203240F021E030E06F
:101E1000FC013383228380E090E015C0809115059A
:101E2000E82FF0E0EA5EFA4F998190838F5F80930C
:101E300015058093140505C061E0CE0101960E944E
:101E4000FF0F81E090E00F90DF91CF910895FC01AA
:101E50001382128288EE93E0A0E0B0E08483958341
:101E6000A683B78385E293E09183808308951092DF
:101E700038051092370510921505109214050E942E
:101E8000D40F8FEB9EE00E942C1085E99EE00C940D
:101E9000271081E080931305609336051092150595
:101EA0001092140508950F93062F21E04091140518
:101EB00066E175E0809136050E9436111092150595
:101EC00010921405109213050F9108954F925F928E
:101ED0006F927F92AF92BF92CF92EF92FF920F9349
:101EE0001F93CF93DF935C01F62ED42F2801390185
:101EF000EE2021F10E94490FCE2DC43008F0C3E03E
:101F0000C150C0F028E0C29FC0011124A30192017A
:101F100004C056954795379527958A95D2F7CA01FB
:101F2000B901D501ED91FC910190F081E02DC50141
:101F30000995E6CF60E0C5010E94530F4D2FD132C5
:101F400008F040E22C2D69E375E08F2D0E944D10C2
:101F50001092380580933705DF91CF911F910F9133
:101F6000FF90EF90CF90BF90AF907F906F905F9079
:101F70004F900895CF92EF920F931F93C22EE12CB2
:101F800000E010E098010E94660F1F910F91EF9002
:101F9000CF90089521E00C94BA0F61E00C94530F98
:101FA00083E095E00C94270F1092CC0581E080939C
:101FB000CA051092C90561E082E10E94B40D61E09A
:101FC00083E10E94B40DE9EBF0E080818E7F808395
:101FD00080818D7F808388E48093B80085E480933E
:101FE000BC000895ECEBF0E080818A7B808360E0A8
:101FF00082E10E94B40D60E083E10C94B40D409145
:102000007B05262F30E0240F311D21323105DCF411
:102010002091CC052430C9F4FC0180E090E08617C3
:1020200058F430917B052191DC01A358BA4FA30FDE
:10203000B11D2C930196F3CF80917B05680F6093BF
:102040007B0580E0089581E0089582E008959093F3
:10205000C0058093BF0508959093C2058093C10584
:10206000089585EC8093BC001092CC050895CF9321
:10207000DF9391E09093C405882361F0C091B8008C
:10208000D091BA000E94F20F0E94D40FD093BA00F0
:10209000C093B800DF91CF9108954F925F926F92F5
:1020A0007F928F929F92AF92BF92CF92DF92EF92E8
:1020B000FF920F931F93CF93DF93F82E162F072FC6
:1020C000C42FE22E413208F0BEC00E942A0D4B01FF
:1020D0005C01D091CC05DD2331F18091C505909153
:1020E000C605A091C705B091C805892B8A2B8B2BFB
:1020F00081F30E942A0D4090C5055090C60560905E
:10210000C7057090C805DC01CB0188199909AA0997
:10211000BB09481659066A067B06D8F68091C305A6
:102120000E94371090C081E08093CC05E092CA05F0
:102130009FEF9093590510929E059C0F90939D05DB
:102140008093CB059091CB058F2D880F892B8093A1
:10215000CB058091C905813089F51092C9050E948F
:102160002A0D6B017C018091CB058093BB0080918F
:10217000C5059091C605A091C705B091C805892BEA
:102180008A2B8B2BA9F00E942A0D8090C505909078
:10219000C605A090C705B090C805DC01CB018C191D
:1021A0009D09AE09BF0988169906AA06BB0690F1DB
:1021B0008091BC0083FDD7CF85EC01C085EE809374
:1021C000BC000E942A0D6B017C018091CC058130FE
:1021D00031F58091C5059091C605A091C705B091D4
:1021E000C805892B8A2B8B2B81F30E942A0D8090A6
:1021F000C5059090C605A090C705B090C805DC0144
:10220000CB018C199D09AE09BF0988169906AA064B
:10221000BB06D8F68091C3050E94371015C0809187
:102220009E058C1710F4C0919E05AFE9B5E0912F83
:10223000E12FF02F8E2F891B8C1718F48D9181932D
:10224000F9CFDC2F01C0D0E08D2FDF91CF911F910E
:102250000F91FF90EF90DF90CF90BF90AF909F9045
:102260008F907F906F905F904F9008954F925F9204
:102270006F927F928F929F92AF92BF92CF92DF9296
:10228000EF92FF920F931F93CF93DF93413208F0A9
:10229000C6C0122FF42ED72EE62ED82F0E942A0D5C
:1022A0004B015C01C091CC05CC2311F18091C50597
:1022B0009091C605A091C705B091C805892B8A2BBE
:1022C0008B2B81F30E942A0D4090C5055090C605C6
:1022D0006090C7057090C805DC01CB018819990989
:1022E000AA09BB09481659066A067B06D8F683C0B8
:1022F00082E08093CC050093CA058FEF8093590547
:1023000010929E05F0929D059E2DAFE9B5E0EE2D51
:10231000FD2D8E2F891B8F1518F481918D93F9CF88
:102320001092CB059091CB05DD0FD92BD093CB0527
:102330008091C905813089F51092C9050E942A0D46
:102340006B017C018091CB058093BB008091C5051A
:102350009091C605A091C705B091C805892B8A2B1D
:102360008B2BA9F00E942A0D8090C5059090C60580
:10237000A090C705B090C805DC01CB018C199D0960
:10238000AE09BF0988169906AA06BB06A0F180917E
:10239000BC0083FDD7CF85EC01C085EE8093BC00E7
:1023A0000E942A0D6B017C01112359F18091CC050B
:1023B000823039F58091C5059091C605A091C70579
:1023C000B091C805892B8A2B8B2B71F30E942A0DA3
:1023D0008090C5059090C605A090C705B090C8052F
:1023E000DC01CB018C199D09AE09BF09881699063D
:1023F000AA06BB06C8F68091C3050E943710C5E047
:1024000013C0809159058F3F79F080915905803232
:1024100041F080915905803331F0C4E005C0C1E03E
:1024200003C0C2E001C0C3E08C2FDF91CF911F91A8
:102430000F91FF90EF90DF90CF90BF90AF909F9063
:102440008F907F906F905F904F90089585ED80936F
:10245000BC008091C5059091C605A091C705B091BB
:10246000C8050796A11DB11D23E0B695A7959795C0
:1024700087952A95D1F72091BC0024FF1CC040917C
:10248000C5055091C6056091C7057091C805452BDB
:10249000462B472B81F30097A105B10541F02AE2B5
:1024A0002A95F1F700C00197A109B109E4CF809105
:1024B000C3050C9437101092CC0508951F920F920B
:1024C0000FB60F9211242F933F934F935F936F9307
:1024D0007F938F939F93AF93BF93EF93FF938091DD
:1024E000B900887F803609F49EC078F5883209F4F7
:1024F0005DC090F4803109F456C038F4882309F4A3
:10250000F5C0883009F44FC0F5C0883109F44EC0D9
:10251000803209F45FC0EEC0803409F46AC058F418
:10252000803309F457C0883309F0E4C0809359051B
:102530000E943110DFC0803509F44FC0883509F49E
:102540005DC0883409F0D6C0D3C0883909F4C4C04E
:10255000A8F4883709F467C038F4883609F463C0F2
:10256000803709F460C0C6C0883809F4B5C0803926
:1025700009F45FC0803809F0BDC05BC0803B09F43E
:1025800083C038F4803A09F466C0883A09F47CC004
:10259000B1C0803C09F4A4C0883C09F4A1C0883BC8
:1025A00009F487C0A7C08091CB0510C090919E050B
:1025B00080919D05981770F5E0919E0581E08E0F42
:1025C00080939E05F0E0E156FA4F80818093BB0036
:1025D00085EC83C0809359058BC0E0919E0581E016
:1025E0008E0F80939E058091BB00F0E0E156FA4F7C
:1025F000808390919E0580919D056BC0E0919E0522
:1026000081E08E0F80939E058091BB00F0E0E15643
:10261000FA4F80838091CA0581116AC081E080935E
:10262000C90584EA5EC083E08093CC0510925A0508
:10263000CFCF80915A05803208F04EC0E0915A0504
:1026400081E08E0F80935A058091BB00F0E0E55A3F
:10265000FA4F8083BDCF0E94311080915A0580329D
:1026600030F4E0915A05F0E0E55AFA4F108260919B
:102670005A0570E0E091BF05F091C0058BE595E04B
:10268000099510925A0536C084E08093CC051092CB
:102690007C0510927B05E091C105F091C20509957A
:1026A00080917B05811105C081E080937B051092AC
:1026B0007D05E0917C0581E08E0F80937C05F0E044
:1026C000E358FA4F80818093BB0090917C05809104
:1026D0007B05981708F47CCF85E88093BC000AC07E
:1026E00085EC8093BC001092CC0504C01092590573
:1026F0000E942612FF91EF91BF91AF919F918F9110
:102700007F916F915F914F913F912F910F900FBEED
:102710000F901F9018952F923F924F925F926F9259
:102720007F928F929F92AF92BF92CF92DF92EF9261
:10273000FF920F931F93CF93DF9300D000D000D070
:10274000CDB7DEB72C017E836D836A015901C801C4
:10275000FC82EB824801841A950A97FE03C091948B
:102760008194910835012D813E81621A730A77FEAA
:1027700003C0719461947108681479045CF43A2D73
:102780002B2D5C01832F922F3D812E81DE82CD8205
:10279000C32ED22EAD81BE81AA16BB065CF43C2DA1
:1027A0002D2D6C01832F922F3D812E81BE82AD8213
:1027B000A32EB22E85012D813E81021B130B1C011D
:1027C0002C183D0837FE03C031942194310878015C
:1027D00017FF03C03FEFE31AF30AF594E794C81616
:1027E000D9062CF08FEF9FEF9A83898304C0A1E074
:1027F000B0E0BA83A9832D813E81A216B30624F1ED
:10280000D201ED91FC910484F585E02D2B813C8172
:102810006814790424F44D815E81B60103C0A601D9
:102820006D817E81C2010995E218F308F7FE06C0AA
:1028300029813A81C20ED31EE00EF11E8D819E8148
:1028400001969E838D83D7CF26960FB6F894DEBF70
:102850000FBECDBFDF91CF911F910F91FF90EF90F1
:10286000DF90CF90BF90AF909F908F907F906F90B0
:102870005F904F903F902F900895DC01ED91FC9177
:102880000084F185E02D09940F931F93DC01ED91F5
:10289000FC91048CF58DE02D09951F910F91089501
:1028A0000F931F93DC01ED91FC91068CF78DE02DC9
:1028B00009951F910F910895EF92FF920F931F9327
:1028C000DC01ED91FC9100A0F1A1E02D09951F9193
:1028D0000F91FF90EF90089508958F929F92AF927D
:1028E000BF92CF92DF92EF92FF920F931F93CF93FD
:1028F000DF93EC015B014A0169017801E881F9810C
:102900000284F385E02D0995C80CD91C860101507D
:102910001109E881F9810488F589E02D9501A40168
:10292000B501CE010995E881F9810688F789E02D86
:10293000CE01DF91CF911F910F91FF90EF90DF902B
:10294000CF90BF90AF909F908F9009948F929F925D
:10295000AF92BF92CF92DF92EF92FF920F931F93AD
:10296000CF93DF93EC015B014A016901E881F981B2
:102970000284F385E02D099595012C0D3D1D215014
:102980003109E881F9810488F589E02D7801840115
:10299000A401B501CE010995E881F9810688F7897E
:1029A000E02DCE01DF91CF911F910F91FF90EF901D
:1029B000DF90CF90BF90AF909F908F9009944F92EF
:1029C0005F926F927F928F929F92AF92BF92CF92BF
:1029D000DF92EF92FF920F931F93CF93DF936C01DF
:1029E0002B015A0139014801DC01ED91FC9102846F
:1029F000F385E02D0995E201640C751CD601ED917B
:102A0000FC91C615D7055CF40088F189E02D87019B
:102A10009401A501BE01C60109952196EFCF068854
:102A2000F789E02DC601DF91CF911F910F91FF90A3
:102A3000EF90DF90CF90BF90AF909F908F907F905E
:102A40006F905F904F900994EF92FF920F931F93B6
:102A5000DC011A960D911C911B9718962D913C91B3
:102A60001997ED91FC9100A0F1A1E02D7B0140E0D0
:102A700050E060E070E009951F910F91FF90EF909A
:102A800008958F929F92AF92BF92CF92DF92EF9272
:102A9000FF920F931F93CF93DF934C016B015A0169
:102AA000E901DC01ED91FC916217730781F40417D1
:102AB000150724F48B2D5801042F182F0A191B0910
:102AC00098012F5F3F4F048CF58DE02D12C0401709
:102AD000510709F52617370724F48D2D6901C62FF4
:102AE000D82F9E012C193D092F5F3F4F068CF78D83
:102AF000E02D8701A501B601C4010995DF91CF91B1
:102B00001F910F91FF90EF90DF90CF90BF90AF900B
:102B10009F908F9008950284F385E02D0995D4014C
:102B2000ED91FC910488F589E02D9E01A501B60187
:102B3000C4010995D401ED91FC910688F789E02D37
:102B4000C401DF91CF911F910F91FF90EF90DF9023
:102B5000CF90BF90AF909F908F9009946F927F928B
:102B60008F929F92AF92BF92CF92DF92EF92FF929D
:102B70000F931F93CF93DF93EC014B015A0169012F
:102B80003801E881F9810284F385E02D0995E88117
:102B9000F9810288F389E02D87019601A501B4012E
:102BA000CE010995A501460D571D41505109E881F7
:102BB000F9810288F389E02D9601B401CE010995CF
:102BC000E881F9810088F189E02D9301A501B40124
:102BD000CE010995C80CD91CB60161507109E88174
:102BE000F9810088F189E02D9301A501CE010995B5
:102BF000E881F9810688F789E02DCE01DF91CF9138
:102C00001F910F91FF90EF90DF90CF90BF90AF900A
:102C10009F908F907F906F9009940895FC0163704E
:102C2000668B8481958126813781613039F06330EC
:102C300029F09187808733872287089531872087FD
:102C4000938782870895FC011382128287E393E0C1
:102C500091838083758364835783468371876087FC
:102C600053874287168A158614861786168681E052
:102C7000858B848B2FEF3FEF338B228B318B208B17
:102C8000878B108E128E118E08952F923F924F9245
:102C90005F926F927F928F929F92AF92BF92CF92EC
:102CA000DF92EF92FF920F931F93CF93DF93CDB7F5
:102CB000DEB72C970FB6F894DEBF0FBECDBF5C0118
:102CC0003B0158874F833C872B87260181E090E0AA
:102CD0006C01C21AD30AC9019195819591099C0191
:102CE000220F331F3C832B83C70101969E838D8364
:102CF0001A019A8389838B849C84EE24E394F12CBB
:102D0000902F9170998702700A87C7010197AB8550
:102D1000BC858A179B070CF08CC0D7FC0BC01197A1
:102D2000BC87AB872B813C812E5F3F4F3C832B833D
:102D3000C20ED31EC701880F991F0196C80ED91E57
:102D40008B859C858E159F05D4F199859923D1F0AB
:102D50002B853C85220F331FAD81BE812A0F3B1F7F
:102D6000D501ED91FC910088F189E02D82014F8120
:102D700058858B859C85481B590BB3016E0D7F1DB3
:102D8000C50109959A859923D1F02B853C85220FA1
:102D9000331FAD81BE812A0F3B1FD501ED91FC9100
:102DA0000088F189E02D82014F8158858B859C85B3
:102DB000481B590BB3016E197F09C5010995AB85F5
:102DC000BC85A815B90569F4AFEFEA1AFA0AB1E0B3
:102DD0002B1A310829813A812E5F3F4F3A8329838C
:102DE00094CFB985BB2379F0D501ED91FC91008892
:102DF000F189E02D820129813A81A101B401660D9A
:102E0000771DC5010995BA85B11103C08B849C84D7
:102E1000DBCFB30168197909D501ED91FC910088E8
:102E2000F189E02D820129813A81A101C50109952D
:102E3000EDCF2C960FB6F894DEBF0FBECDBFDF915D
:102E4000CF911F910F91FF90EF90DF90CF90BF90A7
:102E5000AF909F908F907F906F905F904F903F903A
:102E60002F9008956F927F928F929F92AF92BF9210
:102E7000CF92DF92EF92FF920F931F93CF93DF9346
:102E8000EC014B013A0159016801E881F9810284A2
:102E9000F385E02D09959501220F331F2F5F3F4FDA
:102EA000A3014A195B09E881F9810088F189E02DC5
:102EB000B401CE010995E12CF12C03E09501A301A9
:102EC000B401CE010E944516E881F9810688F78990
:102ED000E02DCE01DF91CF911F910F91FF90EF90E8
:102EE000DF90CF90BF90AF909F908F907F906F902A
:102EF00009942F923F924F925F926F927F928F929E
:102F00009F92AF92BF92CF92DF92EF92FF920F9378
:102F10001F93CF93DF93CDB7DEB76B970FB6F894BF
:102F2000DEBF0FBECDBF9B8F8A8F2B015A83498393
:102F3000D22E198708874701AB82DC0159962D9163
:102F40003C915A972115310509F000C118968D91D1
:102F50009C911997681779070CF0E7C11A968D9123
:102F60009C911B97481759070CF0DFC12C2C312C72
:102F7000FB0126E0C29EE00DF11D1124FD87EC87C8
:102F80001E161F060CF0D1C14A2D50E05B874A8700
:102F900083E0440F551F8A95E1F75F874E8789814B
:102FA0009A81840F951F181619060CF0BEC1589609
:102FB0008C91811104C06FEA6D1508F4D394AA8D29
:102FC000BB8DED91FC9111970284F385E02DCD012D
:102FD0000995B5E0DB9EC0011124EC2DF0E0F98BE2
:102FE000E88B92012B5F3F4F3B8B2A8B32015D8236
:102FF0004C82AC01441955095D8B4C8B7B81672F4A
:1030000070E07F8B6E8B89819A810896998F888F6B
:10301000EC89FD89E60DF71DE854FF4FD490A98196
:10302000BA81BF83AE835D01D0FE16C0AA8DBB8D71
:10303000ED91FC91B1E0CB1209C02B81213031F42C
:103040000484F585E02D2885398519C00684F78527
:10305000E02DE884F9841DC0488559854815590537
:1030600011F1AA8DBB8DED91FC91B1E0CB120DC099
:103070002B81213051F40484F585E02D9401A501C4
:10308000B3018A8D9B8D09950EC00684F785E02DCE
:1030900074010A851B8591014E815F816C817D8160
:1030A0008A8D9B8D0995D6944E815F816E897F892B
:1030B000460F571F5F834E837FEFA71AB70A888D8D
:1030C000998DA816B90609F0AFCFAC81BD81E8890A
:1030D000F989AE0FBF1FBD83AC83FFEF6F1A7F0A64
:1030E0002A893B896216730609F092CF4885598573
:1030F0004815590509F4F7C0AA8DBB8DED91FC91D7
:10310000B1E0CB1212C02B81213079F4B2016B5F98
:103110007F4F0088F189E02D840128E030E049816B
:103120005A818A8D9B8D0995DEC06C857D856219DB
:1031300073090684F785E02D74010E851F859101C2
:1031400049815A818A8D9B8D0995CDC0F9013496AC
:10315000E491DE1AF901329685919491B7E0DB9EF5
:10316000800D911D1124F90125913491398B288B03
:10317000FC0125903490FC01329674903196A49015
:10318000329694903196B49031E03C1518F04B8112
:10319000423068F0692D092C000C770B7D836C831D
:1031A0008B2D0B2C000C990B9F838E8304C01F82E8
:1031B0001E821D821C82AA8DBB8DED91FC91119700
:1031C0000284F385E02DCD010995612CD12C812C51
:1031D000FB81EF2FF0E0FB87EA872C2D30E03D8765
:1031E0002C8749815A814B0D511DB7FC5A955D8B37
:1031F0004C8BB201690D711D97FC7A957F8B6E8B9C
:103200008A1408F070C0282D30E04E815F81420F93
:10321000531FAA85BB85A49FC001A59F900DB49F95
:10322000900D1124E981FA81E80FF91FFF87EE87DD
:10323000862D912C4C895D89420F531F5B8B4A8BE5
:10324000971408F04DC0BB24B394B80E877041F4B6
:10325000C1010196E889F989E20DF31DD4901C01A2
:10326000D7FE3AC051E0C51216C06B81613099F4A7
:10327000AA8DBB8DED91FC9111970484F585E02D0D
:10328000288539854A895B896E897F89690D711D19
:10329000CD01099521C08C819D81890D911DEC8501
:1032A000FD858E9FB0018F9F700D9E9F700D112424
:1032B000640D751DAA8DBB8DED91FC91119706844F
:1032C000F785E02DE884F9840A851B852C853D85EA
:1032D0004E855F85CD010995DD0C93948B2DB0CF84
:1032E000670C83948DCFAA8DBB8DED91FC911197C6
:1032F0000688F789E02DCD016B960FB6F894DEBFF6
:103300000FBECDBFDF91CF911F910F91FF90EF9036
:10331000DF90CF90BF90AF909F908F907F906F90F5
:103320005F904F903F902F9009946B960FB6F89452
:10333000DEBF0FBECDBFDF91CF911F910F91FF90E8
:10334000EF90DF90CF90BF90AF909F908F907F9045
:103350006F905F904F903F902F9008958F929F9223
:10336000AF92CF92EF92FF920F931F93CF93DF9381
:10337000EC01262F898D9A8D009709F042C06A30A2
:1033800059F41D861C862D898E859F8538E0239FE4
:10339000800D911D112443C06D3009F4AAC08F899E
:1033A0008823C9F03C898C859D8546E0349F800D3B
:1033B000911D1124488559854817590764F41D86C5
:1033C0001C863D898E859F8548E0349F800D911D28
:1033D00011249F878E87EA88FB88088919894E8582
:1033E0005F856C857D85AD88CC88CE010E9479177C
:1033F0002C898C859D8536E0239F800D911D11249D
:103400003EC06A3079F41D861C862D89FC013896F1
:10341000E4918E859F852E9F800D911D11249F879D
:103420008E8767C06D3009F464C0FC013496349116
:10343000631708F45EC03296E491E61708F459C0A9
:10344000462F431B342FFC0132968590949047E021
:10345000349F800C911C1124F401329634913196E2
:10346000E491332311F0E1110DC0F4013496E4919D
:103470002C898C859D85E29F800D911D11249D874F
:103480008C8737C0F401359644915F89552319F133
:103490005C89E32FF0E0E40FF11D47FDFA955E9F94
:1034A000B0015F9F700D11244C855D85460F571F3D
:1034B000688579856417750774F41D861C863D89B7
:1034C000FC013896E4918E859F853E9F800D911D6D
:1034D00011249F878E87EA88FB88088919894E8581
:1034E0005F856C857D85AD88CC88CE010E9479177B
:1034F000BCCF81E090E0DF91CF911F910F91FF90C1
:10350000EF90CF90AF909F908F900895611101C080
:1035100061E0FC01648B411101C041E0FC01458B7D
:103520000895462F0C94861A0F93FC0180E092E1D7
:10353000AAE7B0E030E0481759076A077B0740F474
:10354000B695A795979587953F5F3630A1F737E0F9
:1035500091E09327222311F020E501C020E70C70B1
:10356000892F8695082B022B0083917091830F91F0
:1035700008958091CF05882361F09FB7F89420913A
:10358000CF058091CD05213019F48DBB9FBF0895E3
:103590008FBF0895DC015B96ED91FC915C97908163
:1035A000D1968C91892B80830895CF93DF93EC0182
:1035B0008FA987FD03C0CE010E94CA1A8DA981116F
:1035C00004C0DF91CF910C94B91ADF91CF91089587
:1035D000DC015B96ED91FC915C979081D2968C9189
:1035E000892380830895DC015D96ED91FC915E97BF
:1035F0009081D3968C91892B80830895DC015D9610
:10360000ED91FC915E979081D4968C918923808373
:103610000895AF92BF92CF92EF920F931F93CF93E3
:10362000DF93EC0159010E94231683E693E099830E
:1036300088831DAACEAA0FABE8AE1AAE19AE1CAE97
:103640001BAE1DAE1EAEFE01FF96108211821282CD
:103650001382B8A2AF8E8E2DEE0C990BFC01E057B1
:10366000FF4FE491F0E0EE0FFF1FEC55FF4F259167
:1036700034913E8F2D8FFC01E458FF4F84918BAB2A
:1036800007FD16C0002E000C110BF801E057FF4F8C
:10369000E491F0E0EE0FFF1FEC55FF4F25913491C0
:1036A0003C8F2B8FF801E458FF4F049109AB03C006
:1036B0003C8F2B8F19AA99A990959AAB80958CABCA
:1036C000DF91CF911F910F91EF90CF90BF90AF906E
:1036D0000895CF92EF920F93CE2CE02E022F21ED82
:1036E00035E00E94091B0F91EF90CF9008958F92C3
:1036F0009F92AF92BF92DF92EF92FF920F931F9330
:10370000CF93DF9300D0CDB7DEB77C014A015B01D8
:10371000122F452B462B472B31F4812C92E1992E09
:103720009AE7A92EB12CF70187A987FD08C061E0AF
:103730000E94780D61E0F70187A90E94B40D61E055
:10374000F70180AD0E94780D61E0F70180AD0E9425
:10375000B40DF70185A9811118C0012F21E0B50131
:10376000A401CE0101960E94941A89819A81F701E1
:1037700092A381A3012F10E020E030E003A314A363
:1037800025A336A30E94A02255C08130E1F461E058
:10379000F70182A50E94780D60E0F70182A50E94E2
:1037A000B40D61E0F70184A50E94780D60E0F70197
:1037B00084A50E94B40DF70183A587FD3BC060E09E
:1037C0000E94780D37C000E910E0D12CF8018491F7
:1037D000E82FF0E0EE0FFF1FEC55FF4F859194911D
:1037E000F701278D30A12817390741F461E08D2DAD
:1037F0000E94780D60E08D2D0E94B40DD3940F5F70
:103800001F4FF4E1DF12E2CF61E0F70186A50E94CD
:10381000780D61E0F70186A50E94B40DF70187A538
:1038200087FD08C061E00E94780D61E0F70187A57F
:103830000E94B40DF70186A987FD2DC061E00E94AA
:10384000780D61E0F70186A90E94B40DFFEF21EE2B
:1038500084E0F15020408040E1F700C0000060E0CB
:10386000F70186A90E94B40DFFEF21EE84E0F1502C
:1038700020408040E1F700C0000061E0F70186A928
:103880000E94B40DFFEF23EC89E0F150204080400E
:10389000E1F700C000000F900F90DF91CF911F91D2
:1038A0000F91FF90EF90DF90BF90AF909F908F901F
:1038B0000895FC0185A981111BC041A132A180910D
:1038C000CF05882399F02FB7F8948091CF058130E8
:1038D00059F48DB38093CD059DB38091CE0580952D
:1038E00089238DBB2FBF02C02093CD054CBD3DBDAC
:1038F0000895CF93DF93EC010E94591C8FA987FD97
:1039000005C0CE01DF91CF910C94E81ADF91CF91E1
:103910000895DC019196ED91FC9192979081959696
:103920008C91892B80830895DC019196ED91FC9117
:103930009297908196968C91892380830895DC01DB
:103940009396ED91FC919497908197968C91892B09
:1039500080830895DC019396ED91FC91949790817A
:1039600098968C91892380830895FC01A5A1B6A126
:103970009C9182A589238C93A5A1B6A19C9181A538
:10398000892B8C9308950F931F93CF93DF93EC01B2
:10399000162F8DA9811105C06EBD0DB407FEFDCF98
:1039A0001FC0813099F408E0CE0117FF03C00E94C8
:1039B000891C02C00E94941CCE010E949F1C110F02
:1039C000CE010E94AA1C015079F70AC0EF8DF8A120
:1039D0006083CE01DF91CF911F910F910C94B51CA4
:1039E000DF91CF911F910F9108951F93CF93DF9394
:1039F000EC01162F0E94FE1A612FCE010E94C31CFB
:103A0000CE01DF91CF911F910C94F31A1F93CF93A6
:103A1000DF93EC01162FE881F9810284F385E02D14
:103A20000995112311F06DAD01C06EADCE010E945C
:103A3000F51CE881F9810688F789E02DCE01DF9138
:103A4000CF911F910994FF920F931F93CF93DF9310
:103A5000EC018B018DA9811109C01EBD0DB407FEBB
:103A6000FDCF0EBD0DB407FEFDCF29C08130B1F4EE
:103A700090E1F92ECE0117FF03C00E94891C02C0FD
:103A80000E94941CCE010E949F1CCE010E94AA1C81
:103A9000000F111FFA94F110EDCF11C0EF8DF8A1B6
:103AA0001083CE010E94B51CEF8DF8A10083CE01DA
:103AB000DF91CF911F910F91FF900C94B51CDF9176
:103AC000CF911F910F91FF900895CF92DF92EF92C7
:103AD000FF920F931F93CF93DF93EC01F62E8A0191
:103AE000C22E0E94591C8FA987FD03C0CE010E94DF
:103AF000E81ACE010E94FE1A6F2DCE010E94C31C4F
:103B0000CE010E94F31AE12CF12CD12CEC14FD040F
:103B1000BCF48DA9F801823051F488A9882339F0CA
:103B2000619171918F01CE010E94231D05C06191A9
:103B30008F01CE010E94C31CFFEFEF1AFF0AE6CFF0
:103B40008FA987FD03C0CE010E94CA1A8DA98111D9
:103B50000AC0DF91CF911F910F91FF90EF90DF90FE
:103B6000CF900C94B91ADF91CF911F910F91FF90D4
:103B7000EF90DF90CF900895AF92BF92CF92DF92F7
:103B8000EF92FF920F931F93CF93DF93EC01F62EEA
:103B90008A01A22E0E94591C8FA987FD03C0CE0165
:103BA0000E94E81ACE010E94FE1A6F2DCE010E94DB
:103BB000C31CCE010E94F31AC12CD12CB12CCA1403
:103BC000DB04E4F48DA97801823059F488A98823B4
:103BD00041F0F801619171917F01CE010E94231D96
:103BE00008C0FFEFEF1AFF0AF8016491CE010E94AE
:103BF000C31CFFEFCF1ADF0A8701E1CF8FA987FD32
:103C000003C0CE010E94CA1A8DA981110CC0DF9198
:103C1000CF911F910F91FF90EF90DF90CF90BF90C9
:103C2000AF900C94B91ADF91CF911F910F91FF9033
:103C3000EF90DF90CF90BF90AF900895AF92BF927A
:103C4000CF92DF92EF92FF920F931F93CF93DF9368
:103C5000EC0177FD38C088859985681779079CF550
:103C600057FD31C08A859B854817590764F569015E
:103C70007A015B01E881F9810284F385E02DCE01B0
:103C80000995E881F98102A4F3A5E02D01E010E097
:103C900021E030E0A701B501CE010995B601CE01C2
:103CA0000E94231DE881F9810688F789E02DCE0165
:103CB000DF91CF911F910F91FF90EF90DF90CF9008
:103CC000BF90AF900994DF91CF911F910F91FF901A
:103CD000EF90DF90CF90BF90AF900895EF92FF925A
:103CE0000F931F93CF93DF93EC0177FD22C088855C
:103CF000998568177907ECF457FD1BC08A859B8569
:103D000048175907B4F47901E881F98102A4F3A5B1
:103D1000E02D01E010E021E030E0CE010995B7018F
:103D2000CE01DF91CF911F910F91FF90EF900C94F6
:103D3000231DDF91CF911F910F91FF90EF90089578
:103D4000AF92BF92CF92DF92EF92FF920F931F93A9
:103D5000CF93DF93EC018B0121153105410551050E
:103D600009F474C08DA981110FC021503109410996
:103D7000510908F46BC01EBD0DB407FEFDCF0EBD8A
:103D80000DB407FEFDCFF1CF813099F569017A01BD
:103D9000A12E28E0B22ECE01A7FE03C00E94891CEE
:103DA00002C00E94941CCE010E949F1CCE010E9462
:103DB000AA1CAA0CBA94B110EECFA02E98E0B92E8E
:103DC000CE01A7FE03C00E94891C02C00E94941C61
:103DD000CE010E949F1CCE010E94AA1CAA0CBA947C
:103DE000B110EECF81E0C81AD108E108F10881F6E0
:103DF0002DC0161317C0EF8DF8A1108369017A0149
:103E0000CC0CDD1CEE1CFF1CC114D104E104F10438
:103E1000E9F0CE010E94B51C81E0C81AD108E10882
:103E2000F108F2CF69017A01EF8DF8A11083CE017C
:103E30000E94B51CEF8DF8A10083CE010E94B51C35
:103E400081E0C81AD108E108F10871F7DF91CF913C
:103E50001F910F91FF90EF90DF90CF90BF90AF90A8
:103E60000895AF92BF92CF92DF92EF92FF920F939D
:103E70001F93CF93DF93EC015901E881F98102A4EC
:103E8000F3A5E02D09959501D8010E94E1239B013E
:103E9000AC01B701CE01DF91CF911F910F91FF903F
:103EA000EF90DF90CF90BF90AF900C94A01EEF9258
:103EB000FF920F931F93CF93DF9377FD34C0DC0104
:103EC0001896ED91FC9119976E177F0764F52115EF
:103ED000310549F137FF07C0F90131964E0F5F1FD9
:103EE000319521953109DC011A96ED91FC911B97D2
:103EF0004E175F07C4F4EA01C20FD31FDE0111970A
:103F0000B7FD11C057FF03C09E0140E050E0AE175F
:103F1000BF071CF09F01241B350B7801890121E0AC
:103F200030E00E94311FDF91CF911F910F91FF90E0
:103F3000EF900895EF92FF920F931F93CF93DF932B
:103F400057FD33C0DC011A96ED91FC911B974E177B
:103F50005F075CF52115310541F137FF07C0F90115
:103F600031966E0F7F1F319521953109DC0118962E
:103F7000ED91FC9119976E177F07BCF4EB01C20F0E
:103F8000D31FDE011197B7FD10C077FF03C09E015C
:103F900060E070E0AE17BF071CF09F01261B370BD7
:103FA000780101E010E00E94311FDF91CF911F9155
:103FB0000F91FF90EF9008958F929F92AF92BF92D2
:103FC000CF92DF92EF92FF920F931F93CF93DF93E5
:103FD0005C014B016A01E90177FD53C0DC011896D1
:103FE0008D919C911997681779070CF04AC020971A
:103FF00009F447C037FF07C0C9010196C80ED91E92
:10400000D195C195D109F50182859385C816D90648
:10401000C4F5A6014C0F5D1F9A012150310937FDEF
:1040200030C0D7FE03C0EA01C12CD12C28173907B4
:104030001CF0EC01CC19DD09D501ED91FC91028455
:10404000F385E02DC501099578018E0121E030E06E
:10405000A601B401C5010E94311FD501ED91FC916B
:104060000688F789E02DC501DF91CF911F910F914F
:10407000FF90EF90DF90CF90BF90AF909F908F9088
:104080000994DF91CF911F910F91FF90EF90DF90F6
:10409000CF90BF90AF909F908F9008958F929F92F6
:1040A000AF92BF92CF92DF92EF92FF920F931F9346
:1040B000CF93DF935C016B014A01E90157FD53C0C7
:1040C000DC011A968D919C911B97481759070CF0AB
:1040D0004AC0209709F447C037FF07C0C9010196BD
:1040E000C80ED91ED195C195D109F501808591855C
:1040F000C816D906C4F5A6014C0F5D1F9A012150C0
:10410000310937FD30C0D7FE03C0EA01C12CD12CE4
:10411000281739071CF0EC01CC19DD09D501ED9108
:10412000FC910284F385E02DC5010995780101E039
:1041300010E09E01A401B601C5010E94311FD50106
:10414000ED91FC910688F789E02DC501DF91CF91B3
:104150001F910F91FF90EF90DF90CF90BF90AF90A5
:104160009F908F900994DF91CF911F910F91FF90B5
:10417000EF90DF90CF90BF90AF909F908F90089579
:104180008F929F92AF92BF92CF92DF92EF92FF9267
:104190000F931F93CF93DF934C016B015A01E901F9
:1041A000209709F46CC00115110509F468C037FFA8
:1041B00007C0C9010196C80ED91ED195C195D10974
:1041C000F401A085B185CA16DB060CF058C017FFB4
:1041D00007C0C8010196A80EB91E119501951109D5
:1041E000F40182859385A816B9060CF048C0F60143
:1041F000EC0FFD1FAF014150510957FD40C0B50103
:10420000600F711F9B012150310937FD38C0D7FE67
:1042100003C0EF01C12CD12CB7FE03C08B01A12C30
:10422000B12C4A175B071CF0ED01CC19DD092817EA
:1042300039071CF08C010A191B09D401ED91FC917E
:104240000284F385E02DC40109959E01A501B60104
:10425000C4010E94311FD401ED91FC910688F789B9
:10426000E02DC401DF91CF911F910F91FF90EF904E
:10427000DF90CF90BF90AF909F908F900994DF9187
:10428000CF911F910F91FF90EF90DF90CF90BF9053
:10429000AF909F908F9008958F929F92AF92BF9210
:1042A000CF92DF92EF92FF920F931F93CF93DF9302
:1042B00047012115310509F44DC00115110509F417
:1042C00049C037FF07C0F90131966E0F7F1F319546
:1042D00021953109DC011896AD90BC9019976A15AB
:1042E0007B05C4F517FF07C0F80131964E0F5F1F1D
:1042F000119501951109DC011A96ED91FC911B971E
:104300004E175F073CF56B01C20ED31EE6012197E5
:10431000D7FD20C07A01E00EF11ED7011197B7FD3D
:1043200019C077FF03C0960160E070E057FF03C03B
:10433000870140E050E0CA15DB051CF09501261B03
:10434000370BAE17BF071CF08F01041B150B740150
:104350000E94311FDF91CF911F910F91FF90EF903D
:10436000DF90CF90BF90AF909F908F900895611194
:1043700002C060E201C061E220E040E050E00C9445
:10438000BC1DEF92FF920F931F93CF93DF938C018D
:10439000411551056105710521F440E052E16AE7DC
:1043A00070E020E0C8010E94771BF80186A987FF12
:1043B00010C020E040E050E061E0C8010E94BC1D58
:1043C000FFEF22E587E0F15020408040E1F700C098
:1043D0000000E8EBF5E0CF01019664916623D9F087
:1043E000EF012296FC01F490FF2DFF77EF2E2F2F87
:1043F000AE01C8010E94BC1DFE01EE0DF11DF7FECD
:10440000EACF2FEF82E597E0215080409040E1F71E
:1044100000C00000E0CF80EF90E0F8019187808736
:1044200080E491E093878287DF91CF911F910F9174
:10443000FF90EF900895CF93DF931F92CDB7DEB733
:10444000FC016370668B623041F0633079F061305B
:1044500011F088E403C088E20AC088E8898380EF0D
:1044600090E09187808780E491E008C088EE89839E
:1044700080E491E09187808780EF90E09387828746
:1044800021E0AE014F5F5F4F66E3CF010E94651DE3
:104490000F90DF91CF910895AF92BF92CF92DF92AC
:1044A000EF92FF920F931F93CF93DF93EC015B0189
:1044B0006A01215031097901E60EF71E01501109F8
:1044C000040F151F6AE20E94F51CB501CE010E947F
:1044D000231DB701CE010E94231D6BE2CE010E9475
:1044E000F51CB601CE010E94231DB801CE010E9429
:1044F000231D6CE2CE01DF91CF911F910F91FF90B0
:10450000EF90DF90CF90BF90AF900C94F51CEF929E
:104510000F93CF93DF93EC01E22E042F262F40E47C
:1045200051E060EF70E00E94691B83E993E099839A
:104530008883DF91CF910F91EF9008950E945128C9
:10454000CF93CFB7F8948091D005811127C0EAE9C5
:10455000F0E08491E6E8F0E09491E82FF0E0EE0FCF
:10456000FF1FE255FF4FA591B491EC91E92321F48F
:1045700061E08AE00E94B40D61E08AE00E94780D5B
:104580008CB580618CBD8CB580648CBD61E08DE0A4
:104590000E94780D61E08BE00E94780D8091D0053B
:1045A0008F5F8093D005CFBFCF910895DC01ED914F
:1045B000FC910190F081E02D09940F931F93CF930C
:1045C000C62F142F83E095E00E94490F612F83E0EE
:1045D00095E00E94F80E83E095E00E94CD0F46E042
:1045E0006C2F83E095E00E94CA0F02EE15E0C0E058
:1045F00083E095E00E94690E892B59F0C63049F09E
:10460000CF5F83E095E00E94710EF80181938F01E6
:10461000EFCF8C2FCF911F910F9108950F931F9380
:10462000CF93DF93EC0140E00E94DD22E2EEF5E063
:1046300090819883918199834581228194E0299F7B
:10464000B0011124942F9C70292F30E035952795C7
:1046500035952795262B372B3B832A83238194E09E
:10466000299FB0011124942F9073292F30E054E03A
:10467000359527955A95E1F7262B372B3D832C83CB
:10468000248194E0299F90011124942F929596956E
:1046900096959370292B3F832E83942F909591703C
:1046A000988741FB002700F910E091E0092709876E
:1046B000DF91CF911F910F9108954AEF0E94DD2263
:1046C000E2EEF5E0ACEDB5E081918D9385E0E83E5A
:1046D000F807D1F708950F931F93CF938C01C62F3E
:1046E00083E095E00E94490F60EF70E083E095E081
:1046F0000E94D62265E570E083E095E00E94D62214
:1047000083E095E00E94CD0F6C2F83E095E00E943E
:10471000490F6BEF70E083E095E00E94D62260E0E5
:1047200070E083E095E00E94D62283E095E00E944D
:10473000CD0F6C2FC801CF911F910F910C945D2369
:10474000A1E21A2EAA1BBB1BFD010DC0AA1FBB1F95
:10475000EE1FFF1FA217B307E407F50720F0A21B07
:10476000B30BE40BF50B661F771F881F991F1A9474
:1047700069F760957095809590959B01AC01BD019E
:10478000CF010895052E97FB1EF400940E94D923B3
:1047900057FD07D00E94A02307FC03D04EF40C94D1
:1047A000D92350954095309521953F4F4F4F5F4FFE
:1047B000089590958095709561957F4F8F4F9F4F8D
:1047C00008950E94E923332312F48A1B9B0B0C9457
:1047D000FA23A29FB001B39FC001A39F700D811D5A
:1047E0001124911DB29F700D811D1124911D0895FA
:1047F0000E94E923B7FF0895821B930B0895EE0FE3
:10480000FF1F0590F491E02D09945058BB27AA276B
:104810000E941D240C9467250E94592538F00E949F
:10482000602520F039F49F3F19F426F40C945625A6
:104830000EF4E095E7FB0C945025E92F0E947825B3
:1048400058F3BA17620773078407950720F079F4C5
:10485000A6F50C949A250EF4E0950B2EBA2FA02DF8
:104860000B01B90190010C01CA01A0011124FF271D
:10487000591B99F0593F50F4503E68F11A16F04018
:10488000A22F232F342F4427585FF3CF4695379517
:104890002795A795F0405395C9F77EF41F16BA0BDC
:1048A000620B730B840BBAF09150A1F0FF0FBB1F8A
:1048B000661F771F881FC2F70EC0BA0F621F731FD3
:1048C000841F48F4879577956795B795F7959E3F30
:1048D00008F0B0CF9395880F08F09927EE0F9795C1
:1048E000879508950E9486240C9467250E94602570
:1048F00058F00E94592540F029F45F3F29F00C94AC
:10490000502551110C949B250C9456250E94782516
:1049100068F39923B1F3552391F3951B550BBB27EE
:10492000AA2762177307840738F09F5F5F4F220F33
:10493000331F441FAA1FA9F335D00E2E3AF0E0E82A
:1049400032D091505040E695001CCAF72BD0FE2F74
:1049500029D0660F771F881FBB1F26173707480708
:10496000AB07B0E809F0BB0B802DBF01FF279358C0
:104970005F4F3AF09E3F510578F00C9450250C940F
:104980009B255F3FE4F3983ED4F386957795679532
:10499000B795F7959F5FC9F7880F911D96958795F5
:1049A00097F90895E1E0660F771F881FBB1F621714
:1049B00073078407BA0720F0621B730B840BBA0BD2
:1049C000EE1F88F7E09508950E94802588F09F5794
:1049D00098F0B92F9927B751B0F0E1F0660F771F23
:1049E000881F991F1AF0BA95C9F714C0B13091F019
:1049F0000E949A25B1E008950C949A25672F782F8C
:104A00008827B85F39F0B93FCCF3869577956795DD
:104A1000B395D9F73EF490958095709561957F4F49
:104A20008F4F9F4F0895E89409C097FB3EF49095EF
:104A30008095709561957F4F8F4F9F4F9923A9F077
:104A4000F92F96E9BB279395F69587957795679506
:104A5000B795F111F8CFFAF4BB0F11F460FF1BC04A
:104A60006F5F7F4F8F4F9F4F16C0882311F096E9DD
:104A700011C0772321F09EE8872F762F05C066238B
:104A800071F096E8862F70E060E02AF09A95660F44
:104A9000771F881FDAF7880F9695879597F90895FD
:104AA00097F99F6780E870E060E008959FEF80ECE1
:104AB000089500240A941616170618060906089584
:104AC00000240A9412161306140605060895092EEA
:104AD0000394000C11F4882352F0BB0F40F4BF2B59
:104AE00011F460FF04C06F5F7F4F8F4F9F4F089599
:104AF00057FD9058440F551F59F05F3F71F047958F
:104B0000880F97FB991F61F09F3F79F08795089573
:104B1000121613061406551FF2CF4695F1DF08C092
:104B2000161617061806991FF1CF869571056105AF
:104B300008940895E894BB2766277727CB0197F957
:104B400008950E94B4250C9467250E94592538F0D9
:104B50000E94602520F0952311F00C9450250C94B0
:104B6000562511240C949B250E94782570F3959F5F
:104B7000C1F3950F50E0551F629FF001729FBB2754
:104B8000F00DB11D639FAA27F00DB11DAA1F649FF0
:104B90006627B00DA11D661F829F2227B00DA11DA3
:104BA000621F739FB00DA11D621F839FA00D611D29
:104BB000221F749F3327A00D611D231F849F600D4A
:104BC000211D822F762F6A2F11249F5750409AF073
:104BD000F1F088234AF0EE0FFF1FBB1F661F771FFF
:104BE000881F91505040A9F79E3F510580F00C94CA
:104BF00050250C949B255F3FE4F3983ED4F38695B3
:104C000077956795B795F795E7959F5FC1F7FE2B69
:104C1000880F911D9695879597F908950F931F9387
:104C2000CF93DF938230910510F482E090E0E09121
:104C3000EA05F091EB0520E030E0A0E0B0E030972D
:104C400019F1408151810281138148175907C8F039
:104C50008417950769F4109731F012960C93129708
:104C600013961C9327C00093EA051093EB0522C00E
:104C70002115310519F04217530718F49A01BD01A7
:104C8000EF01DF01F801DBCF21153105F9F0281B19
:104C9000390B2430310580F48A819B8161157105BF
:104CA00021F0FB019383828304C09093EB058093F2
:104CB000EA05FE01329644C0FE01E20FF31F819324
:104CC000919322503109398328833AC02091E80515
:104CD0003091E905232B41F4209104013091050125
:104CE0003093E9052093E8052091020130910301FA
:104CF0002115310541F42DB73EB740910601509181
:104D00000701241B350BE091E805F091E905E21756
:104D1000F307A0F42E1B3F0B2817390778F0AC01DE
:104D20004E5F5F4F2417350748F04E0F5F1F5093BB
:104D3000E9054093E8058193919302C0E0E0F0E03B
:104D4000CF01DF91CF911F910F910895CF93DF9302
:104D5000009709F481C0FC01329713821282A0915E
:104D6000EA05B091EB05109781F420813181820F23
:104D7000931F2091E8053091E9052817390751F56F
:104D8000F093E905E093E80567C0ED0120E030E02D
:104D9000CE17DF0740F44A815B819E014115510522
:104DA000F1F0EA01F5CFD383C28340815181840FB2
:104DB000951FC817D90759F488819981840F951FC9
:104DC0000296918380838A819B81938382832115BC
:104DD000310529F4F093EB05E093EA053DC0E901C4
:104DE000FB83EA8349915991C40FD51FEC17FD0746
:104DF00061F480819181840F951F0296E901998366
:104E00008883828193819B838A83E0E0F0E012961D
:104E10008D919C911397009719F0FD01DC01F7CF5C
:104E20008D919C9111979D012E5F3F4F820F931F93
:104E30002091E8053091E9052817390769F4309782
:104E400029F41092EB051092EA0502C01382128237
:104E5000B093E905A093E805DF91CF9108958F9273
:104E60009F92AF92BF92CF92DF92EF92FF92CF9339
:104E7000DF93EC01688179818A819B8161157105DD
:104E80008105910521F464E279ED8BE597E02DE150
:104E900033EF41E050E00E94C22349015A019B01D7
:104EA000AC01A7EAB1E40E9466286B017C01ACEE7C
:104EB000B4EFA50194010E947428DC01CB018C0D94
:104EC0009D1DAE1DBF1DB7FF03C00197A109B048CE
:104ED00088839983AA83BB839F77DF91CF91FF90CB
:104EE000EF90DF90CF90BF90AF909F908F900895FC
:104EF0000E942F27089588E091E00E942F270895AF
:104F0000A0E0B0E08093080190930901A0930A010A
:104F1000B0930B010895A0E0B0E0E1E9F7E20C9452
:104F20007D28EC01009721F4CB010E940E26B4C02D
:104F3000FC01E60FF71F9C0122503109E217F3072D
:104F400008F4A8C0D9010D911C91119706171707F5
:104F5000B0F00530110508F49BC0C801049786170E
:104F6000970708F495C002501109061B170B01930F
:104F700011936D937C93CF010E94A62689C05B019B
:104F8000A01AB10A4C01800E911EA091EA05B091C1
:104F9000EB05612C712CE12CF12C109709F446C023
:104FA0008D919C911197A815B905B1F56C0142E05E
:104FB000C40ED11CCA14DB0478F14C018A189B087A
:104FC000640142E0C40ED11C1296BC901297139655
:104FD000AC91B5E0CB16D10440F0B282A3839182AC
:104FE0008082D9016D937C9309C00E5F1F4F800FA3
:104FF000911FF90191838083EB2DFA2FE114F104C5
:1050000031F0D7011396FC93EE93129741C0F093C1
:10501000EB05E093EA053CC06816790608F43C010C
:105020007D0112960D90BC91A02DB7CF8091E8051F
:105030009091E90588169906E1F466167706C8F49A
:105040008091020190910301009741F48DB79EB7C2
:105050004091060150910701841B950BE817F90751
:10506000C8F4F093E905E093E805F90171836083E2
:105070000FC0CB010E940E267C01009759F0A801B9
:10508000BE010E945628CE010E94A626C70104C078
:10509000CE0102C080E090E0CDB7DEB7EEE00C9428
:1050A000992881E090E0F8940C94DF28FB01DC0162
:1050B00002C001900D9241505040D8F70895FB0175
:1050C000DC0101900D920020E1F708950E94E92390
:1050D000A59F900DB49F900DA49F800D911D11244C
:1050E0000895B7FF0C9466280E946628821B930BD4
:1050F00008952F923F924F925F926F927F928F927C
:105100009F92AF92BF92CF92DF92EF92FF920F9356
:105110001F93CF93DF93CDB7DEB7CA1BDB0B0FB660
:10512000F894DEBF0FBECDBF09942A88398848881D
:105130005F846E847D848C849B84AA84B984C884B3
:10514000DF80EE80FD800C811B81AA81B981CE0FAA
:10515000D11D0FB6F894DEBF0FBECDBFED0108958F
:1051600097FB072E16F4009407D077FD09D00E9414
:10517000C42807FC05D03EF4909581959F4F089573
:10518000709561957F4F0895AA1BBB1B51E107C025
:10519000AA1FBB1FA617B70710F0A61BB70B881FC7
:1051A000991F5A95A9F780959095BC01CD01089556
:1051B0000E94E4246894B1110C949B250895F894FE
:0251C000FFCF1F
:1051C20001010000EC052000010000009302040030
:1051D20093020400EE010800EE010800EE0108004F
:1051E200EE0108000B0208000B0208000B02080087
:1051F2000B0208004B0204004B0204000B020800E1
:105202000B0208000B0208000B020800EE01080066
:10521200EE010800EE010800EE010800B8010400EA
:10522200B80108000B020800930204004B020800B8
:105232000B020800EE01FCFF0B0208004B02040007
:10524200930204000B020400B8010400B801080034
:10525200B8010400EE0108000B0208004B02FCFF3B
:10526200BA0208007003040010030800BA02080022
:105272009302FCFF0B020800930204004B02080099
:105282000B020800EE010400EE0108000B02080008
:105292004B020400930204000B020400B801040054
:1052A200B80104000000040093020400EE010800AB
:1052B2000B0208004B0204000B020800EE0108007A
:1052C200B8010400B80108000B02080093020400B0
:1052D2004B0208000B020800EE01FCFF0B02080063
:1052E2004B020400930204000B020400B801040004
:1052F200B8010800B8010400EE0108000B02080022
:105302004B02FCFFBA0208007003040010030800FD
:10531200BA0208009302FCFF0B0208009302040089
:105322004B0208000B020800EE010400EE01080027
:105332000B0208004B020400930204000B0204005B
:10534200B8010400B8010400000004009302020046
:105352000B0202004B020200EE0102000B020200ED
:10536200B80102009F010200EE01040000000800E3
:10537200930202000B0202004B020200EE01020045
:105382000B02040093020400700302003F030200B8
:10539200EF7B34A5694A80FFD0FFE0EE23B76DCFE3
:1053A200029653746172742067616D65004F746870
:1053B200657220627574746F6E00484F4C44004EE3
:1053C2004558540053636F72653A00353630000019
:1053D200000000C20B9C0C910B0F0C630B7D0B6F3A
:1053E2000B00000000F80ECB0E4203940E690E7102
:1053F2000E850E00000000AE199C0C420341039E74
:10540200226C143D145C14441450148B136C140E4F
:10541200160D166D14A614DF1424154115AE1500D1
:10542200000000AE199C0C420341031E1E791C6E43
:105432001E4C21571F9A1F8B13D51A0E16061DDC00
:105442001F4E20C02024154115AE159E229E22001B
:10545200000000AE199C0C420341031E1E791C6E13
:105462001E4C21571F9A1F8B13D51A1B22B721DC02
:105472001F4E20C02024154115AE15C1214C22001B
:00000001FF
