:100000000C9417030C94DB070C943F030C943F03F0
:100010000C943F030C943F030C943F030C943F0358
:100020000C943F030C9473080C943F030C940B093D
:100030000C943F030C943F030C94FD060C943F0377
:100040000C94F40C0C943F030C94FE0A0C94300BAB
:100050000C943F030C943F030C943F030C943F0318
:100060000C947E120C943F03000000080002010073
:100070000003040700000000000000000102040863
:100080001020408001020408102001020408102002
:10009000040404040404040402020202020203032E
:1000A0000303030300000000250028002B000000CC
:1000B0000000240027002A0000000000003E5B4FE3
:1000C0005B3E3E6B4F6B3E1C3E7C3E1C183C7E3CB8
:1000D000181C577D571C1C5E7F5E1C00183C1800C6
:1000E000FFE7C3E7FF0018241800FFE7DBE7FF3056
:1000F000483A060E2629792926407F050507407FC4
:1001000005253F5A3CE73C5A7F3E1C1C08081C1C36
:100110003E7F14227F22145F5F005F5F06097F012C
:100120007F006689956A606060606094A2FFA29417
:1001300008047E040810207E201008082A1C0808E5
:100140001C2A08081E101010100C1E0C1E0C303833
:100150003E3830060E3E0E06000000000000005F34
:1001600000000007000700147F147F14242A7F2A50
:100170001223130864623649562050000807030012
:10018000001C2241000041221C002A1C7F1C2A085E
:10019000083E0808008070300008080808080000C1
:1001A00060600020100804023E5149453E00427F35
:1001B000400072494949462141494D331814127F84
:1001C0001027454545393C4A494931412111090724
:1001D0003649494936464949291E000014000000A5
:1001E0004034000000081422411414141414004177
:1001F00022140802015909063E415D594E7C121134
:10020000127C7F494949363E414141227F4141416B
:100210003E7F494949417F090909013E41415173E6
:100220007F0808087F00417F41002040413F017F57
:10023000081422417F404040407F021C027F7F041F
:1002400008107F3E4141413E7F090909063E415168
:10025000215E7F09192946264949493203017F0158
:10026000033F4040403F1F2040201F3F4038403F59
:10027000631408146303047804036159494D43006F
:100280007F4141410204081020004141417F0402A6
:10029000010204404040404000030708002054543D
:1002A00078407F284444383844444428384444281B
:1002B0007F385454541800087E090218A4A49C786E
:1002C0007F0804047800447D40002040403D007FCA
:1002D0001028440000417F40007C047804787C08AA
:1002E0000404783844444438FC182424181824247E
:1002F00018FC7C08040408485454542404043F4463
:10030000243C4040207C1C2040201C3C4030403C91
:1003100044281028444C9090907C4464544C4400F1
:100320000836410000007700000041360800020155
:100330000204023C2623263C1EA1A161123A404041
:10034000207A3854545559215555794122545478BE
:1003500042215554784020545579400C1E52721257
:1003600039555555593954545459395554545800E0
:1003700000457C410002457D420001457C407D12E4
:1003800011127DF0282528F07C5455450020545446
:100390007C547C0A097F4932494949323A444444F1
:1003A0003A324A4848303A4141217A3A424020782C
:1003B000009DA0A07D3D4242423D3D4040403D3C2D
:1003C00024FF2424487E4943662B2FFC2F2BFF0952
:1003D00029F620C0887E0903205454794100004446
:1003E0007D413048484A32384040227A007A0A0A31
:1003F000727D0D19317D2629292F282629292926A4
:1004000030484D4020380808080808080808382FE8
:1004100010C8ACBA2F102834FA00007B0000081472
:100420002A142222142A14085500550055AA55AA48
:1004300055AAFF55FF55FF000000FF00101010FFE8
:1004400000141414FF001010FF00FF1010F010F043
:10045000141414FC001414F700FF0000FF00FF1434
:1004600014F404FC141417101F10101F101F141480
:10047000141F00101010F0000000001F10101010CA
:100480001F10101010F010000000FF1010101010BE
:1004900010101010FF10000000FF140000FF00FFFC
:1004A00000001F10170000FC04F414141710171498
:1004B00014F404F40000FF00F714141414141414BA
:1004C000F700F7141414171410101F101F1414142D
:1004D000F4141010F010F000001F101F0000001F97
:1004E00014000000FC140000F010F01010FF10FFCA
:1004F000141414FF141010101F00000000F010FF5F
:10050000FFFFFFFFF0F0F0F0F0FFFFFF0000000042
:1005100000FFFF0F0F0F0F0F3844443844FC4A4AC6
:100520004A347E02020606027E027E02635549417B
:10053000633844443C04407E201E2006027E0202B2
:1005400099A5E7A5991C2A492A1C4C7201724C30C6
:100550004A4D4D303048784830BC625A463D3E499D
:100560004949007E0101017E2A2A2A2A2A44445F41
:10057000444440514A444040444A51400000FF0135
:1005800003E080FF000008086B6B08361236243643
:10059000060F090F060000181800000010100030A8
:1005A00040FF0101001F01011E00191D1712003C30
:1005B0003C3C3C0000000000EF03038002CF03003E
:1005C000C130ED0464031281E803850078CB05395E
:1005D0002C003402F70120EA020000C00123C1010F
:1005E00010C5023E28C701863601483701003A018E
:1005F00055B1020018B603088227F2010026010156
:10060000E00F0F312B0C0E084EF1370710030E09C7
:1006100000E10F000E1403110731C148080F0C311F
:10062000360F1180298000006109560BF00F11244C
:100630001FBECFEFD8E0DEBFCDBF13E0A0E0B1E03A
:10064000E2E0F2E502C005900D92A838B107D9F7B3
:1006500025E0A8E8B3E001C01D92A43BB207E1F792
:1006600013E0C7E1D3E004C02197FE010E941F24DC
:10067000C431D107C9F70E9478090C94FF280C9463
:100680000000EFE6F0E080818D7F808382E0809340
:10069000810021E020938000E091E003F091E103EC
:1006A00090818091DD038095892380831092DD0302
:1006B000209301010895089580E090E00895EF925D
:1006C000FF920F931F93CF93DF937901C2EED3E094
:1006D0009D878C877F876E871B8B0A8B198B088B76
:1006E000642FCE010E94B11A81E08F8BB701CE0139
:1006F000DF91CF911F910F91FF90EF900C94E60C3A
:10070000CF92DF92EF92FF920F931F93CF93DF93DD
:10071000EC016B0180EEE82EFF24FA940AE010E071
:100720002AE030E0AB01BE0182EE93E00E94E020BF
:1007300095E6E92E99E2F92E01E010E02AE030E09A
:10074000A601BE0182EE93E00E94E0200AE010E0E4
:1007500021E030E0A601BE0182EE93E00E94E0209D
:10076000A601475F5F4F01E010E02AE030E0BE01E4
:1007700082EE93E00E94E020BE01675F7F4F0AE0B7
:1007800010E021E030E0A60182EE93E00E94E0203C
:10079000DF91CF911F910F91FF90EF90DF90CF905D
:1007A0000895EF92FF920F931F93780189019A01A8
:1007B000AB01BC0182EE93E00E94E0201F910F91FB
:1007C000FF90EF9008958F929F92AF92BF92CF9239
:1007D000DF92EF92FF920F931F93CF93DF937C01F1
:1007E000EB0126E0249FC001259F900D11249C0160
:1007F000245F3E4F6901F9010081118124E130E05D
:1008000044E150E0C7010E94D10305E619E223E06C
:1008100030E044E150E0BE01C7010E94D10324E171
:1008200030E043E050E0BE01C7010E94D103BE01A9
:100830006F5E7F4F23E030E044E150E0C7010E944B
:10084000D10324E130E043E050E0BE01C70141960E
:100850000E94D103F601828093805701F3E0AF0E2E
:10086000B11CBE01615F7F4F840122E030E04EE0A9
:1008700050E0C5010E94D10323962EE030E042E013
:1008800050E0BE01C7010F960E94D103F601E4803B
:10089000F580870122E030E04EE050E0BE01C50166
:1008A0000E94D1032EE030E042E050E0BE01C501DD
:1008B0000E94D103DF91CF911F910F91FF90EF9094
:1008C000DF90CF90BF90AF909F908F900895EF9260
:1008D000FF921F93CF93DF93182F7A01109201019B
:1008E0009B0140E050E060E079E08DE390E00E9401
:1008F000C023E9012197E114F10449F00E943E0D63
:100900006E0D7F1D709394036093930306C08FEF69
:100910009FEF90939403809393038091DD03811163
:1009200025C0812F90E0FC01E458FF4F24912093D3
:10093000DD0380579F4FFC013491E32FF0E0EE0F71
:10094000FF1FEC55FF4F459154915093E1034093A5
:10095000E003FC018491E82FF0E0EE0FFF1FE25569
:10096000FF4FA591B491EC912E2B2C93D09387003F
:10097000C09386008091840090918500C817D907A4
:1009800020F4D0938500C093840081E1809381009E
:1009900080E18093800080916F00826080936F007F
:1009A000DF91CF911F91FF90EF900895EF92FF920A
:1009B0000F931F93CF93DF9300D000D000D0CDB71B
:1009C000DEB77C0100E010E020E431E040EF50E0D1
:1009D00060E070E080E090E00E94D103F701808148
:1009E00091819093DC038093DB038130910509F4BE
:1009F00042C050F08230910509F4F0C1039709F02C
:100A0000EFC10E944103ECC16AEA72E0CE01019697
:100A10000E94740E00EE1FEF9E012F5F3F4F42E0D9
:100A200050E062E370E08CE390E00E945F03CE014F
:100A300001960E94030E65EB72E0CE0101960E94C2
:100A4000740E9E012F5F3F4F42E050E060E570E082
:100A50008CE390E00E945F03CE0101960E94030E9A
:100A600025E030E047E350E068E270E082EE93E09A
:100A70000E945217B5C10CE211E040E050E0B8010D
:100A800080E090E00E94E30340E050E0B8018CED8C
:100A900090E00E94E303045111090C33110569F73A
:100AA00004E110E040E050E060E570E0C8010E9421
:100AB000E3030C5E1F4F0C3D1105A1F763E270E0EC
:100AC0008EE190E00E94800363E270E088E290E0B3
:100AD0000E9480036DE270E08EE190E00E9480034E
:100AE00085E6E82E89E2F82E0EE310E02EE330E0F2
:100AF00049E050E069E070E082EE93E00E94CE159C
:100B00000CE310E02CE330E04AE050E06AE070E0F3
:100B100082EE93E00E94CE1505E619E22CE030E06B
:100B20004CE350E06AE070E08AE090E00E94D1037C
:100B300062EC72E0CE0101960E94740E0FEF1FEF7F
:100B40009E012F5F3F4F41E050E06DE070E08DE18E
:100B500090E00E945F03CE0101960E94030E63E2C3
:100B600070E08EEB90E00E94800363E270E088EC1E
:100B700090E00E9480036DE270E08EEB90E00E94B6
:100B800080036DE270E088EC90E00E9480030EE349
:100B900010E02EE330E049E050E069EA70E082EED8
:100BA00093E00E94CE150CE310E02CE330E04AE025
:100BB00050E06AEA70E082EE93E00E94CE1505E60E
:100BC00019E22CE030E04CE350E06AE070E08AEAA1
:100BD00090E00E94D10367EC72E0CE0101960E9482
:100BE000740E0FEF1FEF9E012F5F3F4F41E050E06B
:100BF0006DE070E08CEB90E00E945F03CE01019607
:100C00000E94030E6CEC72E0CE0101960E94740EFD
:100C10009E012F5F3F4F41E050E069E170E089E6BF
:100C200090E00E945F03CE0101960E94030E63EDE7
:100C300072E0CE0101960E94740E9E012F5F3F4F1D
:100C400042E050E063E270E089E690E00E945F03DA
:100C5000CE0101960E94030E41E050E060EF70E08B
:100C600084E190E00E94E30341E050E064E071E041
:100C700084E190E00E94E30341E050E068E171E02C
:100C800084E190E00E94E30341E050E06CE271E017
:100C900084E190E00E94E30342E050E06CE870E001
:100CA00084E690E00E94E30342E050E06CE870E0EC
:100CB00088E790E00E94E30342E050E060EA70E0E1
:100CC00084E690E00E94E30342E050E060EA70E0D6
:100CD00088E790E00E94E3036091D9037091DA0302
:100CE000072E000C880B990B0E94352526E636E668
:100CF00046E65FE30E94C1250E940425E091D703E8
:100D0000F091D803EE0FFF1FE25EFE4F208131818C
:100D1000AB01B90185E00E9467040E944A0DCB0136
:100D20000E94A0278091D5039091D603892B09F0CA
:100D300057C00E949B276FE370E00E94D0289093D9
:100D4000D6038093D50383E090E00E94B60CFC01AB
:100D50008091D5039091D6031082818321E0228374
:100D600020E030E0BC017727A1E0B0E0AB01022E2B
:100D700002C0559547950A94E2F740FF0DC0A901BE
:100D80004E5F5F4F8D0102C0000F111F4A95E2F7C1
:100D9000A8015081452B40832F5F3F4F26303105FE
:100DA00029F72091D3033091D403D901A154BC4F2A
:100DB000408141604C932F5F3F4F3093D403209389
:100DC000D3032091BD033091BE032F5F3F4F30937B
:100DD000BE032093BD030E94A02702C00E944103CE
:100DE00026960FB6F894DEBF0FBECDBFDF91CF9130
:100DF0001F910F91FF90EF9008951F920F920FB6E1
:100E00000F9211242F933F934F935F938F939F9350
:100E1000EF93FF938091BC03882381F18091BB0302
:100E200081112CC08091B9039091BA0301969093DF
:100E3000BA038093B903843A964009F0AFC0109288
:100E4000B1031092B0031092BC0381E080930001C3
:100E50001092BA031092B9038091AD039091AE0342
:100E6000FC01E756FC4F2091AF032083019690933D
:100E7000AE038093AD031092AF0390C08091BD0389
:100E80009091BE03892B09F489C08091BB03811125
:100E900020C081E08093BB032091BF032223B9F0DF
:100EA000EFEBF3E043ED53E08181811102C010824A
:100EB00001C0808331964E175F07B1F78091D3034D
:100EC0009091D40301979093D4038093D3032093FC
:100ED000B8032091B6033091B7038091B403909189
:100EE000B5032817390709F050C08091B2039091DB
:100EF000B303009731F484B5806484BD81E090E051
:100F00003CC08930910571F1E4F084B58F7B84BDDC
:100F10008091B2039091B30301968A33910569F5EC
:100F20001092B3031092B2035A9A8091BD0390912C
:100F3000BE0301979093BE038093BD031092BB0341
:100F400020C0019721E030E0A90102C0440F551FE5
:100F50008A95E2F7CA012091B80330E082239323F7
:100F6000892B19F084B5806402C084B58F7B84BD61
:100F70008091B2039091B30301969093B303809351
:100F8000B2031092B7031092B6038091B60390910A
:100F9000B70301969093B7038093B603FF91EF9147
:100FA0009F918F915F914F913F912F910F900FBE25
:100FB0000F901F9018951F920F920FB60F92112449
:100FC000FF920F931F932F933F934F935F936F93D2
:100FD0007F938F939F93AF93BF93CF93DF93EF93C1
:100FE000FF938091BB03811168C08091BC03811184
:100FF00004C081E08093BC0360C06091B90370912C
:10100000BA03072E000C880B990B0E9435252091FE
:1010100095033091960340919703509198030E9455
:10102000922420E030E040E05FE30E9426240E940A
:10103000F8288B012091B0033091B103232B41F4A8
:101040000150110921E030E03093B1032093B00347
:10105000709100012091B0033091B1036091AF0312
:1010600040E050E0F9013197A1E0B0E040175107AE
:101070007CF4772351F0EF01C40FD51FCD0102C0DE
:10108000880F991FCA95E2F7682B4F5F5F4FEECF2D
:10109000C80117FF02C080E090E0820F931F909379
:1010A000B1038093B0036093AF031092BA03109220
:1010B000B90381E0872780930001FF91EF91DF91D1
:1010C000CF91BF91AF919F918F917F916F915F91E0
:1010D0004F913F912F911F910F91FF900F900FBE55
:1010E0000F901F9018951F920F920FB60F92112418
:1010F0002F933F934F935F936F937F938F939F9320
:10110000AF93BF93CF93DF93EF93FF9380919203BD
:101110008F5F8093920390910101911169C08D3787
:1011200008F466C0109292038091D7039091D8037F
:10113000863C910524F01092D8031092D703C091F9
:10114000D703D091D803FE01EE0FFF1FE05EFE4FE4
:1011500060817181161617063CF48091DE03909130
:10116000DF030E94D0281AC061157105D9F071956E
:10117000619571098091DE039091DF030E94D02870
:10118000072E000C880B990B0E94352520E030E0DB
:1011900040EC5FE30E94C1250E94F8287093DA03B7
:1011A0006093D9036091D9037091DA03072E000C84
:1011B000880B990B0E94352526E636E646E65FE366
:1011C0000E94C1250E940425CC0FDD1FC25EDE4FA8
:1011D00028813981AB01B90185E00E9467048091C3
:1011E000D7039091D80302969093D8038093D703A6
:1011F000FF91EF91DF91CF91BF91AF919F918F912F
:101200007F916F915F914F913F912F910F900FBE02
:101210000F901F9018951F920F920FB60F921124E6
:101220000F931F932F933F934F935F936F937F93EE
:101230008F939F93AF93BF93EF93FF930E943E0DC5
:101240002091930330919403890120E030E06017EE
:10125000710782079307C8F080916F008D7F80939C
:101260006F0082E08093810021E020938000E09174
:10127000E003F091E10390818091DD038095892363
:1012800080831092DD0320930101E091E003F0914F
:10129000E10390818091DD0389278083FF91EF91A5
:1012A000BF91AF919F918F917F916F915F914F917E
:1012B0003F912F911F910F910F900FBE0F901F9094
:1012C000189581E090E00E94B60CFC01108290938A
:1012D000E1038093E0038EEA98E09093DF0380932C
:1012E000DE032FEF49E06AE082EE93E00C94A72240
:1012F000CF93DF9300D0CDB7DEB7209A8091B100B5
:1013000085608093B100809170008160809370004F
:101310001092B200789426E040E855E260E070E078
:1013200085E294E00E94510C8BEC94E00E94570FF0
:1013300062E58AE995E00E948B2340E050E0BA0123
:1013400082EE93E00E94E12160E070E082EE93E0A3
:101350000E9444151A821982CE0101960E94D60479
:101360008DE890E090938903809388038EEB90E062
:101370009093B5038093B40380E090E0A6E3B3E4D8
:101380008093950390939603A0939703B09398034B
:10139000569A5A9A84B5836084BD85B5886085BDA8
:1013A00085B5816085BD8091880387BD80916E0081
:1013B000826080936E0016BCE89A8091690081601B
:1013C0008093690022242394312C66246394712C29
:1013D00022E9C22E23E0D22E55245394AA24A394AA
:1013E000B12C62E58AE995E00E942E2380919A054E
:1013F000853E18F050928C0304C08C3110F450924A
:101400008D0380919B05853E18F050928E0304C099
:101410008C3110F450928F038091A205811150926B
:1014200090038091A3058111509291038091DB0379
:101430009091DC03892BA9F68091AD039091AE03C6
:10144000892B49F486E090E00E94B80C7C01DC0115
:10145000ECE8F3E068C084E190E00E94B80C8C01F5
:101460007C01DC01E9E9F3E081918D9323E0ED3A21
:10147000F207D1F78091AD039091AE03E9E9F3E073
:101480009F01295933402817390714F41192F8CFD6
:101490001092AE031092AD03480184E1880E911CB6
:1014A000412CF70181917F01882389F1482F50E079
:1014B000982F917081FD926080E020E030E0B901CA
:1014C0006E5F7F4FFA0102C0F595E7956A95E2F7E6
:1014D000E0FF07C0B101022E01C0660F0A94EAF7CF
:1014E000862B2F5F3F4F2630310549F7913079F435
:1014F00090E09093D6038093D5030E94A027BA82F0
:10150000A982CE0101960E94D60444244394E81493
:10151000F90439F60115110519F0C8010E94BA0C39
:1015200041105FCF8FCF80818D931192CE16DF0651
:10153000D1F7F7018481882331F07A826982CE0164
:1015400001960E94D604F7019280911004C0838115
:10155000811108C04BC080918A0390918B03892B25
:1015600039F444C080918A0390918B030197F1F183
:1015700080918A0390918B03FEE1F89FA001F99F6F
:10158000500D1124495C5F4F00E010E025E030E091
:1015900068E270E082EE93E00E94521780918A0325
:1015A00090918B03992021F0009711F0019704C0CE
:1015B0008130910529F0019690938B0380938A03E3
:1015C00080918A0390918B032EE1289FA001299F8F
:1015D000500D1124495C5F4F00EE1FEF25E030E015
:1015E00068E270E082EE93E00E945217E114F10489
:1015F00009F4F7CEC7010E94BA0CF3CE1F920F92E6
:101600000FB60F9211242F938F939F93EF93FF9315
:10161000E0913504F09136048081E0913B04F09133
:101620003C0482FD12C0908180913E048F5F8F73D5
:1016300020913F04821751F0E0913E04F0E0EB5D11
:10164000FB4F958F80933E0401C08081FF91EF9105
:101650009F918F912F910F900FBE0F901F90189513
:101660001F920F920FB60F9211242F933F934F9317
:101670005F936F937F938F939F93AF93BF93EF93FA
:10168000FF9385E294E00E94C00BFF91EF91BF9120
:10169000AF919F918F917F916F915F914F913F910A
:1016A0002F910F900FBE0F901F901895E5E2F4E078
:1016B0001382128288EE93E0A0E0B0E084839583E9
:1016C000A683B7838BED92E09183808385EC90E0D5
:1016D0009587848784EC90E09787868780EC90E0FC
:1016E000918B808B81EC90E0938B828B82EC90E0ED
:1016F000958B848B86EC90E0978B868B118E128E67
:10170000138E148E0895FC01918D228D892F90E007
:10171000805C9F4F821B91098F7399270895FC016C
:10172000918D828D981731F0828DE80FF11D858D96
:1017300090E008958FEF9FEF0895FC01918D828DC9
:10174000981761F0828DDF01A80FB11D5D968C9115
:10175000928D9F5F9F73928F90E008958FEF9FEF20
:101760000895FC01538D448D252F30E0842F90E0A7
:10177000821B930B541710F0CF960895019708958C
:10178000FC01848DDF01A80FB11DA35ABF4F2C911E
:10179000848D90E001968F739927848FA689B789ED
:1017A0002C93A089B1898C91837080648C93938DE4
:1017B000848D981306C00288F389E02D80818F7D87
:1017C00080830895EF92FF920F931F93CF93DF933F
:1017D000EC0181E0888F9B8D8C8D981305C0E88982
:1017E000F989808185FD26C0F62E0B8D10E00F5FF4
:1017F0001F4F0F731127E02E8C8DE8120CC00FB60F
:1018000007FCFACFE889F989808185FFF5CFCE0101
:101810000E94C00BF1CF8B8DFE01E80FF11DE35A42
:10182000FF4FF0829FB7F8940B8FEA89FB89808184
:1018300080620AC09FB7F894EE89FF896083E889C7
:10184000F98980818370806480839FBF81E090E00C
:10185000DF91CF911F910F91FF90EF900895CF935B
:10186000DF93EC01888D8823C9F0EA89FB898081A8
:1018700085FD05C0A889B9898C9186FD0FC00FB67A
:1018800007FCF5CF808185FFF2CFA889B9898C91BB
:1018900085FFEDCFCE010E94C00BE7CFDF91CF9146
:1018A0000895CF92DF92EF92FF921F93CF93DF9331
:1018B000EC016A017B01122FE889F98982E08083BB
:1018C0004115514E61057105B1F060E079E08DE39D
:1018D00090E0A70196010E94C023DA01C901019797
:1018E000A109B109B695A795979587959C012115F2
:1018F00080E13807A8F0E889F989108260E874E887
:101900008EE190E0A70196010E94C023DA01C9018F
:101910000197A109B109B695A795979587959C015F
:10192000EC85FD853083EE85FF852083188EEC895C
:10193000FD891083EA89FB89808180618083EA893F
:10194000FB89808188608083EA89FB898081806847
:101950008083EA89FB8980818F7D8083DF91CF91AD
:101960001F91FF90EF90DF90CF9008950C942E265A
:101970000C942E260C94C626CF92DF92EF92FF9203
:101980000F931F93CF93DF936C017A018B01C0E01B
:10199000D0E0CE15DF0581F0D8016D918D01D60123
:1019A000ED91FC910190F081E02DC6010995892B04
:1019B00011F02196EECF7E01C701DF91CF911F91EB
:1019C0000F91FF90EF90DF90CF900895DB01149678
:1019D0004D915C9115976D917C91DC01ED91FC919D
:1019E0000280F381E02D09941F920F920FB60F929F
:1019F00011242F933F938F939F93AF93BF93809125
:101A0000C3049091C404A091C504B091C604309160
:101A1000C20423E0230F2D3720F40196A11DB11D30
:101A200005C026E8230F0296A11DB11D2093C20414
:101A30008093C3049093C404A093C504B093C604D8
:101A40008091C7049091C804A091C904B091CA04C0
:101A50000196A11DB11D8093C7049093C804A09363
:101A6000C904B093CA04BF91AF919F918F913F91E8
:101A70002F910F900FBE0F901F9018952FB7F894CD
:101A80006091C3047091C4048091C5049091C60410
:101A90002FBF08953FB7F8948091C7049091C80470
:101AA000A091C904B091CA0426B5A89B05C02F3FD8
:101AB00019F00196A11DB11D3FBFBA2FA92F982F74
:101AC0008827820F911DA11DB11DBC01CD0142E0EF
:101AD000660F771F881F991F4A95D1F708958330A5
:101AE00081F028F4813099F08230A1F00895873098
:101AF000A9F08830B9F08430D1F4809180008F7DD6
:101B000003C0809180008F7780938000089584B512
:101B10008F7702C084B58F7D84BD08958091B00019
:101B20008F7703C08091B0008F7D8093B0000895BF
:101B3000CF93DF9390E0FC01E458FF4F2491FC0128
:101B4000E057FF4F8491882361F190E0880F991F3F
:101B5000FC01E255FF4FC591D491FC01EC55FF4FBC
:101B6000A591B491611109C09FB7F894888120951F
:101B700082238883EC912E230BC0623061F49FB7DF
:101B8000F8948881322F309583238883EC912E2B13
:101B90002C939FBF06C08FB7F894E8812E2B288323
:101BA0008FBFDF91CF9108951F93CF93DF93282F9D
:101BB00030E0F901E859FF4F8491F901E458FF4FF3
:101BC000D491F901E057FF4FC491CC23C1F0162FF7
:101BD00081110E946F0DEC2FF0E0EE0FFF1FEC550E
:101BE000FF4FA591B4919FB7F894111104C08C9147
:101BF000D095D82302C0EC91DE2BDC939FBFDF9100
:101C0000CF911F910895FC0180819181009711F07F
:101C10000C94C6260895CF93DF93EC0188819981B7
:101C2000009711F00E94C626198218821D821C821C
:101C30001B821A82DF91CF9108950F931F93CF9348
:101C4000DF93EC018B016F5F7F4F888199810E9448
:101C5000AB27009731F0998388831B830A8381E047
:101C600001C080E0DF91CF911F910F910895CF9334
:101C7000DF93EC0188819981892B29F08A819B81EE
:101C80008617970760F4CE010E941D0E882341F04D
:101C90008C819D81892B19F4E881F981108281E082
:101CA000DF91CF910895EF92FF920F931F93CF93FF
:101CB000DF93EC017B018A01BA010E94370E81118A
:101CC00004C0CE010E940B0E07C01D830C83B70118
:101CD000888199810E947F28CE01DF91CF911F9149
:101CE0000F91FF90EF900895FC01118210821382F2
:101CF0001282158214826115710551F0FB01019069
:101D00000020E9F73197AF01461B570B0C94530E97
:101D100008958091FF0490E020910005821B9109B5
:101D20000895909100058091FF04981750F4E92FD1
:101D3000F0E0EF5FFA4F208130E09F5F9093000565
:101D400002C02FEF3FEFC9010895E0910005809197
:101D5000FF04E81730F4F0E0EF5FFA4F808190E085
:101D600008958FEF9FEF08950895CF93DF93EC01CF
:101D7000E091D704F091D8043097F1F090910005EC
:101D80008091FF049817C0F090E0292F30E02617CB
:101D9000370754F4DE01A20FB31F4C91D901AF5F96
:101DA000BA4F4C939F5FF1CF109200056093FF04F0
:101DB000CB01DF91CF910994DF91CF910895E0910C
:101DC000D904F091DA04309729F01092DD041092D2
:101DD000DC0409940895CF92DF92EF92FF920F9363
:101DE0001F93CF93DF937C01CB018A012091DB0409
:101DF000222389F0EB016B01C40ED51ECC15DD0545
:101E000069F06991D701ED91FC910190F081E02D8D
:101E1000C7010995F3CF642F0E941F10C801DF91FD
:101E2000CF911F910F91FF90EF90DF90CF90089589
:101E3000CF93DF931F92CDB7DEB769832091DB0488
:101E40002223D1F02091DC04203240F021E030E068
:101E5000FC013383228380E090E015C08091DD0493
:101E6000E82FF0E0E252FB4F998190838F5F8093DF
:101E7000DD048093DC0405C061E0CE0101960E9480
:101E80001F1081E090E00F90DF91CF910895FC0149
:101E90001382128288EE93E0A0E0B0E08483958301
:101EA000A683B7838DEE92E091838083089510928C
:101EB00000051092FF041092DD041092DC040E94D1
:101EC000F40F8FED9EE00E944C1085EB9EE00C9489
:101ED000471081E08093DB046093FE041092DD04E0
:101EE0001092DC0408950F93062F21E04091DC044A
:101EF0006EED74E08091FE040E9456111092DD0494
:101F00001092DC041092DB040F9108954F925F92BF
:101F10006F927F92AF92BF92CF92EF92FF920F9308
:101F20001F93CF93DF935C01F62ED42F2801390144
:101F3000EE2021F10E94690FCE2DC43008F0C3E0DD
:101F4000C150C0F028E0C29FC0011124A30192013A
:101F500004C056954795379527958A95D2F7CA01BB
:101F6000B901D501ED91FC910190F081E02DC50101
:101F70000995E6CF60E0C5010E94730F4D2FD13265
:101F800008F040E22C2D61E075E08F2D0E946D106D
:101F9000109200058093FF04DF91CF911F910F9164
:101FA000FF90EF90CF90BF90AF907F906F905F9039
:101FB0004F900895CF92EF920F931F93C22EE12C72
:101FC00000E010E098010E94860F1F910F91EF90A2
:101FD000CF90089521E00C94DA0F61E00C94730F18
:101FE0008BEC94E00C94470F1092940581E0809361
:101FF00092051092910561E082E10E94D40D61E0AA
:1020000083E10E94D40DE9EBF0E080818E7F808334
:1020100080818D7F808388E48093B80085E48093FD
:10202000BC000895ECEBF0E080818A7B808360E067
:1020300082E10E94D40D60E083E10C94D40D4091C4
:102040004305262F30E0240F311D21323105DCF409
:10205000209194052430C9F4FC0180E090E08617BB
:1020600058F4309143052191DC01AB5BBA4FA30FCB
:10207000B11D2C930196F3CF80914305680F6093B7
:10208000430580E0089581E0089582E008959093EB
:10209000880580938705089590938A058093890524
:1020A000089585EC8093BC00109294050895CF9319
:1020B000DF9391E090938C05882361F0C091B80084
:1020C000D091BA000E9412100E94F40FD093BA006F
:1020D000C093B800DF91CF9108954F925F926F92B5
:1020E0007F928F929F92AF92BF92CF92DF92EF92A8
:1020F000FF920F931F93CF93DF93F82E162F072F86
:10210000C42FE22E413208F0BEC00E944A0D4B019E
:102110005C01D0919405DD2331F180918D05909182
:102120008E05A0918F05B0919005892B8A2B8B2B62
:1021300081F30E944A0D40908D0550908E0560906D
:102140008F0570909005DC01CB0188199909AA09C7
:10215000BB09481659066A067B06D8F680918B059E
:102160000E94571090C081E080939405E092920500
:102170009FEF90932105109266059C0F9093650543
:1021800080939305909193058F2D880F892B8093D1
:10219000930580919105813089F5109291050E94F7
:1021A0004A0D6B017C01809193058093BB00809167
:1021B0008D0590918E05A0918F05B0919005892B8A
:1021C0008A2B8B2BA9F00E944A0D80908D05909050
:1021D0008E05A0908F05B0909005DC01CB018C1985
:1021E0009D09AE09BF0988169906AA06BB0690F19B
:1021F0008091BC0083FDD7CF85EC01C085EE809334
:10220000BC000E944A0D6B017C01809194058130D5
:1022100031F580918D0590918E05A0918F05B0913B
:102220009005892B8A2B8B2B81F30E944A0D80907D
:102230008D0590908E05A0908F05B0909005DC01E3
:10224000CB018C199D09AE09BF0988169906AA060B
:10225000BB06D8F680918B050E94571015C080915F
:1022600066058C1710F4C0916605A7E6B5E0912FBE
:10227000E12FF02F8E2F891B8C1718F48D918193ED
:10228000F9CFDC2F01C0D0E08D2FDF91CF911F91CE
:102290000F91FF90EF90DF90CF90BF90AF909F9005
:1022A0008F907F906F905F904F9008954F925F92C4
:1022B0006F927F928F929F92AF92BF92CF92DF9256
:1022C000EF92FF920F931F93CF93DF93413208F069
:1022D000C6C0122FF42ED72EE62ED82F0E944A0DFC
:1022E0004B015C01C0919405CC2311F180918D05C7
:1022F00090918E05A0918F05B0919005892B8A2B26
:102300008B2B81F30E944A0D40908D0550908E05D5
:1023100060908F0570909005DC01CB0188199909B8
:10232000AA09BB09481659066A067B06D8F683C077
:1023300082E080939405009392058FEF80932105AE
:1023400010926605F09265059E2DA7E6B5E0EE2D8C
:10235000FD2D8E2F891B8F1518F481918D93F9CF48
:102360001092930590919305DD0FD92BD09393058F
:1023700080919105813089F5109291050E944A0D56
:102380006B017C01809193058093BB0080918D054A
:1023900090918E05A0918F05B0919005892B8A2B85
:1023A0008B2BA9F00E944A0D80908D0590908E0590
:1023B000A0908F05B0909005DC01CB018C199D0990
:1023C000AE09BF0988169906AA06BB06A0F180913E
:1023D000BC0083FDD7CF85EC01C085EE8093BC00A7
:1023E0000E944A0D6B017C01112359F180919405E3
:1023F000823039F580918D0590918E05A0918F05E1
:10240000B0919005892B8A2B8B2B71F30E944A0D7A
:1024100080908D0590908E05A0908F05B0909005CE
:10242000DC01CB018C199D09AE09BF0988169906FC
:10243000AA06BB06C8F680918B050E945710C5E01E
:1024400013C0809121058F3F79F080912105803262
:1024500041F080912105803331F0C4E005C0C1E036
:1024600003C0C2E001C0C3E08C2FDF91CF911F9168
:102470000F91FF90EF90DF90CF90BF90AF909F9023
:102480008F907F906F905F904F90089585ED80932F
:10249000BC0080918D0590918E05A0918F05B09123
:1024A00090050796A11DB11D23E0B695A7959795B8
:1024B00087952A95D1F72091BC0024FF1CC040913C
:1024C0008D0550918E0560918F0570919005452B7B
:1024D000462B472B81F30097A105B10541F02AE275
:1024E0002A95F1F700C00197A109B109E4CF8091C5
:1024F0008B050C9457101092940508951F920F921B
:102500000FB60F9211242F933F934F935F936F93C6
:102510007F938F939F93AF93BF93EF93FF9380919C
:10252000B900887F803609F49EC078F5883209F4B6
:102530005DC090F4803109F456C038F4882309F462
:10254000F5C0883009F44FC0F5C0883109F44EC099
:10255000803209F45FC0EEC0803409F46AC058F4D8
:10256000803309F457C0883309F0E4C08093210513
:102570000E945110DFC0803509F44FC0883509F43E
:102580005DC0883409F0D6C0D3C0883909F4C4C00E
:10259000A8F4883709F467C038F4883609F463C0B2
:1025A000803709F460C0C6C0883809F4B5C08039E6
:1025B00009F45FC0803809F0BDC05BC0803B09F4FE
:1025C00083C038F4803A09F466C0883A09F47CC0C4
:1025D000B1C0803C09F4A4C0883C09F4A1C0883B88
:1025E00009F487C0A7C08091930510C0909166053B
:1025F00080916505981770F5E091660581E08E0F72
:1026000080936605F0E0E959FA4F80818093BB0022
:1026100085EC83C0809321058BC0E091660581E045
:102620008E0F809366058091BB00F0E0E959FA4F68
:10263000808390916605809165056BC0E091660589
:1026400081E08E0F809366058091BB00F0E0E95930
:10265000FA4F80838091920581116AC081E0809356
:10266000910584EA5EC083E0809394051092220570
:10267000CFCF80912205803208F04EC0E091220534
:1026800081E08E0F809322058091BB00F0E0ED5D2C
:10269000FA4F8083BDCF0E94511080912205803275
:1026A00030F4E0912205F0E0ED5DFA4F1082609188
:1026B000220570E0E0918705F091880583E295E0BE
:1026C00009951092220536C084E0809394051092FB
:1026D000440510924305E0918905F0918A0509951A
:1026E00080914305811105C081E0809343051092DC
:1026F0004505E091440581E08E0F80934405F0E0AC
:10270000EB5BFA4F80818093BB00909144058091F0
:102710004305981708F47CCF85E88093BC000AC075
:1027200085EC8093BC001092940504C010922105A2
:102730000E944612FF91EF91BF91AF919F918F91AF
:102740007F916F915F914F913F912F910F900FBEAD
:102750000F901F9018952F923F924F925F926F9219
:102760007F928F929F92AF92BF92CF92DF92EF9221
:10277000FF920F931F93CF93DF9300D000D000D030
:10278000CDB7DEB72C017E836D836A015901C80184
:10279000FC82EB824801841A950A97FE03C091944B
:1027A0008194910835012D813E81621A730A77FE6A
:1027B00003C0719461947108681479045CF43A2D33
:1027C0002B2D5C01832F922F3D812E81DE82CD82C5
:1027D000C32ED22EAD81BE81AA16BB065CF43C2D61
:1027E0002D2D6C01832F922F3D812E81BE82AD82D3
:1027F000A32EB22E85012D813E81021B130B1C01DD
:102800002C183D0837FE03C031942194310878011B
:1028100017FF03C03FEFE31AF30AF594E794C816D5
:10282000D9062CF08FEF9FEF9A83898304C0A1E033
:10283000B0E0BA83A9832D813E81A216B30624F1AC
:10284000D201ED91FC910484F585E02D2B813C8132
:102850006814790424F44D815E81B60103C0A60199
:102860006D817E81C2010995E218F308F7FE06C06A
:1028700029813A81C20ED31EE00EF11E8D819E8108
:1028800001969E838D83D7CF26960FB6F894DEBF30
:102890000FBECDBFDF91CF911F910F91FF90EF90B1
:1028A000DF90CF90BF90AF909F908F907F906F9070
:1028B0005F904F903F902F900895DC01ED91FC9137
:1028C0000084F185E02D09940F931F93DC01ED91B5
:1028D000FC91048CF58DE02D09951F910F910895C1
:1028E0000F931F93DC01ED91FC91068CF78DE02D89
:1028F00009951F910F910895EF92FF920F931F93E7
:10290000DC01ED91FC9100A0F1A1E02D09951F9152
:102910000F91FF90EF90089508958F929F92AF923C
:10292000BF92CF92DF92EF92FF920F931F93CF93BC
:10293000DF93EC015B014A0169017801E881F981CB
:102940000284F385E02D0995C80CD91C860101503D
:102950001109E881F9810488F589E02D9501A40128
:10296000B501CE010995E881F9810688F789E02D46
:10297000CE01DF91CF911F910F91FF90EF90DF90EB
:10298000CF90BF90AF909F908F9009948F929F921D
:10299000AF92BF92CF92DF92EF92FF920F931F936D
:1029A000CF93DF93EC015B014A016901E881F98172
:1029B0000284F385E02D099595012C0D3D1D2150D4
:1029C0003109E881F9810488F589E02D78018401D5
:1029D000A401B501CE010995E881F9810688F7893E
:1029E000E02DCE01DF91CF911F910F91FF90EF90DD
:1029F000DF90CF90BF90AF909F908F9009944F92AF
:102A00005F926F927F928F929F92AF92BF92CF927E
:102A1000DF92EF92FF920F931F93CF93DF936C019E
:102A20002B015A0139014801DC01ED91FC9102842E
:102A3000F385E02D0995E201640C751CD601ED913A
:102A4000FC91C615D7055CF40088F189E02D87015B
:102A50009401A501BE01C60109952196EFCF068814
:102A6000F789E02DC601DF91CF911F910F91FF9063
:102A7000EF90DF90CF90BF90AF909F908F907F901E
:102A80006F905F904F900994EF92FF920F931F9376
:102A9000DC011A960D911C911B9718962D913C9173
:102AA0001997ED91FC9100A0F1A1E02D7B0140E090
:102AB00050E060E070E009951F910F91FF90EF905A
:102AC00008958F929F92AF92BF92CF92DF92EF9232
:102AD000FF920F931F93CF93DF934C016B015A0129
:102AE000E901DC01ED91FC916217730781F4041791
:102AF000150724F48B2D5801042F182F0A191B09D0
:102B000098012F5F3F4F048CF58DE02D12C04017C8
:102B1000510709F52617370724F48D2D6901C62FB3
:102B2000D82F9E012C193D092F5F3F4F068CF78D42
:102B3000E02D8701A501B601C4010995DF91CF9170
:102B40001F910F91FF90EF90DF90CF90BF90AF90CB
:102B50009F908F9008950284F385E02D0995D4010C
:102B6000ED91FC910488F589E02D9E01A501B60147
:102B7000C4010995D401ED91FC910688F789E02DF7
:102B8000C401DF91CF911F910F91FF90EF90DF90E3
:102B9000CF90BF90AF909F908F9009946F927F924B
:102BA0008F929F92AF92BF92CF92DF92EF92FF925D
:102BB0000F931F93CF93DF93EC014B015A016901EF
:102BC0003801E881F9810284F385E02D0995E881D7
:102BD000F9810288F389E02D87019601A501B401EE
:102BE000CE010995A501460D571D41505109E881B7
:102BF000F9810288F389E02D9601B401CE0109958F
:102C0000E881F9810088F189E02D9301A501B401E3
:102C1000CE010995C80CD91CB60161507109E88133
:102C2000F9810088F189E02D9301A501CE01099574
:102C3000E881F9810688F789E02DCE01DF91CF91F7
:102C40001F910F91FF90EF90DF90CF90BF90AF90CA
:102C50009F908F907F906F9009940895FC0163700E
:102C6000668B8481958126813781613039F06330AC
:102C700029F09187808733872287089531872087BD
:102C8000938782870895FC01138212828FEF92E06E
:102C900091838083758364835783468371876087BC
:102CA00053874287168A158614861786168681E012
:102CB000858B848B2FEF3FEF338B228B318B208BD7
:102CC000878B108E128E118E08952F923F924F9205
:102CD0005F926F927F928F929F92AF92BF92CF92AC
:102CE000DF92EF92FF920F931F93CF93DF93CDB7B5
:102CF000DEB72C970FB6F894DEBF0FBECDBF5C01D8
:102D00003B0158874F833C872B87260181E090E069
:102D10006C01C21AD30AC9019195819591099C0150
:102D2000220F331F3C832B83C70101969E838D8323
:102D30001A019A8389838B849C84EE24E394F12C7A
:102D4000902F9170998702700A87C7010197AB8510
:102D5000BC858A179B070CF08CC0D7FC0BC0119761
:102D6000BC87AB872B813C812E5F3F4F3C832B83FD
:102D7000C20ED31EC701880F991F0196C80ED91E17
:102D80008B859C858E159F05D4F199859923D1F06B
:102D90002B853C85220F331FAD81BE812A0F3B1F3F
:102DA000D501ED91FC910088F189E02D82014F81E0
:102DB00058858B859C85481B590BB3016E0D7F1D73
:102DC000C50109959A859923D1F02B853C85220F61
:102DD000331FAD81BE812A0F3B1FD501ED91FC91C0
:102DE0000088F189E02D82014F8158858B859C8573
:102DF000481B590BB3016E197F09C5010995AB85B5
:102E0000BC85A815B90569F4AFEFEA1AFA0AB1E072
:102E10002B1A310829813A812E5F3F4F3A8329834B
:102E200094CFB985BB2379F0D501ED91FC91008851
:102E3000F189E02D820129813A81A101B401660D59
:102E4000771DC5010995BA85B11103C08B849C8497
:102E5000DBCFB30168197909D501ED91FC910088A8
:102E6000F189E02D820129813A81A101C5010995ED
:102E7000EDCF2C960FB6F894DEBF0FBECDBFDF911D
:102E8000CF911F910F91FF90EF90DF90CF90BF9067
:102E9000AF909F908F907F906F905F904F903F90FA
:102EA0002F9008956F927F928F929F92AF92BF92D0
:102EB000CF92DF92EF92FF920F931F93CF93DF9306
:102EC000EC014B013A0159016801E881F981028462
:102ED000F385E02D09959501220F331F2F5F3F4F9A
:102EE000A3014A195B09E881F9810088F189E02D85
:102EF000B401CE010995E12CF12C03E09501A30169
:102F0000B401CE010E946516E881F9810688F7892F
:102F1000E02DCE01DF91CF911F910F91FF90EF90A7
:102F2000DF90CF90BF90AF909F908F907F906F90E9
:102F300009942F923F924F925F926F927F928F925D
:102F40009F92AF92BF92CF92DF92EF92FF920F9338
:102F50001F93CF93DF93CDB7DEB76B970FB6F8947F
:102F6000DEBF0FBECDBF9B8F8A8F2B015A83498353
:102F7000D22E198708874701AB82DC0159962D9123
:102F80003C915A972115310509F000C118968D9191
:102F90009C911997681779070CF0E7C11A968D91E3
:102FA0009C911B97481759070CF0DFC12C2C312C32
:102FB000FB0126E0C29EE00DF11D1124FD87EC8788
:102FC0001E161F060CF0D1C14A2D50E05B874A87C0
:102FD00083E0440F551F8A95E1F75F874E8789810B
:102FE0009A81840F951F181619060CF0BEC15896C9
:102FF0008C91811104C06FEA6D1508F4D394AA8DE9
:10300000BB8DED91FC9111970284F385E02DCD01EC
:103010000995B5E0DB9EC0011124EC2DF0E0F98BA1
:10302000E88B92012B5F3F4F3B8B2A8B32015D82F5
:103030004C82AC01441955095D8B4C8B7B81672F09
:1030400070E07F8B6E8B89819A810896998F888F2B
:10305000EC89FD89E60DF71DE854FF4FD490A98156
:10306000BA81BF83AE835D01D0FE16C0AA8DBB8D31
:10307000ED91FC91B1E0CB1209C02B81213031F4EC
:103080000484F585E02D2885398519C00684F785E7
:10309000E02DE884F9841DC04885598548155905F7
:1030A00011F1AA8DBB8DED91FC91B1E0CB120DC059
:1030B0002B81213051F40484F585E02D9401A50184
:1030C000B3018A8D9B8D09950EC00684F785E02D8E
:1030D00074010A851B8591014E815F816C817D8120
:1030E0008A8D9B8D0995D6944E815F816E897F89EB
:1030F000460F571F5F834E837FEFA71AB70A888D4D
:10310000998DA816B90609F0AFCFAC81BD81E889C9
:10311000F989AE0FBF1FBD83AC83FFEF6F1A7F0A23
:103120002A893B896216730609F092CF4885598532
:103130004815590509F4F7C0AA8DBB8DED91FC9196
:10314000B1E0CB1212C02B81213079F4B2016B5F58
:103150007F4F0088F189E02D840128E030E049812B
:103160005A818A8D9B8D0995DEC06C857D8562199B
:1031700073090684F785E02D74010E851F85910182
:1031800049815A818A8D9B8D0995CDC0F90134966C
:10319000E491DE1AF901329685919491B7E0DB9EB5
:1031A000800D911D1124F90125913491398B288BC3
:1031B000FC0125903490FC01329674903196A490D5
:1031C000329694903196B49031E03C1518F04B81D2
:1031D000423068F0692D092C000C770B7D836C83DD
:1031E0008B2D0B2C000C990B9F838E8304C01F82A8
:1031F0001E821D821C82AA8DBB8DED91FC911197C0
:103200000284F385E02DCD010995612CD12C812C10
:10321000FB81EF2FF0E0FB87EA872C2D30E03D8724
:103220002C8749815A814B0D511DB7FC5A955D8BF6
:103230004C8BB201690D711D97FC7A957F8B6E8B5B
:103240008A1408F070C0282D30E04E815F81420F53
:10325000531FAA85BB85A49FC001A59F900DB49F55
:10326000900D1124E981FA81E80FF91FFF87EE879D
:10327000862D912C4C895D89420F531F5B8B4A8BA5
:10328000971408F04DC0BB24B394B80E877041F476
:10329000C1010196E889F989E20DF31DD4901C0162
:1032A000D7FE3AC051E0C51216C06B81613099F467
:1032B000AA8DBB8DED91FC9111970484F585E02DCD
:1032C000288539854A895B896E897F89690D711DD9
:1032D000CD01099521C08C819D81890D911DEC85C1
:1032E000FD858E9FB0018F9F700D9E9F700D1124E4
:1032F000640D751DAA8DBB8DED91FC91119706840F
:10330000F785E02DE884F9840A851B852C853D85A9
:103310004E855F85CD010995DD0C93948B2DB0CF43
:10332000670C83948DCFAA8DBB8DED91FC91119785
:103330000688F789E02DCD016B960FB6F894DEBFB5
:103340000FBECDBFDF91CF911F910F91FF90EF90F6
:10335000DF90CF90BF90AF909F908F907F906F90B5
:103360005F904F903F902F9009946B960FB6F89412
:10337000DEBF0FBECDBFDF91CF911F910F91FF90A8
:10338000EF90DF90CF90BF90AF909F908F907F9005
:103390006F905F904F903F902F9008958F929F92E3
:1033A000AF92CF92EF92FF920F931F93CF93DF9341
:1033B000EC01262F898D9A8D009709F042C06A3062
:1033C00059F41D861C862D898E859F8538E0239FA4
:1033D000800D911D112443C06D3009F4AAC08F895E
:1033E0008823C9F03C898C859D8546E0349F800DFB
:1033F000911D1124488559854817590764F41D8685
:103400001C863D898E859F8548E0349F800D911DE7
:1034100011249F878E87EA88FB88088919894E8541
:103420005F856C857D85AD88CC88CE010E9499171B
:103430002C898C859D8536E0239F800D911D11245C
:103440003EC06A3079F41D861C862D89FC013896B1
:10345000E4918E859F852E9F800D911D11249F875D
:103460008E8767C06D3009F464C0FC0134963491D6
:10347000631708F45EC03296E491E61708F459C069
:10348000462F431B342FFC0132968590949047E0E1
:10349000349F800C911C1124F401329634913196A2
:1034A000E491332311F0E1110DC0F4013496E4915D
:1034B0002C898C859D85E29F800D911D11249D870F
:1034C0008C8737C0F401359644915F89552319F1F3
:1034D0005C89E32FF0E0E40FF11D47FDFA955E9F54
:1034E000B0015F9F700D11244C855D85460F571FFD
:1034F000688579856417750774F41D861C863D8977
:10350000FC013896E4918E859F853E9F800D911D2C
:1035100011249F878E87EA88FB88088919894E8540
:103520005F856C857D85AD88CC88CE010E9499171A
:10353000BCCF81E090E0DF91CF911F910F91FF9080
:10354000EF90CF90AF909F908F900895611101C040
:1035500061E0FC01648B411101C041E0FC01458B3D
:103560000895462F0C94A61A0F93FC0180E092E177
:10357000AAE7B0E030E0481759076A077B0740F434
:10358000B695A795979587953F5F3630A1F737E0B9
:1035900091E09327222311F020E501C020E70C7071
:1035A000892F8695082B022B0083917091830F91B0
:1035B000089580919705882361F09FB7F894209132
:1035C000970580919505213019F48DBB9FBF089513
:1035D0008FBF0895DC015B96ED91FC915C97908123
:1035E000D1968C91892B80830895CF93DF93EC0142
:1035F0008FA987FD03C0CE010E94EA1A8DA981110F
:1036000004C0DF91CF910C94D91ADF91CF91089526
:10361000DC015B96ED91FC915C979081D2968C9148
:10362000892380830895DC015D96ED91FC915E977E
:103630009081D3968C91892B80830895DC015D96CF
:10364000ED91FC915E979081D4968C918923808333
:103650000895AF92BF92CF92EF920F931F93CF93A3
:10366000DF93EC0159010E9443168BE293E09983AA
:1036700088831DAACEAA0FABE8AE1AAE19AE1CAE57
:103680001BAE1DAE1EAEFE01FF961082118212828D
:103690001382B8A2AF8E8E2DEE0C990BFC01E05771
:1036A000FF4FE491F0E0EE0FFF1FEC55FF4F259127
:1036B00034913E8F2D8FFC01E458FF4F84918BABEA
:1036C00007FD16C0002E000C110BF801E057FF4F4C
:1036D000E491F0E0EE0FFF1FEC55FF4F2591349180
:1036E0003C8F2B8FF801E458FF4F049109AB03C0C6
:1036F0003C8F2B8F19AA99A990959AAB80958CAB8A
:10370000DF91CF911F910F91EF90CF90BF90AF902D
:103710000895CF92EF920F93CE2CE02E022F29E93D
:1037200035E00E94291B0F91EF90CF9008958F9262
:103730009F92AF92BF92DF92EF92FF920F931F93EF
:10374000CF93DF9300D0CDB7DEB77C014A015B0198
:10375000122F452B462B472B31F4812C92E1992EC9
:103760009AE7A92EB12CF70187A987FD08C061E06F
:103770000E94980D61E0F70187A90E94D40D61E0D5
:10378000F70180AD0E94980D61E0F70180AD0E94C5
:10379000D40DF70185A9811118C0012F21E0B501D1
:1037A000A401CE0101960E94B41A89819A81F70181
:1037B00092A381A3012F10E020E030E003A314A323
:1037C00025A336A30E94C02255C08130E1F461E0F8
:1037D000F70182A50E94980D60E0F70182A50E9482
:1037E000D40D61E0F70184A50E94980D60E0F70117
:1037F00084A50E94D40DF70183A587FD3BC060E03E
:103800000E94980D37C000E910E0D12CF801849196
:10381000E82FF0E0EE0FFF1FEC55FF4F85919491DC
:10382000F701278D30A12817390741F461E08D2D6C
:103830000E94980D60E08D2D0E94D40DD3940F5FEF
:103840001F4FF4E1DF12E2CF61E0F70186A50E948D
:10385000980D61E0F70186A50E94D40DF70187A5B8
:1038600087FD08C061E00E94980D61E0F70187A51F
:103870000E94D40DF70186A987FD2DC061E00E944A
:10388000980D61E0F70186A90E94D40DFFEF21EEAB
:1038900084E0F15020408040E1F700C0000060E08B
:1038A000F70186A90E94D40DFFEF21EE84E0F150CC
:1038B00020408040E1F700C0000061E0F70186A9E8
:1038C0000E94D40DFFEF23EC89E0F15020408040AE
:1038D000E1F700C000000F900F90DF91CF911F9192
:1038E0000F91FF90EF90DF90BF90AF909F908F90DF
:1038F0000895FC0185A981111BC041A132A18091CD
:103900009705882399F02FB7F89480919705813017
:1039100059F48DB3809395059DB38091960580955C
:1039200089238DBB2FBF02C0209395054CBD3DBDA3
:103930000895CF93DF93EC010E94791C8FA987FD36
:1039400005C0CE01DF91CF910C94081BDF91CF9180
:103950000895DC019196ED91FC9192979081959656
:103960008C91892B80830895DC019196ED91FC91D7
:103970009297908196968C91892380830895DC019B
:103980009396ED91FC919497908197968C91892BC9
:1039900080830895DC019396ED91FC91949790813A
:1039A00098968C91892380830895FC01A5A1B6A1E6
:1039B0009C9182A589238C93A5A1B6A19C9181A5F8
:1039C000892B8C9308950F931F93CF93DF93EC0172
:1039D000162F8DA9811105C06EBD0DB407FEFDCF58
:1039E0001FC0813099F408E0CE0117FF03C00E9488
:1039F000A91C02C00E94B41CCE010E94BF1C110F62
:103A0000CE010E94CA1C015079F70AC0EF8DF8A1BF
:103A10006083CE01DF91CF911F910F910C94D51C43
:103A2000DF91CF911F910F9108951F93CF93DF9353
:103A3000EC01162F0E941E1B612FCE010E94E31C79
:103A4000CE01DF91CF911F910C94131B1F93CF9345
:103A5000DF93EC01162FE881F9810284F385E02DD4
:103A60000995112311F06DAD01C06EADCE010E941C
:103A7000151DE881F9810688F789E02DCE01DF91D7
:103A8000CF911F910994FF920F931F93CF93DF93D0
:103A9000EC018B018DA9811109C01EBD0DB407FE7B
:103AA000FDCF0EBD0DB407FEFDCF29C08130B1F4AE
:103AB00090E1F92ECE0117FF03C00E94A91C02C09D
:103AC0000E94B41CCE010E94BF1CCE010E94CA1CE1
:103AD000000F111FFA94F110EDCF11C0EF8DF8A176
:103AE0001083CE010E94D51CEF8DF8A10083CE017A
:103AF000DF91CF911F910F91FF900C94D51CDF9116
:103B0000CF911F910F91FF900895CF92DF92EF9286
:103B1000FF920F931F93CF93DF93EC01F62E8A0150
:103B2000C22E0E94791C8FA987FD03C0CE010E947E
:103B3000081BCE010E941E1B6F2DCE010E94E31CAC
:103B4000CE010E94131BE12CF12CD12CEC14FD04AE
:103B5000BCF48DA9F801823051F488A9882339F08A
:103B6000619171918F01CE010E94431D05C0619149
:103B70008F01CE010E94E31CFFEFEF1AFF0AE6CF90
:103B80008FA987FD03C0CE010E94EA1A8DA9811179
:103B90000AC0DF91CF911F910F91FF90EF90DF90BE
:103BA000CF900C94D91ADF91CF911F910F91FF9074
:103BB000EF90DF90CF900895AF92BF92CF92DF92B7
:103BC000EF92FF920F931F93CF93DF93EC01F62EAA
:103BD0008A01A22E0E94791C8FA987FD03C0CE0105
:103BE0000E94081BCE010E941E1B6F2DCE010E9459
:103BF000E31CCE010E94131BC12CD12CB12CCA1482
:103C0000DB04E4F48DA97801823059F488A9882373
:103C100041F0F801619171917F01CE010E94431D35
:103C200008C0FFEFEF1AFF0AF8016491CE010E946D
:103C3000E31CFFEFCF1ADF0A8701E1CF8FA987FDD1
:103C400003C0CE010E94EA1A8DA981110CC0DF9138
:103C5000CF911F910F91FF90EF90DF90CF90BF9089
:103C6000AF900C94D91ADF91CF911F910F91FF90D3
:103C7000EF90DF90CF90BF90AF900895AF92BF923A
:103C8000CF92DF92EF92FF920F931F93CF93DF9328
:103C9000EC0177FD38C088859985681779079CF510
:103CA00057FD31C08A859B854817590764F569011E
:103CB0007A015B01E881F9810284F385E02DCE0170
:103CC0000995E881F98102A4F3A5E02D01E010E057
:103CD00021E030E0A701B501CE010995B601CE0182
:103CE0000E94431DE881F9810688F789E02DCE0105
:103CF000DF91CF911F910F91FF90EF90DF90CF90C8
:103D0000BF90AF900994DF91CF911F910F91FF90D9
:103D1000EF90DF90CF90BF90AF900895EF92FF9219
:103D20000F931F93CF93DF93EC0177FD22C088851B
:103D3000998568177907ECF457FD1BC08A859B8528
:103D400048175907B4F47901E881F98102A4F3A571
:103D5000E02D01E010E021E030E0CE010995B7014F
:103D6000CE01DF91CF911F910F91FF90EF900C94B6
:103D7000431DDF91CF911F910F91FF90EF90089518
:103D8000AF92BF92CF92DF92EF92FF920F931F9369
:103D9000CF93DF93EC018B012115310541055105CE
:103DA00009F474C08DA981110FC021503109410956
:103DB000510908F46BC01EBD0DB407FEFDCF0EBD4A
:103DC0000DB407FEFDCFF1CF813099F569017A017D
:103DD000A12E28E0B22ECE01A7FE03C00E94A91C8E
:103DE00002C00E94B41CCE010E94BF1CCE010E94E2
:103DF000CA1CAA0CBA94B110EECFA02E98E0B92E2E
:103E0000CE01A7FE03C00E94A91C02C00E94B41CE0
:103E1000CE010E94BF1CCE010E94CA1CAA0CBA94FB
:103E2000B110EECF81E0C81AD108E108F10881F69F
:103E30002DC0161317C0EF8DF8A1108369017A0108
:103E4000CC0CDD1CEE1CFF1CC114D104E104F104F8
:103E5000E9F0CE010E94D51C81E0C81AD108E10822
:103E6000F108F2CF69017A01EF8DF8A11083CE013C
:103E70000E94D51CEF8DF8A10083CE010E94D51CB5
:103E800081E0C81AD108E108F10871F7DF91CF91FC
:103E90001F910F91FF90EF90DF90CF90BF90AF9068
:103EA0000895AF92BF92CF92DF92EF92FF920F935D
:103EB0001F93CF93DF93EC015901E881F98102A4AC
:103EC000F3A5E02D09959501D8010E9401249B01DD
:103ED000AC01B701CE01DF91CF911F910F91FF90FF
:103EE000EF90DF90CF90BF90AF900C94C01EEF92F8
:103EF000FF920F931F93CF93DF9377FD34C0DC01C4
:103F00001896ED91FC9119976E177F0764F52115AE
:103F1000310549F137FF07C0F90131964E0F5F1F98
:103F2000319521953109DC011A96ED91FC911B9791
:103F30004E175F07C4F4EA01C20FD31FDE011197C9
:103F4000B7FD11C057FF03C09E0140E050E0AE171F
:103F5000BF071CF09F01241B350B7801890121E06C
:103F600030E00E94511FDF91CF911F910F91FF9080
:103F7000EF900895EF92FF920F931F93CF93DF93EB
:103F800057FD33C0DC011A96ED91FC911B974E173B
:103F90005F075CF52115310541F137FF07C0F901D5
:103FA00031966E0F7F1F319521953109DC011896EE
:103FB000ED91FC9119976E177F07BCF4EB01C20FCE
:103FC000D31FDE011197B7FD10C077FF03C09E011C
:103FD00060E070E0AE17BF071CF09F01261B370B97
:103FE000780101E010E00E94511FDF91CF911F91F5
:103FF0000F91FF90EF9008958F929F92AF92BF9292
:10400000CF92DF92EF92FF920F931F93CF93DF93A4
:104010005C014B016A01E90177FD53C0DC01189690
:104020008D919C911997681779070CF04AC02097D9
:1040300009F447C037FF07C0C9010196C80ED91E51
:10404000D195C195D109F50182859385C816D90608
:10405000C4F5A6014C0F5D1F9A012150310937FDAF
:1040600030C0D7FE03C0EA01C12CD12C2817390774
:104070001CF0EC01CC19DD09D501ED91FC91028415
:10408000F385E02DC501099578018E0121E030E02E
:10409000A601B401C5010E94511FD501ED91FC910B
:1040A0000688F789E02DC501DF91CF911F910F910F
:1040B000FF90EF90DF90CF90BF90AF909F908F9048
:1040C0000994DF91CF911F910F91FF90EF90DF90B6
:1040D000CF90BF90AF909F908F9008958F929F92B6
:1040E000AF92BF92CF92DF92EF92FF920F931F9306
:1040F000CF93DF935C016B014A01E90157FD53C087
:10410000DC011A968D919C911B97481759070CF06A
:104110004AC0209709F447C037FF07C0C90101967C
:10412000C80ED91ED195C195D109F501808591851B
:10413000C816D906C4F5A6014C0F5D1F9A0121507F
:10414000310937FD30C0D7FE03C0EA01C12CD12CA4
:10415000281739071CF0EC01CC19DD09D501ED91C8
:10416000FC910284F385E02DC5010995780101E0F9
:1041700010E09E01A401B601C5010E94511FD501A6
:10418000ED91FC910688F789E02DC501DF91CF9173
:104190001F910F91FF90EF90DF90CF90BF90AF9065
:1041A0009F908F900994DF91CF911F910F91FF9075
:1041B000EF90DF90CF90BF90AF909F908F90089539
:1041C0008F929F92AF92BF92CF92DF92EF92FF9227
:1041D0000F931F93CF93DF934C016B015A01E901B9
:1041E000209709F46CC00115110509F468C037FF68
:1041F00007C0C9010196C80ED91ED195C195D10934
:10420000F401A085B185CA16DB060CF058C017FF73
:1042100007C0C8010196A80EB91E11950195110994
:10422000F40182859385A816B9060CF048C0F60102
:10423000EC0FFD1FAF014150510957FD40C0B501C2
:10424000600F711F9B012150310937FD38C0D7FE27
:1042500003C0EF01C12CD12CB7FE03C08B01A12CF0
:10426000B12C4A175B071CF0ED01CC19DD092817AA
:1042700039071CF08C010A191B09D401ED91FC913E
:104280000284F385E02DC40109959E01A501B601C4
:10429000C4010E94511FD401ED91FC910688F78959
:1042A000E02DC401DF91CF911F910F91FF90EF900E
:1042B000DF90CF90BF90AF909F908F900994DF9147
:1042C000CF911F910F91FF90EF90DF90CF90BF9013
:1042D000AF909F908F9008958F929F92AF92BF92D0
:1042E000CF92DF92EF92FF920F931F93CF93DF93C2
:1042F00047012115310509F44DC00115110509F4D7
:1043000049C037FF07C0F90131966E0F7F1F319505
:1043100021953109DC011896AD90BC9019976A156A
:104320007B05C4F517FF07C0F80131964E0F5F1FDC
:10433000119501951109DC011A96ED91FC911B97DD
:104340004E175F073CF56B01C20ED31EE6012197A5
:10435000D7FD20C07A01E00EF11ED7011197B7FDFD
:1043600019C077FF03C0960160E070E057FF03C0FB
:10437000870140E050E0CA15DB051CF09501261BC3
:10438000370BAE17BF071CF08F01041B150B740110
:104390000E94511FDF91CF911F910F91FF90EF90DD
:1043A000DF90CF90BF90AF909F908F900895611154
:1043B00002C060E201C061E220E040E050E00C9405
:1043C000DC1DEF92FF920F931F93CF93DF938C012D
:1043D000411551056105710521F440E052E16AE79C
:1043E00070E020E0C8010E94971BF80186A987FFB2
:1043F00010C020E040E050E061E0C8010E94DC1DF8
:10440000FFEF22E587E0F15020408040E1F700C057
:104410000000E8EBF5E0CF01019664916623D9F046
:10442000EF012296FC01F490FF2DFF77EF2E2F2F46
:10443000AE01C8010E94DC1DFE01EE0DF11DF7FE6C
:10444000EACF2FEF82E597E0215080409040E1F7DE
:1044500000C00000E0CF80EF90E0F80191878087F6
:1044600080E491E093878287DF91CF911F910F9134
:10447000FF90EF900895CF93DF931F92CDB7DEB7F3
:10448000FC016370668B623041F0633079F061301B
:1044900011F088E403C088E20AC088E8898380EFCD
:1044A00090E09187808780E491E008C088EE89835E
:1044B00080E491E09187808780EF90E09387828706
:1044C00021E0AE014F5F5F4F66E3CF010E94851D83
:1044D0000F90DF91CF910895AF92BF92CF92DF926C
:1044E000EF92FF920F931F93CF93DF93EC015B0149
:1044F0006A01215031097901E60EF71E01501109B8
:10450000040F151F6AE20E94151DB501CE010E941D
:10451000431DB701CE010E94431D6BE2CE010E94F4
:10452000151DB601CE010E94431DB801CE010E94A7
:10453000431D6CE2CE01DF91CF911F910F91FF904F
:10454000EF90DF90CF90BF90AF900C94151DEF923D
:104550000F93CF93DF93EC01E22E042F262F40E43C
:1045600051E060EF70E00E94891B8BE593E0998336
:104570008883DF91CF910F91EF9008950E94712869
:10458000CF93CFB7F89480919805811127C0EAE9BD
:10459000F0E08491E6E8F0E09491E82FF0E0EE0F8F
:1045A000FF1FE255FF4FA591B491EC91E92321F44F
:1045B00061E08AE00E94D40D61E08AE00E94980DDB
:1045C0008CB580618CBD8CB580648CBD61E08DE064
:1045D0000E94980D61E08BE00E94980D80919805F3
:1045E0008F5F80939805CFBFCF910895DC01ED9147
:1045F000FC910190F081E02D09940F931F93CF93CC
:10460000C62F142F8BEC94E00E94690F612F8BEC66
:1046100094E00E94180F8BEC94E00E94ED0F46E0AE
:104620006C2F8BEC94E00E94EA0F0AEA15E0C0E0E0
:104630008BEC94E00E94890E892B59F0C63049F02A
:10464000CF5F8BEC94E00E94910EF80181938F0173
:10465000EFCF8C2FCF911F910F9108950F931F9340
:10466000CF93DF93EC0140E00E94FD22EAEAF5E0FF
:1046700090819883918199834581228194E0299F3B
:10468000B0011124942F9C70292F30E03595279587
:1046900035952795262B372B3B832A83238194E05E
:1046A000299FB0011124942F9073292F30E054E0FA
:1046B000359527955A95E1F7262B372B3D832C838B
:1046C000248194E0299F90011124942F929596952E
:1046D00096959370292B3F832E83942F90959170FC
:1046E000988741FB002700F910E091E0092709872E
:1046F000DF91CF911F910F9108954AEF0E94FD2203
:10470000EAEAF5E0A4EAB5E081918D9385E0E03B2B
:10471000F807D1F708950F931F93CF938C01C62FFD
:104720008BEC94E00E94690F60EF70E08BEC94E0FA
:104730000E94F62265E570E08BEC94E00E94F62280
:104740008BEC94E00E94ED0F6C2F8BEC94E00E94B8
:10475000690F6BEF70E08BEC94E00E94F62260E052
:1047600070E08BEC94E00E94F6228BEC94E00E94C7
:10477000ED0F6C2FC801CF911F910F910C947D23E9
:10478000A1E21A2EAA1BBB1BFD010DC0AA1FBB1F55
:10479000EE1FFF1FA217B307E407F50720F0A21BC7
:1047A000B30BE40BF50B661F771F881F991F1A9434
:1047B00069F760957095809590959B01AC01BD015E
:1047C000CF010895052E97FB1EF400940E94F92353
:1047D00057FD07D00E94C02307FC03D04EF40C9471
:1047E000F92350954095309521953F4F4F4F5F4F9E
:1047F000089590958095709561957F4F8F4F9F4F4D
:1048000008950E940924332312F48A1B9B0B0C94F5
:104810001A24A29FB001B39FC001A39F700D811DF8
:104820001124911DB29F700D811D1124911D0895B9
:104830000E940924B7FF0895821B930B0895EE0F81
:10484000FF1F0590F491E02D09945058BB27AA272B
:104850000E943D240C9487250E94792538F00E94FF
:10486000802520F039F49F3F19F426F40C94762526
:104870000EF4E095E7FB0C947025E92F0E94982533
:1048800058F3BA17620773078407950720F079F485
:10489000A6F50C94BA250EF4E0950B2EBA2FA02D98
:1048A0000B01B90190010C01CA01A0011124FF27DD
:1048B000591B99F0593F50F4503E68F11A16F040D8
:1048C000A22F232F342F4427585FF3CF46953795D7
:1048D0002795A795F0405395C9F77EF41F16BA0B9C
:1048E000620B730B840BBAF09150A1F0FF0FBB1F4A
:1048F000661F771F881FC2F70EC0BA0F621F731F93
:10490000841F48F4879577956795B795F7959E3FEF
:1049100008F0B0CF9395880F08F09927EE0F979580
:10492000879508950E94A6240C9487250E948025CF
:1049300058F00E94792540F029F45F3F29F00C944B
:10494000702551110C94BB250C9476250E94982556
:1049500068F39923B1F3552391F3951B550BBB27AE
:10496000AA2762177307840738F09F5F5F4F220FF3
:10497000331F441FAA1FA9F335D00E2E3AF0E0E8EA
:1049800032D091505040E695001CCAF72BD0FE2F34
:1049900029D0660F771F881FBB1F261737074807C8
:1049A000AB07B0E809F0BB0B802DBF01FF27935880
:1049B0005F4F3AF09E3F510578F00C9470250C94AF
:1049C000BB255F3FE4F3983ED4F3869577956795D2
:1049D000B795F7959F5FC9F7880F911D96958795B5
:1049E00097F90895E1E0660F771F881FBB1F6217D4
:1049F00073078407BA0720F0621B730B840BBA0B92
:104A0000EE1F88F7E09508950E94A02588F09F5733
:104A100098F0B92F9927B751B0F0E1F0660F771FE2
:104A2000881F991F1AF0BA95C9F714C0B13091F0D8
:104A30000E94BA25B1E008950C94BA25672F782F0B
:104A40008827B85F39F0B93FCCF38695779567959D
:104A5000B395D9F73EF490958095709561957F4F09
:104A60008F4F9F4F0895E89409C097FB3EF49095AF
:104A70008095709561957F4F8F4F9F4F9923A9F037
:104A8000F92F96E9BB279395F695879577956795C6
:104A9000B795F111F8CFFAF4BB0F11F460FF1BC00A
:104AA0006F5F7F4F8F4F9F4F16C0882311F096E99D
:104AB00011C0772321F09EE8872F762F05C066234B
:104AC00071F096E8862F70E060E02AF09A95660F04
:104AD000771F881FDAF7880F9695879597F90895BD
:104AE00097F99F6780E870E060E008959FEF80ECA1
:104AF000089500240A941616170618060906089544
:104B000000240A9412161306140605060895092EA9
:104B10000394000C11F4882352F0BB0F40F4BF2B18
:104B200011F460FF04C06F5F7F4F8F4F9F4F089558
:104B300057FD9058440F551F59F05F3F71F047954E
:104B4000880F97FB991F61F09F3F79F08795089533
:104B5000121613061406551FF2CF4695F1DF08C052
:104B6000161617061806991FF1CF8695710561056F
:104B700008940895E894BB2766277727CB0197F917
:104B800008950E94D4250C9487250E94792538F039
:104B90000E94802520F0952311F00C9470250C9430
:104BA000762511240C94BB250E94982570F3959FBF
:104BB000C1F3950F50E0551F629FF001729FBB2714
:104BC000F00DB11D639FAA27F00DB11DAA1F649FB0
:104BD0006627B00DA11D661F829F2227B00DA11D63
:104BE000621F739FB00DA11D621F839FA00D611DE9
:104BF000221F749F3327A00D611D231F849F600D0A
:104C0000211D822F762F6A2F11249F5750409AF032
:104C1000F1F088234AF0EE0FFF1FBB1F661F771FBE
:104C2000881F91505040A9F79E3F510580F00C9489
:104C300070250C94BB255F3FE4F3983ED4F3869532
:104C400077956795B795F795E7959F5FC1F7FE2B29
:104C5000880F911D9695879597F908950F931F9347
:104C6000CF93DF938230910510F482E090E0E091E1
:104C7000B205F091B30520E030E0A0E0B0E030975D
:104C800019F1408151810281138148175907C8F0F9
:104C90008417950769F4109731F012960C931297C8
:104CA00013961C9327C00093B2051093B30522C03E
:104CB0002115310519F04217530718F49A01BD0167
:104CC000EF01DF01F801DBCF21153105F9F0281BD9
:104CD000390B2430310580F48A819B81611571057F
:104CE00021F0FB019383828304C09093B3058093EA
:104CF000B205FE01329644C0FE01E20FF31F81931C
:104D0000919322503109398328833AC02091B0050C
:104D10003091B105232B41F420910401309105011C
:104D20003093B1052093B005209102013091030129
:104D30002115310541F42DB73EB740910601509140
:104D40000701241B350BE091B005F091B105E21786
:104D5000F307A0F42E1B3F0B2817390778F0AC019E
:104D60004E5F5F4F2417350748F04E0F5F1F50937B
:104D7000B1054093B0058193919302C0E0E0F0E06B
:104D8000CF01DF91CF911F910F910895CF93DF93C2
:104D9000009709F481C0FC01329713821282A0911E
:104DA000B205B091B305109781F420813181820F53
:104DB000931F2091B0053091B1052817390751F59F
:104DC000F093B105E093B00567C0ED0120E030E05D
:104DD000CE17DF0740F44A815B819E0141155105E2
:104DE000F1F0EA01F5CFD383C28340815181840F72
:104DF000951FC817D90759F488819981840F951F89
:104E00000296918380838A819B819383828321157B
:104E1000310529F4F093B305E093B2053DC0E901F3
:104E2000FB83EA8349915991C40FD51FEC17FD0705
:104E300061F480819181840F951F0296E901998325
:104E40008883828193819B838A83E0E0F0E01296DD
:104E50008D919C911397009719F0FD01DC01F7CF1C
:104E60008D919C9111979D012E5F3F4F820F931F53
:104E70002091B0053091B1052817390769F43097B2
:104E800029F41092B3051092B20502C01382128267
:104E9000B093B105A093B005DF91CF9108958F92A3
:104EA0009F92AF92BF92CF92DF92EF92FF92CF93F9
:104EB000DF93EC01688179818A819B81611571059D
:104EC0008105910521F464E279ED8BE597E02DE110
:104ED00033EF41E050E00E94E22349015A019B0177
:104EE000AC01A7EAB1E40E9486286B017C01ACEE1C
:104EF000B4EFA50194010E949428DC01CB018C0D34
:104F00009D1DAE1DBF1DB7FF03C00197A109B0488D
:104F100088839983AA83BB839F77DF91CF91FF908A
:104F2000EF90DF90CF90BF90AF909F908F900895BB
:104F30000E944F27089588E091E00E944F2708952E
:104F4000A0E0B0E08093080190930901A0930A01CA
:104F5000B0930B010895A0E0B0E0E1EBF7E20C9410
:104F60009D28EC01009721F4CB010E942E26B4C0AD
:104F7000FC01E60FF71F9C0122503109E217F307ED
:104F800008F4A8C0D9010D911C91119706171707B5
:104F9000B0F00530110508F49BC0C80104978617CE
:104FA000970708F495C002501109061B170B0193CF
:104FB00011936D937C93CF010E94C62689C05B013B
:104FC000A01AB10A4C01800E911EA091B205B091B9
:104FD000B305612C712CE12CF12C109709F446C01B
:104FE0008D919C911197A815B905B1F56C0142E01E
:104FF000C40ED11CCA14DB0478F14C018A189B083A
:10500000640142E0C40ED11C1296BC901297139614
:10501000AC91B5E0CB16D10440F0B282A38391826B
:105020008082D9016D937C9309C00E5F1F4F800F62
:10503000911FF90191838083EB2DFA2FE114F10484
:1050400031F0D7011396FC93EE93129741C0F09381
:10505000B305E093B2053CC06816790608F43C013C
:105060007D0112960D90BC91A02DB7CF8091B00517
:105070009091B10588169906E1F466167706C8F492
:105080008091020190910301009741F48DB79EB782
:105090004091060150910701841B950BE817F90711
:1050A000C8F4F093B105E093B005F9017183608312
:1050B0000FC0CB010E942E267C01009759F0A80159
:1050C000BE010E947628CE010E94C626C70104C0F8
:1050D000CE0102C080E090E0CDB7DEB7EEE00C94E8
:1050E000B92881E090E0F8940C94FF28FB01DC01E2
:1050F00002C001900D9241505040D8F70895FB0135
:10510000DC0101900D920020E1F708950E9409242E
:10511000A59F900DB49F900DA49F800D911D11240B
:105120000895B7FF0C9486280E948628821B930B53
:1051300008952F923F924F925F926F927F928F923B
:105140009F92AF92BF92CF92DF92EF92FF920F9316
:105150001F93CF93DF93CDB7DEB7CA1BDB0B0FB620
:10516000F894DEBF0FBECDBF09942A8839884888DD
:105170005F846E847D848C849B84AA84B984C88473
:10518000DF80EE80FD800C811B81AA81B981CE0F6A
:10519000D11D0FB6F894DEBF0FBECDBFED0108954F
:1051A00097FB072E16F4009407D077FD09D00E94D4
:1051B000E42807FC05D03EF4909581959F4F089513
:1051C000709561957F4F0895AA1BBB1B51E107C0E5
:1051D000AA1FBB1FA617B70710F0A61BB70B881F87
:1051E000991F5A95A9F780959095BC01CD01089516
:1051F0000E9404256894B1110C94BB250895F8947D
:02520000FFCFDE
:1052020001010000B405200001000000EF7B34A57D
:10521200694A80FFD0FFE0EE23B76DCF029693027A
:105222000400EE0108000B0208004B0204000B020E
:105232000800EE010800B8010400B80108000B02E2
:105242000800930204004B0208000B020800EE0162
:10525200FCFF0B0208004B020400930204000B0245
:105262000400B8010400B8010800B8010400EE010E
:1052720008000B0208004B02FCFFBA020800700390
:10528200040010030800BA0208009302FCFF0B029C
:105292000800930204004B0208000B020800EE0112
:1052A2000400EE0108000B0208004B020400930206
:1052B20004000B020400B8010400B801040000005D
:1052C200040093020400EE0108000B0208004B02E6
:1052D20004000B020800EE010800B8010400B80146
:1052E20008000B020800930204004B0208000B02A4
:1052F2000800EE01FCFF0B0208004B0204009302BF
:1053020004000B020400B8010400B8010800B8014F
:105312000400EE0108000B0208004B02FCFFBA0277
:1053220008007003040010030800BA020800930288
:10533200FCFF0B020800930204004B0208000B0260
:105342000800EE010400EE0108000B0208004B0207
:105352000400930204000B020400B8010400B80127
:10536200040000000400930202000B0202004B0240
:105372000200EE0102000B020200B80102009F01CE
:105382000200EE01040000000800930202000B027A
:1053920002004B020200EE0102000B020400930223
:1053A2000400700302003F03020053746172742010
:1053B20067616D65004F7468657220627574746F01
:1053C2006E00484F4C44004E4558540053636F7270
:1053D200653A003536300000000000E20BBC0CB12B
:1053E2000B2F0C830B9D0B8F0B00000000180FEB93
:1053F2000E5C03B40E890E910EA50E00000000CEC5
:1054020019BC0C5C035B03BE228C145D147C146417
:10541200147014AB138C142E162D168D14C614FF93
:105422001444156115CE1500000000CE19BC0C5CA9
:10543200035B033E1E991C8E1E6C21771FBA1FABA5
:1054420013F51A2E16261DFC1F6E20E0204415614E
:1054520015CE15BE22BE2200000000CE19BC0C5C87
:10546200035B033E1E991C8E1E6C21771FBA1FAB75
:1054720013F51A3B22D721FC1F6E20E02044156150
:0854820015CE15E1216C22009A
:00000001FF
