:100000000C9415030C94C00B0C943D030C943D030D
:100010000C943D030C943D030C943D030C943D0360
:100020000C943D030C943D030C943D030C943D0350
:100030000C943D030C943D030C94DA0A0C943D039C
:100040000C94380A0C943D030C94A80A0C94820A70
:100050000C943D030C943D030C943D030C943D0320
:100060000C94E5080C943D03000000080002010018
:100070000003040700000000000000000000000072
:10008000003E5B4F5B3E3E6B4F6B3E1C3E7C3E1C1E
:10009000183C7E3C181C577D571C1C5E7F5E1C0064
:1000A000183C1800FFE7C3E7FF0018241800FFE71B
:1000B000DBE7FF30483A060E2629792926407F05DE
:1000C0000507407F05253F5A3CE73C5A7F3E1C1CF4
:1000D00008081C1C3E7F14227F22145F5F005F5FB4
:1000E00006097F017F006689956A606060606094A0
:1000F000A2FFA29408047E040810207E20100808A5
:100100002A1C08081C2A08081E101010100C1E0CAF
:100110001E0C30383E3830060E3E0E060000000041
:100120000000005F00000007000700147F147F1428
:10013000242A7F2A1223130864623649562050006D
:1001400008070300001C2241000041221C002A1C59
:100150007F1C2A08083E0808008070300008080844
:100160000808000060600020100804023E51494564
:100170003E00427F400072494949462141494D3382
:100180001814127F1027454545393C4A49493141E9
:10019000211109073649494936464949291E0000B7
:1001A000140000004034000000081422411414140C
:1001B0001414004122140802015909063E415D59F8
:1001C0004E7C1211127C7F494949363E4141412201
:1001D0007F4141413E7F494949417F090909013E2B
:1001E000414151737F0808087F00417F4100204052
:1001F000413F017F081422417F404040407F021C64
:10020000027F7F0408107F3E4141413E7F0909097A
:10021000063E4151215E7F09192946264949493246
:1002200003017F01033F4040403F1F2040201F3F0C
:100230004038403F63140814630304780403615991
:10024000494D43007F4141410204081020004141D3
:10025000417F04020102044040404040000307087F
:100260000020545478407F2844443838444444287B
:10027000384444287F385454541800087E09021822
:10028000A4A49C787F0804047800447D40002040AA
:10029000403D007F1028440000417F40007C0478EE
:1002A00004787C080404783844444438FC18242436
:1002B0001818242418FC7C080404084854545424B6
:1002C00004043F44243C4040207C1C2040201C3C33
:1002D0004030403C44281028444C9090907C44642A
:1002E000544C4400083641000000770000004136BD
:1002F000080002010204023C2623263C1EA1A16143
:10030000123A4040207A3854545559215555794174
:100310002254547842215554784020545579400C49
:100320001E5272123955555559395454545939552C
:100330005454580000457C410002457D420001456F
:100340007C407D1211127DF0282528F07C54554503
:10035000002054547C547C0A097F4932494949326F
:100360003A4444443A324A4848303A4141217A3A80
:1003700042402078009DA0A07D3D4242423D3D404C
:1003800040403D3C24FF2424487E4943662B2FFCFB
:100390002F2BFF0929F620C0887E090320545479A9
:1003A000410000447D413048484A32384040227A7A
:1003B000007A0A0A727D0D19317D2629292F2826F7
:1003C0002929292630484D402038080808080808FF
:1003D0000808382F10C8ACBA2F102834FA00007B58
:1003E000000008142A142222142A1408550055006B
:1003F00055AA55AA55AAFF55FF55FF000000FF005A
:10040000101010FF00141414FF001010FF00FF1054
:1004100010F010F0141414FC001414F700FF000086
:10042000FF00FF1414F404FC141417101F10101F05
:10043000101F1414141F00101010F0000000001FF3
:10044000101010101F10101010F010000000FF10FE
:100450001010101010101010FF10000000FF1400FA
:1004600000FF00FF00001F10170000FC04F414142C
:100470001710171414F404F40000FF00F7141414F8
:1004800014141414F700F7141414171410101F1078
:100490001F141414F4141010F010F000001F101F9B
:1004A0000000001F14000000FC140000F010F01009
:1004B00010FF10FF141414FF141010101F00000080
:1004C00000F010FFFFFFFFFFF0F0F0F0F0FFFFFF84
:1004D0000000000000FFFF0F0F0F0F0F38444438DB
:1004E00044FC4A4A4A347E02020606027E027E022A
:1004F00063554941633844443C04407E201E200635
:10050000027E020299A5E7A5991C2A492A1C4C7271
:1005100001724C304A4D4D303048784830BC625AF8
:10052000463D3E494949007E0101017E2A2A2A2A88
:100530002A44445F444440514A444040444A514064
:100540000000FF0103E080FF000008086B6B083625
:1005500012362436060F090F060000181800000096
:100560001010003040FF0101001F01011E00191D85
:100570001712003C3C3C3C00000000000102040853
:1005800010204080010204081020010204081020FD
:1005900000000000250028002B00040404040404CB
:1005A0000404020202020202030303030303EF0333
:1005B000038002CF0300C130ED0464031281E8031D
:1005C000850078CB05392C003402F70120EA0200BF
:1005D00000C00123C10110C5023E28C701863601B3
:1005E000483701003A0155B1020018B603088227C6
:1005F000F20100260101E00F0F312B0C0E084EF125
:10060000370710030E0900E10F000E140311073124
:10061000C148080F0C31360F1180298000000000FE
:1006200000240027002A00009D1911241FBECFEFCF
:10063000D8E0DEBFCDBF11E0A0E0B1E0E6E8F5E331
:1006400002C005900D92AC38B107D9F723E0ACE8B1
:10065000B1E001C01D92A435B207E1F713E0C5E196
:10066000D3E004C02197FE010E94B61AC431D1071D
:10067000C9F70E9426180C94C11A0C940000089522
:10068000FC016370668B848195812681378161309E
:1006900039F0633029F09187808733872287089566
:1006A000318720879387828708956F927F928F92F8
:1006B0009F92AF92BF92CF92DF92EF92FF920F93F1
:1006C0001F93CF93DF93EC014B015A01690138016D
:1006D000E881F9810284F385E02D0995E881F981AB
:1006E0000288F389E02D87019601A501B401CE01AE
:1006F0000995A501460D571D41505109E881F98121
:100700000288F389E02D9601B401CE010995E881B4
:10071000F9810088F189E02D9301A501B401CE0192
:100720000995C80CD91CB60161507109E881F9819D
:100730000088F189E02D9301A501CE010995E8819A
:10074000F9810688F789E02DCE01DF91CF911F91C5
:100750000F91FF90EF90DF90CF90BF90AF909F9060
:100760008F907F906F9009948F929F92AF92BF92DB
:10077000CF92DF92EF92FF920F931F93CF93DF936D
:100780004C016B015A01E901DC01ED91FC9162170A
:10079000730781F40417150724F48B2D5801042FD7
:1007A000182F0A191B0998012F5F3F4F048CF58DF4
:1007B000E02D12C04017510709F52617370724F41A
:1007C0008D2D6901C62FD82F9E012C193D092F5F51
:1007D0003F4F068CF78DE02D8701A501B601C401BE
:1007E0000995DF91CF911F910F91FF90EF90DF90CE
:1007F000CF90BF90AF909F908F9008950284F38523
:10080000E02D0995D401ED91FC910488F589E02D46
:100810009E01A501B601C4010995D401ED91FC9199
:100820000688F789E02DC401DF91CF911F910F91C8
:10083000FF90EF90DF90CF90BF90AF909F908F9000
:100840000994EF92FF920F931F93DC011A960D917A
:100850001C911B9718962D913C911997ED91FC9145
:1008600000A0F1A1E02D7B0140E050E060E070E0ED
:1008700009951F910F91FF90EF9008954F925F920D
:100880006F927F928F929F92AF92BF92CF92DF92A0
:10089000EF92FF920F931F93CF93DF936C012B0185
:1008A0005A0139014801DC01ED91FC910284F38584
:1008B000E02D0995E201640C751CD601ED91FC91C7
:1008C000C615D7055CF40088F189E02D87019401F5
:1008D000A501BE01C60109952196EFCF0688F789CB
:1008E000E02DC601DF91CF911F910F91FF90EF9006
:1008F000DF90CF90BF90AF909F908F907F906F9040
:100900005F904F9009948F929F92AF92BF92CF9237
:10091000DF92EF92FF920F931F93CF93DF93EC013F
:100920005B014A016901E881F9810284F385E02DC8
:10093000099595012C0D3D1D21503109E881F98162
:100940000488F589E02D78018401A401B501CE0168
:100950000995E881F9810688F789E02DCE01DF91BC
:10096000CF911F910F91FF90EF90DF90CF90BF90AC
:10097000AF909F908F9009948F929F92AF92BF9269
:10098000CF92DF92EF92FF920F931F93CF93DF935B
:10099000EC015B014A0169017801E881F981028477
:1009A000F385E02D0995C80CD91C86010150110969
:1009B000E881F9810488F589E02D9501A401B5014C
:1009C000CE010995E881F9810688F789E02DCE01ED
:1009D000DF91CF911F910F91FF90EF90DF90CF901B
:1009E000BF90AF909F908F9009940895EF92FF92DF
:1009F0000F931F93DC01ED91FC9100A0F1A1E02D7C
:100A000009951F910F91FF90EF9008950F931F93F9
:100A1000DC01ED91FC91068CF78DE02D09951F917D
:100A20000F9108950F931F93DC01ED91FC91048CBD
:100A3000F58DE02D09951F910F910895DC01ED9141
:100A4000FC910084F185E02D09942F923F924F9202
:100A50005F926F927F928F929F92AF92BF92CF924E
:100A6000DF92EF92FF920F931F93CF93DF9300D00B
:100A700000D000D0CDB7DEB72C017E836D836A0134
:100A80005901C801FC82EB824801841A950A97FE3D
:100A900003C091948194910835012D813E81621AA1
:100AA000730A77FE03C07194619471086814790425
:100AB0005CF43A2D2B2D5C01832F922F3D812E81EA
:100AC000DE82CD82C32ED22EAD81BE81AA16BB0698
:100AD0005CF43C2D2D2D6C01832F922F3D812E81B6
:100AE000BE82AD82A32EB22E85012D813E81021BD6
:100AF000130B1C012C183D0837FE03C031942194C0
:100B00003108780117FF03C03FEFE31AF30AF594A9
:100B1000E794C816D9062CF08FEF9FEF9A8389834C
:100B200004C0A1E0B0E0BA83A9832D813E81A21662
:100B3000B30624F1D201ED91FC910484F585E02DFA
:100B40002B813C816814790424F44D815E81B601C7
:100B500003C0A6016D817E81C2010995E218F308E8
:100B6000F7FE06C029813A81C20ED31EE00EF11EA7
:100B70008D819E8101969E838D83D7CF26960FB659
:100B8000F894DEBF0FBECDBFDF91CF911F910F91C3
:100B9000FF90EF90DF90CF90BF90AF909F908F909D
:100BA0007F906F905F904F903F902F90089540916D
:100BB000BE01262F30E0240F311D21323105DCF437
:100BC00020913B022430C9F4FC0180E090E08617BC
:100BD00058F43091BE012191DC01A456BE4FA30F01
:100BE000B11D2C930196F3CF8091BE01680F6093E5
:100BF000BE0180E0089581E0089582E0089508959F
:100C00000895E091E4018091E301E81730F4F0E009
:100C1000EB51FE4F808190E008958FEF9FEF089594
:100C20009091E4018091E301981750F4E92FF0E0EE
:100C3000EB51FE4F208130E09F5F9093E40102C0B2
:100C40002FEF3FEFC90108958091E30190E02091DB
:100C5000E401821B91090895CF92DF92EF92FF92F7
:100C60000F931F93CF93DF937C01CB018A012091D7
:100C70004102222389F0EB016B01C40ED51ECC1575
:100C8000DD0569F06991D701ED91FC910190F0814A
:100C9000E02DC7010995F3CF642F0E94D705C80145
:100CA000DF91CF911F910F91FF90EF90DF90CF9048
:100CB0000895CF93DF931F92CDB7DEB7698320915C
:100CC00041022223D1F020916402203240F021E041
:100CD00030E0FC013383228380E090E015C08091F6
:100CE0004202E82FF0E0ED5BFD4F998190838F5F2A
:100CF000809342028093640205C061E0CE010196B8
:100D00000E94D70581E090E00F90DF91CF91089588
:100D1000CF92DF92EF92FF920F931F93CF93DF93C7
:100D20006C017A018B01C0E0D0E0CE15DF0581F0C7
:100D3000D8016D918D01D601ED91FC910190F0816A
:100D4000E02DC6010995892B11F02196EECF7E0189
:100D5000C701DF91CF911F910F91FF90EF90DF902E
:100D6000CF900895FC01538D448D252F30E0842FC2
:100D700090E0821B930B541710F0CF9608950197C3
:100D80000895FC01918D828D981761F0828DDF01AD
:100D9000A80FB11D5D968C91928D9F5F9F73928F6E
:100DA00090E008958FEF9FEF0895FC01918D828D63
:100DB000981731F0828DE80FF11D858D90E0089530
:100DC0008FEF9FEF0895FC01918D228D892F90E088
:100DD000805C9F4F821B91098F7399270895FC01B6
:100DE000848DDF01A80FB11DA35ABF4F2C91848DB4
:100DF00090E001968F739927848FA689B7892C93E9
:100E0000A089B1898C91837080648C93938D848D3B
:100E1000981306C00288F389E02D80818F7D80833E
:100E20000895EF92FF920F931F93CF93DF93EC01FE
:100E300081E0888F9B8D8C8D981305C0E889F98996
:100E4000808185FD26C0F62E0B8D10E00F5F1F4FB1
:100E50000F731127E02E8C8DE8120CC00FB607FC23
:100E6000FACFE889F989808185FFF5CFCE010E940C
:100E7000EF06F1CF8B8DFE01E80FF11DE35AFF4F16
:100E8000F0829FB7F8940B8FEA89FB89808180629A
:100E90000AC09FB7F894EE89FF896083E889F989D1
:100EA00080818370806480839FBF81E090E0DF91C8
:100EB000CF911F910F91FF90EF900895CF93DF9303
:100EC000EC01888D8823C9F0EA89FB89808185FD42
:100ED00005C0A889B9898C9186FD0FC00FB607FCA3
:100EE000F5CF808185FFF2CFA889B9898C9185FFE4
:100EF000EDCFCE010E94EF06E7CFDF91CF910895AD
:100F0000089580E090E00895CF93DF93EC010E9474
:100F100090178FA987FD06C0EB8DFC8D90818AA963
:100F200089238083DF91CF9108958F929F92AF9212
:100F3000CF92EF92FF920F931F93CF93DF93EC0129
:100F4000262F898D9A8D009709F042C06A3059F496
:100F50001D861C862D898E859F8538E0239F800DF8
:100F6000911D112443C06D3009F4AAC08F898823D4
:100F7000C9F03C898C859D8546E0349F800D911D8C
:100F80001124488559854817590764F41D861C8625
:100F90003D898E859F8548E0349F800D911D1124E9
:100FA0009F878E87EA88FB88088919894E855F8527
:100FB0006C857D85AD88CC88CE010E94FE0E2C8983
:100FC0008C859D8536E0239F800D911D11243EC0A8
:100FD0006A3079F41D861C862D89FC013896E491CF
:100FE0008E859F852E9F800D911D11249F878E8752
:100FF00067C06D3009F464C0FC0134963491631706
:1010000008F45EC03296E491E61708F459C0462F02
:10101000431B342FFC0132968590949047E0349F17
:10102000800C911C1124F401329634913196E49194
:10103000332311F0E1110DC0F4013496E4912C89B1
:101040008C859D85E29F800D911D11249D878C8745
:1010500037C0F401359644915F89552319F15C89B5
:10106000E32FF0E0E40FF11D47FDFA955E9FB0011C
:101070005F9F700D11244C855D85460F571F688555
:1010800079856417750774F41D861C863D89FC01FB
:101090003896E4918E859F853E9F800D911D112489
:1010A0009F878E87EA88FB88088919894E855F8526
:1010B0006C857D85AD88CC88CE010E94FE0EBCCFAC
:1010C00081E090E0DF91CF911F910F91FF90EF9021
:1010D000CF90AF909F908F90089510923B0281E047
:1010E00080933A021092150261E082E10E94E011C1
:1010F00061E083E10E94E011E9EBF0E080818E7F06
:10110000808380818D7F808388E48093B80085E42C
:101110008093BC0008950895CF93DF9391E090935E
:101120009B018823B9F0C091B800D091BA0080919A
:10113000BC008A7B8093BC0060E082E10E94E011E9
:1011400060E083E10E94E0110E946D08D093BA0034
:10115000C093B800DF91CF91089585ED8093BC00D6
:1011600080913D0290913E02A0913F02B0914002D9
:101170000796A11DB11D23E0B695A7959795879574
:101180002A95D1F72091BC0024FF1CC040913D025C
:1011900050913E0260913F0270914002452B462BD8
:1011A000472B81F30097A105B10541F02AE22A956A
:1011B000F1F700C00197A109B109E4CF80913C0289
:1011C0000C948C0810923B0208951F920F920FB658
:1011D0000F9211242F933F934F935F936F937F93BD
:1011E0008F939F93AF93BF93EF93FF938091B90039
:1011F000887F803609F49CC068F5883209F45BC0AA
:1012000090F4803109F454C038F4882309F4F6C00E
:10121000883009F44DC0F6C0883109F44CC08032E2
:1012200009F45DC0EFC0803409F468C048F480332D
:1012300009F455C0883309F0E5C080933902D8C05D
:10124000803509F44FC0883509F45DC0883409F051
:10125000D9C0D6C0883909F4C7C0A8F4883709F4C2
:1012600067C038F4883609F463C0803709F460C079
:10127000C9C0883809F4B8C0803909F45FC0803823
:1012800009F0C0C05BC0803B09F486C038F4803AE6
:1012900009F466C0883A09F47FC0B4C0803C09F400
:1012A000A7C0883C09F4A4C0883B09F48AC0AAC03E
:1012B0008091160210C090913802809137029817E1
:1012C00070F5E091380281E08E0F80933802F0E0F3
:1012D000E95EFD4F80818093BB0085EC86C08093E2
:1012E00039028EC0E091380281E08E0F809338027F
:1012F0008091BB00F0E0E95EFD4F80839091380261
:10130000809137026EC0E091380281E08E0F8093A9
:1013100038028091BB00F0E0E95EFD4F8083809150
:101320003A0281116DC081E08093150284EA61C0A8
:1013300083E080933B021092E201CFCF8091E201E3
:10134000803208F051C0E091E20181E08E0F80937D
:10135000E2018091BB00F0E0EE53FE4F8083BDCFF1
:1013600085EC8093BC0010923B028091E2018032B8
:1013700030F4E091E201F0E0EE53FE4F1082609114
:10138000E20170E0E091C001F091C10182EC91E0D6
:1013900009951092E20136C084E080933B021092DE
:1013A000BF011092BE01E091BC01F091BD01099511
:1013B0008091BE01811105C081E08093BE01109231
:1013C0009C01E091BF0181E08E0F8093BF01F0E0AE
:1013D000E456FE4F80818093BB009091BF018091C5
:1013E000BE01981708F479CF85E88093BC000AC045
:1013F00085EC8093BC0010923B0204C0109239022D
:101400000E94AD08FF91EF91BF91AF919F918F9195
:101410007F916F915F914F913F912F910F900FBEF0
:101420000F901F9018953FB7F89480919701909175
:101430009801A0919901B0919A0126B5A89B05C089
:101440002F3F19F00196A11DB11D3FBFBA2FA92F43
:10145000982F8827820F911DA11DB11DBC01CD01C0
:1014600042E0660F771F881F991F4A95D1F70895AC
:101470001F920F920FB60F9211242F933F938F93C9
:101480009F93AF93BF938091930190919401A0910A
:101490009501B09196013091920123E0230F2D37F1
:1014A00020F40196A11DB11D05C026E8230F029668
:1014B000A11DB11D209392018093930190939401FB
:1014C000A0939501B0939601809197019091980116
:1014D000A0919901B0919A010196A11DB11D80932F
:1014E000970190939801A0939901B0939A01BF91AD
:1014F000AF919F918F913F912F910F900FBE0F90C1
:101500001F9018951F920F920FB60F9211242F93D0
:101510003F934F935F936F937F938F939F93AF937B
:10152000BF93EF93FF9381E792E00E94EF06FF9154
:10153000EF91BF91AF919F918F917F916F915F914B
:101540004F913F912F910F900FBE0F901F901895C4
:101550001F920F920FB60F9211242F938F939F9388
:10156000EF93FF93E0918102F09182028081E091FC
:101570008702F091880282FD12C0908180918A02D8
:101580008F5F8F7320918B02821751F0E0918A0256
:10159000F0E0EF58FD4F958F80938A0201C0808163
:1015A000FF91EF919F918F912F910F900FBE0F9010
:1015B0001F9018951F920F920FB60F921124CF9281
:1015C000DF92EF92FF920F931F932F933F934F93CE
:1015D0005F936F937F938F939F93AF93BF93EF939B
:1015E000FF93CF93DF93CDB7DEB7A197DEBFCDBF1B
:1015F000809191018A3299F580918C01811105C009
:1016000084B5806484BD81E026C090E08930910576
:101610005CF084B58F7B84BD80918C018F5F8A33B1
:10162000D1F410928C0119C0019721E030E0A9019A
:1016300002C0440F551F8A95E2F7CA018D7A992797
:10164000892B19F084B5806402C084B58F7B84BD7A
:1016500080918C018F5F80938C0110929101809119
:1016600091018F5F8093910180919001882309F40B
:1016700068C090918F0180918E019A3219F4811186
:1016800006C05CC081115AC0943309F057C09091D4
:101690000001992371F0883060F421E030E0082ED9
:1016A00001C0220F0A94EAF790918D01292B209313
:1016B0008D0110928F018830E9F510928E01109201
:1016C000900181E08093000120918D0130E040E0A5
:1016D00050E019A28E010F5D1F4F8AE0C82ED12C59
:1016E000E12CF12CCA01B901A70196010E94761ADA
:1016F000605DF80162938F012115310541055105A7
:1017000089F7309761F001900020E9F73197AF0138
:10171000401B510BB80181E792E00E94880642E02D
:1017200050E069E871E081E792E00E94880610923B
:101730008D0107C08F5F80938E0103C09F5F9093E0
:101740008F01A1960FB6F894DEBF0FBECDBFDF911B
:10175000CF91FF91EF91BF91AF919F918F917F9129
:101760006F915F914F913F912F911F910F91FF903A
:10177000EF90DF90CF900F900FBE0F901F901895B5
:101780001F920F920FB60F9211248F939F93809107
:101790009001811104C081E08093900106C0909176
:1017A000000181E08927809300019F918F910F9024
:1017B0000FBE0F901F9018952F923F924F925F92FD
:1017C0006F927F928F929F92AF92BF92CF92DF9251
:1017D000EF92FF920F931F93CF93DF93CDB7DEB7B6
:1017E0002A970FB6F894DEBF0FBECDBF6C01788785
:1017F0006F835A018EE093E00E9484074F815885E1
:101800004A505109850125E130E0B6018EE093E0B0
:101810000E9430152F80388441E050E05C834B8378
:10182000E12CF12C9AE0492E512C8AE090E09A8725
:1018300089874CEE5FEF5E834D8327EF622E77241E
:101840007A948FEFE81AF80A4B815C814E5F5F4F04
:101850005C834B83640E751E89859A858E159F0562
:10186000E4F14C01880C991C9FEF891A990A8501B3
:1018700094014F81588589859A85481B590B5A8355
:101880004983B6016E0D7F1D8EE093E00E943015F6
:10189000940149815A81B6016E197F098EE093E067
:1018A0000E94301549855A8544155505D9F4898516
:1018B0009A85E816F9068CF577FC0BC001979A8794
:1018C00089874D815E814E5F5F4F5E834D83640EDD
:1018D000751E51E0251A3108B4CF89859A85841583
:1018E0009505D9F0B601640D751D85018B809C802E
:1018F00052E0851A91089401A1018EE093E00E94C4
:101900003015B601641975099401A1018EE093E0C8
:101910000E94301549845A84CACF8EE093E02A96FB
:101920000FB6F894DEBF0FBECDBFDF91CF911F91F0
:101930000F91FF90EF90DF90CF90BF90AF909F906E
:101940008F907F906F905F904F903F902F900C946E
:1019500075128F929F92AF92BF92CF92DF92EF92C9
:10196000FF920F931F93CF93DF9310916402113274
:1019700008F0C2C0D09163020E94130A6B017C017F
:10198000C0913B02CC2311F180913D0290913E0227
:10199000A0913F02B0914002892B8A2B8B2B81F3BF
:1019A0000E94130A80903D0290903E02A0903F0258
:1019B000B0904002DC01CB018C199D09AE09BF0932
:1019C00088169906AA06BB06D8F682C082E08093E4
:1019D0003B0281E080933A028FEF809339021092AC
:1019E000380210933702A3E4B2E0E7E1F2E080E0CE
:1019F000181721F09D9191938F5FFACF10921602E4
:101A0000909116028D2F880F892B8093160280915A
:101A10001502813089F5109215020E94130A6B019C
:101A20007C01809116028093BB0080913D029091D1
:101A30003E02A0913F02B0914002892B8A2B8B2B52
:101A4000A9F00E94130A00913D0210913E022091DC
:101A50003F0230914002DC01CB018C199D09AE0997
:101A6000BF09081719072A073B0790F18091BC00AE
:101A700083FDD7CF85EC01C085EE8093BC000E942A
:101A8000130A6B017C0180913B02823039F5809111
:101A90003D0290913E02A0913F02B0914002892BFD
:101AA0008A2B8B2B81F30E94130A00913D02109127
:101AB0003E0220913F0230914002DC01CB018C19A3
:101AC0009D09AE09BF09081719072A073B07D8F671
:101AD00080913C020E948C08C5E013C080913902BD
:101AE0008F3F79F080913902803241F08091390244
:101AF000803331F0C4E005C0C1E003C0C2E001C0E2
:101B0000C3E01092420210926402109241028C2FA4
:101B1000DF91CF911F910F91FF90EF90DF90CF90C9
:101B2000BF90AF909F908F900895CF92DF92EF92E9
:101B3000FF920F931F93CF93DF9391E09093410215
:101B400092E5909363021092420210926402682F11
:101B500085E692E00E9459060E94A90C0E94130A91
:101B60006B017C01C0913B02CC2339F180913D0295
:101B700090913E02A0913F02B0914002892B8A2BA6
:101B80008B2B81F30E94130A00913D0210913E02BB
:101B900020913F0230914002DC01CB018C199D095C
:101BA000AE09BF09081719072A073B07D8F6809125
:101BB0003C020E948C08C0E08DC081E080933B0213
:101BC00080933A029FEF909339021092380295E089
:101BD000909337028093160280911602846A809354
:101BE000160280911502813089F5109215020E942B
:101BF000130A6B017C01809116028093BB008091D7
:101C00003D0290913E02A0913F02B0914002892B8B
:101C10008A2B8B2BA9F00E94130A00913D02109190
:101C20003E0220913F0230914002DC01CB018C1931
:101C30009D09AE09BF09081719072A073B0790F14C
:101C40008091BC0083FDD7CF85EC01C085EE8093E9
:101C5000BC000E94130A6B017C0180913B02813021
:101C600031F580913D0290913E02A0913F02B091EA
:101C70004002892B8A2B8B2B81F30E94130A00913F
:101C80003D0210913E0220913F0230914002DC0162
:101C9000CB018C199D09AE09BF09081719072A073E
:101CA0003B07D8F680913C020E948C0813C08091BB
:101CB0003802863018F48091380201C086E0E7E1EE
:101CC000F2E0A5EEB1E0C0E0C81721F091919D933C
:101CD000CF5FFACF1092E401C093E3010FE012E06E
:101CE000D0E08091E401C81759F0D63049F0DF5FA9
:101CF00085E692E00E941006F80181938F01F1CFF2
:101D00008D2FDF91CF911F910F91FF90EF90DF907A
:101D1000CF900895AF92BF92CF92DF92EF92FF9251
:101D20000F931F93CF93DF93EC01E62E8A01F22EDF
:101D30000E9490178FA987FD06C0EB8DFC8D9081C6
:101D40008AA989238083ED8DFE8D90818CA98923BA
:101D500080836E2DCE010E94F616ED8DFE8D908152
:101D60008BA9892B8083C12CD12CAF2CB12CCA1408
:101D7000DB04E4F48DA97801823059F488A9882322
:101D800041F0F801619171917F01CE010E942E1600
:101D900008C0FFEFEF1AFF0AF8016491CE010E941C
:101DA000F616FFEFCF1ADF0A8701E1CF8FA987FD73
:101DB00006C0EB8DFC8D908189A9892B80838DA92C
:101DC00081110CC0DF91CF911F910F91FF90EF9087
:101DD000DF90CF90BF90AF900C948B08DF91CF91A4
:101DE0001F910F91FF90EF90DF90CF90BF90AF9039
:101DF0000895682F85E692E00C9459062F923F9241
:101E00004F925F926F927F928F929F92AF92BF920A
:101E1000CF92DF92EF92FF920F931F93CF93DF93B6
:101E2000CDB7DEB76B970FB6F894DEBF0FBECDBF50
:101E30009B8F8A8F1B014A01D22E19870887370191
:101E4000A982DC0159962D913C915A9721153105B3
:101E500009F0FFC018968D919C9119976817790722
:101E60000CF0E7C11A968D919C911B974817590762
:101E70000CF0DFC1EC2DF0E0FB83EA839B0146E030
:101E8000C49E200D311D11243D872C871216130688
:101E90000CF0CFC16A2D70E07B876A8783E0660F04
:101EA000771F8A95E1F77F876E87CB01880D991D93
:101EB000181619060CF0BDC158968C91811104C0FA
:101EC0008FEA8D1508F4D394AA8DBB8DED91FC910A
:101ED00011970284F385E02DCD010995B5E0DB9ED5
:101EE000C0011124EC2DF0E0F98BE88B91012B5F00
:101EF0003F4F3B8B2A8B3D822C822101AC01421942
:101F000053095D8B4C8B7981672F70E07F8B6E8BD3
:101F1000C4010896998F888FEC89FD89E40DF51D21
:101F2000E458FF4FD49054019F828E82D0FE16C099
:101F3000AA8DBB8DED91FC91B1E0CB1209C0298136
:101F4000213031F40484F585E02D2885398519C0C8
:101F50000684F785E02DE884F9841DC048855985FD
:101F60004615570519F1AA8DBB8DED91FC91B1E095
:101F7000CB120DC02981213051F40484F585E02D68
:101F80009301A501B2018A8D9B8D09950FC006842E
:101F9000F785E02D73010A851B852A813B814E81DF
:101FA0005F816C817D818A8D9B8D0995D6943FEFF1
:101FB000A31AB30A4E815F816E897F89460F571F2E
:101FC0005F834E83888D998DA816B90609F0AECF30
:101FD0009FEF491A590AAC81BD81E889F989AE0F92
:101FE000BF1FBD83AC832A893B894216530609F083
:101FF00093CF488559854615570509F4F8C0AA8D31
:10200000BB8DED91FC91B1E0CB1211C02981213043
:1020100071F4B1016B5F7F4F0088F189E02D83017E
:1020200028E030E0A4018A8D9B8D0995E0C06C8585
:102030007D854A815B81641B750B0684F785E02DE5
:1020400073010E851F859A01A4018A8D9B8D0995C8
:10205000CEC0F9013496E491DE1AF90132968591E9
:102060009491B7E0DB9E800D911D1124F90125911B
:1020700034913B8B2A8BFC01259134915901FC0151
:1020800032965490319634913C87329674903196C2
:10209000149141E04C1518F05981523068F0672DC9
:1020A000072C000C770B7D836C83812F012E000C95
:1020B000990B9B838A8304C01B821A821D821C8217
:1020C000AA8DBB8DED91FC9111970284F385E02DD3
:1020D000CD010995412CD12C612CF981EF2FF0E035
:1020E000FF83EE832C2D30E03B872A87A401410F2C
:1020F000511D17FD5A955F8B4E8BB101670D711DF8
:1021000077FC7A95798F688F7C85671608F06FC0A9
:10211000262D30E04A815B81420F531FAE81BF8183
:10212000A49FC001A59F900DB49F900D1124F401B0
:10213000E80FF91FF98BE88B842D712C4E895F898C
:10214000420F531F5D8B4C8B751408F04DC051E04E
:10215000580F5E87877041F4C5010196EA89FB89B3
:10216000EA0DFB1DD4905C01D7FE3AC061E0C612B7
:1021700016C07981713099F4AA8DBB8DED91FC91D7
:1021800011970484F585E02D288539854C895D8972
:10219000688D798D670D711DCD01099521C08C81E8
:1021A0009D81870D911DEA85FB858E9FB0018F9FD4
:1021B000700D9E9F700D1124620D731DAA8DBB8D35
:1021C000ED91FC9111970684F785E02DE884F98460
:1021D0000E811F812A853B8548895989CD01099542
:1021E000DD0C73948E85B0CF450C63948DCFAA8D92
:1021F000BB8DED91FC9111970688F789E02DCD01FB
:102200006B960FB6F894DEBF0FBECDBFDF91CF91B6
:102210001F910F91FF90EF90DF90CF90BF90AF9004
:102220009F908F907F906F905F904F903F902F90F6
:1022300009946B960FB6F894DEBF0FBECDBFDF9149
:10224000CF911F910F91FF90EF90DF90CF90BF90B3
:10225000AF909F908F907F906F905F904F903F9046
:102260002F9008958F929F92AF92BF92CF92DF925C
:10227000EF92FF920F931F93CF93DF93EC014901ED
:10228000BE2CAF2CE881F98102A4F3A5E02D0995BD
:102290009401D8010E94981A611571058105910574
:1022A00009F481C02DA921110FC061507109810964
:1022B000910908F478C0AEBC0DB407FEFDCFBEBCDA
:1022C0000DB407FEFDCFF1CF213009F03FC06150C2
:1022D00071098109910908F466C03A2D28E0E9A145
:1022E000FAA1508137FF03C04DA1452B02C04EA17A
:1022F00045234083EBA1FCA150814FA1452B408396
:10230000EBA1FCA1508148A545234083330F215008
:1023100031F73B2D28E0E9A1FAA1508137FF03C036
:102320004DA1452B02C04EA145234083EBA1FCA14A
:1023300050814FA1452B4083EBA1FCA1508148A5C2
:1023400045234083330F215031F7C1CFFE1017C012
:10235000EF8DF8A1F0826B017C01CC0CDD1CEE1C32
:10236000FF1CC114D104E104F104E9F0CE010E9484
:10237000201681E0C81AD108E108F108F2CF6B01FC
:102380007C01EF8DF8A1A082CE010E942016EF8D76
:10239000F8A1B082CE010E94201621E0C21AD10815
:1023A000E108F10871F7DF91CF911F910F91FF9034
:1023B000EF90DF90CF90BF90AF909F908F90089557
:1023C00090E0FC01E859FF4F2491FC01E458FA4FDA
:1023D0003491FC01E656FA4FE491EE2309F43CC037
:1023E000222339F1233091F038F42130A9F0223042
:1023F00001F584B58F7D12C0273091F02830A1F00F
:102400002430B9F4809180008F7D03C080918000DA
:102410008F77809380000DC084B58F7784BD09C00D
:102420008091B0008F7703C08091B0008F7D809342
:10243000B000F0E0EE0FFF1FE057FA4FA591B49106
:102440009FB7F894611104C08C913095382302C075
:10245000EC913E2B3C939FBF0895CF93DF9390E088
:10246000FC01E458FA4F2491FC01E656FA4F84919E
:10247000882361F190E0880F991FFC01E35EF94F1A
:10248000C591D491FC01E057FA4FA591B491611127
:1024900009C09FB7F8948881209582238883EC91A6
:1024A0002E230BC0623061F49FB7F8948881322FDD
:1024B000309583238883EC912E2B2C939FBF06C0ED
:1024C0008FB7F894E8812E2B28838FBFDF91CF91AF
:1024D00008950E94BC1A611102C060E201C061E26D
:1024E00020E040E050E00C948A0EFC0187A987FDB3
:1024F00006C0A38DB48D9C9181A9892B8C9385A94D
:10250000811102C00C948B080895CF92DF92EF9254
:10251000FF920F931F93CF93DF93EC016A017B012E
:10252000452B462B472B31F4C12C42E1D42E4AE7F0
:10253000E42EF12C8FA987FD07C061E00E942D12C7
:1025400061E08FA90E94E01161E088AD0E942D1228
:1025500061E088AD0E94E0118DA9811152C040E078
:1025600052E16AE770E090E0C416D506E606F70689
:1025700040F476956795579547959F5F9630A1F7FC
:1025800097E081E08927982F906A969599A38170AA
:102590008AA31BA21CA21DA21EA21FB7F8948091A1
:1025A0005303811127C0E4EAF5E08491E6E8F5E001
:1025B0009491E82FF0E0EE0FFF1FE35EF94FA59135
:1025C000B491EC91E92321F461E08AE00E94E011EA
:1025D00061E08AE00E942D128CB580618CBD8CB5C3
:1025E00080648CBD61E08DE00E942D1261E08BE083
:1025F0000E942D12809153038F5F809353031FBF5E
:102600004BC08130B9F461E08AA50E942D1260E0D0
:102610008AA50E94E01161E08CA50E942D1260E065
:102620008CA50E94E0118BA587FD36C060E00E945A
:102630002D1232C00AE915E0F12CF8018491E82F3F
:10264000F0E0EE0FFF1FE057FA4F859194912F8D28
:1026500038A12817390741F461E08F2D0E942D120F
:1026600060E08F2D0E94E011F3940F5F1F4FF4E1A3
:10267000FF12E3CF61E08EA50E942D1261E08EA5CE
:102680000E94E0118FA587FD07C061E00E942D1216
:1026900061E08FA50E94E0118EA987FD2AC061E04C
:1026A0000E942D1261E08EA90E94E0112FEF81EEB1
:1026B00094E0215080409040E1F700C0000060E0CD
:1026C0008EA90E94E011EFEFF1EE24E0E150F0401E
:1026D0002040E1F700C0000061E08EA90E94E011F7
:1026E0008FEF93ECE9E081509040E040E1F700C0CB
:1026F00000008EA987FF10C020E040E050E061E0BC
:10270000CE010E948A0EFFEF22E587E0F1502040C3
:102710008040E1F700C00000EEEAF5E0CF0101964D
:1027200064916623E1F08F010E5F1F4FFC01F4906E
:10273000FF2DFF77EF2E2F2FA801CE010E948A0ECA
:10274000F801EE0DF11DF7FEE9CF2FEF82E597E0DE
:10275000215080409040E1F700C00000DFCF80EFC3
:1027600090E09987888780E491E09B878A87DF9152
:10277000CF911F910F91FF90EF90DF90CF90089530
:102780008F929F92AF92BF92CF92DF92EF92FF9281
:102790000F931F93CF93DF935C014B016A01E90113
:1027A00077FD53C0DC0118968D919C91199768179D
:1027B00079070CF04AC0209709F447C037FF07C0DB
:1027C000C9010196C80ED91ED195C195D109F5014F
:1027D00082859385C816D906C4F5A6014C0F5D1FE6
:1027E0009A012150310937FD30C0D7FE03C0EA01FC
:1027F000C12CD12C281739071CF0EC01CC19DD09AC
:10280000D501ED91FC910284F385E02DC501099578
:1028100078018E0121E030E0A601B401C5010E94DB
:102820003211D501ED91FC910688F789E02DC501A3
:10283000DF91CF911F910F91FF90EF90DF90CF909C
:10284000BF90AF909F908F900994DF91CF911F918F
:102850000F91FF90EF90DF90CF90BF90AF909F903F
:102860008F9008958F929F92AF92BF92CF92DF92F6
:10287000EF92FF920F931F93CF93DF935C016B0155
:102880004A01E90157FD53C0DC011A968D919C91D4
:102890001B97481759070CF04AC0209709F447C006
:1028A00037FF07C0C9010196C80ED91ED195C19541
:1028B000D109F50180859185C816D906C4F5A60110
:1028C0004C0F5D1F9A012150310937FD30C0D7FEF2
:1028D00003C0EA01C12CD12C281739071CF0EC01E8
:1028E000CC19DD09D501ED91FC910284F385E02D31
:1028F000C5010995780101E010E09E01A401B6012F
:10290000C5010E943211D501ED91FC910688F7892D
:10291000E02DC501DF91CF911F910F91FF90EF90B6
:10292000DF90CF90BF90AF909F908F900994DF91F0
:10293000CF911F910F91FF90EF90DF90CF90BF90BC
:10294000AF909F908F9008958F929F92AF92BF9279
:10295000CF92DF92EF92FF920F931F93CF93DF936B
:102960004C016B015A01E901209709F46CC0011573
:10297000110509F468C037FF07C0C9010196C80EE8
:10298000D91ED195C195D109F401A085B185CA168A
:10299000DB060CF058C017FF07C0C8010196A80E4F
:1029A000B91E119501951109F40182859385A81628
:1029B000B9060CF048C0F601EC0FFD1FAF01415005
:1029C000510957FD40C0B501600F711F9B01215097
:1029D000310937FD38C0D7FE03C0EF01C12CD12C1F
:1029E000B7FE03C08B01A12CB12C4A175B071CF06A
:1029F000ED01CC19DD09281739071CF08C010A19E3
:102A00001B09D401ED91FC910284F385E02DC401F2
:102A100009959E01A501B601C4010E943211D4019D
:102A2000ED91FC910688F789E02DC401DF91CF91EB
:102A30001F910F91FF90EF90DF90CF90BF90AF90DC
:102A40009F908F900994DF91CF911F910F91FF90EC
:102A5000EF90DF90CF90BF90AF909F908F900895B0
:102A6000EF92FF920F931F93CF93DF9377FD34C0C4
:102A7000DC011896ED91FC9119976E177F0764F5AC
:102A80002115310549F137FF07C0F90131964E0F85
:102A90005F1F319521953109DC011A96ED91FC916A
:102AA0001B974E175F07C4F4EA01C20FD31FDE0164
:102AB0001197B7FD11C057FF03C09E0140E050E0E1
:102AC000AE17BF071CF09F01241B350B780189014D
:102AD00021E030E00E943211DF91CF911F910F91E0
:102AE000FF90EF900895EF92FF920F931F93CF9373
:102AF000DF9357FD33C0DC011A96ED91FC911B97D3
:102B00004E175F075CF52115310541F137FF07C00E
:102B1000F90131966E0F7F1F319521953109DC0146
:102B20001896ED91FC9119976E177F07BCF4EB0195
:102B3000C20FD31FDE011197B7FD10C077FF03C08E
:102B40009E0160E070E0AE17BF071CF09F01261BDE
:102B5000370B780101E010E00E943211DF91CF9134
:102B60001F910F91FF90EF9008958F929F92AF92D7
:102B7000BF92CF92DF92EF92FF920F931F93CF936A
:102B8000DF9347012115310509F44DC001151105E9
:102B900009F449C037FF07C0F90131966E0F7F1F56
:102BA000319521953109DC011896AD90BC901997AB
:102BB0006A157B05C4F517FF07C0F80131964E0F63
:102BC0005F1F119501951109DC011A96ED91FC9199
:102BD0001B974E175F073CF56B01C20ED31EE60133
:102BE0002197D7FD20C07A01E00EF11ED701119781
:102BF000B7FD19C077FF03C0960160E070E057FF92
:102C000003C0870140E050E0CA15DB051CF09501C8
:102C1000261B370BAE17BF071CF08F01041B150BCB
:102C200074010E943211DF91CF911F910F91FF909B
:102C3000EF90DF90CF90BF90AF909F908F900895CE
:102C4000FC01A5A1B6A19C9182A589238C93A5A185
:102C5000B6A19C9181A5892B8C9308950F931F9306
:102C6000CF93DF93EC018B018DA9811109C01EBDAB
:102C70000DB407FEFDCF0EBD0DB407FEFDCF2FC076
:102C80008130E9F480E1E9A1FAA1208117FF03C0B6
:102C90009DA1922B02C09EA192239083EBA1FCA147
:102CA00020819FA1922B9083EBA1FCA1208198A56C
:102CB00092239083000F111F815029F710C0EF8DD0
:102CC000F8A11083CE010E942016EF8DF8A1008399
:102CD000CE01DF91CF911F910F910C942016DF91BF
:102CE000CF911F910F910895AF92BF92CF92DF9233
:102CF000EF92FF920F931F93CF93DF93EC0177FD39
:102D000038C088859985681779079CF557FD31C0CB
:102D10008A859B854817590764F569017A015B012B
:102D2000E881F9810284F385E02DCE010995E881DF
:102D3000F98102A4F3A5E02D01E010E021E030E0EC
:102D4000A701B501CE010995B601CE010E942E164C
:102D5000E881F9810688F789E02DCE01DF91CF91D6
:102D60001F910F91FF90EF90DF90CF90BF90AF90A9
:102D70000994DF91CF911F910F91FF90EF90DF9019
:102D8000CF90BF90AF900895EF92FF920F931F9353
:102D9000CF93DF93EC0177FD22C088859985681772
:102DA0007907ECF457FD1BC08A859B8548175907A6
:102DB000B4F47901E881F98102A4F3A5E02D01E0E2
:102DC00010E021E030E0CE010995B701CE01DF919E
:102DD000CF911F910F91FF90EF900C942E16DF91E1
:102DE000CF911F910F91FF90EF900895FC0185A95D
:102DF000811105C06EBD0DB407FEFDCF0895813071
:102E0000E1F488E0A1A1B2A12C9167FF03C095A1D4
:102E1000922B02C096A192239C93A3A1B4A12C91C2
:102E200097A1922B9C93660FA3A1B4A12C9190A57E
:102E300092239C93815031F70895A78DB0A16C9394
:102E4000CF010C942016CF93DF93EC01ED8DFE8D16
:102E500090818CA989238083CE010E94F616ED8D86
:102E6000FE8D90818BA9892B8083DF91CF9108956E
:102E7000AF92BF92CF92DF92EF92FF920F931F9388
:102E8000CF93DF93EC015B016A0121503109790195
:102E9000E60EF71E01501109040F151F6AE20E9489
:102EA0002317B501CE010E942E16B701CE010E9454
:102EB0002E166BE2CE010E942317B601CE010E94AE
:102EC0002E16B801CE010E942E166CE2CE01DF91C3
:102ED000CF911F910F91FF90EF90DF90CF90BF9017
:102EE000AF900C9423171F93CF93DF93EC01162F11
:102EF000E881F9810284F385E02D0995112311F011
:102F00006DAD01C06EADCE010E942317E881F9813D
:102F10000688F789E02DCE01DF91CF911F910994AA
:102F2000FC0185A9811104C091A182A19CBD8DBD28
:102F300008950F931F93CF93DF931F92CDB7DEB702
:102F40008C016370DC0156966C935697623059F091
:102F50006330C9F0613029F088E4898380EF90E024
:102F600007C088E211C088E8898380EF90E0D8012B
:102F700019969C938E93189780E491E01B969C93EE
:102F80008E931A970BC088EE898380E491E0F80154
:102F90009187808780EF90E093878287C8010E94A5
:102FA0009017D801D7968C91D79787FD09C05B966B
:102FB000ED91FC915C979081D2968C9189238083CE
:102FC000D8015D96ED91FC915E979081D4968C919D
:102FD0008923808366E3C8010E94F616D8015D96B6
:102FE000ED91FC915E979081D3968C91D397892B2C
:102FF0008083D5968C91823029F06981C8010E9426
:10300000F61609C0F80180A98823B9F369817A818D
:10301000C8010E942E16D801D7968C91D79787FDAC
:1030200009C05B96ED91FC915C979081D1968C9153
:10303000892B8083F80185A9811102C00E948B0829
:103040000F90DF91CF911F910F910895569A5A9A40
:10305000E0918102F091820282E08083E0917D0222
:10306000F0917E021082E0917F02F09180028FEC5D
:10307000808310928902E0918502F091860286E0B9
:103080008083E0918302F09184028081806180835B
:10309000E0918302F0918402808188608083E091D6
:1030A0008302F0918402808180688083E0918302B2
:1030B000F091840280818F7D80837894789484B5A8
:1030C000826084BD84B5816084BD85B5826085BD24
:1030D00085B5816085BD80916E00816080936E00B2
:1030E00010928100809181008260809381008091A4
:1030F0008100816080938100809180008160809355
:1031000080008091B10084608093B1008091B00014
:1031100081608093B00080917A00846080937A000F
:1031200080917A00826080937A0080917A00816039
:1031300080937A0080917A00806880937A00109260
:10314000C1001092E4011092E30110924202109229
:1031500064020E946D088FEF95E09093BD0180930B
:10316000BC0180E096E09093C1018093C00101E032
:103170000093410212E510936302109242021092F2
:10318000640280EF90E00E94F90E85E590E00E94D5
:10319000F90E0E94A90C0093410210936302109251
:1031A0004202109264028BEF90E00E94F90E80E0E0
:1031B00090E00E94F90E0E94A90C8AEF0E94950DE2
:1031C00040E050E0BA018EE093E00E94851260E09A
:1031D00070E08EE093E00E94210484B5836084BD9A
:1031E00085B5886085BD84B5806484BD85B5816002
:1031F00085BD8DE887BD80916E00826080936E00F2
:1032000016BCE89A8091690081608093690011E0A2
:10321000609103017091040140E050E08091010150
:10322000909102010E94DC0B80E00E94950D40917C
:103230000F02409305023091100230930602209154
:1032400014028091110254E0859FB0011124922F45
:103250009C70892F90E09595879595958795862BFD
:10326000972B90930802809307028091120294E0BA
:10327000899FB0011124922F9073892F90E0E4E090
:1032800095958795EA95E1F7862B972B90930A02FF
:10329000809309028091130254E0859FC00111249C
:1032A000522F5295569556955370852B90930C023C
:1032B00080930B02822F8170812780930D022695C7
:1032C0002170C22F80E0D82FCE0121E08227809389
:1032D0000E028091030190910401453E10F0019689
:1032E00003C04C3128F401979093040180930301AB
:1032F0008091010190910201353E10F0019603C0CA
:103300003C3128F401979093020180930101609170
:103310000301709104014FE158EF809101019091F8
:1033200002010E94DC0B5FEF80E792E05150804089
:103330009040E1F700C000006BCFE5E6F2E01382B9
:10334000128288EE93E0A0E0B0E084839583A683A8
:10335000B78329E031E031832083E1E7F2E0138293
:10336000128284839583A683B7838BE191E0918356
:10337000808385EC90E09587848784EC90E0978744
:10338000868780EC90E0918B808B81EC90E0938B32
:10339000828B82EC90E0958B848B86EC90E0978B0F
:1033A000868B118E128E138E148EAEE0B3E01396C0
:1033B0001C921E92129720EF30E015963C932E93AC
:1033C000149780E491E017969C938E931697199624
:1033D0003C932E9318971B969C938E931A97569610
:1033E0001C9256971D961C921E921C971F961C921B
:1033F0001E921E9781E055968C93559754968C9308
:1034000054972FEF3FEF53963C932E93529751963C
:103410003C932E93509757968C93579758961C929F
:1034200058975A961C921E925997D5961C92D597EA
:103430008FEFD6968C93D6978AE0D7968C93D797B2
:1034400089E0D8968C93D897DA961C921E92D997D9
:10345000DC961C921E92DB97DD961C92DD97DE9621
:103460001C92DE9710924D0310924E0310924F0360
:103470001092500381E593E090969C938E935F9712
:10348000E3EAF5E0E491F0E0EE0FFF1FE057FA4FBA
:10349000859194915E969C938E935D97E5E8F5E017
:1034A0008491D3968C93D397E4EAF5E0E491F0E02D
:1034B000EE0FFF1FE057FA4F259134915C963C9335
:1034C0002E935B97E6E8F5E0E491D196EC93D197E3
:1034D000E095D296EC93D297E82FE095D496EC93B2
:1034E000D4978DE591E08D939C930895A1E21A2ED7
:1034F000AA1BBB1BFD010DC0AA1FBB1FEE1FFF1F98
:10350000A217B307E407F50720F0A21BB30BE40BE7
:10351000F50B661F771F881F991F1A9469F760952E
:103520007095809590959B01AC01BD01CF010895E8
:103530000E94A01A332312F48A1B9B0B0C94B11A1D
:10354000A29FB001B39FC001A39F700D811D1124E4
:10355000911DB29F700D811D1124911D08950E942F
:10356000A01AB7FF0895821B930B0895EE0FFF1F5B
:103570000590F491E02D099481E090E0F8940C948A
:06358000C11AF894FFCF10
:10358600017800A0000000000059062C068107F50E
:10359600042406100601060000000011078806B282
:1035A600065E07E306C106D50600000000950788FB
:1035B600068107800774168407C416B5153015737F
:1035C600152505751240037317C0133214A4142170
:1035D60004B40355036912691200000000950788B8
:1035E600068107800774168407C416B5153015734F
:1035F600152505751299176B12C0133214A41421E0
:0C36060004B4035503851238170D0A00A8
:00000001FF
