:100000000C9417030C9423050C943F030C943F03AA
:100010000C943F030C943F030C943F030C943F0358
:100020000C943F030C943F030C943F030C94BB05CA
:100030000C943F030C943F030C944B040C943F032B
:100040000C94A3090C943F030C94B3070C94E5079C
:100050000C943F030C943F030C943F030C943F0318
:100060000C942D0F0C943F030000000800020100C7
:100070000003040700000000000000000102040863
:100080001020408001020408102001020408102002
:10009000040404040404040402020202020203032E
:1000A0000303030300000000250028002B000000CC
:1000B0000000240027002A0000000000003E5B4FE3
:1000C0005B3E3E6B4F6B3E1C3E7C3E1C183C7E3CB8
:1000D000181C577D571C1C5E7F5E1C00183C1800C6
:1000E000FFE7C3E7FF0018241800FFE7DBE7FF3056
:1000F000483A060E2629792926407F050507407FC4
:1001000005253F5A3CE73C5A7F3E1C1C08081C1C36
:100110003E7F14227F22145F5F005F5F06097F012C
:100120007F006689956A606060606094A2FFA29417
:1001300008047E040810207E201008082A1C0808E5
:100140001C2A08081E101010100C1E0C1E0C303833
:100150003E3830060E3E0E06000000000000005F34
:1001600000000007000700147F147F14242A7F2A50
:100170001223130864623649562050000807030012
:10018000001C2241000041221C002A1C7F1C2A085E
:10019000083E0808008070300008080808080000C1
:1001A00060600020100804023E5149453E00427F35
:1001B000400072494949462141494D331814127F84
:1001C0001027454545393C4A494931412111090724
:1001D0003649494936464949291E000014000000A5
:1001E0004034000000081422411414141414004177
:1001F00022140802015909063E415D594E7C121134
:10020000127C7F494949363E414141227F4141416B
:100210003E7F494949417F090909013E41415173E6
:100220007F0808087F00417F41002040413F017F57
:10023000081422417F404040407F021C027F7F041F
:1002400008107F3E4141413E7F090909063E415168
:10025000215E7F09192946264949493203017F0158
:10026000033F4040403F1F2040201F3F4038403F59
:10027000631408146303047804036159494D43006F
:100280007F4141410204081020004141417F0402A6
:10029000010204404040404000030708002054543D
:1002A00078407F284444383844444428384444281B
:1002B0007F385454541800087E090218A4A49C786E
:1002C0007F0804047800447D40002040403D007FCA
:1002D0001028440000417F40007C047804787C08AA
:1002E0000404783844444438FC182424181824247E
:1002F00018FC7C08040408485454542404043F4463
:10030000243C4040207C1C2040201C3C4030403C91
:1003100044281028444C9090907C4464544C4400F1
:100320000836410000007700000041360800020155
:100330000204023C2623263C1EA1A161123A404041
:10034000207A3854545559215555794122545478BE
:1003500042215554784020545579400C1E52721257
:1003600039555555593954545459395554545800E0
:1003700000457C410002457D420001457C407D12E4
:1003800011127DF0282528F07C5455450020545446
:100390007C547C0A097F4932494949323A444444F1
:1003A0003A324A4848303A4141217A3A424020782C
:1003B000009DA0A07D3D4242423D3D4040403D3C2D
:1003C00024FF2424487E4943662B2FFC2F2BFF0952
:1003D00029F620C0887E0903205454794100004446
:1003E0007D413048484A32384040227A007A0A0A31
:1003F000727D0D19317D2629292F282629292926A4
:1004000030484D4020380808080808080808382FE8
:1004100010C8ACBA2F102834FA00007B0000081472
:100420002A142222142A14085500550055AA55AA48
:1004300055AAFF55FF55FF000000FF00101010FFE8
:1004400000141414FF001010FF00FF1010F010F043
:10045000141414FC001414F700FF0000FF00FF1434
:1004600014F404FC141417101F10101F101F141480
:10047000141F00101010F0000000001F10101010CA
:100480001F10101010F010000000FF1010101010BE
:1004900010101010FF10000000FF140000FF00FFFC
:1004A00000001F10170000FC04F414141710171498
:1004B00014F404F40000FF00F714141414141414BA
:1004C000F700F7141414171410101F101F1414142D
:1004D000F4141010F010F000001F101F0000001F97
:1004E00014000000FC140000F010F01010FF10FFCA
:1004F000141414FF141010101F00000000F010FF5F
:10050000FFFFFFFFF0F0F0F0F0FFFFFF0000000042
:1005100000FFFF0F0F0F0F0F3844443844FC4A4AC6
:100520004A347E02020606027E027E02635549417B
:10053000633844443C04407E201E2006027E0202B2
:1005400099A5E7A5991C2A492A1C4C7201724C30C6
:100550004A4D4D303048784830BC625A463D3E499D
:100560004949007E0101017E2A2A2A2A2A44445F41
:10057000444440514A444040444A51400000FF0135
:1005800003E080FF000008086B6B08361236243643
:10059000060F090F060000181800000010100030A8
:1005A00040FF0101001F01011E00191D1712003C30
:1005B0003C3C3C0000000000EF03038002CF03003E
:1005C000C130ED0464031281E803850078CB05395E
:1005D0002C003402F70120EA020000C00123C1010F
:1005E00010C5023E28C701863601483701003A018E
:1005F00055B1020018B603088227F2010026010156
:10060000E00F0F312B0C0E084EF1370710030E09C7
:1006100000E10F000E1403110731C148080F0C311F
:10062000360F118029800000F6050B089F0C11245D
:100630001FBECFEFD8E0DEBFCDBF11E0A0E0B1E03C
:10064000E2EBF6E402C005900D92A23EB107D9F7A5
:1006500023E0A2EEB1E001C01D92A33EB207E1F794
:1006600013E0C7E1D3E004C02197FE010E947B1F85
:10067000C431D107C9F70E94FD050C9457230C948F
:100680000000089580E090E008950F931F93CF93AA
:10069000DF938901C1E1D2E09D878C877F876E87D8
:1006A0008FEF9FEF9B8B8A8B998B888B642FCE016A
:1006B0000E942C1681E08F8BB801CE01DF91CF9183
:1006C0001F910F910C949509CF92DF92EF92FF92B8
:1006D0000F931F93CF93DF93EC016B0180EEE82E15
:1006E000FF24FA940AE010E02AE030E0AB01BE01FA
:1006F00081E192E00E945B1C95E6E92E99E2F92ED9
:1007000001E010E02AE030E0A601BE0181E192E0C4
:100710000E945B1C0AE010E021E030E0A601BE016F
:1007200081E192E00E945B1CA601475F5F4F01E000
:1007300010E02AE030E0BE0181E192E00E945B1C03
:10074000BE01675F7F4F0AE010E021E030E0A601C4
:1007500081E192E00E945B1CDF91CF911F910F918C
:10076000FF90EF90DF90CF900895EF92FF920F935C
:100770001F93780189019A01AB01BC0181E192E0EC
:100780000E945B1C1F910F91FF90EF9008958F9234
:100790009F92AF92BF92CF92DF92EF92FF920F9310
:1007A0001F93CF93DF937C01EB0126E0249FC001D0
:1007B000259F900D11249C01255F3E4F6901F90191
:1007C0000081118124E130E044E150E0C7010E9442
:1007D000B50305E619E223E030E044E150E0BE0154
:1007E000C7010E94B50324E130E043E050E0BE01C0
:1007F000C7010E94B503BE016F5E7F4F23E030E06A
:1008000044E150E0C7010E94B50324E130E043E039
:1008100050E0BE01C70141960E94B503F6018280F7
:1008200093805701F3E0AF0EB11CBE01615F7F4FB3
:10083000840122E030E04EE050E0C5010E94B503A3
:1008400023962EE030E042E050E0BE01C7010F9653
:100850000E94B503F601E480F580870122E030E0D4
:100860004EE050E0BE01C5010E94B5032EE030E02D
:1008700042E050E0BE01C5010E94B503DF91CF9177
:100880001F910F91FF90EF90DF90CF90BF90AF90AE
:100890009F908F9008951F920F920FB60F92112480
:1008A0002F933F934F935F938F939F93EF93FF9378
:1008B00080911002882351F180910F02811126C08E
:1008C00080910D0290910E02019690930E028093FA
:1008D0000D02843A964009F0A9C01092ED011092E1
:1008E000EC011092100281E08093040110920E023C
:1008F00010920D028091E9019091EA010196909386
:10090000EA018093E9011092EB0190C080910B0203
:1009100090910C02892B09F489C080910F028111FA
:1009200020C081E080930F022091F0012223B9F0D2
:10093000E0EFF1E044E052E08181811102C01082D9
:1009400001C0808331964E175F07B1F78091EE01A9
:100950009091EF0101979093EF018093EE01209326
:100960000A022091080230910902809106029091BA
:1009700007022817390709F050C0809104029091AE
:100980000502009731F484B5806484BD81E090E075
:100990003CC08930910571F1E4F084B58F7B84BD52
:1009A000809104029091050201968A33910569F5C0
:1009B00010920502109204025A9A80910B029091B3
:1009C0000C02019790930C0280930B0210920F027D
:1009D00020C0019721E030E0A90102C0440F551F5B
:1009E0008A95E2F7CA0120910A0230E0822393231C
:1009F000892B19F084B5806402C084B58F7B84BDD7
:100A000080910402909105020196909305028093D3
:100A1000040210920902109208028091080290913B
:100A2000090201969093090280930802FF91EF91C9
:100A30009F918F915F914F913F912F910F900FBE9A
:100A40000F901F9018951F920F920FB60F921124BE
:100A5000FF920F931F932F933F934F935F936F9347
:100A60007F938F939F93AF93BF93CF93DF93EF9336
:100A7000FF9380910F02811168C080911002811153
:100A800004C081E08093100260C060910D027091FB
:100A90000E02072E000C880B990B0E9491202091CA
:100AA000E5013091E6014091E7015091E8010E9493
:100AB000EE1F20E030E040E05FE30E94821F0E94D2
:100AC00050238B012091EC013091ED01232B41F457
:100AD0000150110921E030E03093ED012093EC0149
:100AE000709104012091EC013091ED016091EB01D6
:100AF00040E050E0F9013197A1E0B0E04017510724
:100B00007CF4772351F0EF01C40FD51FCD0102C053
:100B1000880F991FCA95E2F7682B4F5F5F4FEECFA2
:100B2000C80117FF02C080E090E0820F931F9093EE
:100B3000ED018093EC016093EB0110920E02109294
:100B40000D0281E0872780930401FF91EF91DF91EF
:100B5000CF91BF91AF919F918F917F916F915F9155
:100B60004F913F912F911F910F91FF900F900FBECA
:100B70000F901F9018951F920F920FB60F9211248D
:100B80002F933F934F935F936F937F938F939F9395
:100B9000AF93BF93EF93FF930E94ED09EFE6F0E070
:100BA00080818D7F808382E08093810081E08093CB
:100BB0008000E0E0F0E090818091E401809589235D
:100BC00080831092E40180818083FF91EF91BF9137
:100BD000AF919F918F917F916F915F914F913F91D5
:100BE0002F910F900FBE0F901F9018952FEF49E097
:100BF0006AE081E192E00C94221ECF93DF9300D053
:100C000000D000D0CDB7DEB7789426E040E855E2BA
:100C100060E070E084E592E00E9406098AEF92E0CD
:100C20000E94060C62E589EC93E00E94061F40E0FA
:100C300050E0BA0181E192E00E945C1D60E070E04A
:100C400081E192E00E94F3110CE211E040E050E0FB
:100C5000B80180E090E00E94C70340E050E0B80196
:100C60008CED90E00E94C703045111090C3311056B
:100C700069F704E110E040E050E060E570E0C80191
:100C80000E94C7030C5E1F4F0C3D1105A1F763E2E4
:100C900070E08EE190E00E94640363E270E088E21D
:100CA00090E00E9464036DE270E08EE190E00E94AB
:100CB000640385E6E82E89E2F82E0EE310E02EE3C9
:100CC00030E049E050E069E070E081E192E00E94AC
:100CD0007D120CE310E02CE330E04AE050E06AE0E3
:100CE00070E081E192E00E947D1205E619E22CE0BD
:100CF00030E04CE350E06AE070E08AE090E00E946F
:100D0000B5036DE171E0CE0101960E94230B9E01B7
:100D10002F5F3F4F41E050E06DE070E08DE190E0EB
:100D20000E944503CE0101960E94B20A63E270E080
:100D30008EEB90E00E94640363E270E088EC90E048
:100D40000E9464036DE270E08EEB90E00E94640309
:100D50006DE270E088EC90E00E9464030EE310E026
:100D60002EE330E049E050E069EA70E081E192E092
:100D70000E947D120CE310E02CE330E04AE050E0EA
:100D80006AEA70E081E192E00E947D1205E619E2D4
:100D90002CE030E04CE350E06AE070E08AEA90E05A
:100DA0000E94B50362E271E0CE0101960E94230B1E
:100DB0009E012F5F3F4F41E050E06DE070E08CEB13
:100DC00090E00E944503CE0101960E94B20A67E2BC
:100DD00071E0CE0101960E94230B9E012F5F3F4FD1
:100DE00041E050E069E170E089E690E00E9445034F
:100DF000CE0101960E94B20A6EE271E0CE01019628
:100E00000E94230B9E012F5F3F4F42E050E063E2C0
:100E100070E089E690E00E944503CE0101960E94B1
:100E2000B20A41E050E060EF70E084E190E00E949F
:100E3000C70341E050E064E071E084E190E00E948B
:100E4000C70341E050E068E171E084E190E00E9476
:100E5000C70341E050E06CE271E084E190E00E9461
:100E6000C70342E050E06CE870E084E690E00E9446
:100E7000C70342E050E06CE870E088E790E00E9431
:100E8000C70342E050E060EA70E084E690E00E9430
:100E9000C70342E050E060EA70E088E790E00E941B
:100EA000C7038EEC90E09093E3018093E20182E827
:100EB00090E0909307028093060280E090E0A7E024
:100EC000B3E48093E5019093E601A093E701B0932A
:100ED000E801569A5A9A84B5836084BD85B58860C6
:100EE00085BD85B5816085BD8091E20187BD80911A
:100EF0006E00826080936E0016BCE89A8091690053
:100F000081608093690062E589EC93E00E94A91EEC
:100F10008091C903853E30F08091020190910301D8
:100F2000019607C08C3148F4809102019091030131
:100F3000019790930301809302018091CA03853E3B
:100F400030F08091000190910101019607C08C3131
:100F5000D0F68091000190910101019790930101D9
:100F600080930001D0CF1F920F920FB60F921124E1
:100F70002F938F939F93EF93FF93E0916402F091EF
:100F800065028081E0916A02F0916B0282FD12C0DD
:100F9000908180916D028F5F8F7320916E02821716
:100FA00051F0E0916D02F0E0EC5AFD4F958F809387
:100FB0006D0201C08081FF91EF919F918F912F91E0
:100FC0000F900FBE0F901F9018951F920F920FB6A3
:100FD0000F9211242F933F934F935F936F937F93BF
:100FE0008F939F93AF93BF93EF93FF9384E592E02A
:100FF0000E947508FF91EF91BF91AF919F918F91E2
:101000007F916F915F914F913F912F910F900FBE04
:101010000F901F901895E4E5F2E01382128288EE9B
:1010200093E0A0E0B0E084839583A683B78386E352
:1010300091E09183808385EC90E09587848784ECB0
:1010400090E09787868780EC90E0918B808B81EC95
:1010500090E0938B828B82EC90E0958B848B86EC76
:1010600090E0978B868B118E128E138E148E0895BE
:10107000FC01918D228D892F90E0805C9F4F821B17
:1010800091098F7399270895FC01918D828D98178E
:1010900031F0828DE80FF11D858D90E008958FEF7E
:1010A0009FEF0895FC01918D828D981761F0828DDC
:1010B000DF01A80FB11D5D968C91928D9F5F9F738C
:1010C000928F90E008958FEF9FEF0895FC01538D6C
:1010D000448D252F30E0842F90E0821B930B541712
:1010E00010F0CF96089501970895FC01848DDF01DB
:1010F000A80FB11DA35ABF4F2C91848D90E001968B
:101100008F739927848FA689B7892C93A089B18979
:101110008C91837080648C93938D848D981306C01A
:101120000288F389E02D80818F7D80830895EF927E
:10113000FF920F931F93CF93DF93EC0181E0888F91
:101140009B8D8C8D981305C0E889F989808185FD78
:1011500026C0F62E0B8D10E00F5F1F4F0F73112767
:10116000E02E8C8DE8120CC00FB607FCFACFE88990
:10117000F989808185FFF5CFCE010E947508F1CFF6
:101180008B8DFE01E80FF11DE35AFF4FF0829FB7F0
:10119000F8940B8FEA89FB89808180620AC09FB72F
:1011A000F894EE89FF896083E889F98980818370EA
:1011B000806480839FBF81E090E0DF91CF911F9199
:1011C0000F91FF90EF900895CF93DF93EC01888DFE
:1011D0008823C9F0EA89FB89808185FD05C0A8893B
:1011E000B9898C9186FD0FC00FB607FCF5CF8081C1
:1011F00085FFF2CFA889B9898C9185FFEDCFCE010B
:101200000E947508E7CFDF91CF910895CF92DF92CA
:10121000EF92FF921F93CF93DF93EC016A017B0162
:10122000122FE889F98982E080834115514E6105CA
:101230007105B1F060E079E08DE390E0A7019601DF
:101240000E943B1FDA01C9010197A109B109B695B6
:10125000A795979587959C01211580E13807A8F0FF
:10126000E889F989108260E874E88EE190E0A701CE
:1012700096010E943B1FDA01C9010197A109B1093A
:10128000B695A795979587959C01EC85FD8530834C
:10129000EE85FF852083188EEC89FD891083EA890D
:1012A000FB89808180618083EA89FB8980818860F5
:1012B0008083EA89FB89808180688083EA89FB8951
:1012C00080818F7D8083DF91CF911F91FF90EF9080
:1012D000DF90CF900895CF92DF92EF92FF920F931D
:1012E0001F93CF93DF936C017A018B01C0E0D0E0B4
:1012F000CE15DF0581F0D8016D918D01D601ED91FC
:10130000FC910190F081E02DC6010995892B11F027
:101310002196EECF7E01C701DF91CF911F910F91F2
:10132000FF90EF90DF90CF900895DB0114964D91E0
:101330005C9115976D917C91DC01ED91FC9102809F
:10134000F381E02D09941F920F920FB60F92112492
:101350002F933F938F939F93AF93BF938091F2020C
:101360009091F302A091F402B091F5023091F10254
:1013700023E0230F2D3720F40196A11DB11D05C0D8
:1013800026E8230F0296A11DB11D2093F102809340
:10139000F2029093F302A093F402B093F5028091CD
:1013A000F6029091F702A091F802B091F90201962D
:1013B000A11DB11D8093F6029093F702A093F8024D
:1013C000B093F902BF91AF919F918F913F912F916F
:1013D0000F900FBE0F901F9018952FB7F894609143
:1013E000F2027091F3028091F4029091F5022FBF06
:1013F00008953FB7F8948091F6029091F702A0917A
:10140000F802B091F90226B5A89B05C02F3F19F04C
:101410000196A11DB11D3FBFBA2FA92F982F882774
:10142000820F911DA11DB11DBC01CD0142E0660FCF
:10143000771F881F991F4A95D1F70895833081F04F
:1014400028F4813099F08230A1F008958730A9F016
:101450008830B9F08430D1F4809180008F7D03C052
:10146000809180008F7780938000089584B58F7776
:1014700002C084B58F7D84BD08958091B0008F77C0
:1014800003C08091B0008F7D8093B0000895CF930A
:10149000DF9390E0FC01E458FF4F2491FC01E057FA
:1014A000FF4F8491882361F190E0880F991FFC0120
:1014B000E255FF4FC591D491FC01EC55FF4FA5912A
:1014C000B491611109C09FB7F89488812095822357
:1014D0008883EC912E230BC0623061F49FB7F8949F
:1014E0008881322F309583238883EC912E2B2C9387
:1014F0009FBF06C08FB7F894E8812E2B28838FBF3B
:10150000DF91CF9108951F93CF93DF93282F30E081
:10151000F901E859FF4F8491F901E458FF4FD49144
:10152000F901E057FF4FC491CC23C1F0162F811170
:101530000E941E0AEC2FF0E0EE0FFF1FEC55FF4F4C
:10154000A591B4919FB7F894111104C08C91D095D6
:10155000D82302C0EC91DE2BDC939FBFDF91CF91AB
:101560001F910895FC0180819181009711F00C94E6
:10157000B5210895CF93DF93EC018881998100977D
:1015800011F00E94B521198218821D821C821B82D3
:101590001A82DF91CF9108950F931F93CF93DF931A
:1015A000EC018B016F5F7F4F888199810E943E2201
:1015B000009731F0998388831B830A8381E001C0FF
:1015C00080E0DF91CF911F910F910895CF93DF932A
:1015D000EC0188819981892B29F08A819B8186176A
:1015E000970760F4CE010E94CC0A882341F08C81D9
:1015F0009D81892B19F4E881F981108281E0DF91C6
:10160000CF910895EF92FF920F931F93CF93DF93A3
:10161000EC017B018A01BA010E94E60A811104C033
:10162000CE010E94BA0A07C01D830C83B7018881CE
:1016300099810E941223CE01DF91CF911F910F91CA
:10164000FF90EF900895FC011182108213821282A4
:10165000158214826115710551F0FB010190002083
:10166000E9F73197AF01461B570B0C94020B089515
:1016700080912E0390E020912F03821B9109089501
:1016800090912F0380912E03981750F4E92FF0E0EA
:10169000E05DFC4F208130E09F5F90932F0302C0FC
:1016A0002FEF3FEFC9010895E0912F0380912E03A2
:1016B000E81730F4F0E0E05DFC4F808190E00895A1
:1016C0008FEF9FEF08950895CF93DF93EC01E091A2
:1016D0000603F09107033097F1F090912F0380916A
:1016E0002E039817C0F090E0292F30E02617370717
:1016F00054F4DE01A20FB31F4C91D901A05DBC4F81
:101700004C939F5FF1CF10922F0360932E03CB0178
:10171000DF91CF910994DF91CF910895E091080373
:10172000F0910903309729F010920C0310920B03EB
:1017300009940895CF92DF92EF92FF920F931F9337
:10174000CF93DF937C01CB018A0120910A032223EE
:1017500089F0EB016B01C40ED51ECC15DD0569F0D7
:101760006991D701ED91FC910190F081E02DC701C5
:101770000995F3CF642F0E94CE0CC801DF91CF9161
:101780001F910F91FF90EF90DF90CF900895CF932E
:10179000DF931F92CDB7DEB7698320910A0322231E
:1017A000D1F020910B03203240F021E030E0FC0129
:1017B0003383228380E090E015C080910C03E82FF2
:1017C000F0E0E35FFC4F998190838F5F80930C037F
:1017D00080930B0305C061E0CE0101960E94CE0C00
:1017E00081E090E00F90DF91CF910895FC0113828A
:1017F000128288EE93E0A0E0B0E084839583A68314
:10180000B78388E491E091838083089510922F0339
:1018100010922E0310920C0310920B030E94A30C43
:101820008EE89BE00E94FB0C84E69BE00C94F60C97
:1018300081E080930A0360932D0310920C031092B1
:101840000B0308950F93062F21E040910B036DE0E9
:1018500073E080912D030E94050E10920C031092EC
:101860000B0310920A030F9108954F925F926F92AB
:101870007F92AF92BF92CF92EF92FF920F931F93FE
:10188000CF93DF935C01F62ED42F28013901EE208F
:1018900021F10E94180CCE2DC43008F0C3E0C150D5
:1018A000C0F028E0C29FC0011124A301920104C02E
:1018B00056954795379527958A95D2F7CA01B9016C
:1018C000D501ED91FC910190F081E02DC5010995C4
:1018D000E6CF60E0C5010E94220C4D2FD13208F006
:1018E00040E22C2D60E373E08F2D0E941C0D1092BE
:1018F0002F0380932E03DF91CF911F910F91FF90C3
:10190000EF90CF90BF90AF907F906F905F904F908F
:101910000895CF92EF920F931F93C22EE12C00E017
:1019200010E098010E94350C1F910F91EF90CF901D
:10193000089521E00C94890C61E00C94220C8AEF4C
:1019400092E00C94F60B1092C30381E08093C103E4
:101950001092C00361E082E10E94830A61E083E1AA
:101960000E94830AE9EBF0E080818E7F8083808192
:101970008D7F808388E48093B80085E48093BC00E9
:101980000895ECEBF0E080818A7B808360E082E167
:101990000E94830A60E083E10C94830A4091720301
:1019A000262F30E0240F311D21323105DCF4209147
:1019B000C3032430C9F4FC0180E090E0861758F49A
:1019C000309172032191DC01AC58BC4FA30FB11DC3
:1019D0002C930196F3CF80917203680F609372038A
:1019E00080E0089581E0089582E008959093B70320
:1019F0008093B60308959093B9038093B803089534
:101A000085EC8093BC001092C3030895CF93DF93BD
:101A100091E09093BB03882361F0C091B800D0910E
:101A2000BA000E94C10C0E94A30CD093BA00C093CC
:101A3000B800DF91CF9108954F925F926F927F929D
:101A40008F929F92AF92BF92CF92DF92EF92FF92CE
:101A50000F931F93CF93DF93F82E162F072FC42FCA
:101A6000E22E413208F0BEC00E94F9094B015C0130
:101A7000D091C303DD2331F18091BC039091BD036C
:101A8000A091BE03B091BF03892B8A2B8B2B81F3CE
:101A90000E94F9094090BC035090BD036090BE03C2
:101AA0007090BF03DC01CB0188199909AA09BB0911
:101AB000481659066A067B06D8F68091BA030E943A
:101AC000060D90C081E08093C303E092C1039FEFB5
:101AD00090935003109295039C0F909394038093DE
:101AE000C2039091C2038F2D880F892B8093C2036C
:101AF0008091C003813089F51092C0030E94F909DA
:101B00006B017C018091C2038093BB008091BC0378
:101B10009091BD03A091BE03B091BF03892B8A2B86
:101B20008B2BA9F00E94F9098090BC039090BD0313
:101B3000A090BE03B090BF03DC01CB018C199D09BE
:101B4000AE09BF0988169906AA06BB0690F18091D6
:101B5000BC0083FDD7CF85EC01C085EE8093BC002F
:101B60000E94F9096B017C018091C303813031F53A
:101B70008091BC039091BD03A091BE03B091BF03BF
:101B8000892B8A2B8B2B81F30E94F9098090BC034F
:101B90009090BD03A090BE03B090BF03DC01CB01C9
:101BA0008C199D09AE09BF0988169906AA06BB06BD
:101BB000D8F68091BA030E94060D15C08091950356
:101BC0008C1710F4C0919503A6E9B3E0912FE12F93
:101BD000F02F8E2F891B8C1718F48D918193F9CFDC
:101BE000DC2F01C0D0E08D2FDF91CF911F910F919D
:101BF000FF90EF90DF90CF90BF90AF909F908F902D
:101C00007F906F905F904F9008954F925F926F9288
:101C10007F928F929F92AF92BF92CF92DF92EF927C
:101C2000FF920F931F93CF93DF93413208F0C6C00A
:101C3000122FF42ED72EE62ED82F0E94F9094B0131
:101C40005C01C091C303CC2311F18091BC0390913E
:101C5000BD03A091BE03B091BF03892B8A2B8B2BB0
:101C600081F30E94F9094090BC035090BD0360903D
:101C7000BE037090BF03DC01CB0188199909AA0942
:101C8000BB09481659066A067B06D8F683C082E06F
:101C90008093C3030093C1038FEF8093500310928E
:101CA0009503F09294039E2DA6E9B3E0EE2DFD2D51
:101CB0008E2F891B8F1518F481918D93F9CF109277
:101CC000C2039091C203DD0FD92BD093C203809140
:101CD000C003813089F51092C0030E94F9096B019D
:101CE0007C018091C2038093BB008091BC039091E2
:101CF000BD03A091BE03B091BF03892B8A2B8B2B10
:101D0000A9F00E94F9098090BC039090BD03A090B7
:101D1000BE03B090BF03DC01CB018C199D09AE0955
:101D2000BF0988169906AA06BB06A0F18091BC00DF
:101D300083FDD7CF85EC01C085EE8093BC000E9467
:101D4000F9096B017C01112359F18091C3038230A1
:101D500039F58091BC039091BD03A091BE03B09171
:101D6000BF03892B8A2B8B2B71F30E94F90980907A
:101D7000BC039090BD03A090BE03B090BF03DC01F4
:101D8000CB018C199D09AE09BF0988169906AA06D0
:101D9000BB06C8F68091BA030E94060DC5E013C0C9
:101DA000809150038F3F79F080915003803241F051
:101DB00080915003803331F0C4E005C0C1E003C01E
:101DC000C2E001C0C3E08C2FDF91CF911F910F9132
:101DD000FF90EF90DF90CF90BF90AF909F908F904B
:101DE0007F906F905F904F90089585ED8093BC0039
:101DF0008091BC039091BD03A091BE03B091BF033D
:101E00000796A11DB11D23E0B695A79597958795D7
:101E10002A95D1F72091BC0024FF1CC04091BC033F
:101E20005091BD036091BE037091BF03452B462BBB
:101E3000472B81F30097A105B10541F02AE22A95CD
:101E4000F1F700C00197A109B109E4CF8091BA036D
:101E50000C94060D1092C30308951F920F920FB6B3
:101E60000F9211242F933F934F935F936F937F9320
:101E70008F939F93AF93BF93EF93FF938091B9009C
:101E8000887F803609F49EC078F5883209F45DC0F9
:101E900090F4803109F456C038F4882309F4F5C071
:101EA000883009F44FC0F5C0883109F44EC0803243
:101EB00009F45FC0EEC0803409F46AC058F480337E
:101EC00009F457C0883309F0E4C0809350030E949E
:101ED000000DDFC0803509F44FC0883509F45DC0BE
:101EE000883409F0D6C0D3C0883909F4C4C0A8F436
:101EF000883709F467C038F4883609F463C080373E
:101F000009F460C0C6C0883809F4B5C0803909F446
:101F10005FC0803809F0BDC05BC0803B09F483C05E
:101F200038F4803A09F466C0883A09F47CC0B1C03C
:101F3000803C09F4A4C0883C09F4A1C0883B09F4A2
:101F400087C0A7C08091C20310C090919503809173
:101F50009403981770F5E091950381E08E0F8093BC
:101F60009503F0E0EA56FC4F80818093BB0085EC3E
:101F700083C0809350038BC0E091950381E08E0F66
:101F8000809395038091BB00F0E0EA56FC4F80837C
:101F900090919503809194036BC0E091950381E04B
:101FA0008E0F809395038091BB00F0E0EA56FC4FC2
:101FB00080838091C10381116AC081E08093C00356
:101FC00084EA5EC083E08093C30310925103CFCFB5
:101FD00080915103803208F04EC0E091510381E0BE
:101FE0008E0F809351038091BB00F0E0EE5AFC4FBE
:101FF0008083BDCF0E94000D80915103803230F468
:10200000E0915103F0E0EE5AFC4F108260915103D1
:1020100070E0E091B603F091B70382E593E0099593
:102020001092510336C084E08093C303109273036F
:1020300010927203E091B803F091B9030995809171
:102040007203811105C081E08093720310927403C2
:10205000E091730381E08E0F80937303F0E0EC58FE
:10206000FC4F80818093BB00909173038091720339
:10207000981708F47CCF85E88093BC000AC085ECF3
:102080008093BC001092C30304C0109250030E94BE
:10209000F50EFF91EF91BF91AF919F918F917F913D
:1020A0006F915F914F913F912F910F900FBE0F90C5
:1020B0001F9018952F923F924F925F926F927F924E
:1020C0008F929F92AF92BF92CF92DF92EF92FF9248
:1020D0000F931F93CF93DF9300D000D000D0CDB7E4
:1020E000DEB72C017E836D836A015901C801FC8231
:1020F000EB824801841A950A97FE03C0919481945B
:10210000910835012D813E81621A730A77FE03C062
:10211000719461947108681479045CF43A2D2B2D44
:102120005C01832F922F3D812E81DE82CD82C32ED2
:10213000D22EAD81BE81AA16BB065CF43C2D2D2D9E
:102140006C01832F922F3D812E81BE82AD82A32E02
:10215000B22E85012D813E81021B130B1C012C1810
:102160003D0837FE03C0319421943108780117FFF0
:1021700003C03FEFE31AF30AF594E794C816D906B3
:102180002CF08FEF9FEF9A83898304C0A1E0B0E029
:10219000BA83A9832D813E81A216B30624F1D20110
:1021A000ED91FC910484F585E02D2B813C81681430
:1021B000790424F44D815E81B60103C0A6016D81CE
:1021C0007E81C2010995E218F308F7FE06C0298155
:1021D0003A81C20ED31EE00EF11E8D819E810196C2
:1021E0009E838D83D7CF26960FB6F894DEBF0FBEA1
:1021F000CDBFDF91CF911F910F91FF90EF90DF90B6
:10220000CF90BF90AF909F908F907F906F905F9096
:102210004F903F902F900895DC01ED91FC91008448
:10222000F185E02D09940F931F93DC01ED91FC9152
:10223000048CF58DE02D09951F910F9108950F9352
:102240001F93DC01ED91FC91068CF78DE02D099533
:102250001F910F910895EF92FF920F931F93DC014E
:10226000ED91FC9100A0F1A1E02D09951F910F9136
:10227000FF90EF90089508958F929F92AF92BF9232
:10228000CF92DF92EF92FF920F931F93CF93DF9342
:10229000EC015B014A0169017801E881F98102845E
:1022A000F385E02D0995C80CD91C86010150110950
:1022B000E881F9810488F589E02D9501A401B50133
:1022C000CE010995E881F9810688F789E02DCE01D4
:1022D000DF91CF911F910F91FF90EF90DF90CF9002
:1022E000BF90AF909F908F9009948F929F92AF92E2
:1022F000BF92CF92DF92EF92FF920F931F93CF93F3
:10230000DF93EC015B014A016901E881F9810284F4
:10231000F385E02D099595012C0D3D1D21503109C6
:10232000E881F9810488F589E02D78018401A40110
:10233000B501CE010995E881F9810688F789E02D7C
:10234000CE01DF91CF911F910F91FF90EF90DF9021
:10235000CF90BF90AF909F908F9009944F925F92D3
:102360006F927F928F929F92AF92BF92CF92DF92A5
:10237000EF92FF920F931F93CF93DF936C012B018A
:102380005A0139014801DC01ED91FC910284F38589
:10239000E02D0995E201640C751CD601ED91FC91CC
:1023A000C615D7055CF40088F189E02D87019401FA
:1023B000A501BE01C60109952196EFCF0688F789D0
:1023C000E02DC601DF91CF911F910F91FF90EF900B
:1023D000DF90CF90BF90AF909F908F907F906F9045
:1023E0005F904F900994EF92FF920F931F93DC013F
:1023F0001A960D911C911B9718962D913C91199747
:10240000ED91FC9100A0F1A1E02D7B0140E050E0B6
:1024100060E070E009951F910F91FF90EF90089593
:102420008F929F92AF92BF92CF92DF92EF92FF92E4
:102430000F931F93CF93DF934C016B015A01E90176
:10244000DC01ED91FC916217730781F40417150705
:1024500024F48B2D5801042F182F0A191B099801F9
:102460002F5F3F4F048CF58DE02D12C040175107B0
:1024700009F52617370724F48D2D6901C62FD82FAB
:102480009E012C193D092F5F3F4F068CF78DE02DE3
:102490008701A501B601C4010995DF91CF911F9174
:1024A0000F91FF90EF90DF90CF90BF90AF909F90F3
:1024B0008F9008950284F385E02D0995D401ED9164
:1024C000FC910488F589E02D9E01A501B601C401A7
:1024D0000995D401ED91FC910688F789E02DC4019E
:1024E000DF91CF911F910F91FF90EF90DF90CF90F0
:1024F000BF90AF909F908F9009946F927F928F9230
:102500009F92AF92BF92CF92DF92EF92FF920F9382
:102510001F93CF93DF93EC014B015A0169013801FE
:10252000E881F9810284F385E02D0995E881F9813C
:102530000288F389E02D87019601A501B401CE013F
:102540000995A501460D571D41505109E881F981B2
:102550000288F389E02D9601B401CE010995E88146
:10256000F9810088F189E02D9301A501B401CE0124
:102570000995C80CD91CB60161507109E881F9812F
:102580000088F189E02D9301A501CE010995E8812C
:10259000F9810688F789E02DCE01DF91CF911F9157
:1025A0000F91FF90EF90DF90CF90BF90AF909F90F2
:1025B0008F907F906F9009940895FC016370668BF3
:1025C0008481958126813781613039F0633029F02B
:1025D0009187808733872287089531872087938763
:1025E00082870895FC01138212828AE591E091832B
:1025F000808375836483578346837187608753879D
:102600004287168A158614861786168681E0858B82
:10261000848B2FEF3FEF338B228B318B208B878B7B
:10262000108E128E118E08952F923F924F925F92CC
:102630006F927F928F929F92AF92BF92CF92DF92D2
:10264000EF92FF920F931F93CF93DF93CDB7DEB737
:102650006B970FB6F894DEBF0FBECDBF9B8F8A8FEE
:102660002B015A834983D22E198708874701AB82F1
:10267000DC0159962D913C915A972115310509F0AD
:1026800000C118968D919C911997681779070CF0E5
:10269000E7C11A968D919C911B97481759070CF02A
:1026A000DFC12C2C312CFB0126E0C29EE00DF11D78
:1026B0001124FD87EC871E161F060CF0D1C14A2D90
:1026C00050E05B874A8783E0440F551F8A95E1F706
:1026D0005F874E8789819A81840F951F1816190686
:1026E0000CF0BEC158968C91811104C06FEA6D1533
:1026F00008F4D394AA8DBB8DED91FC9111970284BF
:10270000F385E02DCD010995B5E0DB9EC0011124D4
:10271000EC2DF0E0F98BE88B92012B5F3F4F3B8B68
:102720002A8B32015D824C82AC01441955095D8BC4
:102730004C8B7B81672F70E07F8B6E8B89819A81B8
:102740000896998F888FEC89FD89E60DF71DE8546E
:10275000FF4FD490A981BA81BF83AE835D01D0FEC3
:1027600016C0AA8DBB8DED91FC91B1E0CB1209C0D2
:102770002B81213031F40484F585E02D28853985BD
:1027800019C00684F785E02DE884F9841DC04885CA
:1027900059854815590511F1AA8DBB8DED91FC9114
:1027A000B1E0CB120DC02B81213051F40484F585AA
:1027B000E02D9401A501B3018A8D9B8D09950EC072
:1027C0000684F785E02D74010A851B8591014E81F1
:1027D0005F816C817D818A8D9B8D0995D6944E8118
:1027E0005F816E897F89460F571F5F834E837FEF1E
:1027F000A71AB70A888D998DA816B90609F0AFCF28
:10280000AC81BD81E889F989AE0FBF1FBD83AC8360
:10281000FFEF6F1A7F0A2A893B896216730609F057
:1028200092CF488559854815590509F4F7C0AA8DF6
:10283000BB8DED91FC91B1E0CB1212C02B81213008
:1028400079F4B2016B5F7F4F0088F189E02D84013C
:1028500028E030E049815A818A8D9B8D0995DEC040
:102860006C857D85621973090684F785E02D7401F6
:102870000E851F85910149815A818A8D9B8D09950D
:10288000CDC0F9013496E491DE1AF90132968591B2
:102890009491B7E0DB9E800D911D1124F9012591E3
:1028A0003491398B288BFC0125903490FC013296B1
:1028B00074903196A490329694903196B49031E011
:1028C0003C1518F04B81423068F0692D092C000C42
:1028D000770B7D836C838B2D0B2C000C990B9F83C6
:1028E0008E8304C01F821E821D821C82AA8DBB8D16
:1028F000ED91FC9111970284F385E02DCD010995AE
:10290000612CD12C812CFB81EF2FF0E0FB87EA8733
:102910002C2D30E03D872C8749815A814B0D511D6C
:10292000B7FC5A955D8B4C8BB201690D711D97FCFC
:102930007A957F8B6E8B8A1408F070C0282D30E05A
:102940004E815F81420F531FAA85BB85A49FC001A2
:10295000A59F900DB49F900D1124E981FA81E80F95
:10296000F91FFF87EE87862D912C4C895D89420FD8
:10297000531F5B8B4A8B971408F04DC0BB24B39454
:10298000B80E877041F4C1010196E889F989E20D1A
:10299000F31DD4901C01D7FE3AC051E0C51216C0F9
:1029A0006B81613099F4AA8DBB8DED91FC911197EB
:1029B0000484F585E02D288539854A895B896E89EF
:1029C0007F89690D711DCD01099521C08C819D8183
:1029D000890D911DEC85FD858E9FB0018F9F700D37
:1029E0009E9F700D1124640D751DAA8DBB8DED91F8
:1029F000FC9111970684F785E02DE884F9840A8517
:102A00001B852C853D854E855F85CD010995DD0CA7
:102A100093948B2DB0CF670C83948DCFAA8DBB8DF3
:102A2000ED91FC9111970688F789E02DCD016B9609
:102A30000FB6F894DEBF0FBECDBFDF91CF911F91CF
:102A40000F91FF90EF90DF90CF90BF90AF909F904D
:102A50008F907F906F905F904F903F902F90099450
:102A60006B960FB6F894DEBF0FBECDBFDF91CF914E
:102A70001F910F91FF90EF90DF90CF90BF90AF909C
:102A80009F908F907F906F905F904F903F902F908E
:102A900008958F929F92AF92CF92EF92FF920F93F1
:102AA0001F93CF93DF93EC01262F898D9A8D00978A
:102AB00009F042C06A3059F41D861C862D898E8526
:102AC0009F8538E0239F800D911D112443C06D30F8
:102AD00009F4AAC08F898823C9F03C898C859D851B
:102AE00046E0349F800D911D112448855985481773
:102AF000590764F41D861C863D898E859F8548E0B4
:102B0000349F800D911D11249F878E87EA88FB8852
:102B1000088919894E855F856C857D85AD88CC884F
:102B2000CE010E9414132C898C859D8536E0239F4D
:102B3000800D911D11243EC06A3079F41D861C86DB
:102B40002D89FC013896E4918E859F852E9F800DFE
:102B5000911D11249F878E8767C06D3009F464C072
:102B6000FC0134963491631708F45EC03296E49108
:102B7000E61708F459C0462F431B342FFC01329648
:102B80008590949047E0349F800C911C1124F401AF
:102B9000329634913196E491332311F0E1110DC056
:102BA000F4013496E4912C898C859D85E29F800DFB
:102BB000911D11249D878C8737C0F401359644916F
:102BC0005F89552319F15C89E32FF0E0E40FF11DD3
:102BD00047FDFA955E9FB0015F9F700D11244C85F3
:102BE0005D85460F571F688579856417750774F4EE
:102BF0001D861C863D89FC013896E4918E859F8553
:102C00003E9F800D911D11249F878E87EA88FB8847
:102C1000088919894E855F856C857D85AD88CC884E
:102C2000CE010E941413BCCF81E090E0DF91CF91E0
:102C30001F910F91FF90EF90CF90AF909F908F904A
:102C40000895611101C061E0FC01648B411101C074
:102C500041E0FC01458B0895462F0C9421160F93FB
:102C6000FC0180E092E1AAE7B0E030E048175907A4
:102C70006A077B0740F4B695A795979587953F5FC0
:102C80003630A1F737E091E09327222311F020E5B9
:102C900001C020E70C70892F8695082B022B00833A
:102CA000917091830F9108958091C603882361F0FC
:102CB0009FB7F8942091C6038091C403213019F482
:102CC0008DBB9FBF08958FBF0895DC015B96ED918A
:102CD000FC915C979081D1968C91892B808308958B
:102CE000CF93DF93EC018FA987FD03C0CE010E9433
:102CF00065168DA9811104C0DF91CF910C945416F3
:102D0000DF91CF910895DC015B96ED91FC915C978A
:102D10009081D2968C91892380830895DC015D9601
:102D2000ED91FC915E979081D3968C91892B808355
:102D30000895DC015D96ED91FC915E979081D496AB
:102D40008C91892380830895AF92BF92CF92EF92A6
:102D50000F931F93CF93DF93EC0159010E94F2125E
:102D600086E891E0998388831DAACEAA0FABE8AECE
:102D70001AAE19AE1CAE1BAE1DAE1EAEFE01FF9606
:102D80001082118212821382B8A2AF8E8E2DEE0CA9
:102D9000990BFC01E057FF4FE491F0E0EE0FFF1FAD
:102DA000EC55FF4F259134913E8F2D8FFC01E45857
:102DB000FF4F84918BAB07FD16C0002E000C110B4A
:102DC000F801E057FF4FE491F0E0EE0FFF1FEC55E4
:102DD000FF4F259134913C8F2B8FF801E458FF4F22
:102DE000049109AB03C03C8F2B8F19AA99A9909528
:102DF0009AAB80958CABDF91CF911F910F91EF90A3
:102E0000CF90BF90AF900895CF92EF920F93CE2CBA
:102E1000E02E022F28EC33E00E94A4160F91EF90D1
:102E2000CF9008958F929F92AF92BF92DF92EF92D0
:102E3000FF920F931F93CF93DF9300D0CDB7DEB7F0
:102E40007C014A015B01122F452B462B472B31F4A5
:102E5000812C92E1992E9AE7A92EB12CF70187A92E
:102E600087FD08C061E00E94470A61E0F70187A979
:102E70000E94830A61E0F70180AD0E94470A61E089
:102E8000F70180AD0E94830AF70185A9811118C05E
:102E9000012F21E0B501A401CE0101960E942F1659
:102EA00089819A81F70192A381A3012F10E020E08C
:102EB00030E003A314A325A336A30E943B1E55C0F4
:102EC0008130E1F461E0F70182A50E94470A60E0E9
:102ED000F70182A50E94830A61E0F70184A50E94A0
:102EE000470A60E0F70184A50E94830AF70183A5E1
:102EF00087FD3BC060E00E94470A37C000E910E050
:102F0000D12CF8018491E82FF0E0EE0FFF1FEC5573
:102F1000FF4F85919491F701278D30A1281739072C
:102F200041F461E08D2D0E94470A60E08D2D0E94E2
:102F3000830AD3940F5F1F4FF4E1DF12E2CF61E009
:102F4000F70186A50E94470A61E0F70186A50E9465
:102F5000830AF70187A587FD08C061E00E94470A40
:102F600061E0F70187A50E94830AF70186A987FD22
:102F70002DC061E00E94470A61E0F70186A90E9426
:102F8000830AFFEF21EE84E0F15020408040E1F71A
:102F900000C0000060E0F70186A90E94830AFFEFED
:102FA00021EE84E0F15020408040E1F700C00000B5
:102FB00061E0F70186A90E94830AFFEF23EC89E014
:102FC000F15020408040E1F700C000000F900F90CA
:102FD000DF91CF911F910F91FF90EF90DF90BF9005
:102FE000AF909F908F900895FC0185A981111BC01F
:102FF00041A132A18091C603882399F02FB7F8949C
:103000008091C603813059F48DB38093C4039DB37E
:103010008091C503809589238DBB2FBF02C020936B
:10302000C4034CBD3DBD0895CF93DF93EC010E94D6
:10303000F4178FA987FD05C0CE01DF91CF910C94C5
:103040008316DF91CF910895DC019196ED91FC916B
:103050009297908195968C91892B80830895DC01BD
:103060009196ED91FC919297908196968C918923FF
:1030700080830895DC019396ED91FC919497908163
:1030800097968C91892B80830895DC019396ED911E
:10309000FC919497908198968C91892380830895D0
:1030A000FC01A5A1B6A19C9182A589238C93A5A121
:1030B000B6A19C9181A5892B8C9308950F931F93A2
:1030C000CF93DF93EC01162F8DA9811105C06EBD42
:1030D0000DB407FEFDCF1FC0813099F408E0CE018A
:1030E00017FF03C00E94241802C00E942F18CE01AF
:1030F0000E943A18110FCE010E944518015079F72D
:103100000AC0EF8DF8A16083CE01DF91CF911F91AE
:103110000F910C945018DF91CF911F910F9108954A
:103120001F93CF93DF93EC01162F0E949916612F06
:10313000CE010E945E18CE01DF91CF911F910C94B9
:103140008E161F93CF93DF93EC01162FE881F98140
:103150000284F385E02D0995112311F06DAD01C0B6
:103160006EADCE010E949018E881F9810688F7893A
:10317000E02DCE01DF91CF911F910994FF920F9323
:103180001F93CF93DF93EC018B018DA9811109C0AF
:103190001EBD0DB407FEFDCF0EBD0DB407FEFDCF65
:1031A00029C08130B1F490E1F92ECE0117FF03C0A0
:1031B0000E94241802C00E942F18CE010E943A18C3
:1031C000CE010E944518000F111FFA94F110EDCFA7
:1031D00011C0EF8DF8A11083CE010E945018EF8D21
:1031E000F8A10083CE01DF91CF911F910F91FF9045
:1031F0000C945018DF91CF911F910F91FF9008957B
:10320000CF92DF92EF92FF920F931F93CF93DF93B2
:10321000EC01F62E8A01C22E0E94F4178FA987FDB9
:1032200003C0CE010E948316CE010E9499166F2D15
:10323000CE010E945E18CE010E948E16E12CF12C68
:10324000D12CEC14FD04BCF48DA9F801823051F4AA
:1032500088A9882339F0619171918F01CE010E9474
:10326000BE1805C061918F01CE010E945E18FFEF6C
:10327000EF1AFF0AE6CF8FA987FD03C0CE010E9497
:1032800065168DA981110AC0DF91CF911F910F9111
:10329000FF90EF90DF90CF900C945416DF91CF9178
:1032A0001F910F91FF90EF90DF90CF900895AF9214
:1032B000BF92CF92DF92EF92FF920F931F93CF9323
:1032C000DF93EC01F62E8A01A22E0E94F4178FA93B
:1032D00087FD03C0CE010E948316CE010E9499167D
:1032E0006F2DCE010E945E18CE010E948E16C12C59
:1032F000D12CB12CCA14DB04E4F48DA978018230FE
:1033000059F488A9882341F0F801619171917F01F6
:10331000CE010E94BE1808C0FFEFEF1AFF0AF801A5
:103320006491CE010E945E18FFEFCF1ADF0A870179
:10333000E1CF8FA987FD03C0CE010E9465168DA93C
:1033400081110CC0DF91CF911F910F91FF90EF90F1
:10335000DF90CF90BF90AF900C945416DF91CF9137
:103360001F910F91FF90EF90DF90CF90BF90AF90A3
:103370000895AF92BF92CF92DF92EF92FF920F9398
:103380001F93CF93DF93EC0177FD38C08885998533
:10339000681779079CF557FD31C08A859B854817CA
:1033A000590764F569017A015B01E881F9810284BA
:1033B000F385E02DCE010995E881F98102A4F3A5FA
:1033C000E02D01E010E021E030E0A701B501CE01E1
:1033D0000995B601CE010E94BE18E881F9810688E0
:1033E000F789E02DCE01DF91CF911F910F91FF90D2
:1033F000EF90DF90CF90BF90AF900994DF91CF9185
:103400001F910F91FF90EF90DF90CF90BF90AF9002
:103410000895EF92FF920F931F93CF93DF93EC01E8
:1034200077FD22C08885998568177907ECF457FDE8
:103430001BC08A859B8548175907B4F47901E88138
:10344000F98102A4F3A5E02D01E010E021E030E0D5
:10345000CE010995B701CE01DF91CF911F910F9158
:10346000FF90EF900C94BE18DF91CF911F910F91B8
:10347000FF90EF900895AF92BF92CF92DF92EF92BC
:10348000FF920F931F93CF93DF93EC018B012115D4
:1034900031054105510509F474C08DA981110FC092
:1034A000215031094109510908F46BC01EBD0DB40A
:1034B00007FEFDCF0EBD0DB407FEFDCFF1CF81306D
:1034C00099F569017A01A12E28E0B22ECE01A7FE5E
:1034D00003C00E94241802C00E942F18CE010E942F
:1034E0003A18CE010E944518AA0CBA94B110EECF3A
:1034F000A02E98E0B92ECE01A7FE03C00E9424188A
:1035000002C00E942F18CE010E943A18CE010E94DC
:103510004518AA0CBA94B110EECF81E0C81AD108B0
:10352000E108F10881F62DC0161317C0EF8DF8A140
:10353000108369017A01CC0CDD1CEE1CFF1CC11448
:10354000D104E104F104E9F0CE010E94501881E0B9
:10355000C81AD108E108F108F2CF69017A01EF8DAC
:10356000F8A11083CE010E945018EF8DF8A10083BE
:10357000CE010E94501881E0C81AD108E108F10874
:1035800071F7DF91CF911F910F91FF90EF90DF9036
:10359000CF90BF90AF900895AF92BF92CF92DF923D
:1035A000EF92FF920F931F93CF93DF93EC0159019A
:1035B000E881F98102A4F3A5E02D09959501D801D0
:1035C0000E945D1F9B01AC01B701CE01DF91CF913D
:1035D0001F910F91FF90EF90DF90CF90BF90AF9031
:1035E0000C943B1AEF92FF920F931F93CF93DF93AC
:1035F00077FD34C0DC011896ED91FC9119976E1798
:103600007F0764F52115310549F137FF07C0F9013E
:1036100031964E0F5F1F319521953109DC011A96C5
:10362000ED91FC911B974E175F07C4F4EA01C20F9E
:10363000D31FDE011197B7FD11C057FF03C09E01D4
:1036400040E050E0AE17BF071CF09F01241B350B74
:103650007801890121E030E00E94CC1ADF91CF91FE
:103660001F910F91FF90EF900895EF92FF920F93AB
:103670001F93CF93DF9357FD33C0DC011A96ED9172
:10368000FC911B974E175F075CF52115310541F141
:1036900037FF07C0F90131966E0F7F1F31952195D5
:1036A0003109DC011896ED91FC9119976E177F078F
:1036B000BCF4EB01C20FD31FDE011197B7FD10C0A0
:1036C00077FF03C09E0160E070E0AE17BF071CF0FB
:1036D0009F01261B370B780101E010E00E94CC1AF5
:1036E000DF91CF911F910F91FF90EF9008958F92EE
:1036F0009F92AF92BF92CF92DF92EF92FF920F9381
:103700001F93CF93DF935C014B016A01E90177FDC1
:1037100053C0DC0118968D919C9119976817790711
:103720000CF04AC0209709F447C037FF07C0C90111
:103730000196C80ED91ED195C195D109F501828592
:103740009385C816D906C4F5A6014C0F5D1F9A01D2
:103750002150310937FD30C0D7FE03C0EA01C12C2A
:10376000D12C281739071CF0EC01CC19DD09D50143
:10377000ED91FC910284F385E02DC5010995780156
:103780008E0121E030E0A601B401C5010E94CC1AEF
:10379000D501ED91FC910688F789E02DC501DF91F7
:1037A000CF911F910F91FF90EF90DF90CF90BF903E
:1037B000AF909F908F900994DF91CF911F910F91BF
:1037C000FF90EF90DF90CF90BF90AF909F908F9041
:1037D00008958F929F92AF92BF92CF92DF92EF9215
:1037E000FF920F931F93CF93DF935C016B014A010C
:1037F000E90157FD53C0DC011A968D919C911B97EE
:10380000481759070CF04AC0209709F447C037FF02
:1038100007C0C9010196C80ED91ED195C195D1091D
:10382000F50180859185C816D906C4F5A6014C0F0F
:103830005D1F9A012150310937FD30C0D7FE03C00A
:10384000EA01C12CD12C281739071CF0EC01CC1946
:10385000DD09D501ED91FC910284F385E02DC501D0
:103860000995780101E010E09E01A401B601C501AF
:103870000E94CC1AD501ED91FC910688F789E02DC4
:10388000C501DF91CF911F910F91FF90EF90DF90D5
:10389000CF90BF90AF909F908F900994DF91CF9180
:1038A0001F910F91FF90EF90DF90CF90BF90AF905E
:1038B0009F908F9008958F929F92AF92BF92CF92D8
:1038C000DF92EF92FF920F931F93CF93DF934C0100
:1038D0006B015A01E901209709F46CC0011511052B
:1038E00009F468C037FF07C0C9010196C80ED91E88
:1038F000D195C195D109F401A085B185CA16DB0621
:103900000CF058C017FF07C0C8010196A80EB91ED9
:10391000119501951109F40182859385A816B906C0
:103920000CF048C0F601EC0FFD1FAF0141505109EA
:1039300057FD40C0B501600F711F9B012150310937
:1039400037FD38C0D7FE03C0EF01C12CD12CB7FE24
:1039500003C08B01A12CB12C4A175B071CF0ED01B1
:10396000CC19DD09281739071CF08C010A191B092D
:10397000D401ED91FC910284F385E02DC4010995F9
:103980009E01A501B601C4010E94CC1AD401ED919B
:10399000FC910688F789E02DC401DF91CF911F913A
:1039A0000F91FF90EF90DF90CF90BF90AF909F90DE
:1039B0008F900994DF91CF911F910F91FF90EF901D
:1039C000DF90CF90BF90AF909F908F9008958F928F
:1039D0009F92AF92BF92CF92DF92EF92FF920F939E
:1039E0001F93CF93DF9347012115310509F44DC093
:1039F0000115110509F449C037FF07C0F9013196D7
:103A00006E0F7F1F319521953109DC011896AD901D
:103A1000BC9019976A157B05C4F517FF07C0F8011C
:103A200031964E0F5F1F119501951109DC011A9611
:103A3000ED91FC911B974E175F073CF56B01C20E91
:103A4000D31EE6012197D7FD20C07A01E00EF11EBA
:103A5000D7011197B7FD19C077FF03C0960160E049
:103A600070E057FF03C0870140E050E0CA15DB0556
:103A70001CF09501261B370BAE17BF071CF08F01FA
:103A8000041B150B74010E94CC1ADF91CF911F917A
:103A90000F91FF90EF90DF90CF90BF90AF909F90ED
:103AA0008F900895611102C060E201C061E220E0E0
:103AB00040E050E00C945719EF92FF920F931F9340
:103AC000CF93DF938C01411551056105710521F4F8
:103AD00040E052E16AE770E020E0C8010E9412175E
:103AE000F80186A987FF10C020E040E050E061E0C7
:103AF000C8010E945719FFEF22E587E0F1502040EE
:103B00008040E1F700C00000E8EBF5E0CF0101964E
:103B100064916623D9F0EF012296FC01F490FF2D09
:103B2000FF77EF2E2F2FAE01C8010E945719FE011B
:103B3000EE0DF11DF7FEEACF2FEF82E597E0215061
:103B400080409040E1F700C00000E0CF80EF90E0BF
:103B5000F8019187808780E491E093878287DF91E5
:103B6000CF911F910F91FF90EF900895CF93DF9326
:103B70001F92CDB7DEB7FC016370668B623041F0F7
:103B8000633079F0613011F088E403C088E20AC044
:103B900088E8898380EF90E09187808780E491E0D6
:103BA00008C088EE898380E491E09187808780EF68
:103BB00090E09387828721E0AE014F5F5F4F66E31D
:103BC000CF010E9400190F90DF91CF910895AF921D
:103BD000BF92CF92DF92EF92FF920F931F93CF93FA
:103BE000DF93EC015B016A01215031097901E60E96
:103BF000F71E01501109040F151F6AE20E94901868
:103C0000B501CE010E94BE18B701CE010E94BE18B8
:103C10006BE2CE010E949018B601CE010E94BE1840
:103C2000B801CE010E94BE186CE2CE01DF91CF91A7
:103C30001F910F91FF90EF90DF90CF90BF90AF90CA
:103C40000C949018EF920F93CF93DF93EC01E22E38
:103C5000042F262F40E451E060EF70E00E9404172B
:103C600086EB91E099838883DF91CF910F91EF905C
:103C700008950E940423CF93CFB7F8948091C7038F
:103C8000811127C0EAE9F0E08491E6E8F0E0949140
:103C9000E82FF0E0EE0FFF1FE255FF4FA591B49122
:103CA000EC91E92321F461E08AE00E94830A61E05B
:103CB0008AE00E94470A8CB580618CBD8CB5806417
:103CC0008CBD61E08DE00E94470A61E08BE00E94BC
:103CD000470A8091C7038F5F8093C703CFBFCF91FF
:103CE0000895DC01ED91FC910190F081E02D0994A3
:103CF0000F931F93CF93C62F142F8AEF92E00E9449
:103D0000180C612F8AEF92E00E94C70B8AEF92E0B5
:103D10000E949C0C46E06C2F8AEF92E00E94990C66
:103D200009ED13E0C0E08AEF92E00E94380B892B86
:103D300059F0C63049F0CF5F8AEF92E00E94400B05
:103D4000F80181938F01EFCF8C2FCF911F910F91AD
:103D500008950F931F93CF93DF93EC0140E00E94EF
:103D6000781EE9EDF3E090819883918199834581F4
:103D7000228194E0299FB0011124942F9C70292F57
:103D800030E03595279535952795262B372B3B83A6
:103D90002A83238194E0299FB0011124942F9073EA
:103DA000292F30E054E0359527955A95E1F7262BD9
:103DB000372B3D832C83248194E0299F900111248B
:103DC000942F9295969596959370292B3F832E83E9
:103DD000942F90959170988741FB002700F910E08F
:103DE00091E009270987DF91CF911F910F910895E5
:103DF0004AEF0E94781EE9EDF3E0A3EDB3E0819174
:103E00008D9383E0EF3DF807D1F708950F931F934B
:103E1000CF938C01C62F8AEF92E00E94180C60EFBE
:103E200070E08AEF92E00E94711E65E570E08AEF13
:103E300092E00E94711E8AEF92E00E949C0C6C2F0F
:103E40008AEF92E00E94180C6BEF70E08AEF92E02C
:103E50000E94711E60E070E08AEF92E00E94711E85
:103E60008AEF92E00E949C0C6C2FC801CF911F91A9
:103E70000F910C94F81EA1E21A2EAA1BBB1BFD0188
:103E80000DC0AA1FBB1FEE1FFF1FA217B307E40739
:103E9000F50720F0A21BB30BE40BF50B661F771F91
:103EA000881F991F1A9469F7609570958095909571
:103EB0009B01AC01BD01CF0108950E94651F332312
:103EC00012F48A1B9B0B0C94761FA29FB001B39F28
:103ED000C001A39F700D811D1124911DB29F700D13
:103EE000811D1124911D08950E94651FB7FF08953B
:103EF000821B930B0895EE0FFF1F0590F491E02DA8
:103F000009945058BB27AA270E94991F0C94E320BC
:103F10000E94D52038F00E94DC2020F039F49F3F29
:103F200019F426F40C94D2200EF4E095E7FB0C94DF
:103F3000CC20E92F0E94F42058F3BA1762077307C8
:103F40008407950720F079F4A6F50C9416210EF459
:103F5000E0950B2EBA2FA02D0B01B90190010C0199
:103F6000CA01A0011124FF27591B99F0593F50F4B1
:103F7000503E68F11A16F040A22F232F342F442709
:103F8000585FF3CF469537952795A795F040539501
:103F9000C9F77EF41F16BA0B620B730B840BBAF0D1
:103FA0009150A1F0FF0FBB1F661F771F881FC2F73C
:103FB0000EC0BA0F621F731F841F48F48795779550
:103FC0006795B795F7959E3F08F0B0CF9395880F0A
:103FD00008F09927EE0F9795879508950E94022083
:103FE0000C94E3200E94DC2058F00E94D52040F081
:103FF00029F45F3F29F00C94CC2051110C94172127
:104000000C94D2200E94F42068F39923B1F3552335
:1040100091F3951B550BBB27AA27621773078407DB
:1040200038F09F5F5F4F220F331F441FAA1FA9F371
:1040300035D00E2E3AF0E0E832D091505040E6955F
:10404000001CCAF72BD0FE2F29D0660F771F881FC0
:10405000BB1F261737074807AB07B0E809F0BB0BB3
:10406000802DBF01FF2793585F4F3AF09E3F5105C7
:1040700078F00C94CC200C9417215F3FE4F3983E29
:10408000D4F3869577956795B795F7959F5FC9F7B0
:10409000880F911D9695879597F90895E1E0660F31
:1040A000771F881FBB1F621773078407BA0720F0AA
:1040B000621B730B840BBA0BEE1F88F7E095089513
:1040C0000E94FC2088F09F5798F0B92F9927B7518C
:1040D000B0F0E1F0660F771F881F991F1AF0BA95AC
:1040E000C9F714C0B13091F00E941621B1E00895D3
:1040F0000C941621672F782F8827B85F39F0B93FC5
:10410000CCF3869577956795B395D9F73EF490955E
:104110008095709561957F4F8F4F9F4F0895E894DC
:1041200009C097FB3EF490958095709561957F4FFF
:104130008F4F9F4F9923A9F0F92F96E9BB279395AD
:10414000F695879577956795B795F111F8CFFAF4BD
:10415000BB0F11F460FF1BC06F5F7F4F8F4F9F4FEE
:1041600016C0882311F096E911C0772321F09EE84C
:10417000872F762F05C0662371F096E8862F70E0B2
:1041800060E02AF09A95660F771F881FDAF7880F8C
:104190009695879597F9089597F99F6780E870E05D
:1041A00060E008959FEF80EC089500240A941616AD
:1041B000170618060906089500240A941216130615
:1041C000140605060895092E0394000C11F48823A3
:1041D00052F0BB0F40F4BF2B11F460FF04C06F5FBF
:1041E0007F4F8F4F9F4F089557FD9058440F551F95
:1041F00059F05F3F71F04795880F97FB991F61F069
:104200009F3F79F087950895121613061406551FDF
:10421000F2CF4695F1DF08C0161617061806991F4B
:10422000F1CF86957105610508940895E894BB2740
:1042300066277727CB0197F908950F931F93CF93A4
:10424000DF938230910510F482E090E0E091E10389
:10425000F091E20320E030E0A0E0B0E0309719F107
:10426000408151810281138148175907C8F0841792
:10427000950769F4109731F012960C9312971396E4
:104280001C9327C00093E1031093E20322C0211581
:10429000310519F04217530718F49A01BD01EF01D7
:1042A000DF01F801DBCF21153105F9F0281B390BAF
:1042B0002430310580F48A819B816115710521F0DC
:1042C000FB019383828304C09093E2038093E10314
:1042D000FE01329644C0FE01E20FF31F81939193D9
:1042E00022503109398328833AC02091DF0330916D
:1042F000E003232B41F42091070130910801309312
:10430000E0032093DF032091050130910601211580
:10431000310541F42DB73EB74091090150910A0192
:10432000241B350BE091DF03F091E003E217F30764
:10433000A0F42E1B3F0B2817390778F0AC014E5F15
:104340005F4F2417350748F04E0F5F1F5093E0036F
:104350004093DF038193919302C0E0E0F0E0CF014E
:10436000DF91CF911F910F910895CF93DF93009725
:1043700009F481C0FC01329713821282A091E103FB
:10438000B091E203109781F420813181820F931F55
:104390002091DF033091E0032817390751F5F0939E
:1043A000E003E093DF0367C0ED0120E030E0CE17CB
:1043B000DF0740F44A815B819E0141155105F1F010
:1043C000EA01F5CFD383C28340815181840F951FC9
:1043D000C817D90759F488819981840F951F0296CF
:1043E000918380838A819B81938382832115310508
:1043F00029F4F093E203E093E1033DC0E901FB837C
:10440000EA8349915991C40FD51FEC17FD0761F458
:1044100080819181840F951F0296E9019983888399
:10442000828193819B838A83E0E0F0E012968D91F4
:104430009C911397009719F0FD01DC01F7CF8D9146
:104440009C9111979D012E5F3F4F820F931F2091EA
:10445000DF033091E0032817390769F4309729F416
:104460001092E2031092E10302C013821282B09311
:10447000E003A093DF03DF91CF910895A0E0B0E0C7
:10448000E4E4F2E20C941D23EC01009721F4CB014B
:104490000E941D21B4C0FC01E60FF71F9C012250B1
:1044A0003109E217F30708F4A8C0D9010D911C9156
:1044B000119706171707B0F00530110508F49BC0D7
:1044C000C80104978617970708F495C00250110990
:1044D000061B170B019311936D937C93CF010E94E0
:1044E000B52189C05B01A01AB10A4C01800E911E52
:1044F000A091E103B091E203612C712CE12CF12C2D
:10450000109709F446C08D919C911197A815B90593
:10451000B1F56C0142E0C40ED11CCA14DB0478F181
:104520004C018A189B08640142E0C40ED11C12960B
:10453000BC9012971396AC91B5E0CB16D10440F025
:10454000B282A38391828082D9016D937C9309C04A
:104550000E5F1F4F800F911FF90191838083EB2D18
:10456000FA2FE114F10431F0D7011396FC93EE9386
:10457000129741C0F093E203E093E1033CC0681658
:10458000790608F43C017D0112960D90BC91A02D96
:10459000B7CF8091DF039091E00388169906E1F48C
:1045A00066167706C8F48091050190910601009780
:1045B00041F48DB79EB74091090150910A01841BC7
:1045C000950BE817F907C8F4F093E003E093DF03D5
:1045D000F901718360830FC0CB010E941D217C0112
:1045E000009759F0A801BE010E940923CE010E9444
:1045F000B521C70104C0CE0102C080E090E0CDB774
:10460000DEB7EEE00C94392381E090E0F8940C944E
:104610005723FB01DC0102C001900D924150504034
:10462000D8F70895FB01DC0101900D920020E1F71D
:1046300008952F923F924F925F926F927F928F9246
:104640009F92AF92BF92CF92DF92EF92FF920F9321
:104650001F93CF93DF93CDB7DEB7CA1BDB0B0FB62B
:10466000F894DEBF0FBECDBF09942A8839884888E8
:104670005F846E847D848C849B84AA84B984C8847E
:10468000DF80EE80FD800C811B81AA81B981CE0F75
:10469000D11D0FB6F894DEBF0FBECDBFED0108955A
:1046A0000E9460206894B1110C9417210895F89429
:0246B000FFCF3A
:1046B2007800A000010000E3032000EF7B34A5692D
:1046C2004A80FFD0FFE0EE23B76DCF0296484F4CF1
:1046D20044004E4558540053636F72653A003536B4
:1046E20030000000000097086B096608E4083808EB
:1046F2005208440800000000C70B9A0B4203630BE8
:10470200380B400B540B0000000049156B094203A3
:104712004103391E3B110C112B1113111F115A1099
:104722003B11DD12DC123C117511AE11F3111012A6
:104732007D120000000049156B0942034103B919BB
:104742001418091AE71CF21A351B5A107016DD12DA
:10475200A118771BE91B5B1CF31110127D12391E85
:10476200391E0000000049156B0942034103B919C3
:104772001418091AE71CF21A351B5A107016B61DC6
:10478200521D771BE91B5B1CF31110127D125C1D7D
:02479200E71D21
:00000001FF
